:100000000C9463000C948B000C948B000C948B006C
:100010000C948B000C948B000C948B000C948B0034
:100020000C948B000C948B000C948B000C94670B3D
:100030000C948B000C948B000C948B000C948B0014
:100040000C94C1100C948B000C947A090C945409F4
:100050000C948B000C948B000C948B000C948B00F4
:100060000C94AC090C948B000000000023002600C7
:10007000290004040404040404040202020202022B
:10008000030303030303010204081020408001025C
:1000900004081020010204081020000000080002DB
:1000A0000100000304070000000000000000000041
:1000B0000000240027002A0000000000250028007E
:1000C0002B006617601711241FBECFEFD8E0DEBFEC
:1000D000CDBF11E0A0E0B1E0EAECFAE302C0059088
:1000E0000D92AE36B107D9F727E0AEE6B1E001C018
:1000F0001D92A933B207E1F710E0C2E6D0E004C0D8
:100100002197FE010E943E1AC136D107C9F70E940D
:100110000B110C94581D0C940000CF93DF9362E0F8
:10012000809101070E9434102091010730E0F9010D
:10013000E656FF4F8491F901EA57FF4FD491F90138
:10014000EE58FF4FC491CC2379F081110E94DC0F4F
:10015000EC2FF0E0EE0FFF1FE859FF4FA591B4918F
:10016000EC91ED2381E009F480E08170DF91CF9183
:100170000895CF93DF931F92CDB7DEB76983909137
:100180000C0721E020935B0590935A0510925905C6
:1001900010925805682F8DEA96E00E94F808813089
:1001A00079F441E050E0BE016F5F7F4F8DEA96E049
:1001B0000E94CB0861E08DEA96E00E94DA0A01C055
:1001C0008FEF0F90DF91CF91089580910D078130CF
:1001D00029F461E082E090E00E94B9008091060776
:1001E000909107079827892798270895EF92FF9203
:1001F0000F931F93CF93DF93F62ED72FC42F909199
:100200000C0721E020935B0590935A051092590545
:1002100010925805682F8DEA96E00E94F808813008
:1002200019F560E08DEA96E00E94DA0A811130C08B
:100230006C2FC13208F060E241E080910C070E940F
:100240003B0E1092C8058093C7050F2D1D2FE12C82
:10025000F12CD0E09091C7058091C805981731F036
:10026000EC16FD0654F002C08FEF12C081E0CE15EF
:10027000DF0509F480E081950BC08FEFE81AF80ADA
:100280008DEA96E00E94AF08F80181938F01E2CFDA
:10029000DF91CF911F910F91FF90EF9008951F93E1
:1002A000CF93DF93182FC1E0D7E061E089810E94EE
:1002B0003410612F8981DF91CF911F910C9405102B
:1002C0002F923F924F925F926F927F928F929F9266
:1002D000AF92BF92CF92DF92EF92FF920F931F9354
:1002E000CF93DF93CDB7DEB7A2970FB6F894DEBFFA
:1002F0000FBECDBF0E948D00811190C26AE070E0F8
:1003000080E090E00E947B100E948D00811186C2E7
:1003100043E066E077E08AE00E94F60081117EC249
:1003200080910607883409F079C2809107078433E9
:1003300009F074C280910807833309F06FC20E94EC
:10034000B5102B013C014B015C0119820E948D000C
:10035000811126C00E94B510DC01CB0188199909D2
:10036000AA09BB09893C9105A105B10560F0A895D2
:100370000E94B5104B015C01298131E023272983BC
:10038000822F0E944F010E94B510DC01CB0184191D
:100390009509A609B7098D329140A105B105B0F2C2
:1003A00064E670E080E090E00E947B100E94B5104F
:1003B0002B013C010E94B5106D877E878F87988B3B
:1003C0008FEF9FE79C878B87212C80E8382EAFEF3B
:1003D000BFE7B887AF83E0E0F0E8FA87E9872FEF5F
:1003E0003FE73AA329A340E050E85E834D830E9493
:1003F000B510DC01CB0188199909AA09BB09893C10
:100400009105A105B10560F0A8950E94B5104B01BA
:100410005C01598181E058275983852F0E944F0143
:100420000E94B510DC01CB0184199509A609B70912
:100430000B97A105B10508F453C0A8950E9460016F
:1004400046E066E077E083E00E94F60081111EC07E
:1004500080910D07813029F461E082E090E00E94F4
:10046000B900C0900607D0900707DC24CD24DC2417
:1004700000910A0710910B07102701271027E09021
:100480000807F0900907FE24EF24FE24A9A1BAA1D1
:10049000CA16DB0644F0ED81FE81EC15FD052CF457
:1004A000DE82CD8202C0DAA2C9A22F81388502176E
:1004B000130744F049855A85401751072CF41A87D1
:1004C000098702C018870F838B859C85E816F9067B
:1004D0002CF02E143F0424F4170102C0FC86EB8696
:1004E0000E94B510DC01CB012D853E854F855889D2
:1004F000821B930BA40BB50B8D329140A105B10566
:1005000008F4F4C080E00E944F014D815E81BA0181
:10051000550F880B990B0E9465184B015C01A9A12E
:10052000BAA1BD01BB0F880B990B0E9465186983A6
:100530007A838B839C839B01AC01C501B4010E942B
:10054000451A905820E030E040E05FE30E94C41874
:100550006D877E878F87988B60930E0770930F0748
:100560008093100790931107E985FA85BF01FF0F6B
:10057000880B990B0E9465186B017C012F813885CF
:10058000B901330F880B990B0E946518698B7A8B20
:100590008B8B9C8B9B01AC01C701B6010E94451A55
:1005A000905820E030E040E05FE30E94C4186D8B7B
:1005B0007E8B8F8B988F60931207709313078093B5
:1005C000140790931507B101032C000C880B990BAD
:1005D0000E9465182B013C014B855C85BA01550FC3
:1005E000880B990B0E946518698F7A8F8B8F9C8F6F
:1005F0009B01AC01C301B2010E94451A905820E052
:1006000030E040E05FE30E94C4186D8F7E8F8F8FD3
:1006100098A3609316077093170780931807909319
:10062000190780E090E0A0E8BFE380931A07909359
:100630001B07A0931C07B0931D0729813A814B81AA
:100640005C81C501B4010E94441A4B015C012989F7
:100650003A894B895C89C701B6010E94441AA501F9
:1006600094010E94B11A6B017C0160931E07709384
:100670001F078093200790932107298D3A8D4B8D7A
:100680005C8DC301B2010E94441AA50194010E942D
:10069000B11A4B015C01609322077093230780938A
:1006A0002407909325078D819E81A9A1BAA18A1B59
:1006B0009B0B97FF03C091958195910929853A85F8
:1006C000EF81F8852E1B3F0B37FF03C03195219535
:1006D00031094B855C85241A350A37FE03C03194F5
:1006E000219431082817390734F40DC00E948D0079
:1006F00081117DCE07CF2816390614F081E009C09C
:10070000821793072CF02216330614F082E001C002
:1007100083E0809326072D893E894F89588D6D850A
:100720007E858F8598890E94451A2D8D3E8D4F8D2F
:1007300058A10E94451A20E030E040E85FE30E94A3
:10074000451AA70196010E94451AA50194010E942D
:10075000451A6B017C016091260770E080E090E013
:100760000E9465189B01AC01C701B6010E94451AA1
:1007700020E030E04AE253E40E94451A0E94231B25
:10078000609327070EE017E01A821982D8016D9155
:100790008D0189819A810E948A19E981FA813196B5
:1007A000FA83E9837A9791F781E0809305070E94A5
:1007B0004F010E94B5106B017C010E948D008823BF
:1007C000F9F0A89564E670E080E090E0A2960FB69C
:1007D000F894DEBF0FBECDBFDF91CF911F910F9177
:1007E000FF90EF90DF90CF90BF90AF909F908F9051
:1007F0007F906F905F904F903F902F900C947B1064
:10080000A8950E94B510DC01CB018C199D09AE0999
:10081000BF090B97A105B10580F2D3CFA2960FB601
:10082000F894DEBF0FBECDBFDF91CF911F910F9126
:10083000FF90EF90DF90CF90BF90AF909F908F9000
:100840007F906F905F904F903F902F9008950F93FF
:100850001F930E94B5106093180670931906809339
:100860001A0690931B0680E196E00E94980797FF76
:100870001FC00E94B5100091180610911906209112
:100880001A0630911B06DC01CB01801B910BA20BD9
:10089000B30B0091140610911506209116063091A5
:1008A000170680179107A207B307E8F28FEF9FEFB3
:1008B0001F910F9108958FB7F89480915C058FBFB9
:1008C0000895AF92BF92CF92DF92EF92FF920F9373
:1008D0001F93CF93DF93EC0188819981892B31F0AD
:1008E0006EBD0DB407FEFDCFAEB496C08885998568
:1008F000892B11F010E801C011E0BB24B394862FBE
:10090000812309F0B12C062F2C813D814E815F811E
:1009100060E271EA87E090E00E94011AF22EA02EB8
:10092000E12CC22ED12CFF2019F0C6010E947010BC
:100930008A85877FB9F58D858F3FB9F0902F9123F8
:1009400081E009F480E0B81681F0EF85F8898F899D
:10095000992331F09081892B8083BB24B39405C007
:100960009081809589238083B12CE989FA899081CF
:10097000898D892B8083FF2019F0C6010E94701099
:100980008E858F3F39F0EB89FC899081888D892392
:1009900009F0E12AE989FA899081898D8095892376
:1009A00080832CC0E989FA899081898D892B808385
:1009B000FF2019F0C6010E9470108D858F3F69F0ED
:1009C000EF85F8898F89902F912319F09081892BD9
:1009D00003C09081809589238083E989FA89908179
:1009E000898D8095892380838E858F3F39F0EB89AF
:1009F000FC899081888D892309F0E12A8E858F3FBB
:100A000009F0AE2C88859985892B21F4110F1111DD
:100A10008ACF02C01695FBCF8A2DDF91CF911F910F
:100A20000F91FF90EF90DF90CF90BF90AF9008951F
:100A30008CBD9DBD08958F929F92AF92BF92CF9231
:100A4000DF92EF92FF920F931F93CF93DF93EC010E
:100A50005B016A01490188819981892B31F0EA8122
:100A6000FB81808191810E94180560E08B850E9446
:100A700005107401080D191DE016F10639F0F70193
:100A800061917F01CE010E946104F6CF8501CA0CFD
:100A9000DB1CC016D10639F0F80161918F01CE013F
:100AA0000E946104F6CF61E08B850E94051081E011
:100AB000DF91CF911F910F91FF90EF90DF90CF903A
:100AC000BF90AF909F908F9008958F929F92BF920A
:100AD000CF92DF92EF92FF920F931F93CF93DF930A
:100AE000DA01AE0DBF1DEC01EC81FD81EA17FB07B9
:100AF000C8F1B22E6A014B01EC01888191E090931C
:100B00005B0580935A051092590510925805E1141F
:100B1000F10479F489819A81DC01ED91FC910280E4
:100B2000F381E02DA601B4010995C816D906D1F4C8
:100B300012C00115110571F389819A81DC01ED91D3
:100B4000FC910280F381E02DA701B8010995E81618
:100B5000F90641F4DFCF6B2D89819A810E94DA0A70
:100B600091E0811190E0892FDF91CF911F910F913A
:100B7000FF90EF90DF90CF90BF909F908F9008955F
:100B80006F927F928F929F92AF92BF92CF92DF929D
:100B9000EF92FF920F931F93CF93DF9300D0CDB7C7
:100BA000DEB76C015B014C018BE0880E911CD60115
:100BB00016969C91169717968C91179799838A830E
:100BC0006D907C90119761147104C9F019964C9145
:100BD00050E0E12CF12C00E010E020E0BE016F5F5E
:100BE0007F4FC3010E946505811102C080E054C09F
:100BF00042E050E0B401C3010E947D0E30C0D60136
:100C00001296ED91FC911397309781F314962D91E4
:100C10003C91159719964C912330310539F4816038
:100C200089839A8350E04F5F5F4F10C021153105D3
:100C300011F4906809C02230310511F49F7704C087
:100C40002130310511F4906C998350E002E010E0FE
:100C50009401BE016F5F7F4FCF010E94440F882334
:100C6000D9F0F601928591110AC0248530E0322F27
:100C70002227D50111963C932E9393850AC0F60145
:100C8000238530E0322F2227D50111963C932E93F5
:100C90009485292B2D933C930F900F90DF91CF914A
:100CA0001F910F91FF90EF90DF90CF90BF90AF908A
:100CB0009F908F907F906F9008950F931F93CF9385
:100CC000DF93CDB7DEB765970FB6F894DEBF0FBEE2
:100CD000CDBF0EED16E0F80180819181188A198A46
:100CE0001A8A1B8A9A8389831C821B8281E08A87E5
:100CF00022E030E038872F838B8782E08987BE012E
:100D00006C5E7F4FCE0101960E94C005F801828380
:100D10008C899D8923E0969587952A95E1F7880F20
:100D2000991F880F991F65960FB6F894DEBF0FBE06
:100D3000CDBFDF91CF911F910F910895EF92FF9258
:100D40000F931F93CF93DF9300D0CDB7DEB7FC0195
:100D50004787508B618B728B8285882311F0448783
:100D600001C04387452F562F672F7727882311F01F
:100D7000438701C04487BF01655F7F4F96814781EC
:100D800099834A83A081B181109761F0E184F12CAD
:100D90008E010F5F1F4F21E042E050E0CD010E9425
:100DA00065052CC0A281B381109739F1248135816A
:100DB00001852330310539F44E7F49839A8310E051
:100DC0000F5F1F4F11C02115310511F49F770AC025
:100DD0002230310511F4906805C02130310519F435
:100DE0009F779064998310E09E012F5F3F4F42E010
:100DF00050E0CD010E941B0501C080E00F900F90D4
:100E0000DF91CF911F910F91FF90EF900895EF9296
:100E1000FF920F931F93CF93DF93CDB7DEB7A897C1
:100E20000FB6F894DEBF0FBECDBF0EED16E0F80191
:100E3000808191811BA21CA21DA21EA29D8B8C8B66
:100E40001F8A1E8AFF24F394FD8E85E090E09B8F1D
:100E50008A8FFE8E82E0E82EEC8E44815581668179
:100E60007781CE0144960E949E06F801808191818F
:100E7000188A198A1A8A1B8A9A8389831C821B8280
:100E8000FA8684E090E098878F83FB86E986BE012E
:100E9000695D7F4FCE0101960E94C005F8018283F3
:100EA0008FA198A5A8960FB6F894DEBF0FBECDBF50
:100EB000DF91CF911F910F91FF90EF900895CF9206
:100EC000DF92EF92FF920F931F93CF93DF936C010A
:100ED0007A018B01C0E0D0E0CE15DF0581F0D801AA
:100EE0006D918D01D601ED91FC910190F081E02D85
:100EF000C6010995892B11F02196EECF7E01C7011D
:100F0000DF91CF911F910F91FF90EF90DF90CF90E5
:100F10000895FC01538D448D252F30E0842F90E0FF
:100F2000821B930B541710F0CF96089501970895E4
:100F3000FC01918D828D981761F0828DDF01A80FE1
:100F4000B11D5D968C91928D9F5F9F73928F90E003
:100F500008958FEF9FEF0895FC01918D828D981772
:100F600031F0828DE80FF11D858D90E008958FEFAF
:100F70009FEF0895FC01918D228D892F90E0805C78
:100F80009F4F821B91098F739927089580E196E006
:100F90000E94BA0721E0892B09F420E0822F0895EE
:100FA000FC01848DDF01A80FB11DA35ABF4F2C9106
:100FB000848D90E001968F739927848FA689B789D5
:100FC0002C93A089B1898C91837080648C93938DCC
:100FD000848D981306C00288F389E02D80818F7D6F
:100FE00080830895EF92FF920F931F93CF93DF9327
:100FF000EC0181E0888F9B8D8C8D981305C0E8896A
:10100000F989808185FD26C0F62E0B8D10E00F5FDB
:101010001F4F0F731127E02E8C8DE8120CC00FB6F6
:1010200007FCFACFE889F989808185FFF5CFCE01E9
:101030000E94D007F1CF8B8DFE01E80FF11DE35A1E
:10104000FF4FF0829FB7F8940B8FEA89FB8980816C
:1010500080620AC09FB7F894EE89FF896083E889AF
:10106000F98980818370806480839FBF81E090E0F4
:10107000DF91CF911F910F91FF90EF900895CF9343
:10108000DF93EC01888D8823C9F0EA89FB89808190
:1010900085FD05C0A889B9898C9186FD0FC00FB662
:1010A00007FCF5CF808185FFF2CFA889B9898C91A3
:1010B00085FFEDCFCE010E94D007E7CFDF91CF9122
:1010C000089580E090E0892B29F00E94C6078111E5
:1010D0000C940000089585ED8093BC008091BC00C5
:1010E00084FDFCCF10920F0608954091A205262F93
:1010F00030E0240F311D21323105DCF420910F0640
:101100002430C9F4FC0180E090E0861758F4309157
:10111000A2052191DC01A058BA4FA30FB11D2C9359
:101120000196F3CF8091A205680F6093A20580E03D
:10113000089581E0089582E008950895089508953E
:10114000E091C8058091C705E81730F4F0E0E75357
:10115000FA4F808190E008958FEF9FEF089590916E
:10116000C8058091C705981750F4E92FF0E0E753C0
:10117000FA4F208130E09F5F9093C80502C02FEFA7
:101180003FEFC90108958091C70590E02091C805FF
:10119000821B91090895CF92DF92EF92FF920F93F5
:1011A0001F93CF93DF937C01CB018A0120915B05D4
:1011B000222389F0EB016B01C40ED51ECC15DD0591
:1011C00069F06991D701ED91FC910190F081E02DDA
:1011D000C7010995F3CF642F0E947508C801DF91FC
:1011E000CF911F910F91FF90EF90DF90CF900895D6
:1011F000CF93DF931F92CDB7DEB7698320915B0554
:101200002223D1F020915805203240F021E030E037
:10121000FC013383228380E090E015C08091590562
:10122000E82FF0E0E05AFA4F998190838F5F809326
:1012300059058093580505C061E0CE0101960E94D2
:10124000750881E090E00F90DF91CF9108950895A7
:1012500080E090E008950E94431D0F931F93CF9369
:10126000DF93EC0188819981009729F02A813B81E5
:101270002617370788F48B016F5F7F4F0E947D1C14
:10128000009761F0998388831B830A832C813D81B9
:10129000232B11F4FC01108281E001C080E0DF917A
:1012A000CF911F910F9108951F920F920FB60F9239
:1012B00011242F933F934F935F936F937F938F935B
:1012C0009F93AF93BF93EF93FF9380E196E00E94CB
:1012D000D007FF91EF91BF91AF919F918F917F9137
:1012E0006F915F914F913F912F910F900FBE0F9093
:1012F0001F9018951F920F920FB60F9211242F93E3
:101300008F939F93EF93FF93E0912006F091210636
:101310008081E0912606F091270682FD12C090811F
:10132000809129068F5F8F7320912A06821751F0D2
:10133000E0912906F0E0E05FF94F958F8093290650
:1013400001C08081FF91EF919F918F912F910F901C
:101350000FBE0F901F9018951F920F920FB60F920D
:1013600011242F933F934F935F936F937F938F93AA
:101370009F93AF93BF93EF93FF938091B900887FC2
:10138000803609F49CC068F5883209F45BC090F49B
:10139000803109F454C038F4882309F4F6C0883049
:1013A00009F44DC0F6C0883109F44CC0803209F40C
:1013B0005DC0EFC0803409F468C048F4803309F49C
:1013C00055C0883309F0E5C080930D06D8C080353C
:1013D00009F44FC0883509F45DC0883409F0D9C0DC
:1013E000D6C0883909F4C7C0A8F4883709F467C0A3
:1013F00038F4883609F463C0803709F460C0C9C086
:10140000883809F4B8C0803909F45FC0803809F021
:10141000C0C05BC0803B09F486C038F4803A09F450
:1014200066C0883A09F47FC0B4C0803C09F4A7C004
:10143000883C09F4A4C0883B09F48AC0AAC0809102
:101440000A0610C090910C0680910B06981770F553
:10145000E0910C0681E08E0F80930C06F0E0E751DE
:10146000FA4F80818093BB0085EC86C080930D0687
:101470008EC0E0910C0681E08E0F80930C06809167
:10148000BB00F0E0E751FA4F808390910C06809109
:101490000B066EC0E0910C0681E08E0F80930C0667
:1014A0008091BB00F0E0E751FA4F808380910E06F7
:1014B00081116DC081E08093090684EA61C083E0F8
:1014C00080930F061092C605CFCF8091C60580325B
:1014D00008F051C0E091C60581E08E0F8093C605EB
:1014E0008091BB00F0E0EA55FA4F8083BDCF85ECD8
:1014F0008093BC0010920F068091C605803230F4B4
:10150000E091C605F0E0EA55FA4F10826091C605F9
:1015100070E0E091A405F091A50586EA95E00995B3
:101520001092C60536C084E080930F061092A30582
:101530001092A205E091A005F091A1050995809176
:10154000A205811105C081E08093A205109280055B
:10155000E091A30581E08E0F8093A305F0E0E058B1
:10156000FA4F80818093BB009091A3058091A205E2
:10157000981708F479CF85E88093BC000AC085EC01
:101580008093BC0010920F0604C010920D060E94BA
:101590006B08FF91EF91BF91AF919F918F917F91D8
:1015A0006F915F914F913F912F910F900FBE0F90D0
:1015B0001F90189530915805313208F04AC080913B
:1015C0000F068111FCCF90915A0522E020930F065F
:1015D00060930E062FEF20930D0610920C063093A9
:1015E0000B06E0E6F5E0A9EEB5E020E0321721F0C9
:1015F00041914D932F5FFACF10920A0620910A066F
:10160000990F922B90930A0690910906913061F4FC
:101610001092090690910A069093BB009091BC002D
:1016200093FDF8CF95EC01C095EE9093BC0090919E
:101630000F069230E1F390910D069F3F79F0809173
:101640000D06803241F080910D06803331F084E048
:1016500005C081E003C082E001C083E0109259051B
:101660001092580510925B0508951092C8051092CB
:10167000C705109259051092580510920F0681E087
:1016800080930E061092090661E082E10E94051027
:1016900061E083E10E940510E9EBF0E080818E7F3C
:1016A000808380818D7F808388E48093B80085E487
:1016B0008093BC008DE998E09093A1058093A005EC
:1016C0008EE998E09093A5058093A40508951F9254
:1016D0000F920FB60F9211242F933F934F935F9366
:1016E0006F937F938F939F93AF93BF93EF93FF93EA
:1016F00080915F0587FF05C01092850010928400DD
:101700001BC020915F05022E000C330B8091DD067B
:1017100090E02817390784F480915F05082E000CAB
:10172000990BFC01EE0FFF1F8E0F9F1FFC01E7546A
:10173000F94F808187FD15C080915F058F5F809391
:101740005F0520915F05022E000C330B8091DD06B2
:1017500090E028173907C4F480915F058C3064F15C
:1017600013C080915F05082E000C990BFC01EE0F51
:10177000FF1F8E0F9F1FFC01E754F94F808160E02F
:101780008F770E940510D8CF8091840090918500BA
:10179000049680349C4918F480E49CE905C080914B
:1017A000840090918500049690938900809388002E
:1017B0008FEF80935F053BC02091840030918500BE
:1017C00080915F05082E000C990BFC01EE0FFF1FA6
:1017D0008E0F9F1FFC01E754F94F81819281820F88
:1017E000931F909389008093880080915F05082E55
:1017F000000C990BFC01EE0FFF1F8E0F9F1FFC01C9
:10180000E754F94F808187FF12C080915F05082E51
:10181000000C990BFC01EE0FFF1F8E0F9F1FFC01A8
:10182000E754F94F808161E08F770E940510FF91A6
:10183000EF91BF91AF919F918F917F916F915F9148
:101840004F913F912F910F900FBE0F901F901895C1
:101850000F931F93CF93DF93609100018091F00667
:101860000E94051062E370E080E090E00E947B102F
:10187000C0E0D0E00BE31FE180916E0190E0C8175B
:10188000D90794F461E08091EE060E940510C8012A
:101890000197F1F760E08091EE060E940510C80103
:1018A0000197F1F72196E8CFDF91CF911F910F912A
:1018B0000895CF92DF92EF92FF92DC01803242E0F6
:1018C0009407DCF597FD06C0853B91052CF0A4EB51
:1018D000B0E002C0A0E0B0E08091F6069091F5067D
:1018E00028E830E06901C91AD10897FDD394CC0CDF
:1018F000DD1CCC0CDD1C0D2C000CEE08FF082EE2CC
:1019000039E094E08902201931091124A901330F2B
:10191000660B770B9A01AB012C193D094E095F0943
:101920000E94C21924EB30E040E050E00E94981978
:10193000C20ED31EE41EF51ED6019091F4069C3013
:1019400080F58091F50648E850E0481B510987FD75
:101950005395440F551F440F551FA417B50774F036
:101960008091F6062EE239E044E084022019310924
:101970001124AD012A173B070CF4A901425051096B
:10198000440F551F2FB7F894892F90E0FC01EE0FFC
:10199000FF1F8E0F9F1FFC01E754F94F52834183B5
:1019A0002FBFFF90EF90DF90CF900895009769F0E0
:1019B000FC0101900020E9F73197AF01481B590B5A
:1019C000BC0180E196E00C945F0780E090E0089510
:1019D0008F929F92AF92BF920F931F93CF93DF93FB
:1019E000CDB7DEB7A1970FB6F894DEBF0FBECDBF5F
:1019F00019A2423008F44AE08E010F5D1F4F842E79
:101A0000912CA12CB12CA50194010E94011AE62F62
:101A1000B901CA0101501109EA3014F4E05D01C0B6
:101A2000E95CD801EC93232B242B252B61F7C8010B
:101A30000E94D60CA1960FB6F894DEBF0FBECDBFA4
:101A4000DF91CF911F910F91BF90AF909F908F909A
:101A50000895CF92DF92EF92FF92CF93DF936C01C4
:101A6000990FEE08FF08F7FE19C06DE280E196E0DD
:101A70000E94F207EC0166277727CB016C197D09DC
:101A80008E099F094AE00E94E80C8C0F9D1FDF9190
:101A9000CF91FF90EF90DF90CF9008954AE0C7017B
:101AA000B601DF91CF91FF90EF90DF90CF900C9433
:101AB000E80CCF93DF930E94290DEC018BE391E0BA
:101AC0000E94D60C8C0F9D1FDF91CF9108950C942E
:101AD000D60C8F929F92AF92BF92CF92DF92EF92ED
:101AE000FF920F931F93CF93DF936B017C01142F11
:101AF0009B01AC010E94571B882319F081E691E0FD
:101B000027C046015701E894B7F82FEF3FEF4FE7A2
:101B10005FE7C501B4010E94571B81110DC02FEF73
:101B20003FEF4FE75FE7C501B4010E945E1818164A
:101B30001CF485E691E00CC02FEF3FEF4FE75FE428
:101B4000C701B6010E94521B181684F489E691E081
:101B5000DF91CF911F910F91FF90EF90DF90CF9089
:101B6000BF90AF909F908F900C94D60C2FEF3FEFCB
:101B70004FE75FECC701B6010E945E1887FDE6CF14
:101B800020E030E0A901C701B6010E945E1887FF7E
:101B90000BC06DE280E196E00E94F207EC01F7FADB
:101BA000F094F7F8F09402C0C0E0D0E000E060E00C
:101BB00070E080E09FE3101741F020E030E040E269
:101BC00051E40E94B11A0F5FF6CFA70196010E945F
:101BD000451A6B017C010E94231B4B015C014AE00A
:101BE0000E94E80CC80FD91F1123B9F1C501B40137
:101BF0000E9463189B01AC01C701B6010E94441A00
:101C00006B017C016EE280E196E00E94F207C80F52
:101C1000D91F20E030E040E251E4C701B6010E9444
:101C2000C4184B015C010E94231B6B01E12CF12CB9
:101C30004AE0C701B6010E94E80CC80FD91FC701CE
:101C4000B6010E9463189B01AC01C501B4010E945A
:101C5000441A6B017C011150E1F6CE01DF91CF9166
:101C60001F910F91FF90EF90DF90CF90BF90AF90BA
:101C70009F908F90089590910F069111FCCF91E065
:101C800090930F0640930E062FEF20930D061092AF
:101C90000C06260F20930B0690930A0690910A06D5
:101CA000880F892B80930A0680910906813061F4A0
:101CB0001092090680910A068093BB008091BC00B7
:101CC00083FDF8CF85EC01C085EE8093BC00809148
:101CD0000F068130E1F380910C06861710F46091B5
:101CE0000C06A9EEB5E0E9ECF5E080E0861721F0FE
:101CF0009D9191938F5FFACF0895CF92DF92EF92EB
:101D0000FF920F931F93CF93DF93C62EDC0114969F
:101D10002D913C9115972417350750F1642F4132CE
:101D200008F060E2EA01D72E7C0141E0FC018081ED
:101D30000E943B0E1092C8058093C70590E0C8171B
:101D4000D907B1F48601CC0DDD1DC017D10791F084
:101D5000D70111968D919C911297DC01ED91FC9128
:101D60000284F385E02D0995F80181938F01EDCF71
:101D700080E001C081E0DF91CF911F910F91FF9032
:101D8000EF90DF90CF900895EF92FF920F931F9303
:101D9000CF93DF93C7EFD6E08F83E12CF12C00E0E7
:101DA00010E021E041E050E06EEF76E0888199811B
:101DB0000E94650542E050E06EEF76E088819981EF
:101DC0000E947D0E8F819885982789279827DF911B
:101DD000CF911F910F91FF90EF900895EF92FF9296
:101DE0000F931F93482F8091FA069091FB06209144
:101DF000FC063091FD06822B932B413059F038F0D0
:101E0000423059F0433061F0836091600BC08360D1
:101E1000916408C08360916505C08360916602C0CB
:101E200083609167906821E02093FE069093FF06FF
:101E300080930007E12CF12C00E010E043E050E03B
:101E40006EEF76E08091F7069091F8060E946505A6
:101E500081E00E94C40E97FFFBCF80E00E94C40E79
:101E60002091F906022E02C0969587950A94E2F712
:101E7000222329F0811528E0920708F0906F1F9126
:101E80000F91FF90EF9008958F929F92AF92BF9223
:101E9000CF92DF92EF92FF920F931F93CF93DF9336
:101EA000EC014B016A01590188819981892B31F03C
:101EB000EA81FB81808191810E94180560E08B8519
:101EC0000E9405107401C80CD91CEC14FD0439F0F3
:101ED000F70161917F01CE010E946104F6CF750187
:101EE0000A0D1B1D0E151F0541F06FEFCE010E945C
:101EF0006104F70181937F01F5CF61E08B850E943A
:101F0000051081E0DF91CF911F910F91FF90EF902D
:101F1000DF90CF90BF90AF909F908F9008953FB784
:101F2000F8948091310790913207A0913307B091D6
:101F3000340726B5A89B05C02F3F19F00196A11DB7
:101F4000B11D3FBFBA2FA92F982F8827820F911D4F
:101F5000A11DB11DBC01CD0142E0660F771F881F96
:101F6000991F4A95D1F70895CF93DF93EC018B81A8
:101F700081110CC089819A810E94350B81E08B838D
:101F8000CE010E94B40F982F882391F0888191E0B0
:101F900090935B0580935A0510925905109258054D
:101FA00061E089819A810E94DA0A91E0811190E0D2
:101FB000892FDF91CF910895833081F028F481300B
:101FC00099F08230A1F008958730A9F08830B9F0F7
:101FD0008430D1F4809180008F7D03C08091800097
:101FE0008F7780938000089584B58F7702C084B581
:101FF0008F7D84BD08958091B0008F7703C080915C
:10200000B0008F7D8093B00008951F93CF93DF932E
:10201000282F30E0F901E656FF4F8491F901EA5785
:10202000FF4FD491F901EE58FF4FC491CC23C1F07A
:10203000162F81110E94DC0FEC2FF0E0EE0FFF1F36
:10204000E854FF4FA591B4919FB7F894111104C0C3
:102050008C91D095D82302C0EC91DE2BDC939FBFEE
:10206000DF91CF911F910895CF93DF9390E0FC0112
:10207000EA57FF4F2491FC01EE58FF4F84918823CB
:1020800061F190E0880F991FFC01E255FF4FC59167
:10209000D491FC01E854FF4FA591B491611109C09E
:1020A0009FB7F8948881209582238883EC912E2312
:1020B0000BC0623061F49FB7F8948881322F30955D
:1020C00083238883EC912E2B2C939FBF06C08FB760
:1020D000F894E8812E2B28838FBFDF91CF9108954C
:1020E0008230910538F0880F991F880F991F059746
:1020F0000197F1F708958F929F92AF92BF92CF927E
:10210000DF92EF92FF926B017C010E948F0F4B01D7
:102110005C01C114D104E104F104F1F00E948F0FBD
:10212000DC01CB0188199909AA09BB09883E9340B3
:10213000A105B10570F321E0C21AD108E108F10848
:1021400088EE880E83E0981EA11CB11CC114D10436
:10215000E104F10419F7DDCFFF90EF90DF90CF900D
:10216000BF90AF909F908F9008952FB7F894609193
:102170002D0770912E0780912F07909130072FBF68
:1021800008951F920F920FB60F9211242F933F9331
:102190008F939F93AF93BF9380912D0790912E07BC
:1021A000A0912F07B091300730912C0723E0230F27
:1021B0002D3720F40196A11DB11D05C026E8230F7F
:1021C0000296A11DB11D20932C0780932D0790939B
:1021D0002E07A0932F07B09330078091310790917D
:1021E0003207A0913307B09134070196A11DB11DAC
:1021F0008093310790933207A0933307B09334074D
:10220000BF91AF919F918F913F912F910F900FBEF2
:102210000F901F901895CF93DF93CDB7DEB7C354BF
:10222000D1090FB6F894DEBF0FBECDBF789484B548
:10223000826084BD84B5816084BD85B5826085BDC2
:1022400085B5816085BD80916E00816080936E0050
:102250001092810080918100826080938100809142
:1022600081008160809381008091800081608093F3
:1022700080008091B10084608093B1008091B000B3
:1022800081608093B00080917A00846080937A00AE
:1022900080917A00826080937A0080917A008160D8
:1022A00080937A0080917A00806880937A001092FF
:1022B000C1001091F2068091F4068C3008F052C0F3
:1022C00061E0812F0E9434108091F406E82FF0E045
:1022D0009F01220F331FE20FF31FE754F94F1F77BF
:1022E00090819078192B10831092F5061092F606C3
:1022F0006CE00E94321A2CE0829FB001112440E071
:1023000050E09B01240F351FF901EE0FFF1F2E0F28
:102310003F1FF901E754F94F908197FD16C04F5FB9
:102320005F4F4C30510569F781110FC0109280004A
:1023300082E0809381001092850010928400B19A0F
:1023400080916F00826080936F00E091F406F0E06E
:10235000CF01880F991FE80FF91FE754F94F8081CB
:102360008068808361E08091F0060E94341061E013
:102370008091EE060E943410E0912006F091210633
:1023800082E08083E0911C06F0911D061082E091AE
:102390001E06F0911F068FEC808310922806E091B4
:1023A0002406F091250686E08083E0912206F091D4
:1023B0002306808180618083E0912206F0912306CC
:1023C000808188608083E0912206F09123068081DD
:1023D00080688083E0912206F091230680818F7DC2
:1023E00080838091DE069091DF06892BA9F486E038
:1023F00090E00E945C1BFC018091E10680838DEAE5
:1024000096E092838183138280E290E095838483B7
:10241000F093DF06E093DE06E090DE06F090DF0644
:10242000F701818192810E94350B11E0F70113833E
:10243000C7010E94B40F882309F433C580E090E1FE
:10244000A0E0B0E08093E2069093E306A093E40658
:10245000B093E5068AE090E0A0E0B0E08093E60665
:102460009093E706A093E806B093E90680E090E039
:10247000A0E0B0E48093EA069093EB06A093EC060C
:10248000B093ED068091DE069091DF061AA61BA69A
:102490001CA61DA69C8F8B8F1E8E1D8E1CA385E0F7
:1024A00090E09AA389A31DA302E00BA340E050E1B2
:1024B00060E070E0CE014B960E949E068091DE06A1
:1024C0009091DF06188A198A1A8A1B8A9A8389834F
:1024D0001C821B821A8718861F821B8709874FE977
:1024E00059E360E070E0CE0101960E949E06809361
:1024F000E0068DEA96E00E94350B81E00E944F01D4
:1025000060E780E090E00E94B90060E281E090E046
:102510000E94B90010930D0761E082E090E00E94F4
:10252000B9009E012F5F3F4F790100E010E0C80124
:102530000E948219F70181937F010F5F1F4F0A31BB
:102540001105A9F72D813E814F81588569817A81D6
:102550008B819C810E94451A29853A854B855C8533
:102560000E94451A2D853E854F8558890E94451A3F
:1025700029893A894B895C890E94451A2D893E89AF
:102580004F89588D0E94451A6B017C01698D70E05E
:1025900080E090E00E9465189B01AC01C701B60184
:1025A0000E94451A20E030E04AE253E40E94451AB6
:1025B0000E94231B8A8D68130DC08AE1FE013196AB
:1025C000AEE0B7E001900D928A95E1F781E080934B
:1025D000050702C0109205070E94600186E090E0A6
:1025E0000E945C1B8C0188E4F80180838DEA96E0F0
:1025F00092838183138280E290E095838483109399
:10260000F8060093F7068DEA96E00E94350B81E00C
:10261000F8018383C8010E94B40F8AEA80934C05B5
:1026200080EA80934D0586E980934E058CE880937F
:102630004F058AEA90E00E94590C3FE4C32E80E1E6
:1026400096E00E94BA07181619060CF067C01A82A5
:1026500019821C821B821E821D8260E070E0CE0106
:1026600001960E942D0929813A8181110DC0211501
:10267000310519F0C9010E94F41B1A8219821E82C9
:102680001D821C821B8207C01E821D826DE371E0C9
:10269000C9010E94511D0E94270497FD1BC08B8F0A
:1026A0001C8E0D811E810F5F1F4FB801CE01019658
:1026B0000E942D09882379F329813A818D819E8199
:1026C000BE01655E7F4F820F931F0E94511D1E83C6
:1026D0000D83E1CF89819A81009719F00E94221819
:1026E00003C060E070E0CB016130710529F47093A4
:1026F0005705609356050EC0672B61F4109257057D
:10270000109256058CE291E00E94D60C8BE391E08A
:102710000E94D60C89819A810E94F41B80915605F3
:1027200090915705019709F0B9C300915405109194
:1027300055050115110531F460E177E280E090E084
:102740000E947B100E94B5104B015C016093500504
:10275000709351058093520590935305D80120E260
:1027600031EA47E050E00E94C21986169706A80693
:10277000B90608F4A4C21016110604F51091000160
:1027800081E0111180E08093000180914C0590E080
:102790000E94590C60ED77E080E090E00E947B1091
:1027A0000E94280C60ED77E080E090E00E947B10B2
:1027B00081E0111101C080E0809300012CE4622EC1
:1027C00025E0722E2CE335E039AB28AB84E395E0AD
:1027D0009FA78EA78C01790122967FAE6EAE2297BD
:1027E000D12C2296EEADFFAD229781912296FFAFBC
:1027F000EEAF229790E00E94590C60ED77E080E008
:1028000090E00E947B10609100018091F0060E9490
:10281000051062E370E080E090E00E947B102FEEF4
:1028200033E03DAF2CAF8FE493E099AF88AFEFEA90
:10283000F2E0FFABEEAB2FE032E03BAB2AAB8FE632
:1028400091E09BAF8AAF9DAB8CAB49012FEA32E0A0
:1028500024963FAF2EAF24978FE493E09FAF8EAFC7
:102860009FEEA92E93E0B92E61E08091EE060E94C2
:1028700005108BE39FE10197F1F70E940707BC0168
:10288000990F880B990B0E9465181B012C01609110
:10289000E6067091E7068091E8069091E9060E94AD
:1028A00063189B01AC01C201B1010E94B11ADC01A5
:1028B000CB01BF7780932F0590933005A09331050E
:1028C000B09332050E945D06BC01990F880B990BED
:1028D0000E9465182FE632E143E85AE30E94C418CB
:1028E00020912F05309130054091310550913205EE
:1028F0000E94C418DC01CB01BF77F501819391934D
:10290000A193B1935F0180E00E94EE0EEEADFFADAA
:1029100081939193FFAFEEAF81E00E94EE0E24967B
:10292000EEADFFAD2497819391932496FFAFEEAF68
:10293000249782E00E94EE0EF401819391934F015F
:1029400083E00E94EE0EECA9FDA981939193FDAB6B
:10295000ECAB60E08091EE060E9405108BE39FE1F6
:102960000197F1F7FFE2AF16F5E0BF0609F07CCF63
:102970008FEE482E83E0582E812C912C54018EE34B
:1029800091E00E94670D80E491E00E94670D4AE0AB
:10299000C501B4010E94E80C80E491E00E94670D3B
:1029A000F20161917191819191912F0142E00E9418
:1029B000690D80E491E00E94670DE8ADF9AD619189
:1029C0007191F9AFE8AF80E090E04AE00E94E80C36
:1029D00080E491E00E94670DEEA9FFA961917191D9
:1029E000FFABEEAB80E090E04AE00E94E80C80E4B0
:1029F00091E00E94670DEAA9FBA961917191FBAB7F
:102A0000EAAB80E090E04AE00E94E80C80E491E0CC
:102A10000E94670DEAADFBAD61917191FBAFEAAF2A
:102A200080E090E04AE00E94E80C80E491E00E949F
:102A3000670D80E090E00E94290D80E491E00E9403
:102A4000670D80E090E00E94290D80E491E00E94F3
:102A5000670D80E090E00E94290D80E491E00E94E3
:102A6000670D80E090E00E94290D80E491E00E94D3
:102A7000670D80E090E00E94590DFFEF8F1A9F0ACA
:102A8000AF0ABF0A20E582169104A104B10409F03F
:102A900076CF80912B0590912C05A0912D05B091BA
:102AA0002E05F70180839183A283B383F801C0824E
:102AB000B12CFD2DF170AF2EECADFDAD219031901C
:102AC00041905190FDAFECAFF701208131814281FF
:102AD0005381C201B1010E94521B181674F4F70110
:102AE0002082318242825382A11003C0F801B08259
:102AF00004C080E58B19F8018083B394F0E5BF1220
:102B0000DBCF60ED77E080E090E00E947B1081E019
:102B100090910001911180E080930001D39424E012
:102B2000E20EF11C0F5F1F4F34E0D3125ACEE0903B
:102B30004805F090490500914A0510914B055090C9
:102B40003705D0904F05E8A9F9A981909190A190FF
:102B5000B190F9ABE8AB9701A801C501B4010E949F
:102B6000521B18163CF4EEA5FFA55080F301D0804F
:102B7000740185012EA53FA52F5F3F4F3FA72EA7CC
:102B80003FEF631A730A8CE495E0E8A9F9A98E1760
:102B90009F07C9F6C701D80180933805909339057E
:102BA000A0933A05B0933B0550926E01D092330545
:102BB00082E491E00E94670D80E491E00E94670D3D
:102BC000609138057091390580913A0590913B05E7
:102BD00042E00E94690D80E491E00E94670D6091DF
:102BE0006E0170E080E090E04AE00E94E80C80E432
:102BF00091E00E94670D6091330570E080E090E005
:102C00004AE00E94E80C80E491E00E94670D80E0B9
:102C100090E00E94290D80E491E00E94670D80E021
:102C200090E00E94290D80E491E00E94670D80E011
:102C300090E00E94290D80E491E00E94670D80E001
:102C400090E00E94290D80E491E00E94670D80E0F1
:102C500090E00E94290D80E491E00E94670D80E0E1
:102C600090E00E94290D80E491E00E94670D80E0D1
:102C700090E00E94290D80E491E00E94670D80E0C1
:102C800090E00E94590D8091330590E00E94590C0C
:102C900060ED77E080E090E00E947B100E94280CBD
:102CA00060ED77E080E090E00E947B108091540519
:102CB000909155050196909355058093540584E4B1
:102CC00091E00E94670D80E491E00E94670D6091A1
:102CD00050057091510580915205909153054AE03D
:102CE0000E94E80C80E491E00E94670D0E945D065E
:102CF000BC01990F880B990B0E9465182FE632E1F1
:102D000043E85AE30E94C41842E00E94690D80E43F
:102D100091E00E94670D0E940707BC01990F880B84
:102D2000990B0E9465184B015C016091E606709159
:102D3000E7068091E8069091E9060E9463189B01DE
:102D4000AC01C501B4010E94B11A9F7742E00E9414
:102D5000690D80E491E00E94670D0E945D068C0180
:102D60000E940707BC01990F880B990B0E946518F8
:102D70004B015C016091E6067091E7068091E806E0
:102D80009091E9060E9463189B01AC01C501B40152
:102D90000E94B11A4B015C01B801110F880B990B0D
:102DA0000E9465182FE632E143E85AE30E94C418F6
:102DB0009B01AC01C501B4010E94C4189F7742E099
:102DC0000E94690D80E491E00E94670D80E00E94FE
:102DD000EE0E0E94290D80E491E00E94670D81E0D3
:102DE0000E94EE0E0E94290D80E491E00E94670D82
:102DF00082E00E94EE0E0E94290D80E491E00E9484
:102E0000670D83E00E94EE0E0E94290D80E491E0A0
:102E10000E94670D0E94600142E066E077E083E077
:102E20000E94F600882321F0082E000C990B02C0A6
:102E30000E94E5000E94290D80E491E00E94670D48
:102E40000E94600142E066E077E087E00E94F600C1
:102E5000882321F0082E000C990B02C00E94E50087
:102E60000E94290D80E491E00E94670D0E9460019C
:102E700042E066E077E085E00E94F600882321F0DA
:102E8000082E000C990B02C00E94E5000E94590D0B
:102E900068EE73E080E090E00E947B100E94610881
:102EA000CECB86E491E00E94D60C8BE391E00E94A9
:102EB000D60C6AE070E080E090E00E947B10F9CFD1
:102EC0008091DE069091DF060C94F41B109213069D
:102ED0001092120688EE93E0A0E0B0E08093140612
:102EE00090931506A0931606B09317062CE031E0D8
:102EF000309311062093100625EC30E030931D0628
:102F000020931C0624EC30E030931F0620931E060D
:102F100020EC30E0309321062093200621EC30E0B5
:102F2000309323062093220622EC30E030932506CE
:102F30002093240626EC30E03093270620932606C3
:102F40001092290610922A0610922B0610922C0637
:102F50001092B0061092AF068093B1069093B2061D
:102F6000A093B306B093B4068EE191E09093AE06C1
:102F70008093AD0688E08093010782E0809302078A
:102F800084E0809303078EE180930C07109205077D
:102F90001092F9061092FB061092FA0680E890E073
:102FA0009093FD068093FC068CE0809328078DE0CB
:102FB0008093290783E080932A078091DD068C3077
:102FC000A0F491E0980F9093DD068093F40690E0D2
:102FD000FC01EE0FFF1F8E0F9F1FFC01E754F94FFE
:102FE00088EB9BE09283818303C08FEF8093F4068C
:102FF0008DE090E09093F3068093F2068BE090E0F2
:103000009093F1068093F0068AE090E09093EF06AB
:103010008093EE061092DF061092DE0680E4809325
:10302000E1061092E6061092E7061092E80610926A
:10303000E9061092EA061092EB061092EC06109246
:10304000ED0608951F93FC0199278827BC01E89499
:1030500011911032E9F3193010F01E30C8F31B3211
:1030600051F01D3249F4689406C00E944918610F5E
:10307000711D811D911D119110531A30B0F33EF452
:1030800090958095709561957F4F8F4F9F4F1F91C1
:103090000895592F482F372F262F660F771F881F27
:1030A000991F660F771F881F991F620F731F841F58
:1030B000951F660F771F881F991F08950E94A018FB
:1030C00008F481E00895E89409C097FB3EF49095D8
:1030D0008095709561957F4F8F4F9F4F9923A9F0F1
:1030E000F92F96E9BB279395F69587957795679580
:1030F000B795F111F8CFFAF4BB0F11F460FF1BC0C4
:103100006F5F7F4F8F4F9F4F16C0882311F096E956
:1031100011C0772321F09EE8872F762F05C0662304
:1031200071F096E8862F70E060E02AF09A95660FBD
:10313000771F881FDAF7880F9695879597F9089576
:10314000990F0008550FAA0BE0E8FEEF16161706B8
:10315000E807F907C0F012161306E407F50798F020
:10316000621B730B840B950B39F40A2661F0232B39
:10317000242B252B21F408950A2609F4A140A695B5
:103180008FEF811D811D08950E94D7180C94481956
:103190000E943A1938F00E94411920F0952311F04D
:1031A0000C9431190C94371911240C947C190E9439
:1031B000591970F3959FC1F3950F50E0551F629F09
:1031C000F001729FBB27F00DB11D639FAA27F00D80
:1031D000B11DAA1F649F6627B00DA11D661F829FA7
:1031E0002227B00DA11D621F739FB00DA11D621F8C
:1031F000839FA00D611D221F749F3327A00D611DA9
:10320000231F849F600D211D822F762F6A2F11248A
:103210009F5750409AF0F1F088234AF0EE0FFF1FBD
:10322000BB1F661F771F881F91505040A9F79E3F14
:10323000510580F00C9431190C947C195F3FE4F334
:10324000983ED4F3869577956795B795F795E7956A
:103250009F5FC1F7FE2B880F911D9695879597F973
:10326000089597F99F6780E870E060E008959FEF08
:1032700080EC089500240A9416161706180609060D
:10328000089500240A9412161306140605060895DC
:10329000092E0394000C11F4882352F0BB0F40F464
:1032A000BF2B11F460FF04C06F5F7F4F8F4F9F4FA4
:1032B000089557FD9058440F551F59F05F3F71F026
:1032C0004795880F97FB991F61F09F3F79F087958D
:1032D0000895121613061406551FF2CF4695F1DF16
:1032E00008C0161617061806991FF1CF86957105A6
:1032F000610508940895E894BB2766277727CB01DA
:1033000097F90895F999FECF92BD81BDF89A992752
:1033100080B50895262FF999FECF1FBA92BD81BDC1
:1033200020BD0FB6F894FA9AF99A0FBE0196089547
:10333000052E97FB1EF400940E94AF1957FD07D08D
:103340000E94011A07FC03D04EF40C94AF1950955B
:103350004095309521953F4F4F4F5F4F0895909581
:103360008095709561957F4F8F4F9F4F08950E9474
:10337000231AA59F900DB49F900DA49F800D911DC1
:1033800011240895B7FF0C94B7190E94B719821B36
:10339000930B08952F923F924F925F926F927F927C
:1033A0008F929F92AF92BF92CF92DF92EF92FF9255
:1033B0000F931F93CF93DF93CDB7DEB7CA1BDB0B01
:1033C0000FB6F894DEBF0FBECDBF09942A883988A6
:1033D00048885F846E847D848C849B84AA84B984AD
:1033E000C884DF80EE80FD800C811B81AA81B981B9
:1033F000CE0FD11D0FB6F894DEBF0FBECDBFED01CD
:103400000895A1E21A2EAA1BBB1BFD010DC0AA1F25
:10341000BB1FEE1FFF1FA217B307E407F50720F03D
:10342000A21BB30BE40BF50B661F771F881F991FB8
:103430001A9469F760957095809590959B01AC0101
:10344000BD01CF010895A29FB001B39FC001A39F0A
:10345000700D811D1124911DB29F700D811D1124CD
:10346000911D0895991B79E004C0991F961708F0E3
:10347000961B881F7A95C9F780950895EE0FFF1F58
:103480000590F491E02D09945058BB27AA270E947B
:103490005C1A0C9448190E943A1938F00E9441199C
:1034A00020F039F49F3F19F426F40C9437190EF4E8
:1034B000E095E7FB0C943119E92F0E94591958F354
:1034C000BA17620773078407950720F079F4A6F509
:1034D0000C947B190EF4E0950B2EBA2FA02D0B0146
:1034E000B90190010C01CA01A0011124FF27591B49
:1034F00099F0593F50F4503E68F11A16F040A22F4F
:10350000232F342F4427585FF3CF469537952795BF
:10351000A795F0405395C9F77EF41F16BA0B620BBE
:10352000730B840BBAF09150A1F0FF0FBB1F661F05
:10353000771F881FC2F70EC0BA0F621F731F841F48
:1035400048F4879577956795B795F7959E3F08F06E
:10355000B0CF9395880F08F09927EE0F9795879530
:1035600008950E94C51A0C9448190E94411958F0F8
:103570000E943A1940F029F45F3F29F00C94311968
:1035800051110C947C190C9437190E94591968F345
:103590009923B1F3552391F3951B550BBB27AA270C
:1035A00062177307840738F09F5F5F4F220F331F46
:1035B000441FAA1FA9F335D00E2E3AF0E0E832D00E
:1035C00091505040E695001CCAF72BD0FE2F29D011
:1035D000660F771F881FBB1F261737074807AB07E3
:1035E000B0E809F0BB0B802DBF01FF2793585F4F58
:1035F0003AF09E3F510578F00C9431190C947C19E7
:103600005F3FE4F3983ED4F3869577956795B79539
:10361000F7959F5FC9F7880F911D9695879597F944
:103620000895E1E0660F771F881FBB1F62177307BD
:103630008407BA0720F0621B730B840BBA0BEE1FD2
:1036400088F7E09508950E94611988F09F5798F0D7
:10365000B92F9927B751B0F0E1F0660F771F881F97
:10366000991F1AF0BA95C9F714C0B13091F00E94B1
:103670007B19B1E008950C947B19672F782F882768
:10368000B85F39F0B93FCCF3869577956795B395D8
:10369000D9F73EF490958095709561957F4F8F4F47
:1036A0009F4F08950E94A01808F48FEF08950E947C
:1036B000A018880B990B08950F931F93CF93DF9356
:1036C0008230910510F482E090E0E0913707F091AC
:1036D000380720E030E0A0E0B0E0309719F14081F9
:1036E00051810281138148175907C8F08417950743
:1036F00069F4109731F012960C93129713961C935D
:1037000027C0009337071093380722C021153105D1
:1037100019F04217530718F49A01BD01EF01DF01B8
:10372000F801DBCF21153105F9F0281B390B2430C6
:10373000310580F48A819B816115710521F0FB01BF
:103740009383828304C09093380780933707FE01E8
:10375000329644C0FE01E20FF31F819391932250F1
:103760003109398328833AC02091350730913607D3
:10377000232B41F42091030130910401309336074B
:103780002093350720910101309102012115310567
:1037900041F42DB73EB74091050150910601241B1D
:1037A000350BE0913507F0913607E217F307A0F4E7
:1037B0002E1B3F0B2817390778F0AC014E5F5F4F87
:1037C0002417350748F04E0F5F1F5093360740937C
:1037D00035078193919302C0E0E0F0E0CF01DF91E3
:1037E000CF911F910F910895CF93DF93009709F424
:1037F00081C0FC01329713821282A0913707B091E9
:103800003807109781F420813181820F931F209116
:103810003507309136072817390751F5F0933607E9
:10382000E093350767C0ED0120E030E0CE17DF07F9
:1038300040F44A815B819E0141155105F1F0EA0196
:10384000F5CFD383C28340815181840F951FC81760
:10385000D90759F488819981840F951F0296918325
:1038600080838A819B81938382832115310529F48A
:10387000F0933807E09337073DC0E901FB83EA8303
:1038800049915991C40FD51FEC17FD0761F4808150
:103890009181840F951F0296E90199838883828123
:1038A00093819B838A83E0E0F0E012968D919C9156
:1038B0001397009719F0FD01DC01F7CF8D919C91D2
:1038C00011979D012E5F3F4F820F931F2091350767
:1038D000309136072817390769F4309729F4109288
:1038E00038071092370702C013821282B09336074E
:1038F000A0933507DF91CF910895A0E0B0E0E3E811
:10390000FCE10C94CE19EC01009721F4CB010E944C
:103910005C1BB4C0FC01E60FF71F9C01225031096B
:10392000E217F30708F4A8C0D9010D911C91119773
:1039300006171707B0F00530110508F49BC0C80141
:1039400004978617970708F495C002501109061BC3
:10395000170B019311936D937C93CF010E94F41B7D
:1039600089C05B01A01AB10A4C01800E911EA09182
:103970003707B0913807612C712CE12CF12C10978E
:1039800009F446C08D919C911197A815B905B1F520
:103990006C0142E0C40ED11CCA14DB0478F14C0166
:1039A0008A189B08640142E0C40ED11C1296BC9098
:1039B00012971396AC91B5E0CB16D10440F0B282C9
:1039C000A38391828082D9016D937C9309C00E5F9D
:1039D0001F4F800F911FF90191838083EB2DFA2FE8
:1039E000E114F10431F0D7011396FC93EE93129792
:1039F00041C0F0933807E09337073CC0681679065A
:103A000008F43C017D0112960D90BC91A02DB7CF1A
:103A1000809135079091360788169906E1F466166D
:103A20007706C8F48091010190910201009741F45A
:103A30008DB79EB74091050150910601841B950BEF
:103A4000E817F907C8F4F0933607E0933507F90152
:103A5000718360830FC0CB010E945C1B7C010097C7
:103A600059F0A801BE010E94481DCE010E94F41B1E
:103A7000C70104C0CE0102C080E090E0CDB7DEB740
:103A8000EEE00C94EA1981E090E0F8940C94581D53
:103A9000FB01DC0102C001900D9241505040D8F76B
:103AA0000895FB01DC0101900D920020E1F70895DB
:103AB00010E0C2E6D0E004C0FE010E943E1A21964A
:0A3AC000C336D107C9F7F894FFCF11
:103ACA00010000390720000000000000F2075F072C
:103ADA0089073F08BA079807AC0700000000F808F2
:103AEA00CB0828099F08C308AF08A0084D6F746F58
:103AFA0072732053746F70706564000D0A0053006E
:103B0A002C0052004B004661696C656420746F207A
:103B1A0066696E6420494E413231392063686970A2
:0E3B2A00006E616E00696E66006F76660000C8
:00000001FF
