:100000000C945E000C9486000C9486000C94860080
:100010000C9486000C9486000C9486000C94860048
:100020000C9486000C9486000C9486000C94C40DED
:100030000C9486000C9486000C9486000C94860028
:100040000C94030C0C9486000C94730C0C944D0CC3
:100050000C9486000C9486000C9486000C94860008
:100060000C94A50C0C94860000000008000201000E
:100070000003040700000000000000000000000072
:10008000250028002B0000000000240027002A0083
:10009000040404040404040402020202020203032E
:1000A0000303030301020408102040800102040836
:1000B0001020010204081020800EA61411241FBE77
:1000C000CFEFD8E0DEBFCDBF11E0A0E0B1E0EEE9B8
:1000D000F3E302C005900D92AE36B107D9F724E0E4
:1000E000AEE6B1E001C01D92AC37B207E1F710E017
:1000F000CDE5D0E004C02197FE010E94B216CC35B8
:10010000D107C9F70E942D0F0C94C2190C9400005E
:10011000CF92DF92EF92FF92DC01803232E09307C0
:10012000BCF5853B910514F0A4EBB0E04091680468
:1001300028E830E0241B310947FD3395220F331F97
:10014000220F331F6901330FEE08FF084091690445
:100150002EE239E084E04802201931091124032EEF
:10016000000C440B550B2C193D094E095F09B7FFD4
:1001700002C0B0E0A0E00E94361624EB30E040E080
:1001800050E00E940C16C20ED31EE41EF51ED601CE
:10019000E0916704EC3068F52091680488E890E00D
:1001A000821B910927FD9395880F991F880F991F2E
:1001B000A817B9076CF0209169048EE299E034E049
:1001C0002302801991091124A817B9070CF4CD0155
:1001D0000297880F991F4FB7F8942E2F30E0F9013E
:1001E000EE0FFF1FE20FF31FE45DFB4F928381834D
:1001F0004FBFFF90EF90DF90CF900895089508953E
:1002000090E0FC01EC55FF4F249180579F4FFC017B
:100210008491882399F090E0880F991FFC01EA5798
:10022000FF4FA591B491FC01E458FF4F8591949143
:100230008FB7F894EC91E22BEC938FBF08958FB7B2
:10024000F89480910C038FBF08958CBD9DBD0895D7
:1002500090E0FC01E859FF4F2491FC01EC55FF4F61
:100260003491FC01E057FF4FE491EE23C9F02223C3
:1002700039F0233001F1A8F4213019F1223029F1AD
:10028000F0E0EE0FFF1FE458FF4FA591B4918FB738
:10029000F894EC91611126C030953E233C938FBFBA
:1002A00008952730A9F02830C9F0243049F780910B
:1002B00080008F7D03C0809180008F7780938000C5
:1002C000DFCF84B58F7784BDDBCF84B58F7DFBCF47
:1002D0008091B0008F778093B000D2CF8091B00032
:1002E0008F7DF9CF3E2BDACF8230910538F0880F21
:1002F000991F880F991F05970197F1F70895AF92FD
:10030000BF92CF92DF92EF92FF920F931F93CF9302
:10031000DF93EC0188819981892B89F06EBD0DB442
:1003200007FEFDCFBEB48B2DDF91CF911F910F91B2
:10033000FF90EF90DF90CF90BF90AF9008958885A9
:10034000998511E0892B09F010E8AA24A394862F3F
:10035000812309F0A12C062F2C813D814E815F81E4
:1003600060E271EA87E090E00E947516F22EB02EEE
:10037000E12CC22ED12CFF2019F0C6010E9474017D
:100380008A85877F09F042C08D858F3F89F0902F45
:10039000912381E009F480E08A1551F0EF85F88916
:1003A0008F89992369F19081892B8083AA24A39452
:1003B000E989FA898081998D892B8083FF2019F042
:1003C000C6010E9474018E858F3F39F0EB89FC894C
:1003D0008081988D892309F0E12AE989FA89908141
:1003E000898D8095892380838E858F3F09F0BE2C6F
:1003F00088859985892BB9F5110F1111BCCF93CF41
:100400009081809589238083A12CD2CFE989FA89B4
:100410008081998D892B8083FF2019F0C6010E946D
:1004200074018D858F3F49F0EF85F8898F89902F72
:100430009123A9F09081892B8083E989FA899081A1
:10044000898D8095892380838E858F3F69F2EB8922
:10045000FC898081988D892339F2E12AC5CF90816A
:1004600080958923E9CF1695C8CF8F929F92AF923E
:10047000BF92CF92DF92EF92FF920F931F93CF9391
:10048000DF93EC014B016A01B22EA32E8881998182
:10049000892B31F0EA81FB81808191810E942501C5
:1004A00060E08B850E9428017401C80CD91CEC14F3
:1004B000FD0479F4EB2CFA2C0E0D1F1D0E151F05F3
:1004C00079F06FEFCE010E947F01F70181937F01E8
:1004D000F5CFF70161917F01CE010E947F01E7CF47
:1004E00061E08B850E94280181E0DF91CF911F910F
:1004F0000F91FF90EF90DF90CF90BF90AF909F90C3
:100500008F9008958F929F92AF92BF92CF92DF9279
:10051000EF92FF920F931F93CF93DF93EC01B62ED0
:10052000A72E6A01490188819981892B31F0EA81DE
:10053000FB81808191810E94250160E08B850E9472
:1005400028017401080D191DE016F10671F40B2D38
:100550001A2DC00ED11EC016D10671F0F80161919E
:100560008F01CE010E947F01F6CFF70161917F01DB
:10057000CE010E947F01E8CF61E08B850E942801B7
:1005800081E0DF91CF911F910F91FF90EF90DF906D
:10059000CF90BF90AF909F908F9008953FB7F89401
:1005A0008091080390910903A0910A03B0910B0375
:1005B00026B5A89B05C02F3F19F00196A11DB11DBE
:1005C0003FBFBA2FA92F982F8827BC01CD01620FFA
:1005D000711D811D911D42E0660F771F881F991FB5
:1005E0004A95D1F708958F929F92AF92BF92CF9282
:1005F000DF92EF92FF926B017C010E94CE024B01D1
:100600005C01C114D104E104F104B9F00E94CE02EE
:10061000681979098A099B09683E7340810591052B
:1006200080F321E0C21AD108E108F10888EE880EB3
:1006300083E0981EA11CB11CE4CFFF90EF90DF90E7
:10064000CF90BF90AF909F908F9008952FB7F89460
:100650006091040370910503809106039091070354
:100660002FBF0895AF92BF92CF92DF92EF92FF9289
:100670000F931F93CF93DF936C017B018B01040FCA
:10068000151FEB015E01AE18BF08C017D10759F066
:100690006991D601ED91FC910190F081E02DC601A8
:1006A0000995892B79F7C501DF91CF911F910F91A2
:1006B000FF90EF90DF90CF90BF90AF900895FC0136
:1006C000538D448D252F30E0842F90E0821B930BB7
:1006D000541710F0CF96089501970895FC01918D5D
:1006E000828D981761F0A28DAE0FBF2FB11D5D9660
:1006F0008C91928D9F5F9F73928F90E008958FEF02
:100700009FEF08950F931F930E94260360938B031E
:1007100070938C0380938D0390938E0383E893E012
:100720000E946E0397FF1DC00E94260300918B0359
:1007300010918C0320918D0330918E03601B710BFF
:10074000820B930B009187031091880320918903FA
:1007500030918A036017710782079307F8F28FEFD1
:100760009FEF1F910F910895FC01918D828D981735
:1007700031F0828DE80FF11D858D90E008958FEFA7
:100780009FEF0895FC01918D228D892F90E0805C70
:100790009F4F821B91098F739927089583E893E0F7
:1007A0000E94C20321E0892B09F420E0822F0895E2
:1007B00080E090E0892B29F00E94CE0381110C94F7
:1007C00000000895FC01A48DA80FB92FB11DA35AF4
:1007D000BF4F2C91848D90E001968F739927848F61
:1007E000A689B7892C93A089B1898C918370806484
:1007F0008C93938D848D981306C00288F389E02D25
:1008000080818F7D80830895EF92FF920F931F93D5
:10081000CF93DF93EC0181E0888F9B8D8C8D9813B3
:100820001AC0E889F989808185FF15C09FB7F894BF
:10083000EE89FF896083E889F9898081837080640B
:1008400080839FBF81E090E0DF91CF911F910F9156
:10085000FF90EF900895F62E0B8D10E00F5F1F4F65
:100860000F731127E02E8C8D8E110CC00FB607FC74
:10087000FACFE889F989808185FFF5CFCE010E9402
:10088000E203F1CFEB8DEC0FFD2FF11DE35AFF4F8B
:10089000F0829FB7F8940B8FEA89FB898081806290
:1008A000CFCFCF93DF93EC01888D8823B9F0AA894D
:1008B000BB89E889F9898C9185FD03C0808186FD1B
:1008C0000DC00FB607FCF7CF8C9185FFF2CF80816A
:1008D00085FFEDCFCE010E94E203E9CFDF91CF91FA
:1008E000089520919001260F3327331F21323105BF
:1008F000ECF420915903FC0190E080E0243069F091
:1009000082E00895A09190012191AC0140595E4F81
:10091000A40FB52FB11D2C930196861798F38091E3
:100920009001680F6093900180E0089581E0089540
:100930001092590381E0809358031092330361E0D1
:1009400082E10E94280161E083E10E942801E9EB35
:10095000F0E080818E7F808380818D7F808388E43A
:100960008093B80085E48093BC0008951092120330
:100970001092110310926003109282030E94980457
:100980008EEF90E09093100380930F038FEF90E031
:1009900090930E0380930D030895CF93DF9391E01E
:1009A00090936F018823B9F0C091B800D091BA003C
:1009B0008091BC008A7B8093BC0060E082E10E9451
:1009C000280160E083E10E9428010E949804D093EE
:1009D000BA00C093B800DF91CF9108958F929F9293
:1009E000AF92BF92CF92DF92EF92FF920F931F933D
:1009F000CF93DF93D0918203D13208F0D7C0182F64
:100A0000C09181030E94CE026B017C018091590349
:100A100081116BC082E080935903109358038FEFCC
:100A20008093570310925603D0935503A1E6B3E089
:100A3000E5E3F3E080E0D81391C010923403809195
:100A40003403CC0FC82BC09334038091330381301F
:100A500009F088C0109233030E94CE026B017C0122
:100A6000809134038093BB0080915B0390915C0381
:100A7000A0915D03B0915E03892B8A2B8B2BA1F093
:100A80000E94CE0200915B0310915C0320915D03F4
:100A900030915E036C197D098E099F0906171707AF
:100AA0002807390708F442C08091BC0083FDD8CFE5
:100AB00085EC8093BC000E94CE026B017C0180918A
:100AC0005903823009F450C0809157038F3F09F4D5
:100AD0006FC080915703803209F46CC08091570336
:100AE000803309F469C084E026C080915B03909153
:100AF0005C03A0915D03B0915E03892B8A2B8B2B45
:100B000009F484CF0E94CE0280905B0390905C0336
:100B1000A0905D03B0905E036C197D098E099F095A
:100B200086169706A806B90608F070CF80915A037A
:100B30000E94CD0485E0109260031092820310920F
:100B40005F03DF91CF911F910F91FF90EF90DF90A6
:100B5000CF90BF90AF909F908F9008959D9191936B
:100B60008F5F69CF85EEA5CF80915B0390915C0389
:100B7000A0915D03B0915E03892B8A2B8B2B09F426
:100B80009ECF0E94CE0200915B0310915C032091E6
:100B90005D0330915E036C197D098E099F0906176C
:100BA00017072807390708F08ACFC0CF81E0C3CFE5
:100BB00080E0C1CF82E0BFCF83E0BDCF8F929F9214
:100BC000BF92CF92DF92EF92FF920F931F93CF933A
:100BD000DF93DA01AE0DBF1DEC01EC81FD81EA1758
:100BE000FB0710F490E026C0B22E6A014B01898108
:100BF0009A81288131E030935F0320938103109222
:100C0000600310928203E114F10409F589819A814D
:100C1000DC01ED91FC910280F381E02DA601B4018D
:100C20000995C816D906F1F68B2D0E94EE0491E0C5
:100C30008111D8CF892FDF91CF911F910F91FF9014
:100C4000EF90DF90CF90BF909F908F900895011507
:100C50001105E1F2DC01ED91FC910280F381E02DC0
:100C6000A701B80109958E159F0509F0BBCFCECF1E
:100C7000EF92FF920F931F93CF93DF9300D0CDB7E6
:100C8000DEB7FC014787508B618B728B828588238E
:100C900039F14487452F562F672F7727882311F185
:100CA0004387BF01655F7F4F9681478199834A8360
:100CB000A081B1811097C1F0E184F12C8E010F5F0A
:100CC0001F4F21E042E050E0CD010E94DE050F9071
:100CD0000F90DF91CF911F910F91FF90EF900895AA
:100CE0004387D8CF4487DDCFA281B38180E01097BE
:100CF00071F324813581018510E02330310571F4D1
:100D00004E7F49839A830F5F1F4F9E012F5F3F4F96
:100D100042E050E0CD010E948202D9CF2115310579
:100D200019F49F779983F1CF2230310511F490683F
:100D3000F9CF2130310549F79F779064F3CFCF93F6
:100D4000DF93EC018B818823A1F0888191E090935F
:100D50005F0380938103109260031092820381E00D
:100D60000E94EE0491E0811190E0892FDF91CF91F4
:100D700008950E94B60481E08B83CE010E949F06F5
:100D8000982F8111E2CFF1CF0895E0911203809165
:100D90001103E81730F4F0E0ED5EFC4F808190E045
:100DA00008958FEF9FEF08959091120380911103A2
:100DB0002FEF3FEF981748F4E92FF0E0ED5EFC4F7E
:100DC000208130E09F5F90931203C90108958091C4
:100DD000110390911203891B990B0895CF92DF9212
:100DE000EF92FF920F931F93CF93DF937C01CB0180
:100DF0008A0120915F03222389F0EB016B01C40E6D
:100E0000D51ECC15DD0569F06991D701ED91FC91F6
:100E10000190F081E02DC7010995F3CF642F0E9466
:100E20007104C801DF91CF911F910F91FF90EF9056
:100E3000DF90CF900895CF93DF931F92CDB7DEB7A9
:100E4000698320915F032223F9F0209182032032ED
:100E500058F021E030E0FC013383228390E080E011
:100E60000F90DF91CF91089580916003E82FF0E01B
:100E7000EF59FC4F998190838F5F8093600380933B
:100E8000820381E090E0ECCF61E0CE0101960E9408
:100E90007104F7CF90E080E00895FF920F931F93C5
:100EA000CF93DF9360910001809163040E94280139
:100EB00062E370E080E090E00E94F302D0E0C0E0E6
:100EC0000BE31FE18091EC028C171D0699F094F062
:100ED000F090610461E08F2D0E942801C801019704
:100EE000F1F760E08F2D0E942801C8010197F1F70A
:100EF0002196E8CFDF91CF911F910F91FF90089538
:100F00004F925F926F927F928F929F92AF92BF9219
:100F1000CF92DF92EF92FF920F931F93CF93DF93C5
:100F2000DC0114962D913C912417350708F4DBC0A1
:100F30008A016B017C01FC01D0810E94CE024B0131
:100F40005C0180915903811169C0C02F013208F002
:100F5000C0E281E080935903809358039FEF909300
:100F60005703109256039C0F9093550380933403BC
:100F700080913403DD0FD82BD09334038091330359
:100F8000813009F08CC0109233030E94CE024B01D5
:100F90005C01809134038093BB0080915B0390914E
:100FA0005C03A0915D03B0915E03892B8A2B8B2B90
:100FB000A1F00E94CE0240905B0350905C036090D1
:100FC0005D0370905E03681979098A099B094616CA
:100FD00057066806790608F442C08091BC0083FD7C
:100FE000D8CF85EC8093BC000E94CE024B015C01FF
:100FF00080915903813009F454C0809156038C17B5
:1010000010F4C0915603A5E3B3E0E3E1F3E080E020
:101010008C1751F19D9191938F5FFACF80915B0373
:1010200090915C03A0915D03B0915E03892B8A2BA4
:101030008B2B09F486CF0E94CE0240905B03509028
:101040005C0360905D0370905E03681979098A09FA
:101050009B09461657066806790608F072CF8091FC
:101060005A030E94CD04C0E010921203C0931103F2
:10107000C0171106C1F5E6010C0D1D1D0C171D074B
:1010800009F443C0D70111968D919C91DC01ED913B
:10109000FC910284F385E02D09958993EFCF85EECD
:1010A000A1CF80915B0390915C03A0915D03B0910F
:1010B0005E03892B8A2B8B2B09F49ACF0E94CE02D8
:1010C00040905B0350905C0360905D0370905E0302
:1010D000681979098A099B09461657066806790630
:1010E00008F086CFBCCF80E0DF91CF911F910F91A8
:1010F000FF90EF90DF90CF90BF90AF909F908F9038
:101100007F906F905F904F90089581E0EDCFEF92C8
:10111000FF920F931F93CF93DF93CEE6D4E08F839C
:10112000F12CE12C10E000E021E041E050E065E727
:1011300074E0888199810E94DE0542E050E065E715
:1011400074E0888199810E9480078F819885982713
:1011500089279827DF91CF911F910F91FF90EF90F2
:101160000895EF92FF920F931F93482F20917104DF
:10117000309172048091730490917404822B932BAC
:101180004230D9F14330E1F14130A1F18360916403
:10119000906821E0209375049093760480937704FF
:1011A000F12CE12C10E000E043E050E065E774E052
:1011B00080916E0490916F040E94DE0581E00E9490
:1011C000870897FFFBCF80E00E948708209170047A
:1011D000022E02C0969587950A94E2F7222329F001
:1011E000811528E0920708F0906F1F910F91FF90F2
:1011F000EF90089583609165CBCF83609166C8CFEF
:1012000083609167C5CF6F927F928F929F92AF92CA
:10121000BF92CF92DF92EF92FF920F931F93CF93E3
:10122000DF9300D0CDB7DEB76C015B014C018BE0E2
:10123000880E911CD60116969C91169717968C9144
:10124000179799838A836D907C901197611471042C
:10125000D9F119964C9150E0F12CE12C10E000E00E
:1012600020E0BE016F5F7F4FC3010E94DE05811148
:1012700012C080E00F900F90DF91CF911F910F91DE
:10128000FF90EF90DF90CF90BF90AF909F908F90A6
:101290007F906F90089542E050E0B401C3010E9436
:1012A0008007882339F3F601928591113CC024858B
:1012B00030E0322F2227D50111963C932E9393854F
:1012C000292B2D933C93D6CF1296ED91FC91139739
:1012D000309779F214962D913C91159719964C916F
:1012E00050E02330310579F4816089839A834F5F20
:1012F0005F4F02E010E09401BE016F5F7F4FCF01AE
:101300000E943502CECF2115310519F490689983DA
:10131000F0CF2230310511F49F77F9CF213031051C
:1013200041F7906CF4CF238530E0322F2227D5018E
:1013300011963C932E939485C3CF0F931F93CF9315
:10134000DF93CDB7DEB765970FB6F894DEBF0FBE5B
:10135000CDBF01E514E0F80180819181188A198AD6
:101360001A8A1B8A9A8389831C821B8281E08A875E
:1013700022E030E038872F838B8782E08987BE01A7
:101380006C5E7F4FCE0101960E940309F8018283B3
:101390008C899D8923E0969587952A95E1F7880F9A
:1013A000991F880F991F65960FB6F894DEBF0FBE80
:1013B000CDBFDF91CF911F910F910895EF92FF92D2
:1013C0000F931F93CF93DF93CDB7DEB7A8970FB6D8
:1013D000F894DEBF0FBECDBF01E514E0F8018081B7
:1013E00091811BA21CA21DA21EA29D8B8C8B1F8A09
:1013F0001E8AFF24F394FD8E85E090E09B8F8A8FF8
:10140000FE8E82E0E82EEC8E4481558166817781E4
:10141000CE0144960E943806F80180819181188A95
:10142000198A1A8A1B8A9A8389831C821B82FA86EC
:1014300084E090E098878F83FB86E986BE01695D32
:101440007F4FCE0101960E940309F80182838FA18C
:1014500098A5A8960FB6F894DEBF0FBECDBFDF915A
:10146000CF911F910F91FF90EF900895FC01019093
:101470000020E9F73197AF01481B590BBC0183E805
:1014800093E00C9432038F929F92AF92BF920F938E
:101490001F93CF93DF93CDB7DEB7A1970FB6F89424
:1014A000DEBF0FBECDBF19A2423008F44AE08E0164
:1014B0000F5D1F4F842E912CB12CA12CA5019401FE
:1014C0000E947516E62FB901CA01EA30F4F4E05D16
:1014D000D801EE938D01232B242B252B79F790E057
:1014E00080E0109719F0CD010E94360AA1960FB640
:1014F000F894DEBF0FBECDBFDF91CF911F910F914A
:10150000BF90AF909F908F900895E95CE1CFCF920C
:10151000DF92EF92FF92CF93DF936C01990FEE0869
:10152000FF08F7FE19C06DE283E893E00E9404040F
:10153000EC0166277727CB016C197D098E099F097D
:101540004AE00E94430A8C0F9D1FDF91CF91FF90CC
:10155000EF90DF90CF9008954AE0C701B601DF9188
:10156000CF91FF90EF90DF90CF900C94430ACF93F0
:10157000DF930E94870AEC018CE291E00E94360A18
:101580008C0F9D1FDF91CF9108950C94360A4F92D6
:101590005F926F927F928F929F92AF92BF92CF9203
:1015A000DF92EF92FF920F931F93CF936B017C0119
:1015B000742EAC019B010E94CB17882399F08FE217
:1015C00091E0CF911F910F91FF90EF90DF90CF901E
:1015D000BF90AF909F908F907F906F905F904F9053
:1015E0000C94360A46015701E894B7F82FEF3FEF05
:1015F0004FE75FE7C501B4010E94CB1781110DC011
:101600002FEF3FEF4FE75FE7C501B4010E94E814F9
:1016100018161CF483E391E0D4CF2FEF3FEF4FE790
:101620005FE4C701B6010E94C61718161CF487E3D1
:1016300091E0C7CF2FEF3FEF4FE75FECC701B60157
:101640000E94E81487FDF3CF20E030E0A901C70134
:10165000B6010E94E81410E000E087FF0AC06DE2C6
:1016600083E893E00E9404048C01F7FAF094F7F801
:10167000F094C0E060E070E080E09FE37C1641F011
:1016800020E030E040E251E40E942517CF5FF6CF22
:10169000A70196010E94B9162B013C010E949717E1
:1016A0004B015C014AE00E94430A7C01E00EF11EFE
:1016B000CC23C1F1C501B4010E94ED149B01AC0122
:1016C000C301B2010E94B8164B015C016EE283E8CF
:1016D00093E00E940404E80EF91EC15018F120E0C6
:1016E00030E040E251E4C501B4010E944E152B01E7
:1016F0003C010E9497174B01B12CA12C4AE0C50177
:10170000B4010E94430AE80EF91EC501B4010E940B
:10171000ED149B01AC01C301B2010E94B8164B014C
:101720005C01DBCFC701CF911F910F91FF90EF902C
:10173000DF90CF90BF90AF909F908F907F906F90F1
:101740005F904F9008950F931F93CF93DF93EC0119
:1017500088819981009759F02A813B8126173707A4
:1017600030F081E0DF91CF911F910F9108958B01AF
:101770006F5F7F4F0E94F518009759F09983888317
:101780001B830A832C813D81232B59F7FC01108296
:10179000E8CF80E0E7CF85ED8093BC0080915B03CC
:1017A00090915C03A0915D03B0915E030796A11D2B
:1017B000B11D23E0B695A795979587952A95D1F702
:1017C0002091BC0024FD03C010925903089540915C
:1017D0005B0350915C0360915D0370915E03452B48
:1017E000462B472B69F30097A105B10541F025E38E
:1017F0002A95F1F700000197A109B109E1CF809185
:101800005A030C94CD041F920F920FB60F9211241D
:101810002F933F938F939F93AF93BF938091040334
:1018200090910503A0910603B09107033091030343
:1018300023E0230F2D3758F50196A11DB11D2093EC
:1018400003038093040390930503A0930603B093CE
:1018500007038091080390910903A0910A03B091B6
:101860000B030196A11DB11D8093080390930903FA
:10187000A0930A03B0930B03BF91AF919F918F91F7
:101880003F912F910F900FBE0F901F90189526E853
:10189000230F0296A11DB11DD2CF1F920F920FB63A
:1018A0000F9211242F933F934F935F936F937F93E6
:1018B0008F939F93AF93BF93EF93FF9383E893E04E
:1018C0000E94E203FF91EF91BF91AF919F918F91A1
:1018D0007F916F915F914F913F912F910F900FBE2C
:1018E0000F901F9018951F920F920FB60F92112410
:1018F0002F938F939F93EF93FF93E0919303F09136
:1019000094038081E0919903F0919A0382FD1BC0BA
:10191000908180919C038F5F8F7320919D0382172C
:1019200041F0E0919C03F0E0ED57FC4F958F8093E0
:101930009C03FF91EF919F918F912F910F900FBE7C
:101940000F901F9018958081F4CF1F920F920FB6C1
:101950000F9211242F933F934F935F936F937F9335
:101960008F939F93AF93BF93EF93FF938091B900B1
:10197000887F803609F44AC0F0F5883209F4A7C0A0
:1019800018F5803109F49BC0B8F4882309F4F9C034
:10199000883009F494C0FF91EF91BF91AF919F916E
:1019A0008F917F916F915F914F913F912F910F9008
:1019B0000FBE0F901F901895883109F488C08032AF
:1019C00051F78093570314C0803409F49DC040F44C
:1019D0008033B9F38833F9F68093570385ECB0C0B0
:1019E000803509F485C0883509F496C0883499F6A5
:1019F0000E94CB0BD0CF883909F48CC038F58837DA
:101A000029F050F4883611F0803729F683E080936E
:101A100059031092B20157C0883809F47BC080394D
:101A200019F0803809F0B7CF8091B201803208F008
:101A300071C0E091B20181E08E0F8093B20180917C
:101A4000BB00F0E0EE56FE4F80833DC0803B39F096
:101A5000E0F4803A09F479C0883A09F09CCF84E038
:101A6000809359031092910110929001E0910F031D
:101A7000F091100309958091900181110FC081E0D0
:101A8000809390011092700109C0803C09F4A6CFA8
:101A9000883C09F4A3CF883B09F07DCFE091910108
:101AA00081E08E0F80939101F0E0E059FE4F80813C
:101AB0008093BB00909191018091900129C0809109
:101AC00034038093BB0085EC8093BC0064CF90917D
:101AD000560380915503981758F5E091560381E01D
:101AE0008E0F80935603F0E0EB5CFC4F8081E9CFD2
:101AF000E091560381E08E0F809356038091BB00E6
:101B0000F0E0EB5CFC4F808390915603809155038D
:101B10009817C8F285E8D8CFE091560381E08E0F80
:101B2000809356038091BB00F0E0EB5CFC4F808318
:101B30008091580381115CCF81E08093330384EA64
:101B40008093BC001092590326CF85EC8093BC0093
:101B5000109259038091B201803230F4E091B201C9
:101B6000F0E0EE56FE4F10826091B20170E0E0911D
:101B70000D03F0910E0382E991E009951092B201F4
:101B80000ACF1092570334CF1F920F920FB60F92C5
:101B900011242F933F934F935F936F937F938F9372
:101BA0009F93AF93BF93CF93DF93EF93FF93809176
:101BB0006E01C0915004D0E087FF24C010928500D0
:101BC0001092840080916E018F5F80936E018091EE
:101BD0006E01082E000C990B8C179D0724F4809140
:101BE0006E018C30C4F18091840090918500049640
:101BF00080349C4908F47AC08091840090918500DB
:101C0000049676C080916E01082E000C990B8C17FB
:101C10009D07C4F6E0916E018E2FEE0F990BFC012B
:101C2000EE0FFF1FE80FF91FE45DFB4F808187FF78
:101C3000C9CFE0916E018E2FEE0F990BFC01EE0FD4
:101C4000FF1FE80FF91FE45DFB4F808160E08F7795
:101C50000E942801B7CF2091840030918500E09147
:101C60006E018E2FEE0F990BFC01EE0FFF1FE80F98
:101C7000F91FE45DFB4F81819281820F931F909346
:101C8000890080938800E0916E018E2FEE0F990BF2
:101C9000FC01EE0FFF1FE80FF91FE45DFB4F808191
:101CA00087FF11C0E0916E018E2FEE0F990BFC01A2
:101CB000EE0FFF1FE80FF91FE45DFB4F808161E02D
:101CC0008F770E942801FF91EF91DF91CF91BF9113
:101CD000AF919F918F917F916F915F914F913F91C4
:101CE0002F910F900FBE0F901F90189580E49CE9E4
:101CF00090938900809388008FEF80936E01E3CFEB
:101D0000109286031092850388EE93E0A0E0B0E085
:101D10008093870390938803A0938903B0938A03E9
:101D20002CE031E0309384032093830325EC30E0F2
:101D30003093900320938F0324EC30E03093920390
:101D40002093910320EC30E030939403209393038D
:101D500021EC30E0309396032093950322EC30E0A1
:101D6000309398032093970326EC30E030939A0346
:101D70002093990310929C0310929D0310929E034E
:101D800010929F0310922304109222048093240443
:101D900090932504A0932604B09327048EE191E04C
:101DA0009093210480932004109270041092720486
:101DB0001092710480E890E090937404809373040F
:101DC0008CE080936A048DE080936B0483E08093C1
:101DD0006C04809150048C30E0F591E0980F909362
:101DE00050048093670490E0FC01EE0FFF1FE80FA2
:101DF000F91FE45DFB4F88EB9BE0928381838DE0CC
:101E000090E090936604809365048BE090E090935B
:101E10006404809363048AE090E09093620480936A
:101E20006104109252041092510480E4809354048F
:101E30001092590410925A0410925B0410925C04A0
:101E400010925D0410925E0410925F041092600480
:101E500008958FEF80936704D2CFCF93DF93CDB7F0
:101E6000DEB7AF970FB6F894DEBF0FBECDBF789444
:101E700084B5826084BD84B5816084BD85B582608F
:101E800085BD85B5816085BD80916E008160809340
:101E90006E001092810080918100826080938100A9
:101EA00080918100816080938100809180008160B9
:101EB000809380008091B10084608093B100809114
:101EC000B00081608093B00080917A00846080933C
:101ED0007A0080917A00826080937A0080917A0003
:101EE000816080937A0080917A00806880937A0084
:101EF0001092C10010916504809167048C3008F045
:101F000051C0812F0E94000180916704282F30E08A
:101F1000F901EE0FFF1FE20FF31FE45DFB4F1F7788
:101F200090819078912B90831092680410926904AC
:101F30002CE0622F0E94A616829FB001112430E08F
:101F400020E0AB01420F531FFA01EE0FFF1FE40F19
:101F5000F51FE45DFB4F908197FD16C02F5F3F4F4B
:101F60002C30310571F781110FC01092800082E092
:101F7000809381001092850010928400B19A809124
:101F80006F00826080936F00E09167048E2F90E075
:101F9000FC01EE0FFF1FE80FF91FE45DFB4F80818E
:101FA00080688083809163040E94000180916104B5
:101FB0000E940001E0919303F091940382E08083FA
:101FC000E0918F03F09190031082E0919103F091E2
:101FD00092038FEC808310929B03E0919703F09122
:101FE000980386E08083E0919503F09196038081C9
:101FF00080618083E0919503F091960380818860F1
:102000008083E0919503F0919603808180688083BE
:10201000E0919503F091960380818F7D808380917C
:10202000510490915204892BA9F486E090E00E941B
:10203000D017FC0180915404808380E294E0928365
:102040008183138280E290E095838483F09352042D
:10205000E093510400915104109152040E94B6047F
:10206000FF24F394F801F382C8010E949F068111B6
:102070000FC08BE391E00E94360A8CE291E00E944F
:10208000360A6AE070E080E090E00E94F302F9CF47
:1020900080E090E1A0E0B0E0809355049093560476
:1020A000A0935704B09358048AE090E0A0E0B0E019
:1020B0008093590490935A04A0935B04B0935C04FA
:1020C00080E090E0A0E0B0E480935D0490935E0433
:1020D000A0935F04B09360048091510490915204E6
:1020E0001BA21CA21DA21EA29D8B8C8B1F8A1E8A66
:1020F000FD8E85E090E09B8F8A8FFE8E12E01C8F14
:1021000040E050E160E070E0CE0144960E94380665
:102110008091510490915204188A198A1A8A1B8A54
:102120009A8389831C821B82FA8618861F82FB860B
:1021300019874FE959E360E070E0CE0101960E94F3
:1021400038068093530486E090E00E94D0178C01FB
:1021500088E4F801808380E294E092838183138293
:1021600080E290E09583848310936F0400936E0463
:102170000E94B604F801F382C8010E949F068AEA11
:102180008093FB0280EA8093FC028AEA90E00E943E
:102190008800EBE32E2EEFE13E2E83E893E00E94D1
:1021A000C203181619060CF055C01A8219821C8237
:1021B0001B821E821D8270E060E0CE0101960E94AB
:1021C000A30B29813A8181112BC02115310519F00A
:1021D000C9010E946C181A8219821E821D821C82FB
:1021E0001B820E94820397FD23C08C8B1D8A0D8168
:1021F0001E810F5F1F4FB801CE0101960E94A30BF5
:10220000882379F329813A818D819E81BE016C5E9C
:102210007F4F820F931F0E94BB191E830D83E1CF56
:102220001E821D826EE271E0C9010E94BB19D9CFE6
:1022300089819A81009709F45FC30E94AC146130D0
:1022400009F058C36093010189819A81009711F0C8
:102250000E946C1880910101813009F03EC3009109
:102260000103109102030115110531F460E177E2D9
:1022700080E090E00E94F3020E9426036093FD023A
:102280007093FE028093FF029093000340E95FE5A4
:10229000049F9001059F300D149F300D112469019A
:1022A000F12CE12C6C157D058E059F0508F468C2A4
:1022B000012B01F1109100018091FB0291E01111BD
:1022C00090E09093000190E00E94880060ED77E03C
:1022D00080E090E00E94F3020E944D0760ED77E0FD
:1022E00080E090E00E94F30281E0111101C080E0E3
:1022F000809300018BEF92E09BA78AA763EFC62E25
:1023000062E0D62E7DEEE72E72E0F72E1FA2EAA540
:10231000FBA58191FBA7EAA790E00E94880060EDF1
:1023200077E080E090E00E94F302609100018091EC
:1023300063040E94280162E370E080E090E00E9464
:10234000F302812CB12CA12C61E0809161040E94E8
:102350002801C1010197F1F7C50183709927892BE5
:1023600009F0D8C20E9426036093E7027093E80246
:102370008093E9029093EA020E94DE09BC01990F62
:10238000880B990B0E94EF142B013C0160915904BA
:1023900070915A0480915B0490915C040E94ED144A
:1023A0009B01AC01C301B2010E9425179F77609386
:1023B000E3027093E4028093E5029093E6020E94A8
:1023C0009D09082D10E09801220F331F220F331FA3
:1023D000A90141585D4F3A01BC01990F880B990B37
:1023E0000E94EF142FE632E143E85AE30E944E15B3
:1023F0002091E3023091E4024091E5025091E6021F
:102400000E944E159F77F3016083718382839383CB
:1024100080E00E94B108000F111FF801E35BFD4F3F
:102420009183808381E00E94B108F801E55EFD4F51
:102430009183808382E00E94B108F801E751FE4F4A
:102440009183808383E00E94B108F801E954FE4F34
:102450009183808383940E9426036093B3017093D9
:10246000B4018093B5019093B60160E0809161045E
:102470000E942801C1010197F1F7FFEFAF1ABF0ACF
:1024800044E6A416B10409F05FCF8FE7482E82E03E
:10249000582E8DE492E09FA78EA79BE1692E92E0D3
:1024A000792EE9EEF1E0FDA7ECA747EB51E059A743
:1024B00048A78201812C912C540185E691E00E946D
:1024C000C50A87E691E00E94C50A4AE0C501B40149
:1024D0000E94430A87E691E00E94C50AF8016191D3
:1024E0007191819191918F0142E00E94C70A87E624
:1024F00091E00E94C50AEEA5FFA561917191FFA729
:10250000EEA790E080E04AE00E94430A87E691E06F
:102510000E94C50AF301619171913F0190E080E052
:102520004AE00E94430A87E691E00E94C50AECA5B2
:10253000FDA561917191FDA7ECA790E080E04AE0D4
:102540000E94430A87E691E00E94C50AE8A5F9A522
:1025500061917191F9A7E8A790E080E04AE00E94BC
:10256000430A87E691E00E94C50A90E080E00E945D
:10257000870A87E691E00E94C50A90E080E00E9409
:10258000B70AFFEF8F1A9F0AAF0ABF0A49E1841604
:102590009104A104B10409F090CF8091DF029091E1
:1025A000E002A091E102B091E202F6018083918302
:1025B000A283B38348E1F701408310E0F2018190E8
:1025C0009190A190B1902F01F6012081318142813B
:1025D0005381C501B4010E94C617181654F4F601C0
:1025E00080829182A282B382FFA1F111AAC1F70178
:1025F00010831F5F193111F760ED77E080E090E004
:102600000E94F30281E090910001911180E080939B
:102610000001F4E0CF0ED11C4FEFE41AF40A5FA1E1
:10262000513009F074C1E090F702F090F802009187
:10263000F9021091FA028090EE029090FC02A090B4
:10264000F302B090F402C090F502D090F602970128
:10265000A801B501C6010E94C6177090ED026090F6
:10266000FB02181624F0692C782C57016801970199
:10267000A801B501C6010E94E81487FD04C0962C8C
:10268000872C75018601C701D8018093EF029093D2
:10269000F002A093F102B093F2028092EC029092C9
:1026A000EB0289E691E00E94C50A87E691E00E946C
:1026B000C50A6091EF027091F0028091F102909151
:1026C000F20242E00E94C70A87E691E00E94C50A32
:1026D0006091EC0270E090E080E04AE00E94430AE2
:1026E00087E691E00E94C50A6091EB0270E090E0FD
:1026F00080E04AE00E94430A87E691E00E94C50A12
:1027000090E080E00E94870A87E691E00E94C50A77
:1027100090E080E00E94870A87E691E00E94C50A67
:1027200090E080E00E94870A87E691E00E94C50A57
:1027300090E080E00E94870A87E691E00E94C50A47
:1027400090E080E00E94B70A8091EB0290E00E9446
:10275000880060ED77E080E090E00E94F3020E9444
:102760004D0760ED77E080E090E00E94F3028091F9
:102770000103909102030196909302038093010359
:102780008BE691E00E94C50A87E691E00E94C50AA7
:102790006091FD027091FE028091FF029091000312
:1027A0004AE00E94430A87E691E00E94C50A0E941F
:1027B0009D09BC01990F880B990B0E94EF142FE61D
:1027C00032E143E85AE30E944E1542E00E94C70AF4
:1027D00087E691E00E94C50A0E94DE09BC01990FBC
:1027E000880B990B0E94EF146B017C0160915904D6
:1027F00070915A0480915B0490915C040E94ED14E6
:102800009B01AC01C701B6010E9425179F7742E0EA
:102810000E94C70A87E691E00E94C50A0E949D09AE
:102820008C010E94DE09BC01990F880B990B0E9454
:10283000EF146B017C016091590470915A048091EE
:102840005B0490915C040E94ED149B01AC01C701F4
:10285000B6010E9425176B017C01B801110F880B8E
:10286000990B0E94EF142FE632E143E85AE30E94ED
:102870004E159B01AC01C701B6010E944E159F7712
:1028800042E00E94C70A87E691E00E94C50A80E004
:102890000E94B1080E94870A87E691E00E94C50A5B
:1028A00081E00E94B1080E94870A87E691E00E94B9
:1028B000C50A82E00E94B1080E94870A87E691E07B
:1028C0000E94C50A83E00E94B1080E94B70A68EE20
:1028D00073E080E090E00E94F30280E090E0892BBA
:1028E00009F45BCC0E94CE03882309F456CC0E94E5
:1028F000000053CC6111A8CC1092010186E591E053
:102900000E94360A8CE291E00E94360A9DCC91E04A
:102910009FA3FDCC6091B3017091B4018091B5018A
:102920009091B6010091E7021091E8022091E9022E
:102930003091EA02601B710B820B930B0E94F30231
:1029400094CD89E1811BF701808353CE809151049E
:10295000909152040C946C181F93FC0199278827BE
:10296000BC01E89411911032E9F3193010F01E30D7
:10297000C8F31B3251F01D3249F4689406C00E941E
:10298000D314610F711D811D911D119110531A30C7
:10299000B0F33EF490958095709561957F4F8F4F81
:1029A0009F4F1F910895592F482F372F262F660FBD
:1029B000771F881F991F660F771F881F991F620F47
:1029C000731F841F951F660F771F881F991F089517
:1029D0000E942A1508F481E00895E89409C097FB45
:1029E0003EF490958095709561957F4F8F4F9F4FE6
:1029F0009923A9F0F92F96E9BB279395F69587952A
:102A000077956795B795F111F8CFFAF4BB0F11F4EC
:102A100060FF1BC06F5F7F4F8F4F9F4F16C0882393
:102A200011F096E911C0772321F09EE8872F762FC9
:102A300005C0662371F096E8862F70E060E02AF00A
:102A40009A95660F771F881FDAF7880F96958795F6
:102A500097F90895990F0008550FAA0BE0E8FEEFCB
:102A600016161706E807F907C0F012161306E40752
:102A7000F50798F0621B730B840B950B39F40A264B
:102A800061F0232B242B252B21F408950A2609F429
:102A9000A140A6958FEF811D811D08950E946115AB
:102AA0000C94D2150E94C41538F00E94CB1520F06A
:102AB000952311F00C94BB150C94C11511240C94A2
:102AC00006160E94E31570F3959FC1F3950F50E031
:102AD000551F629FF001729FBB27F00DB11D639FD0
:102AE000AA27F00DB11DAA1F649F6627B00DA11D76
:102AF000661F829F2227B00DA11D621F739FB00D1C
:102B0000A11D621F839FA00D611D221F749F33278B
:102B1000A00D611D231F849F600D211D822F762F24
:102B20006A2F11249F5750409AF0F1F088234AF001
:102B3000EE0FFF1FBB1F661F771F881F915050406D
:102B4000A9F79E3F510580F00C94BB150C94061616
:102B50005F3FE4F3983ED4F3869577956795B795F4
:102B6000F795E7959F5FC1F7FE2B880F911D96950E
:102B7000879597F9089597F99F6780E870E060E07E
:102B800008959FEF80EC089500240A941616170606
:102B900018060906089500240A941216130614064E
:102BA00005060895092E0394000C11F4882352F0B1
:102BB000BB0F40F4BF2B11F460FF04C06F5F7F4F69
:102BC0008F4F9F4F089557FD9058440F551F59F050
:102BD0005F3F71F04795880F97FB991F61F09F3F0A
:102BE00079F087950895121613061406551FF2CF33
:102BF0004695F1DF08C0161617061806991FF1CF83
:102C000086957105610508940895E894BB276627A9
:102C10007727CB0197F90895052E97FB1EF40094B2
:102C20000E94231657FD07D00E94751607FC03D09B
:102C30004EF40C94231650954095309521953F4FB6
:102C40004F4F5F4F089590958095709561957F4F98
:102C50008F4F9F4F08950E949716A59F900DB49F88
:102C6000900DA49F800D911D11240895B7FF0C9421
:102C70002B160E942B16821B930B08952F923F92C6
:102C80004F925F926F927F928F929F92AF92BF927C
:102C9000CF92DF92EF92FF920F931F93CF93DF9328
:102CA000CDB7DEB7CA1BDB0B0FB6F894DEBF0FBE85
:102CB000CDBF09942A88398848885F846E847D84D2
:102CC0008C849B84AA84B984C884DF80EE80FD80D4
:102CD0000C811B81AA81B981CE0FD11D0FB6F8944A
:102CE000DEBF0FBECDBFED010895A1E21A2EAA1BD3
:102CF000BB1BFD010DC0AA1FBB1FEE1FFF1FA217AC
:102D0000B307E407F50720F0A21BB30BE40BF50BA8
:102D1000661F771F881F991F1A9469F76095709531
:102D2000809590959B01AC01BD01CF010895A29FB4
:102D3000B001B39FC001A39F700D811D1124911D8F
:102D4000B29F700D811D1124911D0895991B79E08A
:102D500004C0991F961708F0961B881F7A95C9F72B
:102D600080950895EE0FFF1F0590F491E02D0994D2
:102D70005058BB27AA270E94D0160C94D2150E9447
:102D8000C41538F00E94CB1520F039F49F3F19F498
:102D900026F40C94C1150EF4E095E7FB0C94BB15DA
:102DA000E92F0E94E31558F3BA17620773078407E7
:102DB000950720F079F4A6F50C9405160EF4E0952D
:102DC0000B2EBA2FA02D0B01B90190010C01CA01E5
:102DD000A0011124FF27591B99F0593F50F4503E90
:102DE00068F11A16F040A22F232F342F4427585F82
:102DF000F3CF469537952795A795F0405395C9F79A
:102E00007EF41F16BA0B620B730B840BBAF0915051
:102E1000A1F0FF0FBB1F661F771F881FC2F70EC0F0
:102E2000BA0F621F731F841F48F4879577956795C3
:102E3000B795F7959E3F08F0B0CF9395880F08F0AF
:102E40009927EE0F9795879508950E9439170C944E
:102E5000D2150E94CB1558F00E94C41540F029F4F9
:102E60005F3F29F00C94BB1551110C9406160C947D
:102E7000C1150E94E31568F39923B1F3552391F32B
:102E8000951B550BBB27AA2762177307840738F0D9
:102E90009F5F5F4F220F331F441FAA1FA9F335D036
:102EA0000E2E3AF0E0E832D091505040E695001CEA
:102EB000CAF72BD0FE2F29D0660F771F881FBB1FA4
:102EC000261737074807AB07B0E809F0BB0B802D82
:102ED000BF01FF2793585F4F3AF09E3F510578F0AE
:102EE0000C94BB150C9406165F3FE4F3983ED4F3A4
:102EF000869577956795B795F7959F5FC9F7880F82
:102F0000911D9695879597F90895E1E0660F771FD3
:102F1000881FBB1F621773078407BA0720F0621B64
:102F2000730B840BBA0BEE1F88F7E09508950E948F
:102F3000EB1588F09F5798F0B92F9927B751B0F04B
:102F4000E1F0660F771F881F991F1AF0BA95C9F72D
:102F500014C0B13091F00E940516B1E008950C94B0
:102F60000516672F782F8827B85F39F0B93FCCF363
:102F7000869577956795B395D9F73EF490958095AA
:102F8000709561957F4F8F4F9F4F08950E942A152E
:102F900008F48FEF08950E942A15880B990B089565
:102FA0000F931F93CF93DF938230910510F482E04B
:102FB00090E0E0917A04F0917B0430E020E0B0E012
:102FC000A0E0309799F42115310509F44AC0281B77
:102FD000390B24303105D8F58A819B816115710543
:102FE00089F1FB0193838283FE0111C040815181ED
:102FF0000281138148175907E0F04817590799F4DF
:10300000109761F012960C93129713961C933296B8
:10301000CF01DF91CF911F910F91089500937A0412
:1030200010937B04F4CF2115310551F0421753075B
:1030300038F0A901DB019A01BD01DF01F801C1CF20
:10304000EF01F9CF90937B0480937A04CDCFFE01FA
:10305000E20FF31F81939193225031093983288322
:10306000D7CF2091780430917904232B41F420911B
:103070000401309105013093790420937804209164
:103080000201309103012115310541F42DB73EB7FE
:103090004091060150910701241B350BE091780403
:1030A000F0917904E217F307A0F42E1B3F0B2817C9
:1030B000390778F0AC014E5F5F4F2417350748F0B1
:1030C0004E0F5F1F5093790440937804819391933E
:1030D0009FCFF0E0E0E09CCFCF93DF930097E9F043
:1030E000FC01329713821282A0917A04B0917B0482
:1030F000ED0130E020E01097A1F420813181820FB2
:10310000931F20917804309179042817390709F02A
:1031100061C0F0937904E0937804DF91CF91089532
:10312000EA01CE17DF07E8F54A815B819E01411570
:103130005105B1F7E901FB83EA8349915991C40F25
:10314000D51FEC17FD0761F4808191810296840FF1
:10315000951FE90199838883828193819B838A8368
:10316000F0E0E0E012968D919C9113970097B9F5ED
:103170002D913C911197CD010296820F931F2091C2
:103180007804309179042817390739F6309751F5CA
:1031900010927B0410927A04B0937904A09378047F
:1031A000BCCFD383C28340815181840F951FC81740
:1031B000D90761F44E5F5F4F88819981480F591F8D
:1031C000518340838A819B819383828321153105BA
:1031D00009F0B0CFF0937B04E0937A049ECFFD0119
:1031E000DC01C0CF13821282D7CFB0E0A0E0EBEFBA
:1031F000F8E10C9440168C01009751F4CB010E9429
:10320000D0178C01C801CDB7DEB7E0E10C945C1695
:10321000FC01E60FF71F9C0122503109E217F3076A
:1032200008F49DC0D901CD91DC911197C617D7073D
:1032300098F0C530D10530F3CE0104978617970773
:1032400008F3C61BD70B2297C193D1936D937C9340
:10325000CF010E946C18D6CF5B01AC1ABD0A4C019D
:103260008C0E9D1EA0917A04B0917B04512C412CB0
:10327000F12CE12C109731F580917804909179042C
:103280008815990509F05CC04616570608F058C025
:103290008091020190910301009741F48DB79EB790
:1032A0004091060150910701841B950BE817F9071F
:1032B00008F055C0F0937904E0937804F901718324
:1032C0006083A0CF8D919C91119712966C9012976C
:1032D00013967C901397A815B90559F56C0142E037
:1032E000C40ED11CCA14DB0420F1AC014A195B09DD
:1032F000DA011296159780F06282738251834083BF
:10330000D9016D937C93E114F10471F0D701139608
:10331000FC93EE93129776CF22968C0F9D1FF901A6
:1033200091838083F301EFCFF0937B04E0937A04E1
:1033300069CF4816590608F42C017D01D3019ACFB4
:10334000CB010E94D0177C01009749F0AE01B80173
:103350000E94B219C8010E946C18870153CF10E077
:1033600000E050CFFB01DC0102C001900D92415002
:103370005040D8F70895FB01DC0101900D92002028
:10338000E1F7089510E0CDE5D0E004C0FE010E9411
:0E339000B2162196CE35D107C9F7F894FFCFBB
:10339E00010100007C0480000000000004043203E0
:1033AE005F035104C2036E03B403000000001B0749
:1033BE00EE064A07C406E706D406C5060D0A006ED9
:1033CE00616E00696E66006F7666004661696C65B7
:1033DE006420746F2066696E6420494E4132313923
:1033EE002063686970004D6F746F72732053746F31
:0E33FE00707065640053002C0052004B0000FC
:00000001FF
