:100000000C945E000C9486000C9486000C94860080
:100010000C9486000C9486000C9486000C94860048
:100020000C9486000C9486000C9486000C94C50DEC
:100030000C9486000C9486000C9486000C94860028
:100040000C94040C0C9486000C94740C0C944E0CC0
:100050000C9486000C9486000C9486000C94860008
:100060000C94A60C0C94860000000008000201000D
:100070000003040700000000000000000000000072
:10008000250028002B0000000000240027002A0083
:10009000040404040404040402020202020203032E
:1000A0000303030301020408102040800102040836
:1000B0001020010204081020810E8A1411241FBE92
:1000C000CFEFD8E0DEBFCDBF11E0A0E0B1E0E6E6C3
:1000D000F3E302C005900D92AC36B107D9F724E0E6
:1000E000ACE6B1E001C01D92AF37B207E1F710E016
:1000F000CDE5D0E004C02197FE010E949616CC35D4
:10010000D107C9F70E942E0F0C94A6190C94000079
:10011000CF92DF92EF92FF92DC01803232E09307C0
:10012000BCF5853B910514F0A4EBB0E040916B0465
:1001300028E830E0241B310947FD3395220F331F97
:10014000220F331F6901330FEE08FF0840916C0442
:100150002EE239E084E04802201931091124032EEF
:10016000000C440B550B2C193D094E095F09B7FFD4
:1001700002C0B0E0A0E00E941A1624EB30E040E09C
:1001800050E00E94F015C20ED31EE41EF51ED601EB
:10019000E0916A04EC3068F520916B0488E890E007
:1001A000821B910927FD9395880F991F880F991F2E
:1001B000A817B9076CF020916C048EE299E034E046
:1001C0002302801991091124A817B9070CF4CD0155
:1001D0000297880F991F4FB7F8942E2F30E0F9013E
:1001E000EE0FFF1FE20FF31FE15DFB4F9283818350
:1001F0004FBFFF90EF90DF90CF900895089508953E
:1002000090E0FC01EC55FF4F249180579F4FFC017B
:100210008491882399F090E0880F991FFC01EA5798
:10022000FF4FA591B491FC01E458FF4F8591949143
:100230008FB7F894EC91E22BEC938FBF08958FB7B2
:10024000F89480910B038FBF08958CBD9DBD0895D8
:1002500090E0FC01E859FF4F2491FC01EC55FF4F61
:100260003491FC01E057FF4FE491EE23C9F02223C3
:1002700039F0233001F1A8F4213019F1223029F1AD
:10028000F0E0EE0FFF1FE458FF4FA591B4918FB738
:10029000F894EC91611126C030953E233C938FBFBA
:1002A00008952730A9F02830C9F0243049F780910B
:1002B00080008F7D03C0809180008F7780938000C5
:1002C000DFCF84B58F7784BDDBCF84B58F7DFBCF47
:1002D0008091B0008F778093B000D2CF8091B00032
:1002E0008F7DF9CF3E2BDACF8230910538F0880F21
:1002F000991F880F991F05970197F1F70895AF92FD
:10030000BF92CF92DF92EF92FF920F931F93CF9302
:10031000DF93EC0188819981892B89F06EBD0DB442
:1003200007FEFDCFBEB48B2DDF91CF911F910F91B2
:10033000FF90EF90DF90CF90BF90AF9008958885A9
:10034000998511E0892B09F010E8AA24A394862F3F
:10035000812309F0A12C062F2C813D814E815F81E4
:1003600060E271EA87E090E00E945916F22EB02E0A
:10037000E12CC22ED12CFF2019F0C6010E9474017D
:100380008A85877F09F042C08D858F3F89F0902F45
:10039000912381E009F480E08A1551F0EF85F88916
:1003A0008F89992369F19081892B8083AA24A39452
:1003B000E989FA898081998D892B8083FF2019F042
:1003C000C6010E9474018E858F3F39F0EB89FC894C
:1003D0008081988D892309F0E12AE989FA89908141
:1003E000898D8095892380838E858F3F09F0BE2C6F
:1003F00088859985892BB9F5110F1111BCCF93CF41
:100400009081809589238083A12CD2CFE989FA89B4
:100410008081998D892B8083FF2019F0C6010E946D
:1004200074018D858F3F49F0EF85F8898F89902F72
:100430009123A9F09081892B8083E989FA899081A1
:10044000898D8095892380838E858F3F69F2EB8922
:10045000FC898081988D892339F2E12AC5CF90816A
:1004600080958923E9CF1695C8CF8F929F92AF923E
:10047000BF92CF92DF92EF92FF920F931F93CF9391
:10048000DF93EC014B016A01B22EA32E8881998182
:10049000892B31F0EA81FB81808191810E942501C5
:1004A00060E08B850E9428017401C80CD91CEC14F3
:1004B000FD0479F4EB2CFA2C0E0D1F1D0E151F05F3
:1004C00079F06FEFCE010E947F01F70181937F01E8
:1004D000F5CFF70161917F01CE010E947F01E7CF47
:1004E00061E08B850E94280181E0DF91CF911F910F
:1004F0000F91FF90EF90DF90CF90BF90AF909F90C3
:100500008F9008958F929F92AF92BF92CF92DF9279
:10051000EF92FF920F931F93CF93DF93EC01B62ED0
:10052000A72E6A01490188819981892B31F0EA81DE
:10053000FB81808191810E94250160E08B850E9472
:1005400028017401080D191DE016F10671F40B2D38
:100550001A2DC00ED11EC016D10671F0F80161919E
:100560008F01CE010E947F01F6CFF70161917F01DB
:10057000CE010E947F01E8CF61E08B850E942801B7
:1005800081E0DF91CF911F910F91FF90EF90DF906D
:10059000CF90BF90AF909F908F9008953FB7F89401
:1005A0008091070390910803A0910903B0910A0379
:1005B00026B5A89B05C02F3F19F00196A11DB11DBE
:1005C0003FBFBA2FA92F982F8827BC01CD01620FFA
:1005D000711D811D911D42E0660F771F881F991FB5
:1005E0004A95D1F708958F929F92AF92BF92CF9282
:1005F000DF92EF92FF924B015C010E94CE026B01F1
:100600007C010E94CE026C197D098E099F09683E0B
:10061000734081059105A8F321E0821A9108A10891
:10062000B10888EEC80E83E0D81EE11CF11C8114CD
:100630009104A104B10429F7FF90EF90DF90CF90CF
:10064000BF90AF909F908F900895AF92BF92CF923E
:10065000DF92EF92FF920F931F93CF93DF936C0182
:100660007B018B01040F151FEB015E01AE18BF0863
:10067000C017D10759F06991D601ED91FC91019015
:10068000F081E02DC6010995892B79F7C501DF912D
:10069000CF911F910F91FF90EF90DF90CF90BF907F
:1006A000AF900895FC01538D448D252F30E0842FA9
:1006B00090E0821B930B541710F0CF96089501978A
:1006C0000895FC01918D828D981761F0A28DAE0F77
:1006D000BF2FB11D5D968C91928D9F5F9F73928FFE
:1006E00090E008958FEF9FEF08952FB7F8948091D1
:1006F0000C0390910D03A0910E03B0910F032FBF37
:1007000080938E0390938F03A0939003B0939103F3
:1007100086E893E00E94610397FF26C02FB7F89404
:1007200080910C0390910D03A0910E03B0910F03E3
:100730002FBF40918E0350918F0360919003709171
:100740009103841B950BA60BB70B40918A03509124
:100750008B0360918C0370918D0384179507A60716
:10076000B707B0F28FEF9FEF0895FC01918D828D56
:10077000981731F0828DE80FF11D858D90E0089576
:100780008FEF9FEF0895FC01918D228D892F90E0CE
:10079000805C9F4F821B91098F739927089586E88B
:1007A00093E00E94C30321E0892B09F420E0822F0B
:1007B000089580E090E0892B29F00E94CF038111F9
:1007C0000C9400000895FC01A48DA80FB92FB11D51
:1007D000A35ABF4F2C91848D90E001968F73992777
:1007E000848FA689B7892C93A089B1898C91837055
:1007F00080648C93938D848D981306C00288F3894E
:10080000E02D80818F7D80830895EF92FF920F937A
:100810001F93CF93DF93EC0181E0888F9B8D8C8DAC
:1008200098131AC0E889F989808185FF15C09FB7A0
:10083000F894EE89FF896083E889F9898081837063
:10084000806480839FBF81E090E0DF91CF911F9112
:100850000F91FF90EF900895F62E0B8D10E00F5F33
:100860001F4F0F731127E02E8C8D8E110CC00FB609
:1008700007FCFACFE889F989808185FFF5CFCE01A1
:100880000E94E303F1CFEB8DEC0FFD2FF11DE35A36
:10089000FF4FF0829FB7F8940B8FEA89FB89808124
:1008A0008062CFCFCF93DF93EC01888D8823B9F09E
:1008B000AA89BB89E889F9898C9185FD03C080816B
:1008C00086FD0DC00FB607FCF7CF8C9185FFF2CFE8
:1008D000808185FFEDCFCE010E94E303E9CFDF9158
:1008E000CF91089520918E01260F3327331F213297
:1008F0003105ECF420915C03FC0190E080E02430B1
:1009000069F082E00895A0918E012191AC014259D5
:100910005E4FA40FB52FB11D2C930196861798F347
:1009200080918E01680F60938E0180E0089581E0D0
:10093000089510925C0381E080935B03109236036C
:1009400061E082E10E94280161E083E10E942801C8
:10095000E9EBF0E080818E7F808380818D7F8083D2
:1009600088E48093B80085E48093BC0008951092D9
:1009700015031092140310926303109285030E94D2
:1009800099048EEF90E090931303809312038FEFFE
:1009900090E090931103809310030895CF93DF9319
:1009A00091E090936D018823B9F0C091B800D09187
:1009B000BA008091BC008A7B8093BC0060E082E139
:1009C0000E94280160E083E10E9428010E949904AE
:1009D000D093BA00C093B800DF91CF9108958F9261
:1009E0009F92AF92BF92CF92DF92EF92FF920F93BE
:1009F0001F93CF93DF93D0918503D13208F0D7C0F6
:100A0000182FC09184030E94CE026B017C0180915B
:100A10005C0381116BC082E080935C0310935B03E5
:100A20008FEF80935A0310925903D0935803A4E692
:100A3000B3E0E8E3F3E080E0D81391C0109237030D
:100A400080913703CC0FC82BC093370380913603B6
:100A5000813009F088C0109236030E94CE026B01EB
:100A60007C01809137038093BB0080915E0390915D
:100A70005F03A0916003B0916103892B8A2B8B2BBC
:100A8000A1F00E94CE0200915E0310915F032091BD
:100A90006003309161036C197D098E099F09061767
:100AA00017072807390708F442C08091BC0083FD6E
:100AB000D8CF85EC8093BC000E94CE026B017C01F4
:100AC00080915C03823009F450C080915A038F3FBB
:100AD00009F46FC080915A03803209F46CC0809190
:100AE0005A03803309F469C084E026C080915E0314
:100AF00090915F03A0916003B0916103892B8A2BD1
:100B00008B2B09F484CF0E94CE0280905E039090DC
:100B10005F03A0906003B09061036C197D098E099A
:100B20009F0986169706A806B90608F070CF80912F
:100B30005D030E94CE0485E010926303109285034A
:100B400010926203DF91CF911F910F91FF90EF9070
:100B5000DF90CF90BF90AF909F908F9008959D9120
:100B600091938F5F69CF85EEA5CF80915E039091C1
:100B70005F03A0916003B0916103892B8A2B8B2BBB
:100B800009F49ECF0E94CE0200915E0310915F0394
:100B900020916003309161036C197D098E099F09D2
:100BA000061717072807390708F08ACFC0CF81E05A
:100BB000C3CF80E0C1CF82E0BFCF83E0BDCF8F92B3
:100BC0009F92BF92CF92DF92EF92FF920F931F936B
:100BD000CF93DF93DA01AE0DBF1DEC01EC81FD81F7
:100BE000EA17FB0710F490E026C0B22E6A014B0111
:100BF00089819A81288131E03093620320938403B4
:100C00001092630310928503E114F10409F58981C0
:100C10009A81DC01ED91FC910280F381E02DA60127
:100C2000B4010995C816D906F1F68B2D0E94EF0480
:100C300091E08111D8CF892FDF91CF911F910F9132
:100C4000FF90EF90DF90CF90BF909F908F9008958E
:100C500001151105E1F2DC01ED91FC910280F381B7
:100C6000E02DA701B80109958E159F0509F0BBCFAE
:100C7000CECFEF92FF920F931F93CF93DF9300D0CD
:100C8000CDB7DEB7FC014787508B618B728B8285B5
:100C9000882339F14487452F562F672F77278823DC
:100CA00011F14387BF01655F7F4F9681478199832B
:100CB0004A83A081B1811097C1F0E184F12C8E01AB
:100CC0000F5F1F4F21E042E050E0CD010E94DF05A1
:100CD0000F900F90DF91CF911F910F91FF90EF90A8
:100CE00008954387D8CF4487DDCFA281B38180E0C8
:100CF000109771F324813581018510E0233031058F
:100D000071F44E7F49839A830F5F1F4F9E012F5FBF
:100D10003F4F42E050E0CD010E948202D9CF211521
:100D2000310519F49F779983F1CF2230310511F401
:100D30009068F9CF2130310549F79F779064F3CF60
:100D4000CF93DF93EC018B818823A1F0888191E020
:100D5000909362038093840310926303109285033F
:100D600081E00E94EF0491E0811190E0892FDF91F2
:100D7000CF9108950E94B70481E08B83CE010E9439
:100D8000A006982F8111E2CFF1CF0895E0911503CD
:100D900080911403E81730F4F0E0EA5EFC4F8081A4
:100DA00090E008958FEF9FEF089590911503809143
:100DB00014032FEF3FEF981748F4E92FF0E0EA5EB5
:100DC000FC4F208130E09F5F90931503C901089587
:100DD0008091140390911503891B990B0895CF926C
:100DE000DF92EF92FF920F931F93CF93DF937C01DB
:100DF000CB018A0120916203222389F0EB016B0170
:100E0000C40ED51ECC15DD0569F06991D701ED91B1
:100E1000FC910190F081E02DC7010995F3CF642F7B
:100E20000E947204C801DF91CF911F910F91FF9032
:100E3000EF90DF90CF900895CF93DF931F92CDB7BF
:100E4000DEB76983209162032223F9F020918503A4
:100E5000203258F021E030E0FC013383228390E01F
:100E600080E00F90DF91CF91089580916303E82F88
:100E7000F0E0EC59FC4F998190838F5F809363037E
:100E80008093850381E090E0ECCF61E0CE01019694
:100E90000E947204F7CF90E080E00895FF920F93D4
:100EA0001F93CF93DF9360910001809166040E94AD
:100EB000280162E370E080E090E00E94F302D0E05D
:100EC000C0E00BE31FE18091E2028C171D0699F050
:100ED00094F0F090640461E08F2D0E942801C80115
:100EE0000197F1F760E08F2D0E942801C80101975A
:100EF000F1F72196E8CFDF91CF911F910F91FF90ED
:100F000008954F925F926F927F928F929F92AF92CD
:100F1000BF92CF92DF92EF92FF920F931F93CF93E6
:100F2000DF93DC0114962D913C912417350708F4CA
:100F3000DBC08A016B017C01FC01D0810E94CE02E2
:100F40004B015C0180915C03811169C0C02F0132AB
:100F500008F0C0E281E080935C0380935B039FEF25
:100F600090935A03109259039C0F909358038093C7
:100F7000370380913703DD0FD82BD093370380914F
:100F80003603813009F08CC0109236030E94CE02E5
:100F90004B015C01809137038093BB0080915E031D
:100FA00090915F03A0916003B0916103892B8A2B1C
:100FB0008B2BA1F00E94CE0240905E0350905F0305
:100FC0006090600370906103681979098A099B0930
:100FD000461657066806790608F442C08091BC00A0
:100FE00083FDD8CF85EC8093BC000E94CE024B01DC
:100FF0005C0180915C03813009F454C080915903F5
:101000008C1710F4C0915903A8E3B3E0E6E1F3E0D4
:1010100080E08C1751F19D9191938F5FFACF809171
:101020005E0390915F03A0916003B0916103892BEF
:101030008A2B8B2B09F486CF0E94CE0240905E0350
:1010400050905F03609060037090610368197909A4
:101050008A099B09461657066806790608F072CF7A
:1010600080915D030E94CE04C0E010921503C093EE
:101070001403C0171106C1F5E6010C0D1D1D0C1758
:101080001D0709F443C0D70111968D919C91DC0195
:10109000ED91FC910284F385E02D09958993EFCFC2
:1010A00085EEA1CF80915E0390915F03A0916003D4
:1010B000B0916103892B8A2B8B2B09F49ACF0E9464
:1010C000CE0240905E0350905F036090600370908A
:1010D0006103681979098A099B094616570668064B
:1010E000790608F086CFBCCF80E0DF91CF911F91C9
:1010F0000F91FF90EF90DF90CF90BF90AF909F90B7
:101100008F907F906F905F904F90089581E0EDCF2A
:10111000EF92FF920F931F93CF93DF93C1E7D4E039
:101120008F83F12CE12C10E000E021E041E050E061
:1011300068E774E0888199810E94DF0542E050E011
:1011400068E774E0888199810E9481078F81988582
:10115000982789279827DF91CF911F910F91FF90B2
:10116000EF900895EF92FF920F931F93482F2091D5
:101170007404309175048091760490917704822BE9
:10118000932B4230D9F14330E1F14130A1F183603A
:101190009164906821E0209378049093790480937F
:1011A0007A04F12CE12C10E000E043E050E068E725
:1011B00074E080917104909172040E94DF0581E0D7
:1011C0000E94880897FFFBCF80E00E94880820914A
:1011D0007304022E02C0969587950A94E2F72223A3
:1011E00029F0811528E0920708F0906F1F910F9168
:1011F000FF90EF90089583609165CBCF83609166F7
:10120000C8CF83609167C5CF6F927F928F929F9274
:10121000AF92BF92CF92DF92EF92FF920F931F9304
:10122000CF93DF9300D0CDB7DEB76C015B014C01EB
:101230008BE0880E911CD60116969C9116971796F6
:101240008C91179799838A836D907C901197611484
:101250007104D9F119964C9150E0F12CE12C10E079
:1012600000E020E0BE016F5F7F4FC3010E94DF05F9
:10127000811112C080E00F900F90DF91CF911F91EC
:101280000F91FF90EF90DF90CF90BF90AF909F9025
:101290008F907F906F90089542E050E0B401C301B9
:1012A0000E948107882339F3F601928591113CC091
:1012B000248530E0322F2227D50111963C932E93BE
:1012C0009385292B2D933C93D6CF1296ED91FC91CB
:1012D0001397309779F214962D913C9115971996A2
:1012E0004C9150E02330310579F4816089839A83F1
:1012F0004F5F5F4F02E010E09401BE016F5F7F4FD0
:10130000CF010E943502CECF2115310519F4906826
:101310009983F0CF2230310511F49F77F9CF213036
:10132000310541F7906CF4CF238530E0322F22272E
:10133000D50111963C932E939485C3CF0F931F93A1
:10134000CF93DF93CDB7DEB765970FB6F894DEBFC6
:101350000FBECDBF04E514E0F80180819181188AA9
:10136000198A1A8A1B8A9A8389831C821B8281E0CC
:101370008A8722E030E038872F838B8782E0898755
:10138000BE016C5E7F4FCE0101960E940409F801F8
:1013900082838C899D8923E0969587952A95E1F72C
:1013A000880F991F880F991F65960FB6F894DEBFB6
:1013B0000FBECDBFDF91CF911F910F910895EF9296
:1013C000FF920F931F93CF93DF93CDB7DEB7A8970C
:1013D0000FB6F894DEBF0FBECDBF04E514E0F801F0
:1013E000808191811BA21CA21DA21EA29D8B8C8BB1
:1013F0001F8A1E8AFF24F394FD8E85E090E09B8F68
:101400008A8FFE8E82E0E82EEC8E448155816681C3
:101410007781CE0144960E943906F801808191813E
:10142000188A198A1A8A1B8A9A8389831C821B82CA
:10143000FA8684E090E098878F83FB86E986BE0178
:10144000695D7F4FCE0101960E940409F8018283F5
:101450008FA198A5A8960FB6F894DEBF0FBECDBF9A
:10146000DF91CF911F910F91FF90EF900895FC01B4
:1014700001900020E9F73197AF01481B590BBC01DF
:1014800086E893E00C9425038F929F92AF92BF92CF
:101490000F931F93CF93DF93CDB7DEB7A1970FB60E
:1014A000F894DEBF0FBECDBF19A2423008F44AE067
:1014B0008E010F5D1F4F842E912CB12CA12CA50104
:1014C00094010E945916E62FB901CA01EA30F4F4DA
:1014D000E05DD801EE938D01232B242B252B79F78A
:1014E00090E080E0109719F0CD010E94370AA19694
:1014F0000FB6F894DEBF0FBECDBFDF91CF911F9125
:101500000F91BF90AF909F908F900895E95CE1CFCD
:10151000CF92DF92EF92FF92CF93DF936C01990FFE
:10152000EE08FF08F7FE19C06DE286E893E00E941E
:101530000504EC0166277727CB016C197D098E091C
:101540009F094AE00E94440A8C0F9D1FDF91CF91B2
:10155000FF90EF90DF90CF9008954AE0C701B60169
:10156000DF91CF91FF90EF90DF90CF900C94440AE1
:10157000CF93DF930E94880AEC018BE291E00E94F6
:10158000370A8C0F9D1FDF91CF9108950C94370A75
:101590004F925F926F927F928F929F92AF92BF9283
:1015A000CF92DF92EF92FF920F931F93CF936B0135
:1015B0007C01742EAC019B010E94AF17882399F027
:1015C0008EE291E0CF911F910F91FF90EF90DF900D
:1015D000CF90BF90AF909F908F907F906F905F90D3
:1015E0004F900C94370A46015701E894B7F82FEF53
:1015F0003FEF4FE75FE7C501B4010E94AF178111CC
:101600000DC02FEF3FEF4FE75FE7C501B4010E9428
:10161000CC1418161CF482E391E0D4CF2FEF3FEFE7
:101620004FE75FE4C701B6010E94AA1718161CF421
:1016300086E391E0C7CF2FEF3FEF4FE75FECC701A5
:10164000B6010E94CC1487FDF3CF20E030E0A90161
:10165000C701B6010E94CC1410E000E087FF0AC069
:101660006DE286E893E00E9405048C01F7FAF0949D
:10167000F7F8F094C0E060E070E080E09FE37C1653
:1016800041F020E030E040E251E40E940917CF5FD2
:10169000F6CFA70196010E949D162B013C010E94E6
:1016A0007B174B015C014AE00E94440A7C01E00E7A
:1016B000F11ECC23C1F1C501B4010E94D1149B01DC
:1016C000AC01C301B2010E949C164B015C016EE2A9
:1016D00086E893E00E940504E80EF91EC15018F157
:1016E00020E030E040E251E4C501B4010E9432152F
:1016F0002B013C010E947B174B01B12CA12C4AE02D
:10170000C501B4010E94440AE80EF91EC501B401E6
:101710000E94D1149B01AC01C301B2010E949C162E
:101720004B015C01DBCFC701CF911F910F91FF905F
:10173000EF90DF90CF90BF90AF909F908F907F9071
:101740006F905F904F9008950F931F93CF93DF9307
:10175000EC0188819981009759F02A813B812617F5
:10176000370730F081E0DF91CF911F910F910895FD
:101770008B016F5F7F4F0E94D918009759F09983B2
:1017800088831B830A832C813D81232B59F7FC011D
:101790001082E8CF80E0E7CF85ED8093BC00809198
:1017A0005E0390915F03A0916003B091610307967F
:1017B000A11DB11D23E0B695A795979587952A950C
:1017C000D1F72091BC0024FD03C010925C03089562
:1017D00040915E0350915F036091600370916103DB
:1017E000452B462B472B69F30097A105B10541F026
:1017F00025E32A95F1F700000197A109B109E1CF8E
:1018000080915D030C94CE041F920F920FB60F923D
:1018100011242F933F938F939F93AF93BF93809106
:101820000C0390910D03A0910E03B0910F03309122
:10183000060323E0230F2D3758F50196A11DB11D96
:101840002093060380930C0390930D03A0930E0343
:10185000B0930F038091070390910803A0910903AF
:10186000B0910A030196A11DB11D809307039093C7
:101870000803A0930903B0930A03BF91AF919F910E
:101880008F913F912F910F900FBE0F901F90189541
:1018900026E8230F0296A11DB11DD2CF1F920F92F1
:1018A0000FB60F9211242F933F934F935F936F9333
:1018B0007F938F939F93AF93BF93EF93FF9386E8AC
:1018C00093E00E94E303FF91EF91BF91AF919F914D
:1018D0008F917F916F915F914F913F912F910F90D9
:1018E0000FBE0F901F9018951F920F920FB60F9278
:1018F00011242F938F939F93EF93FF93E09196037F
:10190000F09197038081E0919C03F0919D0382FD0B
:101910001BC0908180919F038F5F8F732091A003E4
:10192000821741F0E0919F03F0E0EA57FC4F958F5A
:1019300080939F03FF91EF919F918F912F910F9033
:101940000FBE0F901F9018958081F4CF1F920F92B9
:101950000FB60F9211242F933F934F935F936F9382
:101960007F938F939F93AF93BF93EF93FF93809158
:10197000B900887F803609F44AC0F0F5883209F44E
:10198000A7C018F5803109F49BC0B8F4882309F486
:10199000F9C0883009F494C0FF91EF91BF91AF91E5
:1019A0009F918F917F916F915F914F913F912F9177
:1019B0000F900FBE0F901F901895883109F488C0C2
:1019C000803251F780935A0314C0803409F49DC0CB
:1019D00040F48033B9F38833F9F680935A0385ECE9
:1019E000B0C0803509F485C0883509F496C08834C4
:1019F00099F60E94CC0BD0CF883909F48CC038F509
:101A0000883729F050F4883611F0803729F683E0C2
:101A100080935C031092B00157C0883809F47BC0F2
:101A2000803919F0803809F0B7CF8091B001803249
:101A300008F071C0E091B00181E08E0F8093B00199
:101A40008091BB00F0E0E057FE4F80833DC0803BBB
:101A500039F0E0F4803A09F479C0883A09F09CCF73
:101A600084E080935C0310928F0110928E01E091CC
:101A70001203F0911303099580918E0181110FC01B
:101A800081E080938E0110926E0109C0803C09F4C0
:101A9000A6CF883C09F4A3CF883B09F07DCFE09125
:101AA0008F0181E08E0F80938F01F0E0E259FE4FAD
:101AB00080818093BB0090918F0180918E0129C01D
:101AC000809137038093BB0085EC8093BC0064CF8A
:101AD0009091590380915803981758F5E091590354
:101AE00081E08E0F80935903F0E0E85CFC4F808129
:101AF000E9CFE091590381E08E0F809359038091E3
:101B0000BB00F0E0E85CFC4F80839091590380912A
:101B100058039817C8F285E8D8CFE091590381E0BF
:101B20008E0F809359038091BB00F0E0E85CFC4F7E
:101B3000808380915B0381115CCF81E080933603C9
:101B400084EA8093BC0010925C0326CF85EC8093DE
:101B5000BC0010925C038091B001803230F4E091BF
:101B6000B001F0E0E057FE4F10826091B00170E0EC
:101B7000E0911003F091110380E991E00995109232
:101B8000B0010ACF10925A0334CF1F920F920FB6B2
:101B90000F9211242F933F934F935F936F937F93F3
:101BA0008F939F93AF93BF93CF93DF93EF93FF9365
:101BB00080916C01C0915304D0E087FF24C0109243
:101BC00085001092840080916C018F5F80936C017E
:101BD00080916C01082E000C990B8C179D0724F442
:101BE00080916C018C30C4F18091840090918500CB
:101BF000049680349C4908F47AC0809184009091C6
:101C00008500049676C080916C01082E000C990B1B
:101C10008C179D07C4F6E0916C018E2FEE0F990B87
:101C2000FC01EE0FFF1FE80FF91FE15DFB4F808104
:101C300087FFC9CFE0916C018E2FEE0F990BFC014D
:101C4000EE0FFF1FE80FF91FE15DFB4F808160E0A1
:101C50008F770E942801B7CF2091840030918500B2
:101C6000E0916C018E2FEE0F990BFC01EE0FFF1F20
:101C7000E80FF91FE15DFB4F81819281820F931F75
:101C80009093890080938800E0916C018E2FEE0F75
:101C9000990BFC01EE0FFF1FE80FF91FE15DFB4FF1
:101CA000808187FF11C0E0916C018E2FEE0F990BA0
:101CB000FC01EE0FFF1FE80FF91FE15DFB4F808174
:101CC00061E08F770E942801FF91EF91DF91CF9122
:101CD000BF91AF919F918F917F916F915F914F9144
:101CE0003F912F910F900FBE0F901F90189580E499
:101CF0009CE990938900809388008FEF80936C011A
:101D0000E3CF109289031092880388EE93E0A0E05D
:101D1000B0E080938A0390938B03A0938C03B093DD
:101D20008D032BE031E0309387032093860325EC6D
:101D300030E0309393032093920324EC30E030930F
:101D400095032093940320EC30E030939703209385
:101D5000960321EC30E0309399032093980322EC12
:101D600030E030939B0320939A0326EC30E03093CD
:101D70009D0320939C0310929F031092A003109246
:101D8000A1031092A20310922604109225048093BE
:101D9000270490932804A0932904B0932A048DE18A
:101DA00091E0909324048093230410927304109282
:101DB00075041092740480E890E090937704809307
:101DC00076048CE080936D048DE080936E0483E054
:101DD00080936F04809153048C30E0F591E0980F6C
:101DE0009093530480936A0490E0FC01EE0FFF1F70
:101DF000E80FF91FE15DFB4F88EB9BE09283818345
:101E00008DE090E090936904809368048BE090E00B
:101E100090936704809366048AE090E09093650451
:101E200080936404109255041092540480E48093CB
:101E3000570410925C0410925D0410925E0410929C
:101E40005F04109260041092610410926204109278
:101E5000630408958FEF80936A04D2CFCF93DF930A
:101E6000CDB7DEB7E1970FB6F894DEBF0FBECDBF9A
:101E7000789484B5826084BD84B5816084BD85B565
:101E8000826085BD85B5816085BD80916E00816071
:101E900080936E0010928100809181008260809317
:101EA0008100809181008160809381008091800019
:101EB0008160809380008091B10084608093B10044
:101EC0008091B00081608093B00080917A0084603E
:101ED00080937A0080917A00826080937A0080916A
:101EE0007A00816080937A0080917A008068809384
:101EF0007A001092C1001091680480916A048C30BD
:101F000008F051C0812F0E94000180916A04282F9F
:101F100030E0F901EE0FFF1FE20FF31FE15DFB4F11
:101F20001F7790819078912B908310926B04109280
:101F30006C042CE0622F0E948A16829FB00111244B
:101F400030E020E0AB01420F531FFA01EE0FFF1FFC
:101F5000E40FF51FE15DFB4F908197FD16C02F5FE9
:101F60003F4F2C30310571F781110FC01092800066
:101F700082E0809381001092850010928400B19AD3
:101F800080916F00826080936F00E0916A048E2FD1
:101F900090E0FC01EE0FFF1FE80FF91FE15DFB4F22
:101FA000808180688083809166040E940001809116
:101FB00064040E940001E0919603F091970382E08F
:101FC0008083E0919203F09193031082E091940357
:101FD000F09195038FEC808310929E03E0919A0319
:101FE000F0919B0386E08083E0919803F091990340
:101FF000808180618083E0919803F09199038081D2
:1020000088608083E0919803F091990380818068D3
:102010008083E0919803F091990380818F7D808384
:102020008091540490915504892BA9F486E090E0A6
:102030000E94B417FC0180915704808383E294E0EE
:1020400092838183138280E290E095838483F0936E
:102050005504E093540400915404109155040E94D7
:10206000B704FF24F394F801F382C8010E94A0068C
:1020700081110FC08AE391E00E94370A8BE291E060
:102080000E94370A6AE070E080E090E00E94F3026C
:10209000F9CF80E090E1A0E0B0E080935804909305
:1020A0005904A0935A04B0935B048AE090E0A0E046
:1020B000B0E080935C0490935D04A0935E04B093C1
:1020C0005F0480E090E0A0E0B0E48093600490932F
:1020D0006104A0936204B0936304809154049091CE
:1020E00055041BA21CA21DA21EA29D8B8C8B1F8AB5
:1020F0001E8AFD8E85E090E09B8F8A8FFE8E12E017
:102100001C8F40E050E160E070E0CE0144960E94F8
:1021100039068091540490915504188A198A1A8AB4
:102120001B8A9A8389831C821B82FA8618861F82E7
:10213000FB8619874FE959E360E070E0CE01019614
:102140000E9439068093560486E090E00E94B417FE
:102150008C0188E4F801808383E294E09283818398
:10216000138280E290E0958384831093720400933D
:1021700071040E94B704F801F382C8010E94A0060E
:102180008AEA8093FB0280EA8093FC0286E98093CE
:10219000FD028CE88093FE028AEA90E00E948800AB
:1021A000EBE38E2EEFE19E2E86E893E00E94C303C0
:1021B000181619060CF055C01A8219821C821B824F
:1021C0001E821D8270E060E0CE0101960E94A40B89
:1021D00029813A8181112BC02115310519F0C901DE
:1021E0000E9450181A8219821E821D821C821B8234
:1021F0000E94750397FD23C08C8B1D8A0D811E8163
:102200000F5F1F4FB801CE0101960E94A40B8823D7
:1022100079F329813A818D819E81BE016C5E7F4F69
:10222000820F931F0E949F191E830D83E1CF1E8290
:102230001D826DE271E0C9010E949F19D9CF898189
:102240009A81009709F456C30E949014613009F0F6
:102250004FC36093050389819A81009711F00E9412
:10226000501880910503813009F035C38091030334
:1022700090910403892B31F460E177E280E090E0F3
:102280000E94F3028FB7F89440910C0350910D0314
:1022900060910E0370910F038FBF4093FF02509324
:1022A00000036093010370930203209103033091B4
:1022B0000403E0E2F1EA2E9FC0012F9F900D3E9FA4
:1022C000900D1124B0E0A0E0481759076A077B077A
:1022D00008F454C2232B01F1109100018091FB02FC
:1022E00091E0111190E09093000190E00E9488002D
:1022F00060ED77E080E090E00E94F3020E944E07DC
:1023000060ED77E080E090E00E94F30281E011113F
:1023100001C080E0809300016BEF262E62E0362E34
:102320004BEE52E05BA74AA773EEC72E72E0D72EA2
:102330005A011FA2F10181911F0190E00E948800C3
:1023400060ED77E080E090E00E94F3026091000190
:10235000809166040E94280162E370E080E090E0D2
:102360000E94F30210E000E061E0809164040E94AA
:102370002801C4010197F1F7C80183709927892BBF
:1023800009F06DC00E94DF09BC01990F880B990B01
:102390000E94D3142B013C0160915C0470915D0498
:1023A00080915E0490915F040E94D1149B01AC0166
:1023B000C301B2010E9409179F776093DD027093F9
:1023C000DE028093DF029093E0020E949E09980152
:1023D000220F331F220F331FA90147585D4F7A0187
:1023E000BC01990F880B990B0E94D3142FE632E1A0
:1023F00043E85AE30E9432152091DD023091DE025B
:102400004091DF025091E0020E9432159F77F70160
:10241000608371838283938380E00E94B208780195
:10242000EE0CFF1CF701E95BFD4F9183808381E097
:102430000E94B208F701EB5EFD4F9183808382E03A
:102440000E94B208F701ED51FE4F9183808383E033
:102450000E94B208F701EF54FE4F9183808360E041
:10246000809164040E942801C4010197F1F70F5F75
:102470001F4F0436110509F077CF89E7E82E82E077
:10248000F82E47E452E05DA74CA785E192E09FA7B4
:102490008EA7E3EEF1E0F9ABE8AB01EB11E0F9A6B2
:1024A000E8A6412C512C320184E691E00E94C60A34
:1024B00086E691E00E94C60A4AE0C301B2010E948A
:1024C000440A86E691E00E94C60AE8A5F9A5619152
:1024D000719181919191F9A7E8A742E00E94C80A01
:1024E00086E691E00E94C60AECA5FDA56191719176
:1024F000FDA7ECA790E080E04AE00E94440A86E64F
:1025000091E00E94C60AEEA5FFA561917191FFA717
:10251000EEA790E080E04AE00E94440A86E691E05F
:102520000E94C60AE8A9F9A961917191F9ABE8ABDB
:1025300090E080E04AE00E94440A86E691E00E9432
:10254000C60AF801619171918F0190E080E04AE044
:102550000E94440A86E691E00E94C60A90E080E06C
:102560000E94880A86E691E00E94C60A90E080E018
:102570000E94B80AFFEF4F1A5F0A6F0A7F0A49E10B
:10258000441651046104710409F08ECF8091D90280
:102590009091DA02A091DB02B091DC02F501808318
:1025A0009183A283B38348E1F601408310E00FA139
:1025B0000170F70141905190619071907F01F50198
:1025C0002081318142815381C301B2010E94AA1747
:1025D00018164CF4F5014082518262827382011117
:1025E00094C1F60110831F5F193119F760ED77E090
:1025F00080E090E00E94F30281E09091000191114F
:1026000080E080930001FFA1FF5FFFA344E0A40EE0
:10261000B11C5FEFC51AD50AF43009F08BCE3090AB
:10262000F7027090F802A090F902B090FA02409080
:10263000E6022090FE0201E010E0EAA5FBA5C190B1
:10264000D190E190F190FBA7EAA7A7019601632D35
:10265000772DC5010E94CC1487FF0DC0C8010197DA
:10266000FC01ED51FD4F408085509D4FFC012080C5
:102670003C2C7D2C57010F5F1F4F05301105E9F6EB
:10268000832D972DD5018093E7029093E802A093C4
:10269000E902B093EA024092E2022092E10288E667
:1026A00091E00E94C60A86E691E00E94C60A609107
:1026B000E7027091E8028091E9029091EA0242E01B
:1026C0000E94C80A86E691E00E94C60A6091E20272
:1026D00070E090E080E04AE00E94440A86E691E0E3
:1026E0000E94C60A6091E10270E090E080E04AE05A
:1026F0000E94440A86E691E00E94C60A90E080E0CB
:102700000E94880A86E691E00E94C60A90E080E076
:102710000E94880A86E691E00E94C60A90E080E066
:102720000E94880A86E691E00E94C60A90E080E056
:102730000E94880A86E691E00E94C60A90E080E046
:102740000E94B80A8091E10290E00E94880060ED4A
:1027500077E080E090E00E94F3020E944E0760ED77
:1027600077E080E090E00E94F30280910303909173
:102770000403019690930403809303038AE691E097
:102780000E94C60A86E691E00E94C60A6091FF0296
:102790007091000380910103909102034AE00E942E
:1027A000440A86E691E00E94C60A0E949E09BC0186
:1027B000990F880B990B0E94D3142FE632E143E85E
:1027C0005AE30E94321542E00E94C80A86E691E070
:1027D0000E94C60A0E94DF09BC01990F880B990B61
:1027E0000E94D3146B017C0160915C0470915D04C4
:1027F00080915E0490915F040E94D1149B01AC0112
:10280000C701B6010E9409179F7742E00E94C80ADB
:1028100086E691E00E94C60A0E949E098C010E94F1
:10282000DF09BC01990F880B990B0E94D3146B012F
:102830007C0160915C0470915D0480915E049091D4
:102840005F040E94D1149B01AC01C701B6010E9434
:1028500009176B017C01B801110F880B990B0E94BD
:10286000D3142FE632E143E85AE30E9432159B016C
:10287000AC01C701B6010E9432159F7742E00E9469
:10288000C80A86E691E00E94C60A80E00E94B2086B
:102890000E94880A86E691E00E94C60A81E00E94B2
:1028A000B2080E94880A86E691E00E94C60A82E089
:1028B0000E94B2080E94880A86E691E00E94C60A39
:1028C00083E00E94B2080E94B80A68EE73E080E0DC
:1028D00090E00E94F30240E050E0452B09F464CC04
:1028E0000E94CF03882309F45FCC0E9400005CCCD7
:1028F0006111B1CC1092050385E591E00E94370A81
:102900008BE291E00E94370AA6CC89E1811BF60197
:10291000808369CE80915404909155040C94501892
:102920001F93FC0199278827BC01E894119110326C
:10293000E9F3193010F01E30C8F31B3251F01D328C
:1029400049F4689406C00E94B714610F711D811D7F
:10295000911D119110531A30B0F33EF4909580956B
:10296000709561957F4F8F4F9F4F1F910895592FFD
:10297000482F372F262F660F771F881F991F660F46
:10298000771F881F991F620F731F841F951F660F83
:10299000771F881F991F08950E940E1508F481E083
:1029A0000895E89409C097FB3EF490958095709542
:1029B00061957F4F8F4F9F4F9923A9F0F92F96E98B
:1029C000BB279395F695879577956795B795F11100
:1029D000F8CFFAF4BB0F11F460FF1BC06F5F7F4F9D
:1029E0008F4F9F4F16C0882311F096E911C07723AF
:1029F00021F09EE8872F762F05C0662371F096E8B8
:102A0000862F70E060E02AF09A95660F771F881F86
:102A1000DAF7880F9695879597F90895990F00082A
:102A2000550FAA0BE0E8FEEF16161706E807F907A0
:102A3000C0F012161306E407F50798F0621B730B3B
:102A4000840B950B39F40A2661F0232B242B252BBC
:102A500021F408950A2609F4A140A6958FEF811D5F
:102A6000811D08950E9445150C94B6150E94A81565
:102A700038F00E94AF1520F0952311F00C949F15AB
:102A80000C94A51511240C94EA150E94C71570F337
:102A9000959FC1F3950F50E0551F629FF001729F03
:102AA000BB27F00DB11D639FAA27F00DB11DAA1F12
:102AB000649F6627B00DA11D661F829F2227B00D5F
:102AC000A11D621F739FB00DA11D621F839FA00DEA
:102AD000611D221F749F3327A00D611D231F849F3A
:102AE000600D211D822F762F6A2F11249F57504091
:102AF0009AF0F1F088234AF0EE0FFF1FBB1F661F0C
:102B0000771F881F91505040A9F79E3F510580F0D4
:102B10000C949F150C94EA155F3FE4F3983ED4F3B0
:102B2000869577956795B795F795E7959F5FC1F778
:102B3000FE2B880F911D9695879597F9089597F923
:102B40009F6780E870E060E008959FEF80EC089553
:102B500000240A941616170618060906089500247C
:102B60000A9412161306140605060895092E0394F6
:102B7000000C11F4882352F0BB0F40F4BF2B11F46A
:102B800060FF04C06F5F7F4F8F4F9F4F089557FDC9
:102B90009058440F551F59F05F3F71F04795880FCB
:102BA00097FB991F61F09F3F79F087950895121662
:102BB00013061406551FF2CF4695F1DF08C016160E
:102BC00017061806991FF1CF8695710561050894BF
:102BD0000895E894BB2766277727CB0197F90895D6
:102BE000052E97FB1EF400940E94071657FD07D090
:102BF0000E94591607FC03D04EF40C94071650950A
:102C00004095309521953F4F4F4F5F4F08959095D8
:102C10008095709561957F4F8F4F9F4F08950E94CB
:102C20007B16A59F900DB49F900DA49F800D911DC4
:102C300011240895B7FF0C940F160E940F16821BE3
:102C4000930B08952F923F924F925F926F927F92D3
:102C50008F929F92AF92BF92CF92DF92EF92FF92AC
:102C60000F931F93CF93DF93CDB7DEB7CA1BDB0B58
:102C70000FB6F894DEBF0FBECDBF09942A883988FD
:102C800048885F846E847D848C849B84AA84B98404
:102C9000C884DF80EE80FD800C811B81AA81B98110
:102CA000CE0FD11D0FB6F894DEBF0FBECDBFED0124
:102CB0000895A1E21A2EAA1BBB1BFD010DC0AA1F7D
:102CC000BB1FEE1FFF1FA217B307E407F50720F095
:102CD000A21BB30BE40BF50B661F771F881F991F10
:102CE0001A9469F760957095809590959B01AC0159
:102CF000BD01CF010895A29FB001B39FC001A39F62
:102D0000700D811D1124911DB29F700D811D112424
:102D1000911D0895991B79E004C0991F961708F03A
:102D2000961B881F7A95C9F780950895EE0FFF1FAF
:102D30000590F491E02D09945058BB27AA270E94D2
:102D4000B4160C94B6150E94A81538F00E94AF1561
:102D500020F039F49F3F19F426F40C94A5150EF4D5
:102D6000E095E7FB0C949F15E92F0E94C71558F3D7
:102D7000BA17620773078407950720F079F4A6F560
:102D80000C94E9150EF4E0950B2EBA2FA02D0B0133
:102D9000B90190010C01CA01A0011124FF27591BA0
:102DA00099F0593F50F4503E68F11A16F040A22FA6
:102DB000232F342F4427585FF3CF46953795279517
:102DC000A795F0405395C9F77EF41F16BA0B620B16
:102DD000730B840BBAF09150A1F0FF0FBB1F661F5D
:102DE000771F881FC2F70EC0BA0F621F731F841FA0
:102DF00048F4879577956795B795F7959E3F08F0C6
:102E0000B0CF9395880F08F09927EE0F9795879587
:102E100008950E941D170C94B6150E94AF1558F026
:102E20000E94A81540F029F45F3F29F00C949F15EB
:102E300051110C94EA150C94A5150E94C71568F35E
:102E40009923B1F3552391F3951B550BBB27AA2763
:102E500062177307840738F09F5F5F4F220F331F9D
:102E6000441FAA1FA9F335D00E2E3AF0E0E832D065
:102E700091505040E695001CCAF72BD0FE2F29D068
:102E8000660F771F881FBB1F261737074807AB073A
:102E9000B0E809F0BB0B802DBF01FF2793585F4FAF
:102EA0003AF09E3F510578F00C949F150C94EA156A
:102EB0005F3FE4F3983ED4F3869577956795B79591
:102EC000F7959F5FC9F7880F911D9695879597F99C
:102ED0000895E1E0660F771F881FBB1F6217730715
:102EE0008407BA0720F0621B730B840BBA0BEE1F2A
:102EF00088F7E09508950E94CF1588F09F5798F0C5
:102F0000B92F9927B751B0F0E1F0660F771F881FEE
:102F1000991F1AF0BA95C9F714C0B13091F00E9408
:102F2000E915B1E008950C94E915672F782F8827EB
:102F3000B85F39F0B93FCCF3869577956795B3952F
:102F4000D9F73EF490958095709561957F4F8F4F9E
:102F50009F4F08950E940E1508F48FEF08950E9468
:102F60000E15880B990B08950F931F93CF93DF9342
:102F70008230910510F482E090E0E0917D04F091C0
:102F80007E0430E020E0B0E0A0E0309799F4211515
:102F9000310509F44AC0281B390B24303105D8F516
:102FA0008A819B816115710589F1FB01938382837D
:102FB000FE0111C0408151810281138148175907D8
:102FC000E0F04817590799F4109761F012960C93A6
:102FD000129713961C933296CF01DF91CF911F91D8
:102FE0000F91089500937D0410937E04F4CF211572
:102FF000310551F04217530738F0A901DB019A015E
:10300000BD01DF01F801C1CFEF01F9CF90937E043C
:1030100080937D04CDCFFE01E20FF31F8193919346
:103020002250310939832883D7CF20917B043091F6
:103030007C04232B41F4209103013091040130934F
:103040007C0420937B042091010130910201211521
:10305000310541F42DB73EB740910501509106016D
:10306000241B350BE0917B04F0917C04E217F307FD
:10307000A0F42E1B3F0B2817390778F0AC014E5FE8
:103080005F4F2417350748F04E0F5F1F50937C04A5
:1030900040937B04819391939FCFF0E0E0E09CCF3D
:1030A000CF93DF930097E9F0FC01329713821282ED
:1030B000A0917D04B0917E04ED0130E020E01097F6
:1030C000A1F420813181820F931F20917B043091E4
:1030D0007C042817390709F061C0F0937C04E09361
:1030E0007B04DF91CF910895EA01CE17DF07E8F561
:1030F0004A815B819E0141155105B1F7E901FB83CE
:10310000EA8349915991C40FD51FEC17FD0761F46B
:10311000808191810296840F951FE90199838883AC
:10312000828193819B838A83F0E0E0E012968D9107
:103130009C9113970097B9F52D913C911197CD0172
:103140000296820F931F20917B0430917C042817F4
:10315000390739F6309751F510927E0410927D04AC
:10316000B0937C04A0937B04BCCFD383C283408103
:103170005181840F951FC817D90761F44E5F5F4FC7
:1031800088819981480F591F518340838A819B818F
:10319000938382832115310509F0B0CFF0937E042B
:1031A000E0937D049ECFFD01DC01C0CF138212822B
:1031B000D7CFB0E0A0E0EFEDF8E10C9424168C013D
:1031C000009751F4CB010E94B4178C01C801CDB710
:1031D000DEB7E0E10C944016FC01E60FF71F9C01FE
:1031E00022503109E217F30708F49DC0D901CD91AF
:1031F000DC911197C617D70798F0C530D10530F389
:10320000CE0104978617970708F3C61BD70B2297A2
:10321000C193D1936D937C93CF010E945018D6CF68
:103220005B01AC1ABD0A4C018C0E9D1EA0917D0461
:10323000B0917E04512C412CF12CE12C109731F5EA
:1032400080917B0490917C048815990509F05CC0FD
:103250004616570608F058C080910101909102016E
:10326000009741F48DB79EB740910501509106013A
:10327000841B950BE817F90708F055C0F0937C0400
:10328000E0937B04F90171836083A0CF8D919C91C1
:10329000119712966C90129713967C901397A8151D
:1032A000B90559F56C0142E0C40ED11CCA14DB0407
:1032B00020F1AC014A195B09DA011296159780F0EA
:1032C0006282738251834083D9016D937C93E114B0
:1032D000F10471F0D7011396FC93EE93129776CF19
:1032E00022968C0F9D1FF90191838083F301EFCF0C
:1032F000F0937E04E0937D0469CF4816590608F4E4
:103300002C017D01D3019ACFCB010E94B4177C011F
:10331000009749F0AE01B8010E949619C8010E94B9
:103320005018870153CF10E000E050CFFB01DC01C3
:1033300002C001900D9241505040D8F70895FB0112
:10334000DC0101900D920020E1F7089510E0CDE539
:10335000D0E004C0FE010E9496162196CE35D1071A
:06336000C9F7F894FFCF4D
:103366000100007F048000000000000504250352D0
:10337600035204C3036103B503000000001C07EFFA
:10338600064B07C506E806D506C6060D0A006E6199
:103396006E00696E66006F7666004661696C6564EC
:1033A60020746F2066696E6420494E41323139209F
:1033B60063686970004D6F746F72732053746F7019
:0C33C6007065640053002C0052004B00A6
:00000001FF
