:100000000C9463000C948B000C948B000C948B006C
:100010000C948B000C948B000C948B000C948B0034
:100020000C948B000C948B000C948B000C9481111D
:100030000C948B000C948B000C948B000C948B0014
:100040000C94C00F0C948B000C9430100C940A107C
:100050000C948B000C948B000C948B000C948B00F4
:100060000C9462100C948B00000000002400270008
:100070002A0000000000250028002B0000000000DE
:1000800023002600290004040404040404040202DA
:100090000202020203030303030301020408102007
:1000A0004080010204081020010204081020000012
:1000B0000008000201000003040700000000000027
:1000C00000003D123F1911241FBECFEFD8E0DEBF64
:1000D000CDBF11E0A0E0B1E0ECEFFCE302C0059081
:1000E0000D92AC36B107D9F728E0ACE6B1E001C01B
:1000F0001D92AC32B207E1F710E0C2E6D0E004C0D6
:100100002197FE010E94611BC136D107C9F70E94E9
:10011000F8120C94711E0C940000CF92DF92EF92B3
:10012000FF92DC01803232E09307BCF5853B9105FC
:1001300014F0A4EBB0E04091F10728E830E0241B74
:10014000310947FD3395220F331F220F331F6901F9
:10015000330FEE08FF084091F2072EE239E084E009
:100160004802201931091124032E000C440B550BB1
:100170002C193D094E095F09B7FF02C0B0E0A0E0AD
:100180000E94E51A24EB30E040E050E00E94BB1AE8
:10019000C20ED31EE41EF51ED601E091F007EC302E
:1001A00068F52091F10788E890E0821B910927FD0E
:1001B0009395880F991F880F991FA817B9076CF09E
:1001C0002091F2078EE299E034E023028019910930
:1001D0001124A817B9070CF4CD010297880F991FB5
:1001E0004FB7F8942E2F30E0F901EE0FFF1FE20F0A
:1001F000F31FEB54F84F928381834FBFFF90EF9032
:10020000DF90CF90089580919A0690919B06891B6C
:10021000990B0895089508958FB7F89480919506E5
:100220008FBF08958CBD9DBD0895833081F028F463
:10023000813099F08230A9F008958730A9F0883094
:10024000C9F08430B1F4809180008F7D03C080912B
:1002500080008F7780938000089584B58F7784BD68
:10026000089584B58F7DFBCF8091B0008F77809308
:10027000B00008958091B0008F7DF9CF1F93CF9388
:10028000DF93282F30E0F901E255FF4F8491F90107
:10029000E656FF4FD491F901EA57FF4FC491CC23A2
:1002A000A9F0162F81110E941501EC2FF0E0EE0F3E
:1002B000FF1FEE58FF4FA591B4918FB7F894EC91C2
:1002C000111108C0D095DE23DC938FBFDF91CF9151
:1002D0001F910895DE2BF8CFCF93DF9390E0FC01C0
:1002E000E656FF4F24918A579F4FFC018491882343
:1002F000D1F090E0880F991FFC01E859FF4FA591BC
:10030000B491FC01EE58FF4FC591D491623071F465
:100310009FB7F8943C91822F809583238C93E8813A
:100320002E2B28839FBFDF91CF9108958FB7F8942C
:10033000EC912E2B2C938FBFF6CFCF93DF9362E0FF
:10034000809101080E946C012091010830E0F901C0
:10035000E255FF4F8491F901E656FF4FD491F90120
:10036000EA57FF4FC491CC2379F081110E94150107
:10037000EC2FF0E0EE0FFF1FE458FF4FA591B49172
:10038000EC91ED2381E009F480E08170DF91CF9161
:1003900008951F93CF93DF93182FC1E0D8E061E059
:1003A00089810E946C01612F8981DF91CF911F911A
:1003B0000C943E018230910538F0880F991F880F08
:1003C000991F05970197F1F70895AF92BF92CF92C9
:1003D000DF92EF92FF920F931F93CF93DF93EC0185
:1003E00088819981892B89F06EBD0DB407FEFDCF00
:1003F000BEB48B2DDF91CF911F910F91FF90EF90A5
:10040000DF90CF90BF90AF9008958885998511E0D7
:10041000892B09F010E8AA24A394862F812309F0E0
:10042000A12C062F2C813D814E815F8160E271EA13
:1004300087E090E00E94241BF22EB02EE12CC22E09
:10044000D12CFF2019F0C6010E94DA018A85877F2E
:1004500009F042C08D858F3F89F0902F912381E074
:1004600009F480E08A1551F0EF85F8898F89992386
:1004700069F19081892B8083AA24A394E989FA8960
:100480008081998D892B8083FF2019F0C6010E94FD
:10049000DA018E858F3F39F0EB89FC898081988D58
:1004A000892309F0E12AE989FA899081898D80956B
:1004B000892380838E858F3F09F0BE2C888599859E
:1004C000892BB9F5110F1111BCCF93CF9081809575
:1004D00089238083A12CD2CFE989FA898081998DE3
:1004E000892B8083FF2019F0C6010E94DA018D85D7
:1004F0008F3F49F0EF85F8898F89902F9123A9F0DC
:100500009081892B8083E989FA899081898D8095F2
:10051000892380838E858F3F69F2EB89FC898081F6
:10052000988D892339F2E12AC5CF9081809589235E
:10053000E9CF1695C8CF8F929F92AF92BF92CF927C
:10054000DF92EF92FF920F931F93CF93DF93EC0113
:100550004B016A01B22EA32E88819981892B31F03B
:10056000EA81FB81808191810E94120160E08B858C
:100570000E943E017401C80CD91CEC14FD0479F4EE
:10058000EB2CFA2C0E0D1F1D0E151F0579F06FEFC9
:10059000CE010E94E501F70181937F01F5CFF701BC
:1005A00061917F01CE010E94E501E7CF61E08B857B
:1005B0000E943E0181E0DF91CF911F910F91FF904A
:1005C000EF90DF90CF90BF90AF909F908F90089565
:1005D0008F929F92AF92BF92CF92DF92EF92FF9253
:1005E0000F931F93CF93DF93EC01B62EA72E6A01D2
:1005F000490188819981892B31F0EA81FB818081D1
:1006000091810E94120160E08B850E943E0174017D
:10061000080D191DE016F10671F40B2D1A2DC00EF0
:10062000D11EC016D10671F0F80161918F01CE0183
:100630000E94E501F6CFF70161917F01CE010E9492
:10064000E501E8CF61E08B850E943E0181E0DF910A
:10065000CF911F910F91FF90EF90DF90CF90BF90BF
:10066000AF909F908F9008953FB7F8948091910636
:1006700090919206A0919306B091940626B5A89BFE
:1006800005C02F3F19F00196A11DB11D3FBFBA2F24
:10069000A92F982F8827BC01CD01620F711D811DE4
:1006A000911D42E0660F771F881F991F4A95D1F769
:1006B00008958F929F92AF92BF92CF92DF92EF9266
:1006C000FF924B015C010E9434036B017C010E948C
:1006D00034036C197D098E099F09683E73408105BA
:1006E0009105A8F321E0821A9108A108B10888EECB
:1006F000C80E83E0D81EE11CF11C81149104A104F2
:10070000B10429F7FF90EF90DF90CF90BF90AF90AA
:100710009F908F9008952FB7F89460918D067091F7
:100720008E0680918F06909190062FBF0895AF920C
:10073000BF92CF92DF92EF92FF920F931F93CF93CE
:10074000DF936C017B018B01040F151FEB015E0130
:10075000AE18BF08C017D10759F06991D601ED91C5
:10076000FC910190F081E02DC6010995892B79F764
:10077000C501DF91CF911F910F91FF90EF90DF9016
:10078000CF90BF90AF900895FC01538D448D252FDD
:1007900030E0842F90E0821B930B541710F0CF961B
:1007A000089501970895FC01918D828D981761F04D
:1007B000A28DAE0FBF2FB11D5D968C91928D9F5F64
:1007C0009F73928F90E008958FEF9FEF08950F939E
:1007D0001F930E948B0360931407709315078093F7
:1007E0001607909317078CE097E00E94D30397FFBA
:1007F0001DC00E948B0300911407109115072091D2
:10080000160730911707601B710B820B930B009139
:1008100010071091110720911207309113076017EC
:10082000710782079307F8F28FEF9FEF1F910F91E7
:100830000895FC01918D828D981731F0828DE80F1B
:10084000F11D858D90E008958FEF9FEF0895FC01D5
:10085000918D228D892F90E0805C9F4F821B9109A2
:100860008F73992708958CE097E00E94270421E078
:10087000892B09F420E0822F089580E090E0892BF5
:1008800029F00E94330481110C9400000895FC01AA
:10089000A48DA80FB92FB11DA35ABF4F2C91848DE1
:1008A00090E001968F739927848FA689B7892C933E
:1008B000A089B1898C91837080648C93938D848D91
:1008C000981306C00288F389E02D80818F7D808394
:1008D0000895EF92FF920F931F93CF93DF93EC0154
:1008E00081E0888F9B8D8C8D98131AC0E889F989D7
:1008F000808185FF15C09FB7F894EE89FF896083DA
:10090000E889F98980818370806480839FBF81E05A
:1009100090E0DF91CF911F910F91FF90EF9008959C
:10092000F62E0B8D10E00F5F1F4F0F731127E02E77
:100930008C8D8E110CC00FB607FCFACFE889F989AF
:10094000808185FFF5CFCE010E944704F1CFEB8D6A
:10095000EC0FFD2FF11DE35AFF4FF0829FB7F89483
:100960000B8FEA89FB8980818062CFCFCF93DF93A1
:10097000EC01888D8823B9F0AA89BB89E889F989B7
:100980008C9185FD03C0808186FD0DC00FB607FCEC
:10099000F7CF8C9185FFF2CF808185FFEDCFCE011F
:1009A0000E944704E9CFDF91CF91089520919001F3
:1009B000260F3327331F21323105ECF42091E20654
:1009C000FC0190E080E0243069F082E00895A0917D
:1009D00090012191AC0140595E4FA40FB52FB11D7C
:1009E0002C930196861798F380919001680F60937D
:1009F000900180E0089581E008951092E20681E080
:100A00008093E1061092BC0661E082E10E943E0103
:100A100061E083E10E943E01E9EBF0E080818E7F9E
:100A2000808380818D7F808388E48093B80085E413
:100A30008093BC00089510929B0610929A06109223
:100A4000E90610920B070E94FD048AE091E0909362
:100A50009906809398068BE091E090939706809397
:100A600096060895CF93DF9391E090936F018823CA
:100A7000B9F0C091B800D091BA008091BC008A7BD7
:100A80008093BC0060E082E10E943E0160E083E16F
:100A90000E943E010E94FD04D093BA00C093B800AA
:100AA000DF91CF9108958F929F92AF92BF92CF9294
:100AB000DF92EF92FF920F931F93CF93DF93D0912A
:100AC0000B07D13208F0D7C0182FC0910A070E9437
:100AD00034036B017C018091E20681116BC082E0DE
:100AE0008093E2061093E1068FEF8093E006109268
:100AF000DF06D093DE06AAEEB6E0EEEBF6E080E08D
:100B0000D81391C01092BD068091BD06CC0FC82BA2
:100B1000C093BD068091BC06813009F088C0109258
:100B2000BC060E9434036B017C018091BD0680935A
:100B3000BB008091E4069091E506A091E606B09195
:100B4000E706892B8A2B8B2BA1F00E94340300919E
:100B5000E4061091E5062091E6063091E7066C194F
:100B60007D098E099F09061717072807390708F41A
:100B700042C08091BC0083FDD8CF85EC8093BC003F
:100B80000E9434036B017C018091E206823009F4FB
:100B900050C08091E0068F3F09F46FC08091E0065D
:100BA000803209F46CC08091E006803309F469C09A
:100BB00084E026C08091E4069091E506A091E606C7
:100BC000B091E706892B8A2B8B2B09F484CF0E94E6
:100BD00034038090E4069090E506A090E606B0907D
:100BE000E7066C197D098E099F0986169706A806E7
:100BF000B90608F070CF8091E3060E94320585E0C7
:100C00001092E90610920B071092E806DF91CF913F
:100C10001F910F91FF90EF90DF90CF90BF90AF901A
:100C20009F908F9008959D9191938F5F69CF85EEEE
:100C3000A5CF8091E4069091E506A091E606B091DB
:100C4000E706892B8A2B8B2B09F49ECF0E94340355
:100C50000091E4061091E5062091E6063091E70642
:100C60006C197D098E099F09061717072807390790
:100C700008F08ACFC0CF81E0C3CF80E0C1CF82E04F
:100C8000BFCF83E0BDCF8F929F92BF92CF92DF9272
:100C9000EF92FF920F931F93CF93DF93DA01AE0D84
:100CA000BF1DEC01EC81FD81EA17FB0710F490E019
:100CB00026C0B22E6A014B0189819A81288131E0D8
:100CC0003093E80620930A071092E90610920B076A
:100CD000E114F10409F589819A81DC01ED91FC911F
:100CE0000280F381E02DA601B4010995C816D9064A
:100CF000F1F68B2D0E94530591E08111D8CF892FF9
:100D0000DF91CF911F910F91FF90EF90DF90CF90E7
:100D1000BF909F908F90089501151105E1F2DC01BD
:100D2000ED91FC910280F381E02DA701B8010995B6
:100D30008E159F0509F0BBCFCECFEF92FF920F9398
:100D40001F93CF93DF9300D0CDB7DEB7FC01478769
:100D5000508B618B728B8285882339F14487452FB4
:100D6000562F672F7727882311F14387BF01655FCF
:100D70007F4F9681478199834A83A081B1811097E3
:100D8000C1F0E184F12C8E010F5F1F4F21E042E0A2
:100D900050E0CD010E9443060F900F90DF91CF915C
:100DA0001F910F91FF90EF9008954387D8CF44870C
:100DB000DDCFA281B38180E0109771F3248135816A
:100DC000018510E02330310571F44E7F49839A8309
:100DD0000F5F1F4F9E012F5F3F4F42E050E0CD015C
:100DE0000E94E802D9CF2115310519F49F77998324
:100DF000F1CF2230310511F49068F9CF213031055F
:100E000049F79F779064F3CFCF93DF93EC018B8109
:100E10008823A1F0888191E09093E80680930A07E7
:100E20001092E90610920B0781E00E94530591E0B1
:100E3000811190E0892FDF91CF9108950E941B05C9
:100E400081E08B83CE010E940407982F8111E2CFAD
:100E5000F1CF8F929F92AF92BF92CF92DF92EF929B
:100E6000FF920F931F93CF93DF93D82FC62F142F8A
:100E7000613208F09CC00E9434036B017C018091B8
:100E8000E20681116FC081E08093E2061093E106D3
:100E90009FEF9093E0061092DF069C0F9093DE0682
:100EA0008093BD068091BD06DD0FD82BD093BD0683
:100EB0008091BC06813009F07CC01092BC060E9473
:100EC00034036B017C018091BD068093BB0080914F
:100ED000E4069091E506A091E606B091E706892B1D
:100EE0008A2B8B2BA1F00E9434030091E406109111
:100EF000E5062091E6063091E7066C197D098E091A
:100F00009F09061717072807390708F44CC0809176
:100F1000BC0083FDD8CF85EC8093BC000E943403D5
:100F20006B017C018091E206813009F444C080911C
:100F3000DF068C1710F4C091DF06EEEBF6E0ACE9AB
:100F4000B6E080E08C1359C08C2FDF91CF911F91B8
:100F50000F91FF90EF90DF90CF90BF90AF909F9058
:100F60008F9008958091E4069091E506A091E606A1
:100F7000B091E706892B8A2B8B2B09F480CF0E9436
:100F800034038090E4069090E506A090E606B090C9
:100F9000E7066C197D098E099F0986169706A80633
:100FA000B90608F06CCF8091E3060E943205C0E0DC
:100FB000CBCF85EEB1CF8091E4069091E506A0916C
:100FC000E606B091E706892B8A2B8B2B09F4AACF72
:100FD0000E9434030091E4061091E5062091E60694
:100FE0003091E7066C197D098E099F0906171707CE
:100FF0002807390708F096CFD6CF91919D938F5F40
:10100000A1CF0895E0919B0680919A06E81730F4ED
:10101000F0E0E456F94F808190E008958FEF9FEF64
:10102000089590919B0680919A062FEF3FEF9817B5
:1010300048F4E92FF0E0E456F94F208130E09F5F5B
:1010400090939B06C9010895CF92DF92EF92FF9291
:101050000F931F93CF93DF937C01CB018A012091E3
:10106000E806222389F0EB016B01C40ED51ECC15D6
:10107000DD0569F06991D701ED91FC910190F08156
:10108000E02DC7010995F3CF642F0E94D604C80153
:10109000DF91CF911F910F91FF90EF90DF90CF9054
:1010A0000895CF93DF931F92CDB7DEB76983209168
:1010B000E8062223F9F020910B07203258F021E0B6
:1010C00030E0FC013383228390E080E00F90DF91D9
:1010D000CF9108958091E906E82FF0E0E651F94FAD
:1010E000998190838F5F8093E90680930B0781E05D
:1010F00090E0ECCF61E0CE0101960E94D604F7CFDC
:10110000CF93DF931F92CDB7DEB7698390910C0820
:1011100021E02093E80690930A071092E9061092C6
:101120000B07682F89EA97E00E945108813081F40B
:1011300041E050E0BE016F5F7F4F89EA97E00E9477
:10114000240881E00E9453050F90DF91CF9108950C
:101150008FEFFACF80910D08813029F461E082E0B1
:1011600090E00E94800880910608909107089827D7
:1011700089279827089590E080E00895FF920F93C3
:101180001F93CF93DF93609100018091EC070E9441
:101190003E0162E370E080E090E00E945903D0E0FD
:1011A000C0E00BE31FE1809168068C171D0699F0E3
:1011B00094F0F090EA0761E08F2D0E943E01C80193
:1011C0000197F1F760E08F2D0E943E01C801019761
:1011D000F1F72196E8CFDF91CF911F910F91FF900A
:1011E0000895AF92BF92CF92DF92FF921F93CF9359
:1011F000DF93F62EDC0114962D913C9124173507D0
:1012000038F1642F413208F060E26A01172F5C0167
:1012100041E0FC0180810E94290710929B06809387
:101220009A068C151D04A1F4CF2DD12FCC0EDD1EF6
:10123000CC16DD06B9F0D50111968D919C91DC019B
:10124000ED91FC910284F385E02D09958993F0CF0F
:1012500080E0DF91CF911F91FF90DF90CF90BF9002
:10126000AF90089581E0F5CFEF92FF920F931F9317
:10127000CF93DF93C7EFD7E08F83F12CE12C10E001
:1012800000E021E041E050E06EEF77E08881998155
:101290000E94430642E050E06EEF77E0888199813A
:1012A0000E94F1088F819885982789279827DF91D8
:1012B000CF911F910F91FF90EF900895EF92FF92C1
:1012C0000F931F93482F2091FA073091FB078091CD
:1012D000FC079091FD07822B932B4230D9F14330CC
:1012E000E1F14130A1F183609164906821E02093A5
:1012F000FE079093FF0780930008F12CE12C10E08B
:1013000000E043E050E06EEF77E08091F7079091C6
:10131000F8070E94430681E00E94340997FFFBCF43
:1013200080E00E9434092091F907022E02C09695B0
:1013300087950A94E2F7222329F0811528E0920785
:1013400008F0906F1F910F91FF90EF9008958360C8
:101350009165CBCF83609166C8CF83609167C5CF1D
:101360006F927F928F929F92AF92BF92CF92DF92B5
:10137000EF92FF920F931F93CF93DF9300D0CDB7DF
:10138000DEB76C015B014C018BE0880E911CD6012D
:1013900016969C91169717968C91179799838A8326
:1013A0006D907C90119761147104D9F119964C914C
:1013B00050E0F12CE12C10E000E020E0BE016F5F76
:1013C0007F4FC3010E944306811112C080E00F903D
:1013D0000F90DF91CF911F910F91FF90EF90DF90D1
:1013E000CF90BF90AF909F908F907F906F90089517
:1013F00042E050E0B401C3010E94F108882339F3B0
:10140000F601928591113CC0248530E0322F2227CD
:10141000D50111963C932E939385292B2D933C93C4
:10142000D6CF1296ED91FC911397309779F21496DE
:101430002D913C91159719964C9150E02330310530
:1014400079F4816089839A834F5F5F4F02E010E0F7
:101450009401BE016F5F7F4FCF010E949B02CECFF0
:101460002115310519F490689983F0CF22303105A8
:1014700011F49F77F9CF2130310541F7906CF4CF0B
:10148000238530E0322F2227D50111963C932E93ED
:101490009485C3CF0F931F93CF93DF93CDB7DEB760
:1014A00065970FB6F894DEBF0FBECDBF0AED17E00B
:1014B000F80180819181188A198A1A8A1B8A9A8375
:1014C00089831C821B8281E08A8722E030E0388792
:1014D0002F838B8782E08987BE016C5E7F4FCE01B0
:1014E00001960E94B009F80182838C899D8923E0CE
:1014F000969587952A95E1F7880F991F880F991F70
:1015000065960FB6F894DEBF0FBECDBFDF91CF91C9
:101510001F910F910895EF92FF920F931F93CF9316
:10152000DF93CDB7DEB7A8970FB6F894DEBF0FBE36
:10153000CDBF0AED17E0F801808191811BA21CA2AA
:101540001DA21EA29D8B8C8B1F8A1E8AFF24F394E2
:10155000FD8E85E090E09B8F8A8FFE8E82E0E82EE4
:10156000EC8E4481558166817781CE0144960E943C
:101570009D06F80180819181188A198A1A8A1B8A2E
:101580009A8389831C821B82FA8684E090E0988784
:101590008F83FB86E986BE01695D7F4FCE01019690
:1015A0000E94B009F80182838FA198A5A8960FB672
:1015B000F894DEBF0FBECDBFDF91CF911F910F9189
:1015C000FF90EF900895DF92EF92FF920F931F9399
:1015D000CF93DF93162FD72FC42F90910C0821E0C3
:1015E0002093E80690930A071092E90610920B07E1
:1015F000682F89EA97E00E9451088130A1F580E0C8
:101600000E945305811127C041E06C2F80910C0886
:101610000E942907D82E10929B0680939A06E12EED
:10162000FD2E10E000E0D0E080919B06D81669F016
:101630000C171D0754F489EA97E00E9411080F5F08
:101640001F4FF70181937F01EFCF81E00C171D073A
:1016500009F480E08195DF91CF911F910F91FF9068
:10166000EF90DF9008958FEFF6CFFC0101900020FE
:10167000E9F73197AF01481B590BBC018CE097E0AB
:101680000C9497038F929F92AF92BF920F931F93E8
:10169000CF93DF93CDB7DEB7A1970FB6F894DEBF37
:1016A0000FBECDBF19A2423008F44AE08E010F5D93
:1016B0001F4F842E912CB12CA12CA50194010E94C6
:1016C000241BE62FB901CA01EA30F4F4E05DD80129
:1016D000EE938D01232B242B252B79F790E080E0CE
:1016E000109719F0CD010E94350BA1960FB6F89412
:1016F000DEBF0FBECDBFDF91CF911F910F91BF9085
:10170000AF909F908F900895E95CE1CFCF92DF92E8
:10171000EF92FF92CF93DF936C01990FEE08FF08D1
:10172000F7FE19C06DE28CE097E00E946904EC01BD
:1017300066277727CB016C197D098E099F094AE03E
:101740000E94420B8C0F9D1FDF91CF91FF90EF9075
:10175000DF90CF9008954AE0C701B601DF91CF91A5
:10176000FF90EF90DF90CF900C94420BCF93DF93DC
:101770000E94860BEC018BE291E00E94350B8C0FEE
:101780009D1FDF91CF9108950C94350B4F925F927E
:101790006F927F928F929F92AF92BF92CF92DF9281
:1017A000EF92FF920F931F93CF936B017C01742EE6
:1017B000AC019B010E947A1C882399F08EE291E093
:1017C000CF911F910F91FF90EF90DF90CF90BF903E
:1017D000AF909F908F907F906F905F904F900C9400
:1017E000350B46015701E894B7F82FEF3FEF4FE76D
:1017F0005FE7C501B4010E947A1C81110DC02FEF73
:101800003FEF4FE75FE7C501B4010E948119181649
:101810001CF482E391E0D4CF2FEF3FEF4FE75FE47A
:10182000C701B6010E94751C18161CF486E391E0EE
:10183000C7CF2FEF3FEF4FE75FECC701B6010E9424
:10184000811987FDF3CF20E030E0A901C701B6017F
:101850000E94811910E000E087FF0AC06DE28CE071
:1018600097E00E9469048C01F7FAF094F7F8F0947D
:10187000C0E060E070E080E09FE37C1641F020E093
:1018800030E040E251E40E94D41BCF5FF6CFA701C5
:1018900096010E94681B2B013C010E94461C4B01D3
:1018A0005C014AE00E94420B7C01E00EF11ECC2359
:1018B000C1F1C501B4010E9486199B01AC01C301AD
:1018C000B2010E94671B4B015C016EE28CE097E065
:1018D0000E946904E80EF91EC15018F120E030E0C2
:1018E00040E251E4C501B4010E94E7192B013C011B
:1018F0000E94461C4B01B12CA12C4AE0C501B40149
:101900000E94420BE80EF91EC501B4010E9486191F
:101910009B01AC01C301B2010E94671B4B015C013A
:10192000DBCFC701CF911F910F91FF90EF90DF9018
:10193000CF90BF90AF909F908F907F906F905F906F
:101940004F9008952F923F924F925F926F927F92A5
:101950008F929F92AF92BF92CF92DF92EF92FF92BF
:101960000F931F93CF93DF93CDB7DEB7A2970FB638
:10197000F894DEBF0FBECDBF0E949D01811187C2CA
:101980006AE070E080E090E00E9459030E949D01AF
:101990008F8781117CC243E066E078E08AE00E9494
:1019A000E30A811174C280910608883409F06FC27D
:1019B00080910708843309F06AC280910808833354
:1019C00009F065C20E948B032B013C015C014B01B5
:1019D0000E949D01811122C00E948B036819790920
:1019E0008A099B09693C71058105910560F0A895FC
:1019F0000E948B034B015C012F8531E023272F8749
:101A0000822F0E94C9010E948B03641975098609FF
:101A100097096D32714081059105D0F264E670E05E
:101A200080E090E00E9459030E948B032B013C014F
:101A30000E948B036B877C878D879E878FEF9FE744
:101A400098878F83A0E0B0E8BA87A987EFEFFFE718
:101A5000FC83EB8320E030E83E832D834FEF5FE78C
:101A60005A834983212C80E8382E0E948B03681901
:101A700079098A099B09693C71058105910560F026
:101A8000A8950E948B034B015C015F8581E058277C
:101A90005F87852F0E94C9010E948B036419750915
:101AA000860997096B3071058105910508F44DC0D1
:101AB000A8950E94A20C46E066E078E083E00E94D0
:101AC000E30A81111EC080910D08813029F461E084
:101AD00082E090E00E9480080091060810910708BB
:101AE000102701271027C0900A08D0900B08DC248B
:101AF000CD24DC24E0900808F0900908FE24EF24AF
:101B0000FE24A981BA810A171B070CF4ADC1201667
:101B100031060CF41801EB81FC81CE16DF060CF4C3
:101B2000A6C12D813E812C153D0514F4DE82CD82A7
:101B30004F815885E416F5060CF49CC189859A8579
:101B40008E159F0514F4FA86E9860E948B032B8577
:101B50003C854D855E85621B730B840B950B6D3246
:101B600071408105910520F40E949D0181117DCF76
:101B700080E00E94C901B101032C000C880B990B75
:101B80000E9488194B015C0149815A81BA01550FA5
:101B9000880B990B0E9488196B877C878D879E879D
:101BA0009B01AC01C501B4010E94681B905820E064
:101BB00030E040E05FE30E94E7196F87788B898B04
:101BC0009A8B60930E0870930F088093100890937F
:101BD0001108AD81BE81BD01BB0F880B990B0E941E
:101BE00088196B017C01EB81FC81BF01FF0F880B21
:101BF000990B0E9488196B8B7C8B8D8B9E8B9B0124
:101C0000AC01C701B6010E94681B905820E030E08B
:101C100040E05FE30E94E7196F8B788F898F9A8F7E
:101C2000609312087093130880931408909315081A
:101C300029853A85B901330F880B990B0E948819C1
:101C40002B013C014F815885BA01550F880B990B28
:101C50000E9488196B8F7C8F8D8F9E8F9B01AC01AA
:101C6000C301B2010E94681B905820E030E040E0C0
:101C70005FE30E94E7196F8F78A389A39AA360930B
:101C8000160870931708809318089093190880E03D
:101C900090E0A0E8BFE380931A0890931B08A093FC
:101CA0001C08B0931D082B853C854D855E85C501BC
:101CB000B4010E94671B4B015C012B893C894D8953
:101CC0005E89C701B6010E94671BA50194010E94AD
:101CD000D41B6B017C01C0921E08D0921F08E092B9
:101CE0002008F09221082B8D3C8D4D8D5E8DC30117
:101CF000B2010E94671BA50194010E94D41B4B01F5
:101D00005C018092220890922308A0922408B0924D
:101D1000250889819A81281A390A37FE03C031942F
:101D2000219431088D819E81AB81BC818A1B9B0BE4
:101D300097FF03C091958195910929853A85EF8197
:101D4000F8852E1B3F0B37FF03C0319521953109D4
:101D5000821593050CF494C0221533050CF48DC044
:101D600081E0809326082F89388D498D5A8D6F85A3
:101D7000788989899A890E94681B2F8D38A149A189
:101D80005AA10E94681B20E030E040E85FE30E9417
:101D9000681BA70196010E94681BA50194010E947F
:101DA000681B6B017C016091260870E090E080E088
:101DB0000E9488199B01AC01C701B6010E94681BF3
:101DC00020E030E04AE253E40E94681B0E94461C77
:101DD000609327080EE018E01A821982D8016D91ED
:101DE0008D0189819A810E94AD1AE981FA8131962B
:101DF000FA83E9837A9791F781E0809305080E943E
:101E0000C9010E948B036B017C010E949D0181111D
:101E10000CC0A8950E948B036C197D098E099F093F
:101E20006B3071058105910580F3A89564E670E03B
:101E300080E090E0A2960FB6F894DEBF0FBECDBF53
:101E4000DF91CF911F910F91FF90EF90DF90CF9096
:101E5000BF90AF909F908F907F906F905F904F90CA
:101E60003F902F900C9459031A83098354CEDC823F
:101E7000CB825ECEF886EF8268CE281639062CF02B
:101E80002817390714F082E06CCF83E06ACFA2965E
:101E90000FB6F894DEBF0FBECDBFDF91CF911F917B
:101EA0000F91FF90EF90DF90CF90BF90AF909F90F9
:101EB0008F907F906F905F904F903F902F900895FC
:101EC0000F931F93CF93DF93EC0188819981009743
:101ED00059F02A813B812617370730F081E0DF91E6
:101EE000CF911F910F9108958B016F5F7F4F0E94DB
:101EF000A41D009759F0998388831B830A832C8142
:101F00003D81232B59F7FC011082E8CF80E0E7CF19
:101F100085ED8093BC008091E4069091E506A09148
:101F2000E606B091E7060796A11DB11D23E0B69520
:101F3000A795979587952A95D1F72091BC0024FD08
:101F400003C01092E20608954091E4065091E50620
:101F50006091E6067091E706452B462B472B69F307
:101F60000097A105B10541F025E32A95F1F700009E
:101F70000197A109B109E1CF8091E3060C943205E4
:101F80001F920F920FB60F9211242F933F938F93AE
:101F90009F93AF93BF9380918D0690918E06A091F1
:101FA0008F06B091900630918C0623E0230F2D37D9
:101FB00058F50196A11DB11D20938C0680938D06C6
:101FC00090938E06A0938F06B09390068091910611
:101FD00090919206A0919306B09194060196A11D4E
:101FE000B11D8093910690939206A0939306B093AF
:101FF0009406BF91AF919F918F913F912F910F9038
:102000000FBE0F901F90189526E8230F0296A11D72
:10201000B11DD2CF1F920F920FB60F9211242F93A2
:102020003F934F935F936F937F938F939F93AF9360
:10203000BF93EF93FF938CE097E00E944704FF91DA
:10204000EF91BF91AF919F918F917F916F915F9130
:102050004F913F912F910F900FBE0F901F901895A9
:102060001F920F920FB60F9211242F938F939F936D
:10207000EF93FF93E0911C07F0911D078081E091A1
:102080002207F091230782FD1BC0908180912507D4
:102090008F5F8F7320912607821741F0E09125070B
:1020A000F0E0E45FF84F958F80932507FF91EF9163
:1020B0009F918F912F910F900FBE0F901F901895A9
:1020C0008081F4CF1F920F920FB60F9211242F939D
:1020D0003F934F935F936F937F938F939F93AF93B0
:1020E000BF93EF93FF938091B900887F803609F406
:1020F0004AC0F0F5883209F4A7C018F5803109F418
:102100009BC0B8F4882309F4F9C0883009F494C05E
:10211000FF91EF91BF91AF919F918F917F916F91BF
:102120005F914F913F912F910F900FBE0F901F9095
:102130001895883109F488C0803251F78093E00601
:1021400014C0803409F49DC040F48033B9F388335F
:10215000F9F68093E00685ECB0C0803509F485C0BF
:10216000883509F496C0883499F60E94880FD0CF3C
:10217000883909F48CC038F5883729F050F488364E
:1021800011F0803729F683E08093E2061092B201C5
:1021900057C0883809F47BC0803919F0803809F0BD
:1021A000B7CF8091B201803208F071C0E091B201E6
:1021B00081E08E0F8093B2018091BB00F0E0EE567B
:1021C000FE4F80833DC0803B39F0E0F4803A09F453
:1021D00079C0883A09F09CCF84E08093E20610929F
:1021E000910110929001E0919806F091990609955D
:1021F0008091900181110FC081E080939001109235
:10220000700109C0803C09F4A6CF883C09F4A3CF33
:10221000883B09F07DCFE091910181E08E0F8093A2
:102220009101F0E0E059FE4F80818093BB009091D6
:1022300091018091900129C08091BD068093BB00DF
:1022400085EC8093BC0064CF9091DF068091DE0620
:10225000981758F5E091DF0681E08E0F8093DF0636
:10226000F0E0E254F94F8081E9CFE091DF0681E0B0
:102270008E0F8093DF068091BB00F0E0E254F94FAF
:1022800080839091DF068091DE069817C8F285E87A
:10229000D8CFE091DF0681E08E0F8093DF0680913A
:1022A000BB00F0E0E254F94F80838091E106811198
:1022B0005CCF81E08093BC0684EA8093BC001092DE
:1022C000E20626CF85EC8093BC001092E206809156
:1022D000B201803230F4E091B201F0E0EE56FE4FF0
:1022E00010826091B20170E0E0919606F09197063D
:1022F00082E991E009951092B2010ACF1092E006AE
:1023000034CF1F920F920FB60F9211242F933F9349
:102310004F935F936F937F938F939F93AF93BF93ED
:10232000CF93DF93EF93FF9380916E01C091D90714
:10233000D0E087FF24C01092850010928400809125
:102340006E018F5F80936E0180916E01082E000CEC
:10235000990B8C179D0724F480916E018C30C4F189
:102360008091840090918500049680349C4908F403
:102370007AC08091840090918500049676C0809107
:102380006E01082E000C990B8C179D07C4F6E09186
:102390006E018E2FEE0F990BFC01EE0FFF1FE80F61
:1023A000F91FEB54F84F808187FFC9CFE0916E0190
:1023B0008E2FEE0F990BFC01EE0FFF1FE80FF91F98
:1023C000EB54F84F808160E08F770E943E01B7CFD9
:1023D0002091840030918500E0916E018E2FEE0FE8
:1023E000990BFC01EE0FFF1FE80FF91FEB54F84F9C
:1023F00081819281820F931F90938900809388003E
:10240000E0916E018E2FEE0F990BFC01EE0FFF1F76
:10241000E80FF91FEB54F84F808187FF11C0E0915E
:102420006E018E2FEE0F990BFC01EE0FFF1FE80FD0
:10243000F91FEB54F84F808161E08F770E943E01D5
:10244000FF91EF91DF91CF91BF91AF919F918F91CC
:102450007F916F915F914F913F912F910F900FBEA0
:102460000F901F90189580E49CE9909389008093C9
:1024700088008FEF80936E01E3CF10920F071092C8
:102480000E0788EE93E0A0E0B0E0809310079093F1
:102490001107A0931207B09313072BE031E030939C
:1024A0000D0720930C0725EC30E03093190720939B
:1024B000180724EC30E030931B0720931A0720EC18
:1024C00030E030931D0720931C0721EC30E030935F
:1024D0001F0720931E0722EC30E030932107209342
:1024E000200726EC30E03093230720932207109238
:1024F000250710922607109227071092280710929E
:10250000AC071092AB078093AD079093AE07A093F2
:10251000AF07B093B0078DE191E09093AA07809345
:10252000A90788E08093010882E08093020884E094
:10253000809303088EE180930C0810920508109296
:10254000F9071092FB071092FA0780E890E0909349
:10255000FD078093FC078CE08093F3078DE0809368
:10256000F40783E08093F5078091D9078C30E0F57C
:1025700091E0980F9093D9078093F00790E0FC01C9
:10258000EE0FFF1FE80FF91FEB54F84F88EB9BE0AD
:10259000928381838DE090E09093EF078093EE0724
:1025A0008BE090E09093ED078093EC078AE090E059
:1025B0009093EB078093EA071092DB071092DA07FB
:1025C00080E48093DD071092E2071092E3071092F7
:1025D000E4071092E5071092E6071092E7071092C1
:1025E000E8071092E90708958FEF8093F007D2CFA4
:1025F000CF93DF93CDB7DEB7C154D1090FB6F894AE
:10260000DEBF0FBECDBF789484B5826084BD84B533
:10261000816084BD85B5826085BD85B5816085BDDD
:1026200080916E00816080936E0010928100809195
:10263000810082608093810080918100816080931D
:102640008100809180008160809380008091B10042
:1026500084608093B1008091B00081608093B0006D
:1026600080917A00846080937A0080917A00826001
:1026700080937A0080917A00816080937A008091C3
:102680007A00806880937A001092C1001091EE0762
:102690008091F0078C3008F052C061E0812F0E94D9
:1026A0006C018091F007282F30E0F901EE0FFF1F39
:1026B000E20FF31FEB54F84F1F7790819078912B26
:1026C00090831092F1071092F2072CE0622F0E9483
:1026D000551B829FB001112430E020E0AB01420F76
:1026E000531FFA01EE0FFF1FE40FF51FEB54F84FD5
:1026F000908197FD16C02F5F3F4F2C30310571F749
:1027000081110FC01092800082E0809381001092AE
:10271000850010928400B19A80916F00826080934E
:102720006F00E091F0078E2F90E0FC01EE0FFF1F8D
:10273000E80FF91FEB54F84F80818068808361E0D7
:102740008091EC070E946C0161E08091EA070E9491
:102750006C01E0911C07F0911D0782E08083E091FD
:102760001807F09119071082E0911A07F0911B07E2
:102770008FEC808310922407E0912007F0912107CD
:1027800086E08083E0911E07F0911F0780818061C1
:102790008083E0911E07F0911F078081886080830D
:1027A000E0911E07F0911F07808180688083E0918F
:1027B0001E07F0911F0780818F7D80838091DA074B
:1027C0009091DB07892BA9F486E090E00E947F1CA2
:1027D000FC018091DD07808389EA97E09283818301
:1027E000138280E290E095838483F093DB07E0938B
:1027F000DA07E090DA07F090DB070E941B0511E092
:10280000F7011383C7010E94040781110FC08AE3F7
:1028100091E00E94350B8BE291E00E94350B6AE05B
:1028200070E080E090E00E945903F9CF80E090E1F1
:10283000A0E0B0E08093DE079093DF07A093E0076D
:10284000B093E1078AE090E0A0E0B0E08093E20777
:102850009093E307A093E407B093E50780E090E04E
:10286000A0E0B0E48093E6079093E707A093E80721
:10287000B093E9078091DA079091DB071AA61BA6AF
:102880001CA61DA69C8F8B8F1E8E1D8E1CA385E003
:1028900090E09AA389A31DA302E00BA340E050E1BE
:1028A00060E070E0CE014B960E949D068091DA07B1
:1028B0009091DB07188A198A1A8A1B8A9A8389835E
:1028C0001C821B821A8718861F821B8709874FE983
:1028D00059E360E070E0CE0101960E949D0680936E
:1028E000DC070E941B0581E00E94C90160E790E0BF
:1028F00080E00E94800860E281E090E00E94800811
:1029000010930D0861E082E090E00E948008AE0123
:102910004F5F5F4F7A0110E000E0C8010E94A51AE6
:10292000F70181937F010F5F1F4F0A311105A9F74E
:102930002D813E814F81588569817A818B819C816F
:102940000E94681B29853A854B855C850E94681B1F
:102950002D853E854F8558890E94681B29893A89B3
:102960004B895C890E94681B2D893E894F89588D4F
:102970000E94681B6B017C01698D70E090E080E033
:102980000E9488199B01AC01C701B6010E94681B17
:1029900020E030E04AE253E40E94681B0E94461C9B
:1029A0008A8D681384C08AE1FE013196AEE0B8E0FA
:1029B00001900D928A95E1F781E0809305080E94CD
:1029C000A20C86E090E00E947F1C8C0188E4F80154
:1029D000808389EA97E092838183138280E290E08A
:1029E000958384831093F8070093F7070E941B05D3
:1029F00081E0F8018383C8010E9404078AEA80937A
:102A0000810680EA8093820686E9809383068CE8BB
:102A1000809384068AEA90E00E948D002BE3622E68
:102A20002FE1722E34E6C32E8CE097E00E9427043B
:102A3000181619060CF058C01A8219821C821B82C3
:102A40001E821D8270E060E0CE0101960E94600F40
:102A500029813A8181112EC02115310519F0C90152
:102A60000E941B1D1A8219821E821D821C821B82DB
:102A70000E94E70397FD26C08B8F1C8E0D811E815F
:102A80000F5F1F4FB801CE0101960E94600F88238F
:102A900079F329813A818D819E81BE01655E7F4FE8
:102AA000820F931F0E946A1E1E830D83E1CF109236
:102AB000050885CF1E821D826DE271E0C9010E946A
:102AC0006A1ED6CF89819A81009709F4BFC30E94FC
:102AD0004519613009F0B8C360938B0689819A81EA
:102AE000009711F00E941B1D80918B06813009F028
:102AF0009EC30091890610918A060115110531F4D3
:102B000060E177E280E090E00E9459030E948B032D
:102B10006093850670938606809387069093880657
:102B200040E251EA049F9001059F300D149F300D43
:102B300011244901B12CA12C681579058A059B0542
:102B400008F48DC2012B01F11091000180918106E2
:102B500091E0111190E09093000190E00E948D00AF
:102B600060ED77E080E090E00E9459030E94BE088B
:102B700060ED77E080E090E00E94590381E0111160
:102B800001C080E08093000181E896E09FA78EA7B6
:102B9000E1E7F6E02296FFAFEEAF229709E616E0F6
:102BA0007F01D12CEEA5FFA58191FFA7EEA790E0B4
:102BB0000E948D0060ED77E080E090E00E94590374
:102BC000609100018091EC070E943E0162E370E099
:102BD00080E090E00E94590343ED54E059AF48AFC4
:102BE0008BE094E09FAB8EABE3E4F3E0FDABECABAA
:102BF0004BE752E05BAB4AAB83EB91E099AB88AB20
:102C00004C015DAF4CAF43E453E05FAF4EAF8BE0A0
:102C100094E09BAF8AAF93EDA92E94E0B92E61E0CA
:102C20008091EA070E943E01C3010197F1F70E94DB
:102C30008B0ABC01990F880B990B0E9488191B0104
:102C40002C016091E2077091E3078091E407909175
:102C5000E5070E9486199B01AC01C201B1010E94E7
:102C6000D41B9F7760936306709364068093650618
:102C7000909366060E944A0ABC01990F880B990B33
:102C80000E9488192FE632E143E85AE30E94E719CF
:102C90002091630630916406409165065091660666
:102CA0000E94E7199F77F501619371938193919346
:102CB0005F0180E00E945E09EAADFBAD81939193D4
:102CC000FBAFEAAF81E00E945E09EEADFFAD8193FC
:102CD0009193FFAFEEAF82E00E945E09ECADFDADD7
:102CE00081939193FDAFECAF83E00E945E09F40104
:102CF000819391934F0160E08091EA070E943E0129
:102D0000C3010197F1F7F3E6AF16F6E0BF0609F04D
:102D100086CF83EDA82E84E0B82E212C312C210102
:102D200084E691E00E94C40B86E691E00E94C40B09
:102D30004AE0C201B1010E94420B86E691E00E9486
:102D4000C40BF50161917191819191915F0142E014
:102D50000E94C60B86E691E00E94C40BEEA9FFA973
:102D600061917191FFABEEAB90E080E04AE00E9490
:102D7000420B86E691E00E94C40BECA9FDA961918B
:102D80007191FDABECAB90E080E04AE00E94420B19
:102D900086E691E00E94C40BEAA9FBA961917191BA
:102DA000FBABEAAB90E080E04AE00E94420B86E693
:102DB00091E00E94C40BE8A9F9A961917191F9AB66
:102DC000E8AB90E080E04AE00E94420B86E691E0AA
:102DD0000E94C40B90E080E00E94860B86E691E0A2
:102DE0000E94C40B90E080E00E94860B86E691E092
:102DF0000E94C40B90E080E00E94860B86E691E082
:102E00000E94C40B90E080E00E94860B86E691E071
:102E10000E94C40B90E080E00E94B60BFFEF2F1AD7
:102E20003F0A4F0A5F0A44E6241631044104510464
:102E300009F076CF80915F0690916006A0916106BF
:102E4000B0916206F70180839183A283B38343E646
:102E5000F8014083B12C5D2D5170A52EE8ADF9AD80
:102E60002190319041905190F9AFE8AFF701208166
:102E7000318142815381C201B1010E94751C181633
:102E80004CF4F7012082318242825382A110E9C1C1
:102E9000F801B082B394F4E6BF12E0CF60ED77E0C2
:102EA00080E090E00E94590381E09091000191112F
:102EB00080E080930001D39444E0E40EF11C0F5FA6
:102EC0001F4F54E0D5126ECE50907D06D0907E06F6
:102ED000E0907F06F090800630906C06409084066B
:102EE00001E010E02296EEADFFAD22978190919027
:102EF000A190B1902296FFAFEEAF2297252D3D2DE8
:102F0000A701C501B4010E94751C18166CF4C80114
:102F10000197FC01E759F94F30808F57994FFC0119
:102F20004080582CD92C75010F5F1F4F05301105BB
:102F3000C9F6852D9D2DD70180936D0690936E0661
:102F4000A0936F06B09370063092680640926706B1
:102F500088E691E00E94C40B86E691E00E94C40BD3
:102F600060916D0670916E0680916F06909170066B
:102F700042E00E94C60B86E691E00E94C40B60917D
:102F8000680670E090E080E04AE00E94420B86E62E
:102F900091E00E94C40B6091670670E090E080E0D1
:102FA0004AE00E94420B86E691E00E94C40B90E04A
:102FB00080E00E94860B86E691E00E94C40B90E0C0
:102FC00080E00E94860B86E691E00E94C40B90E0B0
:102FD00080E00E94860B86E691E00E94C40B90E0A0
:102FE00080E00E94860B86E691E00E94C40B90E090
:102FF00080E00E94860B86E691E00E94C40B90E080
:1030000080E00E94860B86E691E00E94C40B90E06F
:1030100080E00E94860B86E691E00E94C40B90E05F
:1030200080E00E94B60B8091670690E00E948D00C0
:1030300060ED77E080E090E00E9459030E94BE08B6
:1030400060ED77E080E090E00E945903809189066E
:1030500090918A06019690938A06809389068AE663
:1030600091E00E94C40B86E691E00E94C40B60913F
:1030700085067091860680918706909188064AE0C1
:103080000E94420B86E691E00E94C40B0E944A0A0D
:10309000BC01990F880B990B0E9488192FE632E129
:1030A00043E85AE30E94E71942E00E94C60B86E615
:1030B00091E00E94C40B0E948B0ABC01990F880BFF
:1030C000990B0E9488194B015C016091E207709195
:1030D000E3078091E4079091E5070E9486199B0120
:1030E000AC01C501B4010E94D41B9F7742E00E944D
:1030F000C60B86E691E00E94C40B0E944A0A8C012E
:103100000E948B0ABC01990F880B990B0E948819A9
:103110004B015C016091E2077091E3078091E40745
:103120009091E5070E9486199B01AC01C501B4018D
:103130000E94D41B4B015C01B801110F880B990B45
:103140000E9488192FE632E143E85AE30E94E7190A
:103150009B01AC01C501B4010E94E7199F7742E0D1
:103160000E94C60B86E691E00E94C40B80E00E949C
:103170005E090E94860B86E691E00E94C40B81E006
:103180000E945E090E94860B86E691E00E94C40BB5
:1031900082E00E945E090E94860B86E691E00E9412
:1031A000C40B83E00E945E090E94860B86E691E0D4
:1031B0000E94C40B0E94A20C42E066E078E083E02B
:1031C0000E94E30A882309F451C0082E000C990BD1
:1031D0000E94860B86E691E00E94C40B0E94A20C1E
:1031E00042E066E078E087E00E94E30A882309F481
:1031F00040C0082E000C990B0E94860B86E691E0D9
:103200000E94C40B0E94A20C42E066E078E085E0D8
:103210000E94E30A882381F1082E000C990B0E947A
:10322000B60B68EE73E080E090E00E94590340E046
:1032300050E0452B09F4F8CB0E943304882309F4AD
:10324000F3CB0E940000F0CB611148CC10928B06AA
:1032500085E591E00E94350B8BE291E00E94350BF1
:103260003DCC8C2D8B19F801808314CE0E94AA08C6
:10327000AFCF0E94AA08C0CF0E94AA08D0CF8091E9
:10328000DA079091DB070C941B1D1F93FC01992713
:103290008827BC01E89411911032E9F3193010F03D
:1032A0001E30C8F31B3251F01D3249F4689406C039
:1032B0000E946C19610F711D811D911D1191105398
:1032C0001A30B0F33EF490958095709561957F4FDC
:1032D0008F4F9F4F1F910895592F482F372F262F1B
:1032E000660F771F881F991F660F771F881F991F0A
:1032F000620F731F841F951F660F771F881F991F0A
:1033000008950E94C31908F481E00895E89409C063
:1033100097FB3EF490958095709561957F4F8F4F08
:103320009F4F9923A9F0F92F96E9BB279395F6951E
:10333000879577956795B795F111F8CFFAF4BB0F9C
:1033400011F460FF1BC06F5F7F4F8F4F9F4F16C000
:10335000882311F096E911C0772321F09EE8872F8A
:10336000762F05C0662371F096E8862F70E060E046
:103370002AF09A95660F771F881FDAF7880F9695BF
:10338000879597F90895990F0008550FAA0BE0E863
:10339000FEEF16161706E807F907C0F01216130617
:1033A000E407F50798F0621B730B840B950B39F457
:1033B0000A2661F0232B242B252B21F408950A26BD
:1033C00009F4A140A6958FEF811D811D08950E94EB
:1033D000FA190C946B1A0E945D1A38F00E94641A54
:1033E00020F0952311F00C94541A0C945A1A1124BD
:1033F0000C949F1A0E947C1A70F3959FC1F3950F4D
:1034000050E0551F629FF001729FBB27F00DB11D68
:10341000639FAA27F00DB11DAA1F649F6627B00DF8
:10342000A11D661F829F2227B00DA11D621F739FE1
:10343000B00DA11D621F839FA00D611D221F749FEF
:103440003327A00D611D231F849F600D211D822F36
:10345000762F6A2F11249F5750409AF0F1F088235D
:103460004AF0EE0FFF1FBB1F661F771F881F91508A
:103470005040A9F79E3F510580F00C94541A0C94CB
:103480009F1A5F3FE4F3983ED4F38695779567954E
:10349000B795F795E7959F5FC1F7FE2B880F911DB4
:1034A0009695879597F9089597F99F6780E870E05A
:1034B00060E008959FEF80EC089500240A941616AA
:1034C000170618060906089500240A941216130612
:1034D000140605060895092E0394000C11F48823A0
:1034E00052F0BB0F40F4BF2B11F460FF04C06F5FBC
:1034F0007F4F8F4F9F4F089557FD9058440F551F92
:1035000059F05F3F71F04795880F97FB991F61F065
:103510009F3F79F087950895121613061406551FDC
:10352000F2CF4695F1DF08C0161617061806991F48
:10353000F1CF86957105610508940895E894BB273D
:1035400066277727CB0197F90895F999FECF92BDA9
:1035500081BDF89A992780B50895262FF999FECF55
:103560001FBA92BD81BD20BD0FB6F894FA9AF99AA0
:103570000FBE01960895052E97FB1EF400940E943D
:10358000D21A57FD07D00E94241B07FC03D04EF42B
:103590000C94D21A50954095309521953F4F4F4F3E
:1035A0005F4F089590958095709561957F4F8F4FEF
:1035B0009F4F08950E94461BA59F900DB49F900DAC
:1035C000A49F800D911D11240895B7FF0C94DA1A61
:1035D0000E94DA1A821B930B08952F923F924F920A
:1035E0005F926F927F928F929F92AF92BF92CF9293
:1035F000DF92EF92FF920F931F93CF93DF93CDB79C
:10360000DEB7CA1BDB0B0FB6F894DEBF0FBECDBF13
:1036100009942A88398848885F846E847D848C84E4
:103620009B84AA84B984C884DF80EE80FD800C81ED
:103630001B81AA81B981CE0FD11D0FB6F894DEBFD0
:103640000FBECDBFED010895A1E21A2EAA1BBB1B30
:10365000FD010DC0AA1FBB1FEE1FFF1FA217B3075E
:10366000E407F50720F0A21BB30BE40BF50B661F74
:10367000771F881F991F1A9469F760957095809538
:1036800090959B01AC01BD01CF010895A29FB001AF
:10369000B39FC001A39F700D811D1124911DB29F86
:1036A000700D811D1124911D0895991B79E004C0AE
:1036B000991F961708F0961B881F7A95C9F7809571
:1036C0000895EE0FFF1F0590F491E02D09945058D6
:1036D000BB27AA270E947F1B0C946B1A0E945D1ABD
:1036E00038F00E94641A20F039F49F3F19F426F450
:1036F0000C945A1A0EF4E095E7FB0C94541AE92F37
:103700000E947C1A58F3BA1762077307840795075B
:1037100020F079F4A6F50C949E1A0EF4E0950B2E89
:10372000BA2FA02D0B01B90190010C01CA01A00113
:103730001124FF27591B99F0593F50F4503E68F16E
:103740001A16F040A22F232F342F4427585FF3CFAF
:10375000469537952795A795F0405395C9F77EF480
:103760001F16BA0B620B730B840BBAF09150A1F0C9
:10377000FF0FBB1F661F771F881FC2F70EC0BA0F4F
:10378000621F731F841F48F4879577956795B795D7
:10379000F7959E3F08F0B0CF9395880F08F09927D2
:1037A000EE0F9795879508950E94E81B0C946B1A6D
:1037B0000E94641A58F00E945D1A40F029F45F3F9D
:1037C00029F00C94541A51110C949F1A0C945A1A03
:1037D0000E947C1A68F39923B1F3552391F3951B4A
:1037E000550BBB27AA2762177307840738F09F5F22
:1037F0005F4F220F331F441FAA1FA9F335D00E2E8F
:103800003AF0E0E832D091505040E695001CCAF7FB
:103810002BD0FE2F29D0660F771F881FBB1F2617BE
:1038200037074807AB07B0E809F0BB0B802DBF0195
:10383000FF2793585F4F3AF09E3F510578F00C9464
:10384000541A0C949F1A5F3FE4F3983ED4F3869584
:1038500077956795B795F7959F5FC9F7880F911D85
:103860009695879597F90895E1E0660F771F881F71
:10387000BB1F621773078407BA0720F0621B730B24
:10388000840BBA0BEE1F88F7E09508950E94841A06
:1038900088F09F5798F0B92F9927B751B0F0E1F011
:1038A000660F771F881F991F1AF0BA95C9F714C0C1
:1038B000B13091F00E949E1AB1E008950C949E1AC6
:1038C000672F782F8827B85F39F0B93FCCF38695FA
:1038D00077956795B395D9F73EF490958095709557
:1038E00061957F4F8F4F9F4F08950E94C31908F431
:1038F0008FEF08950E94C319880B990B08950F93B9
:103900001F93CF93DF938230910510F482E090E013
:10391000E0912A08F0912B0830E020E0B0E0A0E030
:10392000309799F42115310509F44AC0281B390B49
:1039300024303105D8F58A819B816115710589F1A3
:10394000FB0193838283FE0111C04081518102817A
:10395000138148175907E0F04817590799F4109751
:1039600061F012960C93129713961C933296CF0126
:10397000DF91CF911F910F91089500932A08109322
:103980002B08F4CF2115310551F04217530738F0B9
:10399000A901DB019A01BD01DF01F801C1CFEF01EF
:1039A000F9CF90932B0880932A08CDCFFE01E20F28
:1039B000F31F819391932250310939832883D7CF04
:1039C0002091280830912908232B41F420910301EC
:1039D0003091040130932908209328082091010197
:1039E000309102012115310541F42DB73EB74091C8
:1039F000050150910601241B350BE0912808F09138
:103A00002908E217F307A0F42E1B3F0B28173907EC
:103A100078F0AC014E5F5F4F2417350748F04E0F2A
:103A20005F1F5093290840932808819391939FCF5B
:103A3000F0E0E0E09CCFCF93DF930097E9F0FC014A
:103A4000329713821282A0912A08B0912B08ED01BF
:103A500030E020E01097A1F420813181820F931F84
:103A600020912808309129082817390709F061C0EA
:103A7000F0932908E0932808DF91CF910895EA0197
:103A8000CE17DF07E8F54A815B819E01411551059C
:103A9000B1F7E901FB83EA8349915991C40FD51F1E
:103AA000EC17FD0761F4808191810296840F951FC8
:103AB000E90199838883828193819B838A83F0E0E3
:103AC000E0E012968D919C9113970097B9F52D9196
:103AD0003C911197CD010296820F931F20912808E7
:103AE000309129082817390739F6309751F5109287
:103AF0002B0810922A08B0932908A0932808BCCF5D
:103B0000D383C28340815181840F951FC817D90781
:103B100061F44E5F5F4F88819981480F591F51832F
:103B200040838A819B81938382832115310509F02B
:103B3000B0CFF0932B08E0932A089ECFFD01DC0163
:103B4000C0CF13821282D7CFB0E0A0E0EAEAFDE155
:103B50000C94EF1A8C01009751F4CB010E947F1C4A
:103B60008C01C801CDB7DEB7E0E10C940B1BFC0162
:103B7000E60FF71F9C0122503109E217F30708F402
:103B80009DC0D901CD91DC911197C617D70798F048
:103B9000C530D10530F3CE0104978617970708F397
:103BA000C61BD70B2297C193D1936D937C93CF0102
:103BB0000E941B1DD6CF5B01AC1ABD0A4C018C0EB6
:103BC0009D1EA0912A08B0912B08512C412CF12C5C
:103BD000E12C109731F580912808909129088815DB
:103BE000990509F05CC04616570608F058C0809148
:103BF000010190910201009741F48DB79EB7409169
:103C0000050150910601841B950BE817F90708F090
:103C100055C0F0932908E0932808F9017183608367
:103C2000A0CF8D919C91119712966C90129713963C
:103C30007C901397A815B90559F56C0142E0C40EA4
:103C4000D11CCA14DB0420F1AC014A195B09DA016A
:103C50001296159780F06282738251834083D90156
:103C60006D937C93E114F10471F0D7011396FC93EA
:103C7000EE93129776CF22968C0F9D1FF9019183B8
:103C80008083F301EFCFF0932B08E0932A0869CFEC
:103C90004816590608F42C017D01D3019ACFCB01B7
:103CA0000E947F1C7C01009749F0AE01B8010E9480
:103CB000611EC8010E941B1D870153CF10E000E068
:103CC00050CFFB01DC0102C001900D9241505040E9
:103CD000D8F70895FB01DC0101900D920020E1F777
:103CE000089510E0C2E6D0E004C0FE010E94611B0E
:0C3CF0002196C336D107C9F7F894FFCF26
:103CFC000100002C0880000000000069049703C438
:103D0C0003B6042704D3031904000000005108244F
:103D1C0008BB0801080301110802080D0A006E61B6
:103D2C006E00696E66006F7666004661696C65644C
:103D3C0020746F2066696E6420494E4132313920FF
:103D4C0063686970004D6F746F72732053746F7079
:0C3D5C007065640053002C0052004B0006
:00000001FF
