:100000000C945E000C9486000C9486000C94860080
:100010000C9486000C9486000C9486000C94860048
:100020000C9486000C9486000C9486000C94C00DF1
:100030000C9486000C9486000C9486000C94860028
:100040000C94FF0B0C9486000C946F0C0C94490CD0
:100050000C9486000C9486000C9486000C94860008
:100060000C94A10C0C948600000000080002010012
:100070000003040700000000000000000000000072
:10008000250028002B0000000000240027002A0083
:10009000040404040404040402020202020203032E
:1000A0000303030301020408102040800102040836
:1000B00010200102040810207C0EA61411241FBE7B
:1000C000CFEFD8E0DEBFCDBF11E0A0E0B1E0EEE9B8
:1000D000F3E302C005900D92AC36B107D9F724E0E6
:1000E000ACE6B1E001C01D92A738B207E1F710E01D
:1000F000CDE5D0E004C02197FE010E94B216CC35B8
:10010000D107C9F70E94290F0C94C2190C94000062
:10011000CF92DF92EF92FF92DC01803232E09307C0
:10012000BCF5853B910514F0A4EBB0E0409173045D
:1001300028E830E0241B310947FD3395220F331F97
:10014000220F331F6901330FEE08FF08409174043A
:100150002EE239E084E04802201931091124032EEF
:10016000000C440B550B2C193D094E095F09B7FFD4
:1001700002C0B0E0A0E00E94361624EB30E040E080
:1001800050E00E940C16C20ED31EE41EF51ED601CE
:10019000E0917204EC3068F52091730488E890E0F7
:1001A000821B910927FD9395880F991F880F991F2E
:1001B000A817B9076CF0209174048EE299E034E03E
:1001C0002302801991091124A817B9070CF4CD0155
:1001D0000297880F991F4FB7F8942E2F30E0F9013E
:1001E000EE0FFF1FE20FF31FE95CFB4F9283818349
:1001F0004FBFFF90EF90DF90CF900895089508953E
:1002000090E0FC01EC55FF4F249180579F4FFC017B
:100210008491882399F090E0880F991FFC01EA5798
:10022000FF4FA591B491FC01E458FF4F8591949143
:100230008FB7F894EC91E22BEC938FBF08958FB7B2
:10024000F894809117038FBF08958CBD9DBD0895CC
:1002500090E0FC01E859FF4F2491FC01EC55FF4F61
:100260003491FC01E057FF4FE491EE23C9F02223C3
:1002700039F0233001F1A8F4213019F1223029F1AD
:10028000F0E0EE0FFF1FE458FF4FA591B4918FB738
:10029000F894EC91611126C030953E233C938FBFBA
:1002A00008952730A9F02830C9F0243049F780910B
:1002B00080008F7D03C0809180008F7780938000C5
:1002C000DFCF84B58F7784BDDBCF84B58F7DFBCF47
:1002D0008091B0008F778093B000D2CF8091B00032
:1002E0008F7DF9CF3E2BDACF8230910538F0880F21
:1002F000991F880F991F05970197F1F70895AF92FD
:10030000BF92CF92DF92EF92FF920F931F93CF9302
:10031000DF93EC0188819981892B89F06EBD0DB442
:1003200007FEFDCFBEB48B2DDF91CF911F910F91B2
:10033000FF90EF90DF90CF90BF90AF9008958885A9
:10034000998511E0892B09F010E8AA24A394862F3F
:10035000812309F0A12C062F2C813D814E815F81E4
:1003600060E271EA87E090E00E947516F22EB02EEE
:10037000E12CC22ED12CFF2019F0C6010E9474017D
:100380008A85877F09F042C08D858F3F89F0902F45
:10039000912381E009F480E08A1551F0EF85F88916
:1003A0008F89992369F19081892B8083AA24A39452
:1003B000E989FA898081998D892B8083FF2019F042
:1003C000C6010E9474018E858F3F39F0EB89FC894C
:1003D0008081988D892309F0E12AE989FA89908141
:1003E000898D8095892380838E858F3F09F0BE2C6F
:1003F00088859985892BB9F5110F1111BCCF93CF41
:100400009081809589238083A12CD2CFE989FA89B4
:100410008081998D892B8083FF2019F0C6010E946D
:1004200074018D858F3F49F0EF85F8898F89902F72
:100430009123A9F09081892B8083E989FA899081A1
:10044000898D8095892380838E858F3F69F2EB8922
:10045000FC898081988D892339F2E12AC5CF90816A
:1004600080958923E9CF1695C8CF8F929F92AF923E
:10047000BF92CF92DF92EF92FF920F931F93CF9391
:10048000DF93EC014B016A01B22EA32E8881998182
:10049000892B31F0EA81FB81808191810E942501C5
:1004A00060E08B850E9428017401C80CD91CEC14F3
:1004B000FD0479F4EB2CFA2C0E0D1F1D0E151F05F3
:1004C00079F06FEFCE010E947F01F70181937F01E8
:1004D000F5CFF70161917F01CE010E947F01E7CF47
:1004E00061E08B850E94280181E0DF91CF911F910F
:1004F0000F91FF90EF90DF90CF90BF90AF909F90C3
:100500008F9008958F929F92AF92BF92CF92DF9279
:10051000EF92FF920F931F93CF93DF93EC01B62ED0
:10052000A72E6A01490188819981892B31F0EA81DE
:10053000FB81808191810E94250160E08B850E9472
:1005400028017401080D191DE016F10671F40B2D38
:100550001A2DC00ED11EC016D10671F0F80161919E
:100560008F01CE010E947F01F6CFF70161917F01DB
:10057000CE010E947F01E8CF61E08B850E942801B7
:1005800081E0DF91CF911F910F91FF90EF90DF906D
:10059000CF90BF90AF909F908F9008953FB7F89401
:1005A0008091130390911403A0911503B091160349
:1005B00026B5A89B05C02F3F19F00196A11DB11DBE
:1005C0003FBFBA2FA92F982F8827BC01CD01620FFA
:1005D000711D811D911D42E0660F771F881F991FB5
:1005E0004A95D1F708958F929F92AF92BF92CF9282
:1005F000DF92EF92FF926B017C010E94CE024B01D1
:100600005C01C114D104E104F104B9F00E94CE02EE
:10061000681979098A099B09683E7340810591052B
:1006200080F321E0C21AD108E108F10888EE880EB3
:1006300083E0981EA11CB11CE4CFFF90EF90DF90E7
:10064000CF90BF90AF909F908F9008952FB7F89460
:1006500060910F0370911003809111039091120328
:100660002FBF0895AF92BF92CF92DF92EF92FF9289
:100670000F931F93CF93DF936C017B018B01040FCA
:10068000151FEB015E01AE18BF08C017D10759F066
:100690006991D601ED91FC910190F081E02DC601A8
:1006A0000995892B79F7C501DF91CF911F910F91A2
:1006B000FF90EF90DF90CF90BF90AF900895FC0136
:1006C000538D448D252F30E0842F90E0821B930BB7
:1006D000541710F0CF96089501970895FC01918D5D
:1006E000828D981761F0A28DAE0FBF2FB11D5D9660
:1006F0008C91928D9F5F9F73928F90E008958FEF02
:100700009FEF08950F931F930E9426036093960313
:100710007093970380939803909399038EE893E0E6
:100720000E946E0397FF1DC00E942603009196034E
:10073000109197032091980330919903601B710BDE
:10074000820B930B009192031091930320919403D9
:10075000309195036017710782079307F8F28FEFC6
:100760009FEF1F910F910895FC01918D828D981735
:1007700031F0828DE80FF11D858D90E008958FEFA7
:100780009FEF0895FC01918D228D892F90E0805C70
:100790009F4F821B91098F73992708958EE893E0EC
:1007A0000E94C20321E0892B09F420E0822F0895E2
:1007B00080E090E0892B29F00E94CE0381110C94F7
:1007C00000000895FC01A48DA80FB92FB11DA35AF4
:1007D000BF4F2C91848D90E001968F739927848F61
:1007E000A689B7892C93A089B1898C918370806484
:1007F0008C93938D848D981306C00288F389E02D25
:1008000080818F7D80830895EF92FF920F931F93D5
:10081000CF93DF93EC0181E0888F9B8D8C8D9813B3
:100820001AC0E889F989808185FF15C09FB7F894BF
:10083000EE89FF896083E889F9898081837080640B
:1008400080839FBF81E090E0DF91CF911F910F9156
:10085000FF90EF900895F62E0B8D10E00F5F1F4F65
:100860000F731127E02E8C8D8E110CC00FB607FC74
:10087000FACFE889F989808185FFF5CFCE010E9402
:10088000E203F1CFEB8DEC0FFD2FF11DE35AFF4F8B
:10089000F0829FB7F8940B8FEA89FB898081806290
:1008A000CFCFCF93DF93EC01888D8823B9F0AA894D
:1008B000BB89E889F9898C9185FD03C0808186FD1B
:1008C0000DC00FB607FCF7CF8C9185FFF2CF80816A
:1008D00085FFEDCFCE010E94E203E9CFDF91CF91FA
:1008E000089520918E01260F3327331F21323105C1
:1008F000ECF420916403FC0190E080E0243069F086
:1009000082E00895A0918E012191AC0142595E4F81
:10091000A40FB52FB11D2C930196861798F38091E3
:100920008E01680F60938E0180E0089581E0089544
:100930001092640381E08093630310923E0361E0B0
:1009400082E10E94280161E083E10E942801E9EB35
:10095000F0E080818E7F808380818D7F808388E43A
:100960008093B80085E48093BC00089510921D0325
:1009700010921C0310926B0310928D030E94980436
:100980008EEF90E090931B0380931A038FEF90E01B
:1009900090931903809318030895CF93DF9391E008
:1009A00090936D018823B9F0C091B800D091BA003E
:1009B0008091BC008A7B8093BC0060E082E10E9451
:1009C000280160E083E10E9428010E949804D093EE
:1009D000BA00C093B800DF91CF9108958F929F9293
:1009E000AF92BF92CF92DF92EF92FF920F931F933D
:1009F000CF93DF93D0918D03D13208F0D7C0182F59
:100A0000C0918C030E94CE026B017C018091640333
:100A100081116BC082E080936403109363038FEFB6
:100A20008093620310926103D0936003ACE6B3E05D
:100A3000E0E4F3E080E0D81391C010923F0380918E
:100A40003F03CC0FC82BC0933F0380913E038130FE
:100A500009F088C010923E030E94CE026B017C0117
:100A600080913F038093BB00809166039091670360
:100A7000A0916803B0916903892B8A2B8B2BA1F07D
:100A80000E94CE02009166031091670320916803D3
:100A9000309169036C197D098E099F0906171707A4
:100AA0002807390708F442C08091BC0083FDD8CFE5
:100AB00085EC8093BC000E94CE026B017C0180918A
:100AC0006403823009F450C0809162038F3F09F4BF
:100AD0006FC080916203803209F46CC08091620320
:100AE000803309F469C084E026C080916603909148
:100AF0006703A0916803B0916903892B8A2B8B2B24
:100B000009F484CF0E94CE02809066039090670320
:100B1000A0906803B09069036C197D098E099F0944
:100B200086169706A806B90608F070CF809165036F
:100B30000E94CD0485E010926B0310928D031092F9
:100B40006A03DF91CF911F910F91FF90EF90DF909B
:100B5000CF90BF90AF909F908F9008959D9191936B
:100B60008F5F69CF85EEA5CF809166039091670373
:100B7000A0916803B0916903892B8A2B8B2B09F410
:100B80009ECF0E94CE0200916603109167032091D0
:100B90006803309169036C197D098E099F09061756
:100BA00017072807390708F08ACFC0CF81E0C3CFE5
:100BB00080E0C1CF82E0BFCF83E0BDCF8F929F9214
:100BC000BF92CF92DF92EF92FF920F931F93CF933A
:100BD000DF93DA01AE0DBF1DEC01EC81FD81EA1758
:100BE000FB0710F490E026C0B22E6A014B01898108
:100BF0009A81288131E030936A0320938C0310920C
:100C00006B0310928D03E114F10409F589819A8137
:100C1000DC01ED91FC910280F381E02DA601B4018D
:100C20000995C816D906F1F68B2D0E94EE0491E0C5
:100C30008111D8CF892FDF91CF911F910F91FF9014
:100C4000EF90DF90CF90BF909F908F900895011507
:100C50001105E1F2DC01ED91FC910280F381E02DC0
:100C6000A701B80109958E159F0509F0BBCFCECF1E
:100C7000EF92FF920F931F93CF93DF9300D0CDB7E6
:100C8000DEB7FC014787508B618B728B828588238E
:100C900039F14487452F562F672F7727882311F185
:100CA0004387BF01655F7F4F9681478199834A8360
:100CB000A081B1811097C1F0E184F12C8E010F5F0A
:100CC0001F4F21E042E050E0CD010E94DE050F9071
:100CD0000F90DF91CF911F910F91FF90EF900895AA
:100CE0004387D8CF4487DDCFA281B38180E01097BE
:100CF00071F324813581018510E02330310571F4D1
:100D00004E7F49839A830F5F1F4F9E012F5F3F4F96
:100D100042E050E0CD010E948202D9CF2115310579
:100D200019F49F779983F1CF2230310511F490683F
:100D3000F9CF2130310549F79F779064F3CFCF93F6
:100D4000DF93EC018B818823A1F0888191E090935F
:100D50006A0380938C0310926B0310928D0381E0E1
:100D60000E94EE0491E0811190E0892FDF91CF91F4
:100D700008950E94B60481E08B83CE010E949F06F5
:100D8000982F8111E2CFF1CF0895E0911D0380915A
:100D90001C03E81730F4F0E0E25EFC4F808190E045
:100DA00008958FEF9FEF089590911D0380911C038C
:100DB0002FEF3FEF981748F4E92FF0E0E25EFC4F89
:100DC000208130E09F5F90931D03C90108958091B9
:100DD0001C0390911D03891B990B0895CF92DF92FC
:100DE000EF92FF920F931F93CF93DF937C01CB0180
:100DF0008A0120916A03222389F0EB016B01C40E62
:100E0000D51ECC15DD0569F06991D701ED91FC91F6
:100E10000190F081E02DC7010995F3CF642F0E9466
:100E20007104C801DF91CF911F910F91FF90EF9056
:100E3000DF90CF900895CF93DF931F92CDB7DEB7A9
:100E4000698320916A032223F9F020918D032032D7
:100E500058F021E030E0FC013383228390E080E011
:100E60000F90DF91CF91089580916B03E82FF0E010
:100E7000E459FC4F998190838F5F80936B0380933B
:100E80008D0381E090E0ECCF61E0CE0101960E94FD
:100E90007104F7CF90E080E008951F93CF93DF9324
:100EA0006091000180916E040E94280162E370E06D
:100EB00080E090E00E94F302D0E0C0E08091EA027E
:100EC0008C171D06A9F0A4F010916C0461E0812F2D
:100ED0000E94280180E797E10E94740160E0812F61
:100EE0000E94280180E797E10E9474012196E6CFD5
:100EF000DF91CF911F9108954F925F926F927F92F1
:100F00008F929F92AF92BF92CF92DF92EF92FF9219
:100F10000F931F93CF93DF93DC0114962D913C9197
:100F20002417350708F4DBC08A016B017C01FC0142
:100F3000D0810E94CE024B015C018091640381113B
:100F400069C0C02F013208F0C0E281E080936403E1
:100F5000809363039FEF90936203109261039C0F51
:100F60009093600380933F0380913F03DD0FD82B64
:100F7000D0933F0380913E03813009F08CC01092E2
:100F80003E030E94CE024B015C0180913F0380939F
:100F9000BB008091660390916703A0916803B091B4
:100FA0006903892B8A2B8B2BA1F00E94CE024090E3
:100FB0006603509067036090680370906903681936
:100FC00079098A099B09461657066806790608F4C6
:100FD00042C08091BC0083FDD8CF85EC8093BC00DB
:100FE0000E94CE024B015C0180916403813009F4C0
:100FF00054C0809161038C1710F4C0916103A0E488
:10100000B3E0EEE1F3E080E08C1751F19D91919314
:101010008F5FFACF8091660390916703A091680378
:10102000B0916903892B8A2B8B2B09F486CF0E9400
:10103000CE02409066035090670360906803709002
:101040006903681979098A099B09461657066806D3
:10105000790608F072CF809165030E94CD04C0E04C
:1010600010921D03C0931C03C0171106C1F5E601C1
:101070000C0D1D1D0C171D0709F443C0D701119657
:101080008D919C91DC01ED91FC910284F385E02D22
:1010900009958993EFCF85EEA1CF8091660390915A
:1010A0006703A0916803B0916903892B8A2B8B2B6E
:1010B00009F49ACF0E94CE024090660350906703D5
:1010C0006090680370906903681979098A099B091F
:1010D000461657066806790608F086CFBCCF80E032
:1010E000DF91CF911F910F91FF90EF90DF90CF9004
:1010F000BF90AF909F908F907F906F905F904F9038
:10110000089581E0EDCFEF92FF920F931F93CF935D
:10111000DF93C9E7D4E08F83F12CE12C10E000E0ED
:1011200021E041E050E060E874E0888199810E940C
:10113000DE0542E050E060E874E0888199810E9419
:101140007C078F819885982789279827DF91CF91F1
:101150001F910F91FF90EF900895EF92FF920F93E0
:101160001F93482F20917C0430917D0480917E0450
:1011700090917F04822B932B4230D9F14330E1F1DF
:101180004130A1F183609164906821E02093800454
:101190009093810480938204F12CE12C10E000E014
:1011A00043E050E060E874E08091790490917A0423
:1011B0000E94DE0581E00E94830897FFFBCF80E05C
:1011C0000E94830820917B04022E02C09695879589
:1011D0000A94E2F7222329F0811528E0920708F00B
:1011E000906F1F910F91FF90EF900895836091652C
:1011F000CBCF83609166C8CF83609167C5CF6F9274
:101200007F928F929F92AF92BF92CF92DF92EF9296
:10121000FF920F931F93CF93DF9300D0CDB7DEB72C
:101220006C015B014C018BE0880E911CD601169677
:101230009C91169717968C91179799838A836D9036
:101240007C90119761147104D9F119964C9150E07A
:10125000F12CE12C10E000E020E0BE016F5F7F4F39
:10126000C3010E94DE05811112C080E00F900F9033
:10127000DF91CF911F910F91FF90EF90DF90CF9072
:10128000BF90AF909F908F907F906F90089542E0B5
:1012900050E0B401C3010E947C07882339F3F601B2
:1012A000928591113CC0248530E0322F2227D50150
:1012B00011963C932E939385292B2D933C93D6CF57
:1012C0001296ED91FC911397309779F214962D9127
:1012D0003C91159719964C9150E02330310579F4E3
:1012E000816089839A834F5F5F4F02E010E0940131
:1012F000BE016F5F7F4FCF010E943502CECF211517
:10130000310519F490689983F0CF2230310511F43A
:101310009F77F9CF2130310541F7906CF4CF2385C9
:1013200030E0322F2227D50111963C932E939485DD
:10133000C3CF0F931F93CF93DF93CDB7DEB76597DE
:101340000FB6F894DEBF0FBECDBF0CE514E0F80178
:1013500080819181188A198A1A8A1B8A9A838983C3
:101360001C821B8281E08A8722E030E038872F834D
:101370008B8782E08987BE016C5E7F4FCE0101962C
:101380000E94FF08F80182838C899D8923E096954D
:1013900087952A95E1F7880F991F880F991F659601
:1013A0000FB6F894DEBF0FBECDBFDF91CF911F9176
:1013B0000F910895EF92FF920F931F93CF93DF93B6
:1013C000CDB7DEB7A8970FB6F894DEBF0FBECDBF7E
:1013D0000CE514E0F801808191811BA21CA21DA2E2
:1013E0001EA29D8B8C8B1F8A1E8AFF24F394FD8E78
:1013F00085E090E09B8F8A8FFE8E82E0E82EEC8E57
:101400004481558166817781CE0144960E943806D9
:10141000F80180819181188A198A1A8A1B8A9A8315
:1014200089831C821B82FA8684E090E098878F83F0
:10143000FB86E986BE01695D7F4FCE0101960E9461
:10144000FF08F80182838FA198A5A8960FB6F8949B
:10145000DEBF0FBECDBFDF91CF911F910F91FF90E7
:10146000EF900895FC0101900020E9F73197AF015A
:10147000481B590BBC018EE893E00C9432038F9209
:101480009F92AF92BF920F931F93CF93DF93CDB7ED
:10149000DEB7A1970FB6F894DEBF0FBECDBF19A27D
:1014A000423008F44AE08E010F5D1F4F842E912CCC
:1014B000B12CA12CA50194010E947516E62FB9014B
:1014C000CA01EA30F4F4E05DD801EE938D01232BDC
:1014D000242B252B79F790E080E0109719F0CD01AF
:1014E0000E94320AA1960FB6F894DEBF0FBECDBFA0
:1014F000DF91CF911F910F91BF90AF909F908F90F0
:101500000895E95CE1CFCF92DF92EF92FF92CF9303
:10151000DF936C01990FEE08FF08F7FE19C06DE22A
:101520008EE893E00E940404EC0166277727CB0144
:101530006C197D098E099F094AE00E943F0A8C0FB1
:101540009D1FDF91CF91FF90EF90DF90CF90089596
:101550004AE0C701B601DF91CF91FF90EF90DF9095
:10156000CF900C943F0ACF93DF930E94830AEC0143
:101570008BE291E00E94320A8C0F9D1FDF91CF9188
:1015800008950C94320A4F925F926F927F928F92DD
:101590009F92AF92BF92CF92DF92EF92FF920F9302
:1015A0001F93CF936B017C01742EAC019B010E94B1
:1015B000CB17882399F08EE291E0CF911F910F9184
:1015C000FF90EF90DF90CF90BF90AF909F908F9063
:1015D0007F906F905F904F900C94320A46015701B4
:1015E000E894B7F82FEF3FEF4FE75FE7C501B4018D
:1015F0000E94CB1781110DC02FEF3FEF4FE75FE740
:10160000C501B4010E94E81418161CF482E391E0AD
:10161000D4CF2FEF3FEF4FE75FE4C701B6010E9441
:10162000C61718161CF486E391E0C7CF2FEF3FEFE3
:101630004FE75FECC701B6010E94E81487FDF3CFC6
:1016400020E030E0A901C701B6010E94E81410E0D3
:1016500000E087FF0AC06DE28EE893E00E94040478
:101660008C01F7FAF094F7F8F094C0E060E070E0D5
:1016700080E09FE37C1641F020E030E040E251E45E
:101680000E942517CF5FF6CFA70196010E94B916D9
:101690002B013C010E9497174B015C014AE00E941C
:1016A0003F0A7C01E00EF11ECC23C1F1C501B4015B
:1016B0000E94ED149B01AC01C301B2010E94B81657
:1016C0004B015C016EE28EE893E00E940404E80E98
:1016D000F91EC15018F120E030E040E251E4C501AC
:1016E000B4010E944E152B013C010E9497174B013B
:1016F000B12CA12C4AE0C501B4010E943F0AE80EBA
:10170000F91EC501B4010E94ED149B01AC01C30197
:10171000B2010E94B8164B015C01DBCFC701CF912B
:101720001F910F91FF90EF90DF90CF90BF90AF90FF
:101730009F908F907F906F905F904F9008950F9340
:101740001F93CF93DF93EC0188819981009759F023
:101750002A813B812617370730F081E0DF91CF9156
:101760001F910F9108958B016F5F7F4F0E94F518B5
:10177000009759F0998388831B830A832C813D81CC
:10178000232B59F7FC011082E8CF80E0E7CF85EDED
:101790008093BC008091660390916703A0916803D9
:1017A000B09169030796A11DB11D23E0B695A795D9
:1017B000979587952A95D1F72091BC0024FD03C009
:1017C00010926403089540916603509167036091FD
:1017D000680370916903452B462B472B69F30097EB
:1017E000A105B10541F025E32A95F1F70000019725
:1017F000A109B109E1CF809165030C94CD041F923A
:101800000F920FB60F9211242F933F938F939F93B4
:10181000AF93BF9380910F0390911003A091110398
:10182000B091120330910E0323E0230F2D3758F5AA
:101830000196A11DB11D20930E0380930F03909379
:101840001003A0931103B09312038091130390919E
:101850001403A0911503B09116030196A11DB11DAB
:101860008093130390931403A0931503B09316036E
:10187000BF91AF919F918F913F912F910F900FBE8C
:101880000F901F90189526E8230F0296A11DB11DF9
:10189000D2CF1F920F920FB60F9211242F933F9326
:1018A0004F935F936F937F938F939F93AF93BF9368
:1018B000EF93FF938EE893E00E94E203FF91EF9194
:1018C000BF91AF919F918F917F916F915F914F9158
:1018D0003F912F910F900FBE0F901F9018951F9260
:1018E0000F920FB60F9211242F938F939F93EF9324
:1018F000FF93E0919E03F0919F038081E091A40308
:10190000F091A50382FD1BC090818091A7038F5F9A
:101910008F732091A803821741F0E091A703F0E0B4
:10192000E257FC4F958F8093A703FF91EF919F9112
:101930008F912F910F900FBE0F901F90189580815F
:10194000F4CF1F920F920FB60F9211242F933F9353
:101950004F935F936F937F938F939F93AF93BF93B7
:10196000EF93FF938091B900887F803609F44AC0D5
:10197000F0F5883209F4A7C018F5803109F49BC04E
:10198000B8F4882309F4F9C0883009F494C0FF91B1
:10199000EF91BF91AF919F918F917F916F915F91E7
:1019A0004F913F912F910F900FBE0F901F90189560
:1019B000883109F488C0803251F78093620314C0E3
:1019C000803409F49DC040F48033B9F38833F9F6CC
:1019D0008093620385ECB0C0803509F485C08835FA
:1019E00009F496C0883499F60E94C70BD0CF883985
:1019F00009F48CC038F5883729F050F4883611F096
:101A0000803729F683E0809364031092B00157C0B9
:101A1000883809F47BC0803919F0803809F0B7CFD5
:101A20008091B001803208F071C0E091B00181E096
:101A30008E0F8093B0018091BB00F0E0E057FE4F25
:101A400080833DC0803B39F0E0F4803A09F479C0EE
:101A5000883A09F09CCF84E08093640310928F0150
:101A600010928E01E0911A03F0911B030995809169
:101A70008E0181110FC081E080938E0110926E0162
:101A800009C0803C09F4A6CF883C09F4A3CF883B69
:101A900009F07DCFE0918F0181E08E0F80938F015F
:101AA000F0E0E259FE4F80818093BB0090918F015E
:101AB00080918E0129C080913F038093BB0085EC0B
:101AC0008093BC0064CF909161038091600398176C
:101AD00058F5E091610381E08E0F80936103F0E09F
:101AE000E05CFC4F8081E9CFE091610381E08E0FE3
:101AF000809361038091BB00F0E0E05CFC4F808349
:101B000090916103809160039817C8F285E8D8CF5F
:101B1000E091610381E08E0F809361038091BB00AF
:101B2000F0E0E05CFC4F80838091630381115CCF27
:101B300081E080933E0384EA8093BC0010926403AA
:101B400026CF85EC8093BC00109264038091B00195
:101B5000803230F4E091B001F0E0E057FE4F1082A7
:101B60006091B00170E0E0911803F091190380E9F1
:101B700091E009951092B0010ACF1092620334CF20
:101B80001F920F920FB60F9211242F933F934F93F2
:101B90005F936F937F938F939F93AF93BF93CF93F5
:101BA000DF93EF93FF9380916C01C0915B04D0E0D1
:101BB00087FF24C0109285001092840080916C01F0
:101BC0008F5F80936C0180916C01082E000C990B43
:101BD0008C179D0724F480916C018C30C4F18091A6
:101BE000840090918500049680349C4908F47AC062
:101BF0008091840090918500049676C080916C015C
:101C0000082E000C990B8C179D07C4F6E0916C010F
:101C10008E2FEE0F990BFC01EE0FFF1FE80FF91F3F
:101C2000E95CFB4F808187FFC9CFE0916C018E2F6B
:101C3000EE0F990BFC01EE0FFF1FE80FF91FE95C97
:101C4000FB4F808160E08F770E942801B7CF209101
:101C5000840030918500E0916C018E2FEE0F990B7E
:101C6000FC01EE0FFF1FE80FF91FE95CFB4F8181BC
:101C70009281820F931F9093890080938800E09156
:101C80006C018E2FEE0F990BFC01EE0FFF1FE80F7A
:101C9000F91FE95CFB4F808187FF11C0E0916C0167
:101CA0008E2FEE0F990BFC01EE0FFF1FE80FF91FAF
:101CB000E95CFB4F808161E08F770E942801FF91F2
:101CC000EF91DF91CF91BF91AF919F918F917F91D4
:101CD0006F915F914F913F912F910F900FBE0F9099
:101CE0001F90189580E49CE9909389008093880068
:101CF0008FEF80936C01E3CF1092910310929003C9
:101D000088EE93E0A0E0B0E0809392039093930379
:101D1000A0939403B09395032BE031E030938F03AD
:101D200020938E0325EC30E030939B0320939A039D
:101D300024EC30E030939D0320939C0320EC30E0B2
:101D400030939F0320939E0321EC30E03093A10356
:101D50002093A00322EC30E03093A3032093A2034E
:101D600026EC30E03093A5032093A4031092A70340
:101D70001092A8031092A9031092AA0310922E04A5
:101D800010922D0480932F0490933004A09331047B
:101D9000B09332048DE191E090932C0480932B0456
:101DA00010927B0410927D0410927C0480E890E0F5
:101DB00090937F0480937E048CE0809375048DE083
:101DC0008093760483E08093770480915B048C3069
:101DD000E0F591E0980F90935B048093720490E09B
:101DE000FC01EE0FFF1FE80FF91FE95CFB4F88EBCA
:101DF0009BE0928381838DE090E0909371048093C7
:101E000070048BE090E090936F0480936E048AE0FE
:101E100090E090936D0480936C0410925D04109296
:101E20005C0480E480935F04109264041092650463
:101E3000109266041092670410926804109269046C
:101E400010926A0410926B0408958FEF80937204CD
:101E5000D2CFCF93DF93CDB7DEB7E0970FB6F8942C
:101E6000DEBF0FBECDBF789484B5826084BD84B5DB
:101E7000816084BD85B5826085BD85B5816085BD85
:101E800080916E00816080936E001092810080913D
:101E900081008260809381008091810081608093C5
:101EA0008100809180008160809380008091B100EA
:101EB00084608093B1008091B00081608093B00015
:101EC00080917A00846080937A0080917A008260A9
:101ED00080937A0080917A00816080937A0080916B
:101EE0007A00806880937A001092C100109170048B
:101EF000809172048C3008F051C0812F0E94000143
:101F000080917204282F30E0F901EE0FFF1FE20FDD
:101F1000F31FE95CFB4F1F7790819078912B9083A2
:101F200010927304109274042CE0622F0E94A61683
:101F3000829FB001112430E020E0AB01420F531F1B
:101F4000FA01EE0FFF1FE40FF51FE95CFB4F9081D4
:101F500097FD16C02F5F3F4F2C30310571F781116F
:101F60000FC01092800082E0809381001092850063
:101F700010928400B19A80916F00826080936F000C
:101F8000E09172048E2F90E0FC01EE0FFF1FE80F2E
:101F9000F91FE95CFB4F80818068808380916E042B
:101FA0000E94000180916C040E940001E0919E0358
:101FB000F0919F0382E08083E0919A03F0919B036C
:101FC0001082E0919C03F0919D038FEC808310922E
:101FD000A603E091A203F091A30386E08083E09141
:101FE000A003F091A103808180618083E091A00330
:101FF000F091A103808188608083E091A003F0913B
:10200000A103808180688083E091A003F091A10307
:1020100080818F7D808380915C0490915D04892B09
:10202000A9F486E090E00E94D017FC0180915F0443
:1020300080838BE294E092838183138280E290E03C
:1020400095838483F0935D04E0935C0400915C04C9
:1020500010915D040E94B604FF24F394F801F3820A
:10206000C8010E949F0681110FC08AE391E00E947F
:10207000320A8BE291E00E94320A6AE070E080E06E
:1020800090E00E94F302F9CF80E090E1A0E0B0E0A0
:102090008093600490936104A0936204B0936304FE
:1020A0008AE090E0A0E0B0E080936404909365043F
:1020B000A0936604B093670480E090E0A0E0B0E4F1
:1020C0008093680490936904A0936A04B0936B04AE
:1020D00080915C0490915D041BA21CA21DA21EA213
:1020E0009D8B8C8B1F8A1E8AFD8E85E090E09B8FD6
:1020F0008A8FFE8E12E01C8F40E050E160E070E0BD
:10210000CE0144960E94380680915C0490915D0453
:10211000188A198A1A8A1B8A9A8389831C821B82CD
:10212000FA8618861F82FB8619874FE959E360E01B
:1021300070E0CE0101960E94380680935E0486E02E
:1021400090E00E94D0178C0188E4F80180838BE234
:1021500094E092838183138280E290E0958384836C
:1021600010937A04009379040E94B604F801F38274
:10217000C8010E949F068AEA8093030386E9809340
:10218000040382E8809305038EE6809306038AEABF
:1021900090E00E94880078E1A72E8EE893E00E94EC
:1021A000C203181619060CF055C01A8219821C8237
:1021B0001B821E821D8270E060E0CE0101960E94AB
:1021C0009F0B29813A8181112BC02115310519F00E
:1021D000C9010E946C181A8219821E821D821C82FB
:1021E0001B820E94820397FD23C08C8B1D8A0D8168
:1021F0001E810F5F1F4FB801CE0101960E949F0BF9
:10220000882379F329813A818D819E81BE016C5E9C
:102210007F4F820F931F0E94BB191E830D83E1CF56
:102220001E821D826DE271E0C9010E94BB19D9CFE7
:1022300089819A81009709F462C30E94AC146130CD
:1022400009F05BC360930D0389819A81009711F0B7
:102250000E946C1880910D03813009F041C30091F8
:102260000B0310910C030115110531F460E177E2C5
:1022700080E090E00E94F3020E9426036B017C0143
:10228000C0920703D0920803E0920903F0920A0378
:102290009801A0E6BAEE0E949716C616D706E80681
:1022A000F90608F470C2012B01F110910001809130
:1022B000030391E0111190E09093000190E00E94DF
:1022C000880068EE73E080E090E00E94F3020E94D4
:1022D0004D0768EE73E080E090E00E94F30281E039
:1022E000111101C080E08093000143E053E058A742
:1022F0004FA383EF92E09AA789A76BEEE62E62E0E8
:10230000F62E6C01B12CEFA1F8A58191F8A7EFA3EF
:1023100090E00E94880068EE73E080E090E00E9408
:10232000F3026091000180916E040E94280162E333
:1023300070E080E090E00E94F302312C912C812C1F
:1023400061E080916C040E94280184E690E00E9484
:102350007401C40183709927892B09F0DBC20E94A4
:1023600026036093E5027093E6028093E702909360
:10237000E8020E94DA09BC01990F880B990B0E94B0
:10238000EF142B013C01609164047091650480910D
:102390006604909167040E94ED149B01AC01C30197
:1023A000B2010E9425179F776093E1027093E202C9
:1023B0008093E3029093E4020E949909032D10E0B8
:1023C0009801220F331F220F331FA90143585D4F7D
:1023D0003A01BC01990F880B990B0E94EF142FE66C
:1023E00032E143E85AE30E944E152091E102309118
:1023F000E2024091E3025091E4020E944E159F7761
:10240000F301608371838283938380E00E94AD082F
:10241000000F111FF801E55BFD4F9183808381E080
:102420000E94AD08F801E75EFD4F9183808382E052
:102430000E94AD08F801E951FE4F9183808383E04B
:102440000E94AD08F801EB54FE4F918380833394D2
:102450000E9426036093B1017093B2018093B3018F
:102460009093B40160E080916C040E94280184E69E
:1024700090E00E947401FFEF8F1A9F0A44E68416D1
:10248000910409F05DCF8DE792E09EA78DA72BE424
:10249000822E22E0922EE9E1F2E0FCA7EBA737EED4
:1024A000232E31E0332E45EB51E058AB4FA78C0182
:1024B000412C512C320184E691E00E94C10A86E64B
:1024C00091E00E94C10A4AE0C301B2010E943F0AA2
:1024D00086E691E00E94C10AF801619171918191B3
:1024E00091918F0142E00E94C30A86E691E00E942A
:1024F000C10AF401619171914F0190E080E04AE0DE
:102500000E943F0A86E691E00E94C10AEBA5FCA565
:1025100061917191FCA7EBA790E080E04AE00E94F6
:102520003F0A86E691E00E94C10AF1016191719132
:102530001F0190E080E04AE00E943F0A86E691E0B9
:102540000E94C10AEFA5F8A961917191F8ABEFA7BC
:1025500090E080E04AE00E943F0A86E691E00E9417
:10256000C10A90E080E00E94830A86E691E00E9422
:10257000C10A90E080E00E94B30AFFEF4F1A5F0AA1
:102580006F0A7F0A49E1441651046104710409F09D
:1025900092CF8091DD029091DE02A091DF02B09196
:1025A000E002F60180839183A283B383F701A082C6
:1025B00010E00B2D0170EDA5FEA56190719081904A
:1025C0009190FEA7EDA7F6012081318142815381D0
:1025D000C401B3010E94C61718164CF4F6016082BC
:1025E0007182828293820111ACC1F70110831C5F5A
:1025F000143609F768EE73E080E090E00E94F30281
:1026000081E090910001911180E080930001B394EA
:10261000F4E0CF0ED11C4FEFE41AF40A54E0B512E7
:1026200072CE7090FF028090000390900103B090F2
:1026300002033090EE026090060301E010E0E9A58D
:10264000FAA5C190D190E190F190FAA7E9A7A7016E
:102650009601672D782D892D9B2D0E94E81487FF08
:102660000EC0C8010197FC01E551FD4F30808D5F20
:102670009C4FFC0160807C2C8D2C9E2CBF2C0F5F0E
:102680001F4F05301105D9F6872D982DA92DBB2D8B
:102690008093EF029093F002A093F102B093F202C4
:1026A0003092EA026092E90288E691E00E94C10A53
:1026B00086E691E00E94C10A6091EF027091F002FB
:1026C0008091F1029091F20242E00E94C30A86E6F4
:1026D00091E00E94C10A6091EA0270E090E080E01F
:1026E0004AE00E943F0A86E691E00E94C10A60919A
:1026F000E90270E090E080E04AE00E943F0A86E64E
:1027000091E00E94C10A90E080E00E94830A86E680
:1027100091E00E94C10A90E080E00E94830A86E670
:1027200091E00E94C10A90E080E00E94830A86E660
:1027300091E00E94C10A90E080E00E94830A86E650
:1027400091E00E94C10A90E080E00E94B30A80916B
:10275000E90290E00E94880068EE73E080E090E07B
:102760000E94F3020E944D0768EE73E080E090E063
:102770000E94F30280910B0390910C0301969093B9
:102780000C0380930B038AE691E00E94C10A86E65F
:1027900091E00E94C10A6091070370910803809143
:1027A000090390910A034AE00E943F0A86E691E0FD
:1027B0000E94C10A0E949909BC01990F880B990BCC
:1027C0000E94EF142FE632E143E85AE30E944E15CF
:1027D00042E00E94C30A86E691E00E94C10A0E947C
:1027E000DA09BC01990F880B990B0E94EF146B0159
:1027F0007C016091640470916504809166049091FD
:1028000067040E94ED149B01AC01C701B6010E9450
:1028100025179F7742E00E94C30A86E691E00E9456
:10282000C10A0E9499098C010E94DA09BC01990F22
:10283000880B990B0E94EF146B017C01609164047A
:102840007091650480916604909167040E94ED1474
:102850009B01AC01C701B6010E9425176B017C01E9
:10286000B801110F880B990B0E94EF142FE632E18B
:1028700043E85AE30E944E159B01AC01C701B60123
:102880000E944E159F7742E00E94C30A86E691E0BF
:102890000E94C10A80E00E94AD080E94830A86E679
:1028A00091E00E94C10A81E00E94AD080E94830A63
:1028B00086E691E00E94C10A82E00E94AD080E9473
:1028C000830A86E691E00E94C10A83E00E94AD0877
:1028D0000E94B30A68EE73E080E090E00E94F30289
:1028E00040E050E0452B09F458CC0E94CE038823E9
:1028F00009F453CC0E94000050CC6111A5CC109279
:102900000D0385E591E00E94320A8BE291E00E947E
:10291000320A9ACC6091B1017091B2018091B301F9
:102920009091B4010091E5021091E6022091E70236
:102930003091E802601B710B820B930B0E94F30233
:1029400091CD84E6811BF701808351CE80915C0498
:1029500090915D040C946C181F93FC0199278827B3
:10296000BC01E89411911032E9F3193010F01E30D7
:10297000C8F31B3251F01D3249F4689406C00E941E
:10298000D314610F711D811D911D119110531A30C7
:10299000B0F33EF490958095709561957F4F8F4F81
:1029A0009F4F1F910895592F482F372F262F660FBD
:1029B000771F881F991F660F771F881F991F620F47
:1029C000731F841F951F660F771F881F991F089517
:1029D0000E942A1508F481E00895E89409C097FB45
:1029E0003EF490958095709561957F4F8F4F9F4FE6
:1029F0009923A9F0F92F96E9BB279395F69587952A
:102A000077956795B795F111F8CFFAF4BB0F11F4EC
:102A100060FF1BC06F5F7F4F8F4F9F4F16C0882393
:102A200011F096E911C0772321F09EE8872F762FC9
:102A300005C0662371F096E8862F70E060E02AF00A
:102A40009A95660F771F881FDAF7880F96958795F6
:102A500097F90895990F0008550FAA0BE0E8FEEFCB
:102A600016161706E807F907C0F012161306E40752
:102A7000F50798F0621B730B840B950B39F40A264B
:102A800061F0232B242B252B21F408950A2609F429
:102A9000A140A6958FEF811D811D08950E946115AB
:102AA0000C94D2150E94C41538F00E94CB1520F06A
:102AB000952311F00C94BB150C94C11511240C94A2
:102AC00006160E94E31570F3959FC1F3950F50E031
:102AD000551F629FF001729FBB27F00DB11D639FD0
:102AE000AA27F00DB11DAA1F649F6627B00DA11D76
:102AF000661F829F2227B00DA11D621F739FB00D1C
:102B0000A11D621F839FA00D611D221F749F33278B
:102B1000A00D611D231F849F600D211D822F762F24
:102B20006A2F11249F5750409AF0F1F088234AF001
:102B3000EE0FFF1FBB1F661F771F881F915050406D
:102B4000A9F79E3F510580F00C94BB150C94061616
:102B50005F3FE4F3983ED4F3869577956795B795F4
:102B6000F795E7959F5FC1F7FE2B880F911D96950E
:102B7000879597F9089597F99F6780E870E060E07E
:102B800008959FEF80EC089500240A941616170606
:102B900018060906089500240A941216130614064E
:102BA00005060895092E0394000C11F4882352F0B1
:102BB000BB0F40F4BF2B11F460FF04C06F5F7F4F69
:102BC0008F4F9F4F089557FD9058440F551F59F050
:102BD0005F3F71F04795880F97FB991F61F09F3F0A
:102BE00079F087950895121613061406551FF2CF33
:102BF0004695F1DF08C0161617061806991FF1CF83
:102C000086957105610508940895E894BB276627A9
:102C10007727CB0197F90895052E97FB1EF40094B2
:102C20000E94231657FD07D00E94751607FC03D09B
:102C30004EF40C94231650954095309521953F4FB6
:102C40004F4F5F4F089590958095709561957F4F98
:102C50008F4F9F4F08950E949716A59F900DB49F88
:102C6000900DA49F800D911D11240895B7FF0C9421
:102C70002B160E942B16821B930B08952F923F92C6
:102C80004F925F926F927F928F929F92AF92BF927C
:102C9000CF92DF92EF92FF920F931F93CF93DF9328
:102CA000CDB7DEB7CA1BDB0B0FB6F894DEBF0FBE85
:102CB000CDBF09942A88398848885F846E847D84D2
:102CC0008C849B84AA84B984C884DF80EE80FD80D4
:102CD0000C811B81AA81B981CE0FD11D0FB6F8944A
:102CE000DEBF0FBECDBFED010895A1E21A2EAA1BD3
:102CF000BB1BFD010DC0AA1FBB1FEE1FFF1FA217AC
:102D0000B307E407F50720F0A21BB30BE40BF50BA8
:102D1000661F771F881F991F1A9469F76095709531
:102D2000809590959B01AC01BD01CF010895A29FB4
:102D3000B001B39FC001A39F700D811D1124911D8F
:102D4000B29F700D811D1124911D0895991B79E08A
:102D500004C0991F961708F0961B881F7A95C9F72B
:102D600080950895EE0FFF1F0590F491E02D0994D2
:102D70005058BB27AA270E94D0160C94D2150E9447
:102D8000C41538F00E94CB1520F039F49F3F19F498
:102D900026F40C94C1150EF4E095E7FB0C94BB15DA
:102DA000E92F0E94E31558F3BA17620773078407E7
:102DB000950720F079F4A6F50C9405160EF4E0952D
:102DC0000B2EBA2FA02D0B01B90190010C01CA01E5
:102DD000A0011124FF27591B99F0593F50F4503E90
:102DE00068F11A16F040A22F232F342F4427585F82
:102DF000F3CF469537952795A795F0405395C9F79A
:102E00007EF41F16BA0B620B730B840BBAF0915051
:102E1000A1F0FF0FBB1F661F771F881FC2F70EC0F0
:102E2000BA0F621F731F841F48F4879577956795C3
:102E3000B795F7959E3F08F0B0CF9395880F08F0AF
:102E40009927EE0F9795879508950E9439170C944E
:102E5000D2150E94CB1558F00E94C41540F029F4F9
:102E60005F3F29F00C94BB1551110C9406160C947D
:102E7000C1150E94E31568F39923B1F3552391F32B
:102E8000951B550BBB27AA2762177307840738F0D9
:102E90009F5F5F4F220F331F441FAA1FA9F335D036
:102EA0000E2E3AF0E0E832D091505040E695001CEA
:102EB000CAF72BD0FE2F29D0660F771F881FBB1FA4
:102EC000261737074807AB07B0E809F0BB0B802D82
:102ED000BF01FF2793585F4F3AF09E3F510578F0AE
:102EE0000C94BB150C9406165F3FE4F3983ED4F3A4
:102EF000869577956795B795F7959F5FC9F7880F82
:102F0000911D9695879597F90895E1E0660F771FD3
:102F1000881FBB1F621773078407BA0720F0621B64
:102F2000730B840BBA0BEE1F88F7E09508950E948F
:102F3000EB1588F09F5798F0B92F9927B751B0F04B
:102F4000E1F0660F771F881F991F1AF0BA95C9F72D
:102F500014C0B13091F00E940516B1E008950C94B0
:102F60000516672F782F8827B85F39F0B93FCCF363
:102F7000869577956795B395D9F73EF490958095AA
:102F8000709561957F4F8F4F9F4F08950E942A152E
:102F900008F48FEF08950E942A15880B990B089565
:102FA0000F931F93CF93DF938230910510F482E04B
:102FB00090E0E0918504F091860430E020E0B0E0FC
:102FC000A0E0309799F42115310509F44AC0281B77
:102FD000390B24303105D8F58A819B816115710543
:102FE00089F1FB0193838283FE0111C040815181ED
:102FF0000281138148175907E0F04817590799F4DF
:10300000109761F012960C93129713961C933296B8
:10301000CF01DF91CF911F910F9108950093850407
:1030200010938604F4CF2115310551F04217530750
:1030300038F0A901DB019A01BD01DF01F801C1CF20
:10304000EF01F9CF9093860480938504CDCFFE01E4
:10305000E20FF31F81939193225031093983288322
:10306000D7CF2091830430918404232B41F4209105
:103070000301309104013093840420938304209150
:103080000101309102012115310541F42DB73EB700
:103090004091050150910601241B350BE0918304FA
:1030A000F0918404E217F307A0F42E1B3F0B2817BE
:1030B000390778F0AC014E5F5F4F2417350748F0B1
:1030C0004E0F5F1F50938404409383048193919328
:1030D0009FCFF0E0E0E09CCFCF93DF930097E9F043
:1030E000FC01329713821282A0918504B09186046C
:1030F000ED0130E020E01097A1F420813181820FB2
:10310000931F20918304309184042817390709F014
:1031100061C0F0938404E0938304DF91CF9108951C
:10312000EA01CE17DF07E8F54A815B819E01411570
:103130005105B1F7E901FB83EA8349915991C40F25
:10314000D51FEC17FD0761F4808191810296840FF1
:10315000951FE90199838883828193819B838A8368
:10316000F0E0E0E012968D919C9113970097B9F5ED
:103170002D913C911197CD010296820F931F2091C2
:103180008304309184042817390739F6309751F5B4
:103190001092860410928504B0938404A093830453
:1031A000BCCFD383C28340815181840F951FC81740
:1031B000D90761F44E5F5F4F88819981480F591F8D
:1031C000518340838A819B819383828321153105BA
:1031D00009F0B0CFF0938604E09385049ECFFD0103
:1031E000DC01C0CF13821282D7CFB0E0A0E0EBEFBA
:1031F000F8E10C9440168C01009751F4CB010E9429
:10320000D0178C01C801CDB7DEB7E0E10C945C1695
:10321000FC01E60FF71F9C0122503109E217F3076A
:1032200008F49DC0D901CD91DC911197C617D7073D
:1032300098F0C530D10530F3CE0104978617970773
:1032400008F3C61BD70B2297C193D1936D937C9340
:10325000CF010E946C18D6CF5B01AC1ABD0A4C019D
:103260008C0E9D1EA0918504B0918604512C412C9A
:10327000F12CE12C109731F5809183049091840416
:103280008815990509F05CC04616570608F058C025
:103290008091010190910201009741F48DB79EB792
:1032A0004091050150910601841B950BE817F90721
:1032B00008F055C0F0938404E0938304F90171830E
:1032C0006083A0CF8D919C91119712966C9012976C
:1032D00013967C901397A815B90559F56C0142E037
:1032E000C40ED11CCA14DB0420F1AC014A195B09DD
:1032F000DA011296159780F06282738251834083BF
:10330000D9016D937C93E114F10471F0D701139608
:10331000FC93EE93129776CF22968C0F9D1FF901A6
:1033200091838083F301EFCFF0938604E0938504CB
:1033300069CF4816590608F42C017D01D3019ACFB4
:10334000CB010E94D0177C01009749F0AE01B80173
:103350000E94B219C8010E946C18870153CF10E077
:1033600000E050CFFB01DC0102C001900D92415002
:103370005040D8F70895FB01DC0101900D92002028
:10338000E1F7089510E0CDE5D0E004C0FE010E9411
:0E339000B2162196CE35D107C9F7F894FFCFBB
:10339E000100008704800000000000040432035F77
:1033AE00035104C2036E03B403000000001B07EEBA
:1033BE00064A07C406E706D406C5060D0A006E6166
:1033CE006E00696E66006F7666004661696C6564B4
:1033DE0020746F2066696E6420494E413231392067
:1033EE0063686970004D6F746F72732053746F70E1
:0C33FE007065640053002C0052004B006E
:00000001FF
