:100000000C945E000C9486000C9486000C94860080
:100010000C9486000C9486000C9486000C94860048
:100020000C9486000C9486000C9486000C94AB080B
:100030000C9486000C9486000C9486000C94860028
:100040000C94EC0C0C9486000C94F0060C94CA06EC
:100050000C9486000C9486000C9486000C94860008
:100060000C9422070C948600000000080002010096
:100070000003040700000000000000000000000072
:10008000250028002B0000000000240027002A0083
:10009000040404040404040402020202020203032E
:1000A0000303030301020408102040800102040836
:1000B0001020010204081020BB12B51211241FBE2B
:1000C000CFEFD8E0DEBFCDBF11E0A0E0B1E0ECE2C1
:1000D000F1E302C005900D92AE36B107D9F724E0E6
:1000E000AEE6B1E001C01D92AB37B207E1F710E018
:1000F000CDE5D0E004C02197FE010E946F15CC35FC
:10010000D107C9F70E94360D0C9489180C94000091
:100110008230910538F0880F991F880F991F059735
:100120000197F1F7089590E0FC01EC55FF4F249101
:10013000FC01E057FF4F8491882399F090E0880FED
:10014000991FFC01EA57FF4FA591B491FC01E458B7
:10015000FF4F859194918FB7F894EC91E22BEC933B
:100160008FBF08952FB7F8948091C5029091C60271
:10017000A091C702B091C8022FBF809385039093CE
:100180008603A0938703B09388038DE793E00E94D2
:100190000E0597FF26C02FB7F8948091C502909165
:1001A000C602A091C702B091C8022FBF409185033B
:1001B000509186036091870370918803841B950B8F
:1001C000A60BB70B4091810350918203609183038A
:1001D0007091840384179507A607B707B0F28FEFD5
:1001E0009FEF08958FB7F8948091CF028FBF089545
:1001F000AF92BF92CF92DF92EF92FF920F931F9335
:10020000CF93DF93EC0188819981892B31F06EBD0A
:100210000DB407FEFDCFAEB496C088859985892BB5
:1002200011F010E801C011E0BB24B394862F8123A4
:1002300009F0B12C062F2C813D814E815F8160E257
:1002400071EA87E090E00E943215F22EA02EE12C98
:10025000C22ED12CFF2019F0C6010E9488008A8589
:10026000877FB9F58D858F3FB9F0902F912381E07D
:1002700009F480E0B81681F0EF85F8898F89992319
:1002800031F09081892B8083BB24B39405C0908189
:10029000809589238083B12CE989FA899081898DA1
:1002A000892B8083FF2019F0C6010E9488008E856B
:1002B0008F3F39F0EB89FC899081888D892309F083
:1002C000E12AE989FA899081898D80958923808343
:1002D0002CC0E989FA899081898D892B8083FF2040
:1002E00019F0C6010E9488008D858F3F69F0EF8567
:1002F000F8898F89902F912319F09081892B03C061
:100300009081809589238083E989FA899081898DFC
:100310008095892380838E858F3F39F0EB89FC8916
:100320009081888D892309F0E12A8E858F3F09F01D
:10033000AE2C88859985892B21F4110F11118ACF54
:1003400002C01695FBCF8A2DDF91CF911F910F919F
:10035000FF90EF90DF90CF90BF90AF9008958CBD4D
:100360009DBD08958F929F92BF92CF92DF92EF92A0
:10037000FF920F931F93CF93DF93DA01AE0DBF1D52
:10038000EC01EC81FD81EA17FB07C8F1B22E6A018E
:100390004B01EC01888191E09093C4028093C302E9
:1003A0001092CE021092CD02E114F10479F4898109
:1003B0009A81DC01ED91FC910280F381E02DA60190
:1003C000B4010995C816D906D1F412C0011511055A
:1003D00071F389819A81DC01ED91FC910280F381B6
:1003E000E02DA701B8010995E816F90641F4DFCF21
:1003F0006B2D89819A810E94500891E0811190E0D3
:10040000892FDF91CF911F910F91FF90EF90DF9097
:10041000CF90BF909F908F9008956F927F928F9210
:100420009F92AF92BF92CF92DF92EF92FF920F9383
:100430001F93CF93DF9300D0CDB7DEB76C015B0184
:100440004C018BE0880E911CD60116969C91169754
:1004500017968C91179799838A836D907C9011974A
:1004600061147104C9F019964C9150E0E12CF12C03
:1004700000E010E020E0BE016F5F7F4FC3010E94EB
:10048000B201811102C080E054C042E050E0B401EA
:10049000C3010E947F0B30C0D6011296ED91FC91F2
:1004A0001397309781F314962D913C9115971996D7
:1004B0004C912330310539F4816089839A8350E06F
:1004C0004F5F5F4F10C02115310511F4906809C0CE
:1004D0002230310511F49F7704C02130310511F429
:1004E000906C998350E002E010E09401BE016F5FD0
:1004F0007F4FCF010E947C0C8823D9F0F6019285B2
:1005000091110AC0248530E0322F2227D50111969F
:100510003C932E9393850AC0F601238530E0322F59
:100520002227D50111963C932E939485292B2D9348
:100530003C930F900F90DF91CF911F910F91FF90FF
:10054000EF90DF90CF90BF90AF909F908F907F9073
:100550006F9008950F931F93CF93DF93CDB7DEB7BE
:1005600065970FB6F894DEBF0FBECDBF0BE414E065
:10057000F80180819181188A198A1A8A1B8A9A83C4
:1005800089831C821B8281E08A8722E030E03887E1
:100590002F838B8782E08987BE016C5E7F4FCE01FF
:1005A00001960E940D02F80182838C899D8923E0C7
:1005B000969587952A95E1F7880F991F880F991FBF
:1005C00065960FB6F894DEBF0FBECDBFDF91CF9119
:1005D0001F910F91089590E0FC01E859FF4F24917D
:1005E000FC01EC55FF4F3491FC01E057FF4FE491C3
:1005F000EE2309F43CC0222339F1233091F038F482
:100600002130A9F0223001F584B58F7D12C027304A
:1006100091F02830A1F02430B9F4809180008F7DD2
:1006200003C0809180008F77809380000DC084B5D7
:100630008F7784BD09C08091B0008F7703C080910F
:10064000B0008F7D8093B000F0E0EE0FFF1FE45804
:10065000FF4FA591B4919FB7F894611104C08C919C
:100660003095382302C0EC913E2B3C939FBF0895F8
:1006700010925C0310925B031092CE021092CD0296
:1006800010925A0381E0809359031092540361E061
:1006900082E10E94EB0261E083E10E94EB02E9EB60
:1006A000F0E080818E7F808380818D7F808388E4ED
:1006B0008093B80085E48093BC0083E196E090933A
:1006C000CC028093CB0284E196E09093CA0280939F
:1006D000C9020895CF93DF93EC018B8181110AC089
:1006E0000E94380381E08B83CE010E946A03982F19
:1006F000882391F0888191E09093C4028093C30293
:100700001092CE021092CD0261E089819A810E94FE
:10071000500891E0811190E0892FDF91CF910895E9
:100720008F929F92AF92BF92CF92DF92EF92FF9201
:100730000F931F93CF93DF93EC015B016A01490193
:1007400088819981892B31F0EA81FB8180819181B7
:100750000E94AF0160E08B850E94EB027401080DDE
:10076000191DE016F10639F0F70161917F01CE0104
:100770000E94F800F6CF8501CA0CDB1CC016D1061A
:1007800039F0F80161918F01CE010E94F800F6CF97
:1007900061E08B850E94EB0281E0DF91CF911F9198
:1007A0000F91FF90EF90DF90CF90BF90AF909F9010
:1007B0008F900895EF92FF920F931F93CF93DF9343
:1007C00000D0CDB7DEB7FC014787508B618B728BB1
:1007D0008285882311F0448701C04387452F562F17
:1007E000672F7727882311F0438701C04487BF0113
:1007F000655F7F4F9681478199834A83A081B1814C
:10080000109761F0E184F12C8E010F5F1F4F21E002
:1008100042E050E0CD010E94B2012CC0A281B38120
:10082000109739F12481358101852330310539F460
:100830004E7F49839A8310E00F5F1F4F11C021152F
:10084000310511F49F770AC02230310511F4906808
:1008500005C02130310519F49F779064998310E029
:100860009E012F5F3F4F42E050E0CD010E94900378
:1008700001C080E00F900F90DF91CF911F910F91F9
:10088000FF90EF900895EF92FF920F931F93CF93F5
:10089000DF93CDB7DEB7A8970FB6F894DEBF0FBED3
:1008A000CDBF0BE414E0F801808191811BA21CA252
:1008B0001DA21EA29D8B8C8B1F8A1E8AFF24F3947F
:1008C000FD8E85E090E09B8F8A8FFE8E82E0E82E81
:1008D000EC8E4481558166817781CE0144960E94D9
:1008E000DA03F80180819181188A198A1A8A1B8A91
:1008F0009A8389831C821B82FA8684E090E0988721
:100900008F83FB86E986BE01695D7F4FCE0101962C
:100910000E940D02F80182838FA198A5A8960FB6B8
:10092000F894DEBF0FBECDBFDF91CF911F910F9125
:10093000FF90EF9008958F929F92AF92BF92CF92C7
:10094000DF92EF92FF926B017C010E94C70C4B017A
:100950005C01C114D104E104F104F1F00E94C70C60
:10096000DC01CB0188199909AA09BB09883E93408B
:10097000A105B10570F321E0C21AD108E108F10820
:1009800088EE880E83E0981EA11CB11CC114D1040E
:10099000E104F10419F7DDCFFF90EF90DF90CF90E5
:1009A000BF90AF909F908F900895CF92DF92EF927B
:1009B000FF920F931F93CF93DF936C017A018B010A
:1009C000C0E0D0E0CE15DF0581F0D8016D918D013A
:1009D000D601ED91FC910190F081E02DC6010995C1
:1009E000892B11F02196EECF7E01C701DF91CF91C7
:1009F0001F910F91FF90EF90DF90CF900895FC0131
:100A0000538D448D252F30E0842F90E0821B930B73
:100A1000541710F0CF96089501970895FC01918D19
:100A2000828D981761F0828DDF01A80FB11D5D9650
:100A30008C91928D9F5F9F73928F90E008958FEFBE
:100A40009FEF0895FC01918D828D981731F0828D72
:100A5000E80FF11D858D90E008958FEF9FEF0895C9
:100A6000FC01918D228D892F90E0805C9F4F821B2D
:100A700091098F73992708958DE793E00E943005BF
:100A800021E0892B09F420E0822F0895FC01848D58
:100A9000DF01A80FB11DA35ABF4F2C91848D90E0A8
:100AA00001968F739927848FA689B7892C93A08983
:100AB000B1898C91837080648C93938D848D98130D
:100AC00006C00288F389E02D80818F7D80830895A0
:100AD000EF92FF920F931F93CF93DF93EC0181E08E
:100AE000888F9B8D8C8D981305C0E889F98980814A
:100AF00085FD26C0F62E0B8D10E00F5F1F4F0F7384
:100B00001127E02E8C8DE8120CC00FB607FCFACF2F
:100B1000E889F989808185FFF5CFCE010E944605DD
:100B2000F1CF8B8DFE01E80FF11DE35AFF4FF082EC
:100B30009FB7F8940B8FEA89FB89808180620AC095
:100B40009FB7F894EE89FF896083E889F9898081ED
:100B50008370806480839FBF81E090E0DF91CF91BC
:100B60001F910F91FF90EF900895CF93DF93EC01C9
:100B7000888D8823C9F0EA89FB89808185FD05C0BD
:100B8000A889B9898C9186FD0FC00FB607FCF5CFF7
:100B9000808185FFF2CFA889B9898C9185FFEDCF3F
:100BA000CE010E944605E7CFDF91CF91089580E006
:100BB00090E0892B29F00E943C0581110C940000E3
:100BC000089585ED8093BC008091BC0084FDFCCF2E
:100BD00010925A03089540911103262F30E0240FFC
:100BE000311D21323105DCF420915A032430C9F43F
:100BF000FC0180E090E0861758F4309111032191B8
:100C0000DC01AF50BD4FA30FB11D2C930196F3CF64
:100C100080911103680F6093110380E0089581E0D3
:100C2000089582E00895089508950895E0915C0381
:100C300080915B03E81730F4F0E0E35AFC4F8081C9
:100C400090E008958FEF9FEF089590915C0380915D
:100C50005B03981750F4E92FF0E0E35AFC4F208132
:100C600030E09F5F90935C0302C02FEF3FEFC9011C
:100C7000089580915B0390E020915C03821B9109B1
:100C80000895CF92DF92EF92FF920F931F93CF932D
:100C9000DF937C01CB018A012091C402222389F0D9
:100CA000EB016B01C40ED51ECC15DD0569F0699111
:100CB000D701ED91FC910190F081E02DC7010995DC
:100CC000F3CF642F0E94EB05C801DF91CF911F91F4
:100CD0000F91FF90EF90DF90CF900895CF93DF9327
:100CE0001F92CDB7DEB769832091C4022223D1F0D1
:100CF0002091CD02203240F021E030E0FC0133832E
:100D0000228380E090E015C08091CE02E82FF0E0D1
:100D1000EF52FD4F998190838F5F8093CE02809335
:100D2000CD0205C061E0CE0101960E94EB0581E095
:100D300090E00F90DF91CF910895089580E090E0CA
:100D400008950E9474180F931F93CF93DF93EC01C3
:100D500088819981009729F02A813B8126173707DE
:100D600088F48B016F5F7F4F0E94AE17009761F090
:100D7000998388831B830A832C813D81232B11F463
:100D8000FC01108281E001C080E0DF91CF911F91D2
:100D90000F9108951F920F920FB60F9211242F9367
:100DA0003F934F935F936F937F938F939F93AF93F3
:100DB000BF93EF93FF938DE793E00E944605FF9169
:100DC000EF91BF91AF919F918F917F916F915F91C3
:100DD0004F913F912F910F900FBE0F901F9018953C
:100DE0001F920F920FB60F9211242F938F939F9300
:100DF000EF93FF93E0918D03F0918E038081E0915A
:100E00009303F091940382FD12C090818091960328
:100E10008F5F8F7320919703821751F0E0919603B3
:100E2000F0E0E358FC4F958F8093960301C08081DA
:100E3000FF91EF919F918F912F910F900FBE0F9087
:100E40001F9018951F920F920FB60F9211242F9397
:100E50003F934F935F936F937F938F939F93AF9342
:100E6000BF93EF93FF938091B900887F803609F498
:100E70009CC068F5883209F45BC090F4803109F4B5
:100E800054C038F4882309F4F6C0883009F44DC002
:100E9000F6C0883109F44CC0803209F45DC0EFC05F
:100EA000803409F468C048F4803309F455C08833AD
:100EB00009F0E5C080935803D8C0803509F44FC0CD
:100EC000883509F45DC0883409F0D9C0D6C08839A6
:100ED00009F4C7C0A8F4883709F467C038F4883625
:100EE00009F463C0803709F460C0C9C0883809F4C8
:100EF000B8C0803909F45FC0803809F0C0C05BC059
:100F0000803B09F486C038F4803A09F466C0883A18
:100F100009F47FC0B4C0803C09F4A7C0883C09F440
:100F2000A4C0883B09F48AC0AAC08091550310C0B0
:100F30009091570380915603981770F5E0915703ED
:100F400081E08E0F80935703F0E0EC5CFC4F8081D2
:100F50008093BB0085EC86C0809358038EC0E091DF
:100F6000570381E08E0F809357038091BB00F0E020
:100F7000EC5CFC4F808390915703809156036EC0C8
:100F8000E091570381E08E0F809357038091BB005F
:100F9000F0E0EC5CFC4F80838091590381116DC0BF
:100FA00081E08093540384EA61C083E080935A0314
:100FB00010923303CFCF80913303803208F051C0B9
:100FC000E091330381E08E0F809333038091BB0067
:100FD000F0E0ED5EFC4F8083BDCF85EC8093BC00DC
:100FE00010925A0380913303803230F4E09133033E
:100FF000F0E0ED5EFC4F10826091330370E0E09111
:10100000C902F091CA0283E193E00995109233037B
:1010100036C084E080935A03109212031092110399
:10102000E091CB02F091CC020995809111038111DE
:1010300005C081E0809311031092F102E091120348
:1010400081E08E0F80931203F0E0EF50FD4F80811E
:101050008093BB009091120380911103981708F4BC
:1010600079CF85E88093BC000AC085EC8093BC00F2
:1010700010925A0304C0109258030E94E105FF9198
:10108000EF91BF91AF919F918F917F916F915F9100
:101090004F913F912F910F900FBE0F901F90189579
:1010A0003091CD02313208F04AC080915A0381114B
:1010B000FCCF9091C30222E020935A03609359031E
:1010C0002FEF209358031092570330935603E1ED0E
:1010D000F2E0A4E3B3E020E0321721F041914D9318
:1010E0002F5FFACF1092550320915503990F922B41
:1010F0009093550390915403913061F410925403EE
:10110000909155039093BB009091BC0093FDF8CF54
:1011100095EC01C095EE9093BC0090915A039230EB
:10112000E1F3909158039F3F79F08091580380320A
:1011300041F080915803803331F084E005C081E0B4
:1011400003C082E001C083E01092CE021092CD0273
:101150001092C40208951F920F920FB60F9211249D
:101160002F933F934F935F936F937F938F939F93AF
:10117000AF93BF93EF93FF938091D00287FF05C099
:1011800010928500109284001BC02091D002022E84
:10119000000C330B80914A0490E02817390784F43F
:1011A0008091D002082E000C990BFC01EE0FFF1F5E
:1011B0008E0F9F1FFC01EA5DFB4F808187FD15C0EC
:1011C0008091D0028F5F8093D0022091D002022EB6
:1011D000000C330B80914A0490E028173907C4F4BF
:1011E0008091D0028C3064F113C08091D002082E1F
:1011F000000C990BFC01EE0FFF1F8E0F9F1FFC01CF
:10120000EA5DFB4F808160E08F770E94EB02D8CFD0
:101210008091840090918500049680349C4918F454
:1012200080E49CE905C0809184009091850004963B
:1012300090938900809388008FEF8093D0023BC009
:1012400020918400309185008091D002082E000CFE
:10125000990BFC01EE0FFF1F8E0F9F1FFC01EA5D33
:10126000FB4F81819281820F931F9093890080931D
:1012700088008091D002082E000C990BFC01EE0F23
:10128000FF1F8E0F9F1FFC01EA5DFB4F808187FFD0
:1012900012C08091D002082E000C990BFC01EE0FB9
:1012A000FF1F8E0F9F1FFC01EA5DFB4F808161E0F5
:1012B0008F770E94EB02FF91EF91BF91AF919F91C9
:1012C0008F917F916F915F914F913F912F910F90EF
:1012D0000FBE0F901F9018950F931F93CF93DF931E
:1012E0006091000180915D040E94EB0262E370E076
:1012F00080E090E00E949B04C0E0D0E00BE31FE19F
:1013000080916E0190E0C817D90794F461E0809154
:101310005B040E94EB02C8010197F1F760E0809145
:101320005B040E94EB02C8010197F1F72196E8CF18
:10133000DF91CF911F910F910895CF92DF92EF929D
:10134000FF92DC01803242E09407DCF597FD06C095
:10135000853B91052CF0A4EBB0E002C0A0E0B0E02A
:10136000809163049091620428E830E06901C91A11
:10137000D10897FDD394CC0CDD1CCC0CDD1C0D2CBE
:10138000000CEE08FF082EE239E094E089022019F3
:1013900031091124A901330F660B770B9A01AB01B8
:1013A0002C193D094E095F090E94F31424EB30E02B
:1013B00040E050E00E94C914C20ED31EE41EF51E88
:1013C000D601909161049C3080F58091620448E8D8
:1013D00050E0481B510987FD5395440F551F440F9A
:1013E000551FA417B50774F0809163042EE239E00D
:1013F00044E08402201931091124AD012A173B076A
:101400000CF4A90142505109440F551F2FB7F8940D
:10141000892F90E0FC01EE0FFF1F8E0F9F1FFC0134
:10142000EA5DFB4F528341832FBFFF90EF90DF9027
:10143000CF900895009769F0FC0101900020E9F732
:101440003197AF01481B590BBC018DE793E00C9419
:10145000D50480E090E008958F929F92AF92BF9262
:101460000F931F93CF93DF93CDB7DEB7A1970FB63E
:10147000F894DEBF0FBECDBF19A2423008F44AE097
:101480008E010F5D1F4F842E912CA12CB12CA50134
:1014900094010E943215E62FB901CA0101501109C9
:1014A000EA3014F4E05D01C0E95CD801EC93232B31
:1014B000242B252B61F7C8010E941A0AA1960FB6AA
:1014C000F894DEBF0FBECDBFDF91CF911F910F917A
:1014D000BF90AF909F908F900895CF92DF92EF9240
:1014E000FF92CF93DF936C01990FEE08FF08F7FE90
:1014F00019C06DE28DE793E00E946805EC01662754
:101500007727CB016C197D098E099F094AE00E945B
:101510002C0A8C0F9D1FDF91CF91FF90EF90DF90F1
:10152000CF9008954AE0C701B601DF91CF91FF90B7
:10153000EF90DF90CF900C942C0ACF93DF930E9412
:101540006D0AEC018BE391E00E941A0A8C0F9D1F3B
:10155000DF91CF9108950C941A0A8F929F92AF92C7
:10156000BF92CF92DF92EF92FF920F931F93CF9390
:10157000DF936B017C01142F9B01AC010E94881644
:10158000882319F081E691E027C046015701E894CD
:10159000B7F82FEF3FEF4FE75FE7C501B4010E94B7
:1015A000881681110DC02FEF3FEF4FE75FE7C501B0
:1015B000B4010E94A51318161CF485E691E00CC036
:1015C0002FEF3FEF4FE75FE4C701B6010E9483169C
:1015D000181684F489E691E0DF91CF911F910F9165
:1015E000FF90EF90DF90CF90BF90AF909F908F9043
:1015F0000C941A0A2FEF3FEF4FE75FECC701B601DB
:101600000E94A51387FDE6CF20E030E0A901C701C5
:10161000B6010E94A51387FF0BC06DE28DE793E032
:101620000E946805EC01F7FAF094F7F8F09402C014
:10163000C0E0D0E000E060E070E080E09FE31017E1
:1016400041F020E030E040E251E40E94E2150F5FFB
:10165000F6CFA70196010E9476156B017C010E94CE
:1016600054164B015C014AE00E942C0AC80FD91F96
:101670001123B9F1C501B4010E94AA139B01AC0169
:10168000C701B6010E9475156B017C016EE28DE702
:1016900093E00E946805C80FD91F20E030E040E2C7
:1016A00051E4C701B6010E940B144B015C010E947A
:1016B00054166B01E12CF12C4AE0C701B6010E94DF
:1016C0002C0AC80FD91FC701B6010E94AA139B019B
:1016D000AC01C501B4010E9475156B017C0111506C
:1016E000E1F6CE01DF91CF911F910F91FF90EF9026
:1016F000DF90CF90BF90AF909F908F900895EF9222
:10170000FF920F931F93CF93DF93FC018481958108
:101710008417950708F466C080915A038111FCCFA5
:101720008081942F413208F090E221E020935A0307
:10173000209359033FEF3093580310925703390F0A
:10174000309356032093550320915503880F822B25
:101750008093550380915403813061F410925403B7
:10176000809155038093BB008091BC0083FDF8CF2E
:1017700085EC01C085EE8093BC0080915A038130D6
:10178000E1F380915703891710F490915703A4E374
:10179000B3E0CDE5D3E020E0291721F08D918993C6
:1017A0002F5FFACF10925C0320935B0330E0421767
:1017B0005307C1F47F018B01EB01C40FD51FC01784
:1017C000D10791F0D70111968D919C911297DC0170
:1017D000ED91FC910284F385E02D0995F801819348
:1017E0008F01EDCF80E001C081E0DF91CF911F91AB
:1017F0000F91FF90EF900895EF92FF920F931F9338
:10180000CF93DF93C4E6D4E08F83E12CF12C00E08A
:1018100010E021E041E050E06BE674E088819981BE
:101820000E94B20142E050E06BE674E08881998149
:101830000E947F0B8F819885982789279827DF91B1
:10184000CF911F910F91FF90EF900895EF92FF922B
:101850000F931F93482F8091670490916804209103
:10186000690430916A04822B932B413059F038F08F
:10187000423059F0433061F0836091600BC0836067
:10188000916408C08360916505C08360916602C061
:1018900083609167906821E020936B0490936C04BF
:1018A00080936D04E12CF12C00E010E043E050E067
:1018B0006BE674E080916404909165040E94B2012B
:1018C00081E00E94FC0B97FFFBCF80E00E94FC0BA5
:1018D00020916604022E02C0969587950A94E2F73D
:1018E000222329F0811528E0920708F0906F1F91BC
:1018F0000F91FF90EF9008958F929F92AF92BF92B9
:10190000CF92DF92EF92FF920F931F93CF93DF93CB
:10191000EC014B016A01590188819981892B31F0D1
:10192000EA81FB81808191810E94AF0160E08B851B
:101930000E94EB027401C80CD91CEC14FD0439F0B0
:10194000F70161917F01CE010E94F800F6CF750189
:101950000A0D1B1D0E151F0541F06FEFCE010E94F1
:10196000F800F70181937F01F5CF61E08B850E943C
:10197000EB0281E0DF91CF911F910F91FF90EF90EB
:10198000DF90CF90BF90AF909F908F9008953FB71A
:10199000F8948091730490917404A0917504B091AF
:1019A000760426B5A89B05C02F3F19F00196A11D0E
:1019B000B11D3FBFBA2FA92F982F8827820F911DE5
:1019C000A11DB11DBC01CD0142E0660F771F881F2C
:1019D000991F4A95D1F708951F920F920FB60F9253
:1019E00011242F933F938F939F93AF93BF93809135
:1019F000C5029091C602A091C702B091C802309171
:101A0000720423E0230F2D3720F40196A11DB11D90
:101A100005C026E8230F0296A11DB11D2093720474
:101A20008093C5029093C602A093C702B093C802E8
:101A30008091730490917404A0917504B091760420
:101A40000196A11DB11D8093730490937404A0931B
:101A50007504B0937604BF91AF919F918F913F91A0
:101A60002F910F900FBE0F901F901895CF93DF937B
:101A7000CDB7DEB7EF970FB6F894DEBF0FBECDBF80
:101A8000789484B5826084BD84B5816084BD85B559
:101A9000826085BD85B5816085BD80916E00816065
:101AA00080936E001092810080918100826080930B
:101AB000810080918100816080938100809180000D
:101AC0008160809380008091B10084608093B10038
:101AD0008091B00081608093B00080917A00846032
:101AE00080937A0080917A00826080937A0080915E
:101AF0007A00816080937A0080917A008068809378
:101B00007A001092C10010915F04809161048C30C2
:101B100008F051C0812F0E94930080916104E82F4A
:101B2000F0E09F01220F331FE20FF31FEA5DFB4F2E
:101B30001F7790819078192B108310926204109275
:101B400063046CE00E9463152CE0829FB0011124B5
:101B500040E050E09B01240F351FF901EE0FFF1FFD
:101B60002E0F3F1FF901EA5DFB4F908197FD16C0D4
:101B70004F5F5F4F4C30510569F781110FC01092D4
:101B8000800082E080938100109285001092840092
:101B9000B19A80916F00826080936F00E091610440
:101BA000F0E0CF01880F991FE80FF91FEA5DFB4FA6
:101BB00080818068808380915D040E949300809181
:101BC0005B040E949300E0918D03F0918E0382E00C
:101BD0008083E0918903F0918A031082E0918B0366
:101BE000F0918C038FEC808310929503E091910328
:101BF000F091920386E08083E0918F03F09190034F
:101C0000808180618083E0918F03F09190038081D7
:101C100088608083E0918F03F091900380818068D9
:101C20008083E0918F03F091900380818F7D80838A
:101C300080914B0490914C04892BA9F486E090E0AC
:101C40000E948D16FC0180914E0480838AE194E00D
:101C500092838183138280E290E095838483F09362
:101C60004C04E0934B0400914B0410914C040E94EF
:101C70003803FF24F394F801F382C8010E946A0339
:101C8000882309F463C480E090E1A0E0B0E0809391
:101C90004F0490935004A0935104B09352048AE0EF
:101CA00090E0A0E0B0E08093530490935404A0939C
:101CB0005504B093560480E090E0A0E0B0E4809337
:101CC000570490935804A0935904B0935A048091F8
:101CD0004B0490914C041BA21CA21DA21EA29D8B22
:101CE0008C8B1F8A1E8AFD8E85E090E09B8F8A8FE9
:101CF000FE8E12E01C8F40E050E160E070E0CE010B
:101D000044960E94DA0380914B0490914C04188A07
:101D1000198A1A8A1B8A9A8389831C821B82FA86F3
:101D200018861F82FB8619874FE959E360E070E04F
:101D3000CE0101966C010E94DA0380934D0486E087
:101D400090E00E948D168C0188E4F80180838AE17E
:101D500094E092838183138280E290E09583848370
:101D600010936504009364040E943803F801F38221
:101D7000C8010E946A038AEA8093B80280EA8093CD
:101D8000B90286E98093BA028CE88093BB028AEAA2
:101D900090E00E949D09CEAEDFAE8DE793E00E94F9
:101DA0003005181619060CF05FC01A8219821C82C1
:101DB0001B821E821D8260E070E08EAD9FAD0E948E
:101DC000A30629813A8181110DC02115310519F031
:101DD000C9010E9425171A8219821E821D821C8247
:101DE0001B8207C01E821D826DE371E0C9010E9443
:101DF00082180E94B20097FD1CC08C8B1D8AED805A
:101E0000FE80FFEFEF1AFF0AB7018EAD9FAD0E9473
:101E1000A306882371F329813A818D819E81BE01B9
:101E20006C5E7F4F820F931F0E948218FE82ED82AC
:101E3000E0CF89819A81009749F00E94691361304F
:101E400019F46093C2020CC061110AC01092C20260
:101E50008CE291E00E941A0A8BE391E00E941A0A38
:101E600089819A810E9425178091C202813009F0F0
:101E70006AC38091C0029091C102892B31F460E164
:101E800077E280E090E00E949B048FB7F894409145
:101E9000C5025091C6026091C7027091C8028FBFFF
:101EA0004093BC025093BD026093BE027093BF0288
:101EB0002091C0023091C102E0E2F1EA2E9FC00100
:101EC0002F9F900D3E9F900D1124A0E0B0E0481789
:101ED00059076A077B0708F489C2232B01F1109187
:101EE000000181E0111180E0809300018091B8022F
:101EF00090E00E949D0960ED77E080E090E00E9414
:101F00009B040E946C0960ED77E080E090E00E9405
:101F10009B0481E0111101C080E08093000188EBF7
:101F200092E099A788A7E8EAF2E0FFA7EEA780EA87
:101F300092E099AB88AB3C018F01E8EBF2E0FBABA0
:101F4000EAAB1FA2EAA9FBA98191FBABEAAB90E047
:101F50000E949D0960ED77E080E090E00E949B0484
:101F60006091000180915D040E94EB0262E370E0E9
:101F700080E090E00E949B0487E392E09BAF8AAFF1
:101F8000E5E0F2E0FFABEEAB83ED91E099AF88AF17
:101F9000E1EAF1E0FDAFECAF8FE691E09DAB8CABF9
:101FA0009BA78AA791EAC92E91E0D92E23EDA22EF4
:101FB00021E0B22E35E0832E32E0932E87E392E0CB
:101FC0009DA78CA7E12CF12C61E080915B040E941D
:101FD000EB028BE39FE10197F1F7C701837099272B
:101FE000892B09F05FC00E944304BC01990F880B44
:101FF000990B0E94AC131B012C016091530470914A
:10200000540480915504909156040E94AA139B0198
:10201000AC01C201B1010E94E215DC01CB01BF7726
:1020200080939B0290939C02A0939D02B0939E028A
:102030000E94AA02BC01990F880B990B0E94AC1355
:102040002FE632E143E85AE30E940B1420919B02F1
:1020500030919C0240919D0250919E020E940B146F
:10206000DC01CB01BF77ECA5FDA580839183A28322
:10207000B38380E00E94260CF4019183808381E089
:102080000E94260CF5019183808382E00E94260C39
:10209000F6019183808383E00E94260CEAA5FBA5CC
:1020A0009183808360E080915B040E94EB028BE36C
:1020B0009FE10197F1F7FFEFEF1AFF0A8CA59DA5AD
:1020C00004969DA78CA792E0890E911CE2E0AE0ECB
:1020D000B11CF2E0CF0ED11C8AA59BA502969BA74E
:1020E0008AA794E6E916F10409F06ECF87E3A82EDB
:1020F00082E0B82EC12CD12C76018EE391E00E94B3
:10210000AB0A80E491E00E94AB0A4AE0C701B60145
:102110000E942C0A80E491E00E94AB0AF5016191D3
:102120007191819191915F0142E00E94AD0A80E43A
:1021300091E00E94AB0AEEA9FFA961917191FFABFA
:10214000EEAB80E090E04AE00E942C0A80E491E04F
:102150000E94AB0AE8ADF9AD61917191F9AFE8AFBA
:1021600080E090E04AE00E942C0A80E491E00E9426
:10217000AB0AECADFDAD61917191FDAFECAF80E0CC
:1021800090E04AE00E942C0A80E491E00E94AB0AB1
:10219000ECA9FDA961917191FDABECAB80E090E001
:1021A0004AE00E942C0A80E491E00E94AB0A80E0A1
:1021B00090E00E946D0A80E491E00E94AB0A80E00A
:1021C00090E00E949D0AFFEFCF1ADF0AEF0AFF0A94
:1021D00029E1C216D104E104F10409F08ECF809107
:1021E000970290919802A0919902B0919A02F801F9
:1021F00080839183A283B38328E1F3012083F12CB0
:102200008FA18170E82EEAADFBAD81909190A190F5
:10221000B190FBAFEAAFF801208131814281538157
:10222000C501B4010E948316181674F4F801808267
:102230009182A282B382E11003C0F301F08204C054
:1022400089E18F19F3018083F394F9E1FF12DBCF69
:1022500060ED77E080E090E00E949B0481E0909147
:102260000001911180E0809300012FA12F5F2FA327
:102270000C5F1F4F8FEF681A780A243009F062CE86
:102280009090B402A090B502B090B6021091B7023F
:102290007090A3028090BB02EEA5FFA5C190D190E3
:1022A000E190F190FFA7EEA7292D3A2D4B2D512F4C
:1022B000C701B6010E948316181654F4E8A9F9A9BB
:1022C0007080E8A5F9A580809C2CAD2CBE2C1F2D1C
:1022D00088A999A9019699AB88ABE8A5F9A531968B
:1022E000F9A7E8A78EA59FA5885B9240A9F6892D3E
:1022F0009A2DAB2DB12F8093A4029093A502A093A9
:10230000A602B093A70270926E0180929F0282E4AF
:1023100091E00E94AB0A80E491E00E94AB0A6091D8
:10232000A4027091A5028091A6029091A70242E0BA
:102330000E94AD0A80E491E00E94AB0A60916E01B8
:1023400070E080E090E04AE00E942C0A80E491E096
:102350000E94AB0A60919F0270E080E090E04AE04A
:102360000E942C0A80E491E00E94AB0A80E090E099
:102370000E946D0A80E491E00E94AB0A80E090E048
:102380000E946D0A80E491E00E94AB0A80E090E038
:102390000E946D0A80E491E00E94AB0A80E090E028
:1023A0000E946D0A80E491E00E94AB0A80E090E018
:1023B0000E949D0A80919F0290E00E949D0960ED1D
:1023C00077E080E090E00E949B040E946C0960ED41
:1023D00077E080E090E00E949B048091C0029091A1
:1023E000C10201969093C1028093C00284E491E0FF
:1023F0000E94AB0A80E491E00E94AB0A6091BC02AB
:102400007091BD028091BE029091BF024AE00E948D
:102410002C0A80E491E00E94AB0A0E94AA02BC014F
:10242000990F880B990B0E94AC132FE632E143E819
:102430005AE30E940B1442E00E94AD0A80E491E04E
:102440000E94AB0A0E944304BC01990F880B990BB0
:102450000E94AC136B017C01609153047091540491
:1024600080915504909156040E94AA139B01AC01DF
:10247000C701B6010E94E2159F7742E00E94AD0AB3
:1024800080E491E00E94AB0A0E94AA027C010E94B3
:102490004304BC01990F880B990B0E94AC134B01AC
:1024A0005C016091530470915404809155049091A3
:1024B00056040E94AA139B01AC01C501B4010E94FD
:1024C000E2154B015C01B701FF0C880B990B0E94D0
:1024D000AC132FE632E143E85AE30E940B149B0150
:1024E000AC01C501B4010E940B149F7742E00E9429
:1024F000AD0A80E491E00E94AB0A80E00E94260CC5
:102500000E946D0A80E491E00E94AB0A81E00E9483
:10251000260C0E946D0A80E491E00E94AB0A82E0E2
:102520000E94260C0E946D0A80E491E00E94AB0A92
:1025300083E00E94260C0E949D0A68EE73E080E012
:1025400090E00E949B040E94D70527CC86E491E08E
:102550000E941A0A8BE391E00E941A0A6AE070E076
:1025600080E090E00E949B04F9CF80914B04909111
:102570004C040C9425171092800310927F0388EE70
:1025800093E0A0E0B0E08093810390938203A09356
:102590008303B09384032CE031E030937E032093D7
:1025A0007D0325EC30E030938A032093890324ECEB
:1025B00030E030938C0320938B0320EC30E0309399
:1025C0008E0320938D0321EC30E030939003209311
:1025D0008F0322EC30E0309392032093910326EC9A
:1025E00030E030939403209393031092960310925B
:1025F0009703109298031092990310921D04109261
:102600001C0480931E0490931F04A0932004B09395
:1026100021048EE191E090931B0480931A041092A0
:102620006604109268041092670480E890E090932A
:102630006A04809369048CE080936E048DE080933B
:102640006F0483E08093700480914A048C30A0F47E
:1026500091E0980F90934A048093610490E0FC010C
:10266000EE0FFF1F8E0F9F1FFC01EA5DFB4F88EBF3
:102670009BE09283818303C08FEF809361048DE0A0
:1026800090E09093600480935F048BE090E09093DF
:102690005E0480935D048AE090E090935C048093F4
:1026A0005B0410924C0410924B0480E480934E041F
:1026B0001092530410925404109255041092560430
:1026C00010925704109258041092590410925A0410
:1026D00008951F93FC0199278827BC01E894119164
:1026E0001032E9F3193010F01E30C8F31B3251F0EC
:1026F0001D3249F4689406C00E949013610F711D49
:10270000811D911D119110531A30B0F33EF4909534
:102710008095709561957F4F8F4F9F4F1F910895C2
:10272000592F482F372F262F660F771F881F991F85
:10273000660F771F881F991F620F731F841F951FD5
:10274000660F771F881F991F08950E94E71308F4EA
:1027500081E00895E89409C097FB3EF49095809538
:10276000709561957F4F8F4F9F4F9923A9F0F92F57
:1027700096E9BB279395F695879577956795B795D5
:10278000F111F8CFFAF4BB0F11F460FF1BC06F5FBB
:102790007F4F8F4F9F4F16C0882311F096E911C0CD
:1027A000772321F09EE8872F762F05C0662371F0EE
:1027B00096E8862F70E060E02AF09A95660F771F02
:1027C000881FDAF7880F9695879597F90895990FDE
:1027D0000008550FAA0BE0E8FEEF16161706E807EB
:1027E000F907C0F012161306E407F50798F0621B0C
:1027F000730B840B950B39F40A2661F0232B242BE1
:10280000252B21F408950A2609F4A140A6958FEFFF
:10281000811D811D08950E941E140C948F140E9426
:10282000811438F00E94881420F0952311F00C9444
:1028300078140C947E1411240C94C3140E94A014D8
:1028400070F3959FC1F3950F50E0551F629FF00103
:10285000729FBB27F00DB11D639FAA27F00DB11D1C
:10286000AA1F649F6627B00DA11D661F829F2227A5
:10287000B00DA11D621F739FB00DA11D621F839F2C
:10288000A00D611D221F749F3327A00D611D231F02
:10289000849F600D211D822F762F6A2F11249F5750
:1028A00050409AF0F1F088234AF0EE0FFF1FBB1F53
:1028B000661F771F881F91505040A9F79E3F510512
:1028C00080F00C9478140C94C3145F3FE4F3983EAA
:1028D000D4F3869577956795B795F795E7959F5FBC
:1028E000C1F7FE2B880F911D9695879597F908954E
:1028F00097F99F6780E870E060E008959FEF80ECB3
:10290000089500240A941616170618060906089555
:1029100000240A9412161306140605060895092EBB
:102920000394000C11F4882352F0BB0F40F4BF2B2A
:1029300011F460FF04C06F5F7F4F8F4F9F4F08956A
:1029400057FD9058440F551F59F05F3F71F0479560
:10295000880F97FB991F61F09F3F79F08795089545
:10296000121613061406551FF2CF4695F1DF08C064
:10297000161617061806991FF1CF86957105610581
:1029800008940895E894BB2766277727CB0197F929
:102990000895052E97FB1EF400940E94E01457FD45
:1029A00007D00E94321507FC03D04EF40C94E014BB
:1029B00050954095309521953F4F4F4F5F4F08956B
:1029C00090958095709561957F4F8F4F9F4F08959B
:1029D0000E945415A59F900DB49F900DA49F800D4B
:1029E000911D11240895B7FF0C94E8140E94E81477
:1029F000821B930B08952F923F924F925F926F929A
:102A00007F928F929F92AF92BF92CF92DF92EF927E
:102A1000FF920F931F93CF93DF93CDB7DEB7CA1BFF
:102A2000DB0B0FB6F894DEBF0FBECDBF09942A882A
:102A3000398848885F846E847D848C849B84AA84D2
:102A4000B984C884DF80EE80FD800C811B81AA815F
:102A5000B981CE0FD11D0FB6F894DEBF0FBECDBF2A
:102A6000ED010895A1E21A2EAA1BBB1BFD010DC0AA
:102A7000AA1FBB1FEE1FFF1FA217B307E407F5072E
:102A800020F0A21BB30BE40BF50B661F771F881F0A
:102A9000991F1A9469F760957095809590959B01A0
:102AA000AC01BD01CF010895A29FB001B39FC00149
:102AB000A39F700D811D1124911DB29F700D811D6A
:102AC0001124911D0895991B79E004C0991F961750
:102AD00008F0961B881F7A95C9F780950895EE0F28
:102AE000FF1F0590F491E02D09945058BB27AA27A9
:102AF0000E948D150C948F140E94811438F00E944E
:102B0000881420F039F49F3F19F426F40C947E14B5
:102B10000EF4E095E7FB0C947814E92F0E94A014C2
:102B200058F3BA17620773078407950720F079F402
:102B3000A6F50C94C2140EF4E0950B2EBA2FA02D1E
:102B40000B01B90190010C01CA01A0011124FF275A
:102B5000591B99F0593F50F4503E68F11A16F04055
:102B6000A22F232F342F4427585FF3CF4695379554
:102B70002795A795F0405395C9F77EF41F16BA0B19
:102B8000620B730B840BBAF09150A1F0FF0FBB1FC7
:102B9000661F771F881FC2F70EC0BA0F621F731F10
:102BA000841F48F4879577956795B795F7959E3F6D
:102BB00008F0B0CF9395880F08F09927EE0F9795FE
:102BC000879508950E94F6150C948F140E9488141E
:102BD00058F00E94811440F029F45F3F29F00C94D2
:102BE000781451110C94C3140C947E140E94A014F8
:102BF00068F39923B1F3552391F3951B550BBB272C
:102C0000AA2762177307840738F09F5F5F4F220F70
:102C1000331F441FAA1FA9F335D00E2E3AF0E0E867
:102C200032D091505040E695001CCAF72BD0FE2FB1
:102C300029D0660F771F881FBB1F26173707480745
:102C4000AB07B0E809F0BB0B802DBF01FF279358FD
:102C50005F4F3AF09E3F510578F00C9478140C9435
:102C6000C3145F3FE4F3983ED4F386957795679558
:102C7000B795F7959F5FC9F7880F911D9695879532
:102C800097F90895E1E0660F771F881FBB1F621751
:102C900073078407BA0720F0621B730B840BBA0B0F
:102CA000EE1F88F7E09508950E94A81488F09F57BA
:102CB00098F0B92F9927B751B0F0E1F0660F771F60
:102CC000881F991F1AF0BA95C9F714C0B13091F056
:102CD0000E94C214B1E008950C94C214672F782F9B
:102CE0008827B85F39F0B93FCCF38695779567951B
:102CF000B395D9F73EF490958095709561957F4F87
:102D00008F4F9F4F08950E94E71308F48FEF0895A7
:102D10000E94E713880B990B08950F931F93CF938D
:102D2000DF938230910510F482E090E0E091790425
:102D3000F0917A0420E030E0A0E0B0E0309719F1A3
:102D4000408151810281138148175907C8F08417C7
:102D5000950769F4109731F012960C931297139619
:102D60001C9327C00093790410937A0422C0211584
:102D7000310519F04217530718F49A01BD01EF010C
:102D8000DF01F801DBCF21153105F9F0281B390BE4
:102D90002430310580F48A819B816115710521F011
:102DA000FB019383828304C090937A048093790417
:102DB000FE01329644C0FE01E20FF31F819391930E
:102DC00022503109398328833AC020917704309109
:102DD0007804232B41F420910301309104013093B6
:102DE000780420937704209101013091020121158C
:102DF000310541F42DB73EB74091050150910601D0
:102E0000241B350BE0917704F0917804E217F30767
:102E1000A0F42E1B3F0B2817390778F0AC014E5F4A
:102E20005F4F2417350748F04E0F5F1F509378040B
:102E3000409377048193919302C0E0E0F0E0CF01EA
:102E4000DF91CF911F910F910895CF93DF9300975A
:102E500009F481C0FC01329713821282A091790497
:102E6000B0917A04109781F420813181820F931FF1
:102E700020917704309178042817390751F5F093A1
:102E80007804E093770467C0ED0120E030E0CE17CE
:102E9000DF0740F44A815B819E0141155105F1F045
:102EA000EA01F5CFD383C28340815181840F951FFE
:102EB000C817D90759F488819981840F951F029604
:102EC000918380838A819B8193838283211531053D
:102ED00029F4F0937A04E09379043DC0E901FB837F
:102EE000EA8349915991C40FD51FEC17FD0761F48E
:102EF00080819181840F951F0296E90199838883CF
:102F0000828193819B838A83E0E0F0E012968D9129
:102F10009C911397009719F0FD01DC01F7CF8D917B
:102F20009C9111979D012E5F3F4F820F931F20911F
:102F30007704309178042817390769F4309729F419
:102F400010927A041092790402C013821282B09314
:102F50007804A0937704DF91CF910895A0E0B0E0CA
:102F6000E4EBF7E10C94FF14EC01009721F4CB01A2
:102F70000E948D16B4C0FC01E60FF71F9C01225081
:102F80003109E217F30708F4A8C0D9010D911C918B
:102F9000119706171707B0F00530110508F49BC00C
:102FA000C80104978617970708F495C002501109C5
:102FB000061B170B019311936D937C93CF010E9415
:102FC000251789C05B01A01AB10A4C01800E911E21
:102FD000A0917904B0917A04612C712CE12CF12C30
:102FE000109709F446C08D919C911197A815B905C9
:102FF000B1F56C0142E0C40ED11CCA14DB0478F1B7
:103000004C018A189B08640142E0C40ED11C129640
:10301000BC9012971396AC91B5E0CB16D10440F05A
:10302000B282A38391828082D9016D937C9309C07F
:103030000E5F1F4F800F911FF90191838083EB2D4D
:10304000FA2FE114F10431F0D7011396FC93EE93BB
:10305000129741C0F0937A04E09379043CC068165B
:10306000790608F43C017D0112960D90BC91A02DCB
:10307000B7CF809177049091780488169906E1F48F
:1030800066167706C8F480910101909102010097BD
:1030900041F48DB79EB74091050150910601841B04
:1030A000950BE817F907C8F4F0937804E0937704D8
:1030B000F901718360830FC0CB010E948D167C01E2
:1030C000009759F0A801BE010E947918CE010E9414
:1030D0002517C70104C0CE0102C080E090E0CDB743
:1030E000DEB7EEE00C941B1581E090E0F8940C94B0
:1030F0008918FB01DC0102C001900D924150504043
:10310000D8F70895FB01DC0101900D920020E1F752
:10311000089510E0CDE5D0E004C0FE010E946F15D7
:0C3120002196CE35D107C9F7F894FFCFF7
:10312C000100007B04200000000000006805D504AD
:10313C00FF04B50530050E052205000000006E06E3
:10314C0041069E0615063906250616064D6F746F48
:10315C0072732053746F70706564000D0A00530015
:10316C002C0052004B004661696C656420746F2022
:10317C0066696E6420494E4132313920636869704A
:0E318C00006E616E00696E66006F7666000070
:00000001FF
