:100000000C945E000C9486000C9486000C94860080
:100010000C9486000C9486000C9486000C94860048
:100020000C9486000C9486000C9486000C945A0D57
:100030000C9486000C9486000C9486000C94860028
:100040000C94990B0C9486000C94090C0C94E30B03
:100050000C9486000C9486000C9486000C94860008
:100060000C943B0C0C948600000000080002010078
:100070000003040700000000000000000000000072
:10008000250028002B0000000000240027002A0083
:10009000040404040404040402020202020203032E
:1000A0000303030301020408102040800102040836
:1000B0001020010204081020160E151411241FBE72
:1000C000CFEFD8E0DEBFCDBF11E0A0E0B1E0ECEFB4
:1000D000FFE202C005900D92AE35B107D9F724E0DA
:1000E000AEE5B1E001C01D92A837B207E1F710E01C
:1000F000CDE5D0E004C02197FE010E948A14CC35E2
:10010000D107C9F70E94C30E0C94F1170C9400009C
:10011000CF92DF92EF92FF92DC01803232E09307C0
:10012000BCF5853B910514F0A4EBB0E0409164046C
:1001300028E830E0241B310947FD3395220F331F97
:10014000220F331F6901330FEE08FF084091650449
:100150002EE239E084E04802201931091124032EEF
:10016000000C440B550B2C193D094E095F09B7FFD4
:1001700002C0B0E0A0E00E94451424EB30E040E073
:1001800050E00E941B14C20ED31EE41EF51ED601C1
:10019000E0916304EC3068F52091640488E890E015
:1001A000821B910927FD9395880F991F880F991F2E
:1001B000A817B9076CF0209165048EE299E034E04D
:1001C0002302801991091124A817B9070CF4CD0155
:1001D0000297880F991F4FB7F8942E2F30E0F9013E
:1001E000EE0FFF1FE20FF31FE85DFB4F9283818349
:1001F0004FBFFF90EF90DF90CF900895089508953E
:1002000090E0FC01EC55FF4F249180579F4FFC017B
:100210008491882399F090E0880F991FFC01EA5798
:10022000FF4FA591B491FC01E458FF4F8591949143
:100230008FB7F894EC91E22BEC938FBF08958FB7B2
:10024000F894809108038FBF08958CBD9DBD0895DB
:1002500090E0FC01E859FF4F2491FC01EC55FF4F61
:100260003491FC01E057FF4FE491EE23C9F02223C3
:1002700039F0233001F1A8F4213019F1223029F1AD
:10028000F0E0EE0FFF1FE458FF4FA591B4918FB738
:10029000F894EC91611126C030953E233C938FBFBA
:1002A00008952730A9F02830C9F0243049F780910B
:1002B00080008F7D03C0809180008F7780938000C5
:1002C000DFCF84B58F7784BDDBCF84B58F7DFBCF47
:1002D0008091B0008F778093B000D2CF8091B00032
:1002E0008F7DF9CF3E2BDACF8230910538F0880F21
:1002F000991F880F991F05970197F1F70895AF92FD
:10030000BF92CF92DF92EF92FF920F931F93CF9302
:10031000DF93EC0188819981892B89F06EBD0DB442
:1003200007FEFDCFBEB48B2DDF91CF911F910F91B2
:10033000FF90EF90DF90CF90BF90AF9008958885A9
:10034000998511E0892B09F010E8AA24A394862F3F
:10035000812309F0A12C062F2C813D814E815F81E4
:1003600060E271EA87E090E00E944D14F22EB02E18
:10037000E12CC22ED12CFF2019F0C6010E9474017D
:100380008A85877F09F042C08D858F3F89F0902F45
:10039000912381E009F480E08A1551F0EF85F88916
:1003A0008F89992369F19081892B8083AA24A39452
:1003B000E989FA898081998D892B8083FF2019F042
:1003C000C6010E9474018E858F3F39F0EB89FC894C
:1003D0008081988D892309F0E12AE989FA89908141
:1003E000898D8095892380838E858F3F09F0BE2C6F
:1003F00088859985892BB9F5110F1111BCCF93CF41
:100400009081809589238083A12CD2CFE989FA89B4
:100410008081998D892B8083FF2019F0C6010E946D
:1004200074018D858F3F49F0EF85F8898F89902F72
:100430009123A9F09081892B8083E989FA899081A1
:10044000898D8095892380838E858F3F69F2EB8922
:10045000FC898081988D892339F2E12AC5CF90816A
:1004600080958923E9CF1695C8CF8F929F92AF923E
:10047000BF92CF92DF92EF92FF920F931F93CF9391
:10048000DF93EC014B016A01B22EA32E8881998182
:10049000892B31F0EA81FB81808191810E942501C5
:1004A00060E08B850E9428017401C80CD91CEC14F3
:1004B000FD0479F4EB2CFA2C0E0D1F1D0E151F05F3
:1004C00079F06FEFCE010E947F01F70181937F01E8
:1004D000F5CFF70161917F01CE010E947F01E7CF47
:1004E00061E08B850E94280181E0DF91CF911F910F
:1004F0000F91FF90EF90DF90CF90BF90AF909F90C3
:100500008F9008958F929F92AF92BF92CF92DF9279
:10051000EF92FF920F931F93CF93DF93EC01B62ED0
:10052000A72E6A01490188819981892B31F0EA81DE
:10053000FB81808191810E94250160E08B850E9472
:1005400028017401080D191DE016F10671F40B2D38
:100550001A2DC00ED11EC016D10671F0F80161919E
:100560008F01CE010E947F01F6CFF70161917F01DB
:10057000CE010E947F01E8CF61E08B850E942801B7
:1005800081E0DF91CF911F910F91FF90EF90DF906D
:10059000CF90BF90AF909F908F9008953FB7F89401
:1005A0008091040390910503A0910603B091070385
:1005B00026B5A89B05C02F3F19F00196A11DB11DBE
:1005C0003FBFBA2FA92F982F8827BC01CD01620FFA
:1005D000711D811D911D42E0660F771F881F991FB5
:1005E0004A95D1F708958F929F92AF92BF92CF9282
:1005F000DF92EF92FF926B017C010E94CE024B01D1
:100600005C01C114D104E104F104B9F00E94CE02EE
:10061000681979098A099B09683E7340810591052B
:1006200080F321E0C21AD108E108F10888EE880EB3
:1006300083E0981EA11CB11CE4CFFF90EF90DF90E7
:10064000CF90BF90AF909F908F900895AF92BF9240
:10065000CF92DF92EF92FF920F931F93CF93DF938E
:100660006C017B018B01040F151FEB015E01AE18BD
:10067000BF08C017D10759F06991D601ED91FC91DF
:100680000190F081E02DC6010995892B79F7C5010C
:10069000DF91CF911F910F91FF90EF90DF90CF905E
:1006A000BF90AF900895FC01538D448D252F30E00D
:1006B000842F90E0821B930B541710F0CF9608956F
:1006C00001970895FC01918D828D981761F0A28D9C
:1006D000AE0FBF2FB11D5D968C91928D9F5F9F7362
:1006E000928F90E008958FEF9FEF0895FC01918D18
:1006F000828D981731F0828DE80FF11D858D90E085
:1007000008958FEF9FEF0895FC01918D228D892F21
:1007100090E0805C9F4F821B91098F739927089509
:100720008FE793E00E94840321E0892B09F420E005
:10073000822F089580E090E0892B29F00E94900399
:1007400081110C9400000895FC01A48DA80FB92F0D
:10075000B11DA35ABF4F2C91848D90E001968F73E9
:100760009927848FA689B7892C93A089B1898C9108
:10077000837080648C93938D848D981306C0028857
:10078000F389E02D80818F7D80830895EF92FF9221
:100790000F931F93CF93DF93EC0181E0888F9B8DA4
:1007A0008C8D98131AC0E889F989808185FF15C05E
:1007B0009FB7F894EE89FF896083E889F989808181
:1007C0008370806480839FBF81E090E0DF91CF9150
:1007D0001F910F91FF90EF900895F62E0B8D10E072
:1007E0000F5F1F4F0F731127E02E8C8D8E110CC0E1
:1007F0000FB607FCFACFE889F989808185FFF5CF2C
:10080000CE010E94A403F1CFEB8DEC0FFD2FF11D63
:10081000E35AFF4FF0829FB7F8940B8FEA89FB8968
:1008200080818062CFCFCF93DF93EC01888D8823C6
:10083000B9F0AA89BB89E889F9898C9185FD03C043
:10084000808186FD0DC00FB607FCF7CF8C9185FF28
:10085000F2CF808185FFEDCFCE010E94A403E9CFC6
:10086000DF91CF91089520918001260F3327331F08
:1008700021323105ECF420915503FC0190E080E039
:10088000243069F082E00895A09180012191AC01AB
:10089000405A5E4FA40FB52FB11D2C9301968617B9
:1008A00098F380918001680F6093800180E0089543
:1008B00081E008951092550381E0809354031092D3
:1008C0002F0361E082E10E94280161E083E10E9440
:1008D0002801E9EBF0E080818E7F808380818D7F2D
:1008E000808388E48093B80085E48093BC000895F9
:1008F00010920E0310920D0310925C0310927E036F
:100900000E945A048EEF90E090930C0380930B03A7
:100910008FEF90E090930A03809309030895CF939B
:10092000DF9391E090935F018823B9F0C091B80004
:10093000D091BA008091BC008A7B8093BC0060E0BB
:1009400082E10E94280160E083E10E9428010E9468
:100950005A04D093BA00C093B800DF91CF910895A4
:100960008F929F92AF92BF92CF92DF92EF92FF92BF
:100970000F931F93CF93DF93D0917E03D13208F072
:10098000D7C0182FC0917D030E94CE026B017C015D
:100990008091550381116BC082E0809355031093C1
:1009A00054038FEF8093530310925203D09351035B
:1009B000ADE5B3E0E1E3F3E080E0D81391C010923D
:1009C000300380913003CC0FC82BC093300380914B
:1009D0002F03813009F088C010922F030E94CE02AD
:1009E0006B017C01809130038093BB0080915703A1
:1009F00090915803A0915903B0915A03892B8A2BE7
:100A00008B2BA1F00E94CE02009157031091580346
:100A10002091590330915A036C197D098E099F0961
:100A2000061717072807390708F442C08091BC0051
:100A300083FDD8CF85EC8093BC000E94CE026B0171
:100A40007C0180915503823009F450C0809153039A
:100A50008F3F09F46FC080915303803209F46CC05A
:100A600080915303803309F469C084E026C08091EB
:100A7000570390915803A0915903B0915A03892BC1
:100A80008A2B8B2B09F484CF0E94CE0280905703CF
:100A900090905803A0905903B0905A036C197D09A7
:100AA0008E099F0986169706A806B90608F070CF2A
:100AB000809156030E948F0485E010925C0310928F
:100AC0007E0310925B03DF91CF911F910F91FF90F6
:100AD000EF90DF90CF90BF90AF909F908F90089550
:100AE0009D9191938F5F69CF85EEA5CF809157033C
:100AF00090915803A0915903B0915A03892B8A2BE6
:100B00008B2B09F49ECF0E94CE02009157031091C7
:100B100058032091590330915A036C197D098E09AD
:100B20009F09061717072807390708F08ACFC0CF93
:100B300081E0C3CF80E0C1CF82E0BFCF83E0BDCFF3
:100B40008F929F92BF92CF92DF92EF92FF920F937C
:100B50001F93CF93DF93DA01AE0DBF1DEC01EC8143
:100B6000FD81EA17FB0710F490E026C0B22E6A015F
:100B70004B0189819A81288131E030935B03209376
:100B80007D0310925C0310927E03E114F10409F5D9
:100B900089819A81DC01ED91FC910280F381E02D45
:100BA000A601B4010995C816D906F1F68B2D0E944D
:100BB000B00491E08111D8CF892FDF91CF911F919F
:100BC0000F91FF90EF90DF90CF90BF909F908F900C
:100BD000089501151105E1F2DC01ED91FC9102800F
:100BE000F381E02DA701B80109958E159F0509F045
:100BF000BBCFCECFEF92FF920F931F93CF93DF9394
:100C000000D0CDB7DEB7FC014787508B618B728B6C
:100C10008285882339F14487452F562F672F772700
:100C2000882311F14387BF01655F7F4F968147811C
:100C300099834A83A081B1811097C1F0E184F12C9E
:100C40008E010F5F1F4F21E042E050E0CD010E9476
:100C5000A0050F900F90DF91CF911F910F91FF9002
:100C6000EF9008954387D8CF4487DDCFA281B38129
:100C700080E0109771F324813581018510E02330E5
:100C8000310571F44E7F49839A830F5F1F4F9E0198
:100C90002F5F3F4F42E050E0CD010E948202D9CF4A
:100CA0002115310519F49F779983F1CF2230310551
:100CB00011F49068F9CF2130310549F79F7790649E
:100CC000F3CFCF93DF93EC018B818823A1F0888150
:100CD00091E090935B0380937D0310925C031092EC
:100CE0007E0381E00E94B00491E0811190E0892FA1
:100CF000DF91CF9108950E94780481E08B83CE012B
:100D00000E946106982F8111E2CFF1CF0895E09102
:100D10000E0380910D03E81730F4F0E0E15FFC4F23
:100D2000808190E008958FEF9FEF089590910E03DA
:100D300080910D032FEF3FEF981748F4E92FF0E073
:100D4000E15FFC4F208130E09F5F90930E03C9016B
:100D5000089580910D0390910E03891B990B0895BE
:100D6000CF92DF92EF92FF920F931F93CF93DF9377
:100D70007C01CB018A0120915B03222389F0EB01E6
:100D80006B01C40ED51ECC15DD0569F06991D70144
:100D9000ED91FC910190F081E02DC7010995F3CF11
:100DA000642F0E943304C801DF91CF911F910F91EE
:100DB000FF90EF90DF90CF900895CF93DF931F9235
:100DC000CDB7DEB7698320915B032223F9F0209130
:100DD0007E03203258F021E030E0FC01338322838F
:100DE00090E080E00F90DF91CF91089580915C03B7
:100DF000E82FF0E0E35AFC4F998190838F5F809356
:100E00005C0380937E0381E090E0ECCF61E0CE0153
:100E100001960E943304F7CF90E080E008951F937D
:100E2000CF93DF936091000180915F040E942801BD
:100E300062E370E080E090E00E94F302D0E0C0E066
:100E40008091DC028C171D06A9F0A4F010915D04BE
:100E500061E0812F0E94280180E797E10E947401E0
:100E600060E0812F0E94280180E797E10E947401D1
:100E70002196E6CFDF91CF911F9108954F925F9217
:100E80006F927F928F929F92AF92BF92CF92DF929A
:100E9000EF92FF920F931F93CF93DF93DC01149691
:100EA0002D913C912417350708F4DBC08A016B01B2
:100EB0007C01FC01D0810E94CE024B015C0180913B
:100EC0005503811169C0C02F013208F0C0E281E0F2
:100ED00080935503809354039FEF90935303109294
:100EE00052039C0F90935103809330038091300301
:100EF000DD0FD82BD093300380912F03813009F080
:100F00008CC010922F030E94CE024B015C01809195
:100F100030038093BB008091570390915803A091B8
:100F20005903B0915A03892B8A2B8B2BA1F00E9475
:100F3000CE02409057035090580360905903709030
:100F40005A03681979098A099B09461657066806E3
:100F5000790608F442C08091BC0083FDD8CF85ECAF
:100F60008093BC000E94CE024B015C01809155032E
:100F7000813009F454C0809152038C1710F4C09151
:100F80005203A1E3B3E0EFE0F3E080E08C1751F10E
:100F90009D9191938F5FFACF809157039091580361
:100FA000A0915903B0915A03892B8A2B8B2B09F4FA
:100FB00086CF0E94CE024090570350905803609015
:100FC000590370905A03681979098A099B094616D2
:100FD00057066806790608F072CF809156030E9482
:100FE0008F04C0E010920E03C0930D03C0171106CA
:100FF000C1F5E6010C0D1D1D0C171D0709F443C0BA
:10100000D70111968D919C91DC01ED91FC910284A8
:10101000F385E02D09958993EFCF85EEA1CF8091DF
:10102000570390915803A0915903B0915A03892B0B
:101030008A2B8B2B09F49ACF0E94CE024090570343
:10104000509058036090590370905A0368197909B9
:101050008A099B09461657066806790608F086CF66
:10106000BCCF80E0DF91CF911F910F91FF90EF9067
:10107000DF90CF90BF90AF909F908F907F906F90B8
:101080005F904F90089581E0EDCFEF92FF920F9324
:101090001F93CF93DF93CAE6D4E08F83F12CE12C2A
:1010A00010E000E021E041E050E061E774E0888179
:1010B00099810E94A00542E050E061E774E08881D8
:1010C00099810E943E078F819885982789279827C4
:1010D000DF91CF911F910F91FF90EF900895EF92C4
:1010E000FF920F931F93482F20916D0430916E044F
:1010F00080916F0490917004822B932B4230D9F130
:101100004330E1F14130A1F183609164906821E0C6
:10111000209371049093720480937304F12CE12C5A
:1011200010E000E043E050E061E774E080916A0481
:1011300090916B040E94A00581E00E94450897FFF2
:10114000FBCF80E00E94450820916C04022E02C073
:10115000969587950A94E2F7222329F0811528E0D5
:10116000920708F0906F1F910F91FF90EF900895F4
:1011700083609165CBCF83609166C8CF83609167B0
:10118000C5CF6F927F928F929F92AF92BF92CF9274
:10119000DF92EF92FF920F931F93CF93DF9300D0D4
:1011A000CDB7DEB76C015B014C018BE0880E911C62
:1011B000D60116969C91169717968C91179799833E
:1011C0008A836D907C90119761147104D9F11996FE
:1011D0004C9150E0F12CE12C10E000E020E0BE0149
:1011E0006F5F7F4FC3010E94A005811112C080E094
:1011F0000F900F90DF91CF911F910F91FF90EF9083
:10120000DF90CF90BF90AF909F908F907F906F9026
:10121000089542E050E0B401C3010E943E078823D4
:1012200039F3F601928591113CC0248530E0322FCC
:101230002227D50111963C932E939385292B2D932C
:101240003C93D6CF1296ED91FC911397309779F29B
:1012500014962D913C91159719964C9150E023309E
:10126000310579F4816089839A834F5F5F4F02E093
:1012700010E09401BE016F5F7F4FCF010E943502E5
:10128000CECF2115310519F490689983F0CF223023
:10129000310511F49F77F9CF2130310541F7906C7A
:1012A000F4CF238530E0322F2227D50111963C93CD
:1012B0002E939485C3CF0F931F93CF93DF93CDB716
:1012C000DEB765970FB6F894DEBF0FBECDBF0DE455
:1012D00014E0F80180819181188A198A1A8A1B8A80
:1012E0009A8389831C821B8281E08A8722E030E016
:1012F00038872F838B8782E08987BE016C5E7F4FA2
:10130000CE0101960E94C108F80182838C899D89D3
:1013100023E0969587952A95E1F7880F991F880F06
:10132000991F65960FB6F894DEBF0FBECDBFDF9153
:10133000CF911F910F910895EF92FF920F931F93FA
:10134000CF93DF93CDB7DEB7A8970FB6F894DEBF83
:101350000FBECDBF0DE414E0F801808191811BA286
:101360001CA21DA21EA29D8B8C8B1F8A1E8AFF248D
:10137000F394FD8E85E090E09B8F8A8FFE8E82E055
:10138000E82EEC8E4481558166817781CE014496AA
:101390000E94FA05F80180819181188A198A1A8AB7
:1013A0001B8A9A8389831C821B82FA8684E090E0E0
:1013B00098878F83FB86E986BE01695D7F4FCE01EA
:1013C00001960E94C108F80182838FA198A5A89672
:1013D0000FB6F894DEBF0FBECDBFDF91CF911F9146
:1013E0000F91FF90EF900895FC0101900020E9F724
:1013F0003197AF01481B590BBC018FE793E00C9468
:1014000026038F929F92AF92BF920F931F93CF9319
:10141000DF93CDB7DEB7A1970FB6F894DEBF0FBE4E
:10142000CDBF19A2423008F44AE08E010F5D1F4F74
:10143000842E912CB12CA12CA50194010E944D1455
:10144000E62FB901CA01EA30F4F4E05DD801EE9369
:101450008D01232B242B252B79F790E080E010972A
:1014600019F0CD010E94F409A1960FB6F894DEBFE1
:101470000FBECDBFDF91CF911F910F91BF90AF9065
:101480009F908F900895E95CE1CFCF92DF92EF9229
:10149000FF92CF93DF936C01990FEE08FF08F7FEE0
:1014A00019C06DE28FE793E00E94C603EC01662746
:1014B0007727CB016C197D098E099F094AE00E94AC
:1014C000010A8C0F9D1FDF91CF91FF90EF90DF906D
:1014D000CF9008954AE0C701B601DF91CF91FF9008
:1014E000EF90DF90CF900C94010ACF93DF930E948E
:1014F000450AEC018BE291E00E94F4098C0F9D1FDC
:10150000DF91CF9108950C94F4094F925F926F92FE
:101510007F928F929F92AF92BF92CF92DF92EF9283
:10152000FF920F931F93CF936B017C01742EAC013C
:101530009B010E94C716882399F08EE291E0CF911B
:101540001F910F91FF90EF90DF90CF90BF90AF90E1
:101550009F908F907F906F905F904F900C94F409C4
:1015600046015701E894B7F82FEF3FEF4FE75FE7E9
:10157000C501B4010E94C71681110DC02FEF3FEFC6
:101580004FE75FE7C501B4010E94FD1418161CF473
:1015900082E391E0D4CF2FEF3FEF4FE75FE4C70145
:1015A000B6010E94551618161CF486E391E0C7CFC9
:1015B0002FEF3FEF4FE75FECC701B6010E94FD142C
:1015C00087FDF3CF20E030E0A901C701B6010E94FA
:1015D000FD1410E000E087FF0AC06DE28FE793E0A2
:1015E0000E94C6038C01F7FAF094F7F8F094C0E07B
:1015F00060E070E080E09FE37C1641F020E030E0A6
:1016000040E251E40E940215CF5FF6CFA701960198
:101610000E9491142B013C010E9474154B015C0146
:101620004AE00E94010A7C01E00EF11ECC23C1F1C8
:10163000C501B4010E94A3159B01AC01C301B20115
:101640000E9490144B015C016EE28FE793E00E94D0
:10165000C603E80EF91EC15018F120E030E040E268
:1016600051E4C501B4010E945A162B013C010E94AD
:1016700074154B01B12CA12C4AE0C501B4010E94A4
:10168000010AE80EF91EC501B4010E94A3159B01D1
:10169000AC01C301B2010E9490144B015C01DBCF8D
:1016A000C701CF911F910F91FF90EF90DF90CF90E6
:1016B000BF90AF909F908F907F906F905F904F9072
:1016C000089585ED8093BC00809157039091580355
:1016D000A0915903B0915A030796A11DB11D23E0B3
:1016E000B695A795979587952A95D1F72091BC0037
:1016F00024FD03C010925503089540915703509163
:1017000058036091590370915A03452B462B472B80
:1017100069F30097A105B10541F025E32A95F1F79A
:1017200000000197A109B109E1CF809156030C9403
:101730008F041F920F920FB60F9211242F933F9395
:101740008F939F93AF93BF93809100039091010378
:10175000A0910203B09103033091FF0223E0230F15
:101760002D3758F50196A11DB11D2093FF028093DE
:10177000000390930103A0930203B09303038091AD
:10178000040390910503A0910603B091070301960D
:10179000A11DB11D8093040390930503A09306033C
:1017A000B0930703BF91AF919F918F913F912F917C
:1017B0000F900FBE0F901F90189526E8230F0296EA
:1017C000A11DB11DD2CF1F920F920FB60F921124FF
:1017D0002F933F934F935F936F937F938F939F9339
:1017E000AF93BF93EF93FF938FE793E00E94A4031F
:1017F000FF91EF91BF91AF919F918F917F916F91E9
:101800005F914F913F912F910F900FBE0F901F90BE
:1018100018951F920F920FB60F9211242F938F934A
:101820009F93EF93FF93E0918F03F091900380815A
:10183000E0919503F091960382FD1BC09081809109
:1018400098038F5F8F7320919903821741F0E09185
:101850009803F0E0E158FC4F958F80939803FF9137
:10186000EF919F918F912F910F900FBE0F901F902E
:1018700018958081F4CF1F920F920FB60F9211240A
:101880002F933F934F935F936F937F938F939F9388
:10189000AF93BF93EF93FF938091B900887F803619
:1018A00009F44AC0F0F5883209F4A7C018F5803170
:1018B00009F49BC0B8F4882309F4F9C0883009F40E
:1018C00094C0FF91EF91BF91AF919F918F917F91C4
:1018D0006F915F914F913F912F910F900FBE0F909D
:1018E0001F901895883109F488C0803251F7809391
:1018F000530314C0803409F49DC040F48033B9F31D
:101900008833F9F68093530385ECB0C0803509F431
:1019100085C0883509F496C0883499F60E94610B19
:10192000D0CF883909F48CC038F5883729F050F4C5
:10193000883611F0803729F683E0809355031092A2
:10194000A20157C0883809F47BC0803919F080386B
:1019500009F0B7CF8091A201803208F071C0E09108
:10196000A20181E08E0F8093A2018091BB00F0E084
:10197000EE57FE4F80833DC0803B39F0E0F4803A63
:1019800009F479C0883A09F09CCF84E0809355032C
:101990001092810110928001E0910B03F0910C03F1
:1019A00009958091800181110FC081E080938001B1
:1019B0001092600109C0803C09F4A6CF883C09F46C
:1019C000A3CF883B09F07DCFE091810181E08E0FAC
:1019D00080938101F0E0E05AFE4F80818093BB004C
:1019E000909181018091800129C080913003809382
:1019F000BB0085EC8093BC0064CF90915203809132
:101A00005103981758F5E091520381E08E0F8093AF
:101A10005203F0E0EF5CFC4F8081E9CFE09152038C
:101A200081E08E0F809352038091BB00F0E0EF5C69
:101A3000FC4F808390915203809151039817C8F214
:101A400085E8D8CFE091520381E08E0F8093520356
:101A50008091BB00F0E0EF5CFC4F808380915403E9
:101A600081115CCF81E080932F0384EA8093BC00D6
:101A70001092550326CF85EC8093BC00109255033D
:101A80008091A201803230F4E091A201F0E0EE57A3
:101A9000FE4F10826091A20170E0E0910903F09185
:101AA0000A0382E891E009951092A2010ACF1092F0
:101AB000530334CF1F920F920FB60F9211242F931E
:101AC0003F934F935F936F937F938F939F93AF93C6
:101AD000BF93CF93DF93EF93FF9380915E01C0910B
:101AE0004C04D0E087FF24C010928500109284003F
:101AF00080915E018F5F80935E0180915E01082E70
:101B0000000C990B8C179D0724F480915E018C309A
:101B1000C4F18091840090918500049680349C49A2
:101B200008F47AC08091840090918500049676C074
:101B300080915E01082E000C990B8C179D07C4F64E
:101B4000E0915E018E2FEE0F990BFC01EE0FFF1F4F
:101B5000E80FF91FE85DFB4F808187FFC9CFE09157
:101B60005E018E2FEE0F990BFC01EE0FFF1FE80FA9
:101B7000F91FE85DFB4F808160E08F770E942801AC
:101B8000B7CF2091840030918500E0915E018E2FC7
:101B9000EE0F990BFC01EE0FFF1FE80FF91FE85D38
:101BA000FB4F81819281820F931F909389008093D4
:101BB0008800E0915E018E2FEE0F990BFC01EE0F75
:101BC000FF1FE80FF91FE85DFB4F808187FF11C001
:101BD000E0915E018E2FEE0F990BFC01EE0FFF1FBF
:101BE000E80FF91FE85DFB4F808161E08F770E946D
:101BF0002801FF91EF91DF91CF91BF91AF919F911C
:101C00008F917F916F915F914F913F912F910F90A5
:101C10000FBE0F901F90189580E49CE99093890067
:101C2000809388008FEF80935E01E3CF1092820350
:101C30001092810388EE93E0A0E0B0E080938303EC
:101C400090938403A0938503B09386032BE031E047
:101C50003093800320937F0325EC30E030938C0396
:101C600020938B0324EC30E030938E0320938D037C
:101C700020EC30E03093900320938F0321EC30E090
:101C8000309392032093910322EC30E0309394033D
:101C90002093930326EC30E0309396032093950332
:101CA000109298031092990310929A0310929B033A
:101CB00010921F0410921E0480932004909321041C
:101CC000A0932204B09323048DE191E090931D042E
:101CD00080931C0410926C0410926E0410926D0498
:101CE00080E890E09093700480936F048CE0809380
:101CF00066048DE08093670483E08093680480919C
:101D00004C048C30E0F591E0980F90934C04809354
:101D1000630490E0FC01EE0FFF1FE80FF91FE85D80
:101D2000FB4F88EB9BE0928381838DE090E0909362
:101D30006204809361048BE090E090936004809350
:101D40005F048AE090E090935E0480935D041092BB
:101D50004E0410924D0480E4809350041092550478
:101D6000109256041092570410925804109259047D
:101D700010925A0410925B0410925C0408958FEF45
:101D800080936304D2CFCF93DF93CDB7DEB7E397D1
:101D90000FB6F894DEBF0FBECDBF789484B58260D5
:101DA00084BD84B5816084BD85B5826085BD85B5FF
:101DB000816085BD80916E00816080936E0010927D
:101DC00081008091810082608093810080918100F8
:101DD0008160809381008091800081608093800089
:101DE0008091B10084608093B1008091B0008160E7
:101DF0008093B00080917A00846080937A00809113
:101E00007A00826080937A0080917A00816080936A
:101E10007A0080917A00806880937A001092C100E5
:101E200010916104809163048C3008F051C0812FBF
:101E30000E94000180916304282F30E0F901EE0F29
:101E4000FF1FE20FF31FE85DFB4F1F779081907833
:101E5000912B908310926404109265042CE0622F01
:101E60000E947E14829FB001112430E020E0AB017B
:101E7000420F531FFA01EE0FFF1FE40FF51FE85D3D
:101E8000FB4F908197FD16C02F5F3F4F2C303105DF
:101E900071F781110FC01092800082E08093810061
:101EA0001092850010928400B19A80916F00826038
:101EB00080936F00E09163048E2F90E0FC01EE0FA1
:101EC000FF1FE80FF91FE85DFB4F8081806880836A
:101ED00080915F040E94000180915D040E940001D6
:101EE000E0918F03F091900382E08083E0918B0377
:101EF000F0918C031082E0918D03F0918E038FECB2
:101F0000808310929703E0919303F091940386E00D
:101F10008083E0919103F0919203808180618083BE
:101F2000E0919103F0919203808188608083E09139
:101F30009103F0919203808180688083E091910306
:101F4000F091920380818F7D808380914D049091E8
:101F50004E04892BA9F486E090E00E94CC16FC0187
:101F60008091500480838CE194E09283818313827A
:101F700080E290E095838483F0934E04E0934D04D7
:101F800000914D0410914E040E947804FF24F394B4
:101F9000F801F382C8010E94610681110FC08AE333
:101FA00091E00E94F4098BE291E00E94F4096AE05A
:101FB00070E080E090E00E94F302F9CF80E090E1D1
:101FC000A0E0B0E08093510490935204A093530496
:101FD000B09354048AE090E0A0E0B0E08093550410
:101FE00090935604A0935704B093580480E090E077
:101FF000A0E0B0E48093590490935A04A0935B044A
:10200000B0935C0480914D0490914E041BA21CA2DD
:102010001DA21EA29D8B8C8B1F8A1E8AFD8E85E0C1
:1020200090E09B8F8A8FFE8E12E01C8F40E050E183
:1020300060E070E0CE0144960E94FA0580914D0464
:1020400090914E04188A198A1A8A1B8A9A83898366
:102050001C821B82FA8618861F82FB8619874FE92D
:1020600059E360E070E0CE0101960E94FA0580938A
:102070004F0486E090E00E94CC168C0188E4F801C1
:1020800080838CE194E092838183138280E290E0EC
:102090009583848310936B0400936A040E947804F0
:1020A000F801F382C8010E9461068AEA8093F50272
:1020B00086E98093F60282E88093F7028EE68093A9
:1020C000F8028AEA90E00E9488008091FD029091D7
:1020D000FE02892B31F460E177E280E090E00E941B
:1020E000F3028FB7F894C0900003D0900103E09002
:1020F0000203F09003038FBFC092F902D092FA025C
:10210000E092FB02F092FC024091FD025091FE022F
:102110009A01A0E6BAEE0E946F14C616D706E8062A
:10212000F90608F4ACC2452B01F11091000181E0E1
:10213000111180E0809300018091F50290E00E94EF
:10214000880068EE73E080E090E00E94F3020E9455
:102150000F0768EE73E080E090E00E94F30281E0F8
:10216000111101C080E08093000145EF52E05AA7B1
:1021700049A785EE92E09EA78DA76DED262E62E021
:10218000362E7C01412C512C32014BAA4AE0C3016E
:10219000B2010E94010A8BE291E00E94F409E9A5D4
:1021A000FAA5608170E090E080E04AE00E94010AB8
:1021B0008BE291E00E94F40968EB7BE080E090E024
:1021C0000E94F302E9A5FAA5808190E00E948800B0
:1021D00068EE73E080E090E00E94F30260910001FD
:1021E00080915F040E94280162E370E080E090E04B
:1021F0000E94F3021FA2D12CC12C61E080915D04EA
:102200000E94280184E690E00E947401C601837058
:102210009927892B09F0EDC22FB7F894809100031C
:1022200090910103A0910203B09103032FBF80930B
:10223000D7029093D802A093D902B093DA020E94F9
:102240009C09BC01990F880B990B0E94A5154B01A5
:102250005C016091550470915604809157049091EF
:1022600058040E94A3159B01AC01C501B4010E9452
:1022700002159F776093D3027093D4028093D502A6
:102280009093D6020E945B09FFA10F2F10E09801E6
:10229000220F331F220F331FA90141595D4F5A01ED
:1022A000BC01990F880B990B0E94A5152FE632E10E
:1022B00043E85AE30E945A162091D3023091D40287
:1022C0004091D5025091D6020E945A169F77F5018F
:1022D000608371838283938380E00E946F08000F84
:1022E000111FF801E35CFD4F9183808381E00E9420
:1022F0006F08F801E55FFD4F9183808382E00E94C3
:102300006F08F801E752FE4F9183808383E00E94BB
:102310006F08F801E955FE4F91838083FFA1FF5FAD
:10232000FFA32FB7F8948091000390910103A0912F
:102330000203B09103032FBF8093A3019093A401E4
:10234000A093A501B093A60160E080915D040E9476
:10235000280184E690E00E9474012FEFC21AD20A8D
:1023600044E6C416D10409F048CF8FE692E098A75E
:102370008FA3EDE3F2E0FAABE9AB4BE052E058ABF0
:102380004FA729EDC22E21E0D22E07EA11E09CA72B
:102390008BA7812C912C540185E591E00E94830A42
:1023A00087E591E00E94830A4AE0C501B4010E94DA
:1023B000010A87E591E00E94830AEBA5FCA56191E3
:1023C000719181919191FCA7EBA742E00E94850A4F
:1023D00087E591E00E94830AE9A9FAA961917191C8
:1023E000FAABE9AB90E080E04AE00E94010A87E5A1
:1023F00091E00E94830AEFA5F8A961917191F8AB71
:10240000EFA790E080E04AE00E94010A87E591E0B2
:102410000E94830AF601619171916F0190E080E062
:102420004AE00E94010A87E591E00E94830AF801D0
:10243000619171918F0190E080E04AE00E94010A71
:1024400087E591E00E94830A90E080E00E94450ABF
:1024500087E591E00E94830A90E080E00E94750A7F
:10246000FFEF8F1A9F0AAF0ABF0A29E18216910473
:10247000A104B10409F090CF8091CF029091D002D5
:10248000A091D102B091D202F70180839183A283FF
:10249000B38328E1F101208310E00BA90170EFA1C3
:1024A000F8A581909190A190B190F8A7EFA3F701C2
:1024B0002081318142815381C501B4010E945516AA
:1024C00018164CF4F70180829182A282B382011126
:1024D000A7C1F10110831C5F143609F768EE73E0A1
:1024E00080E090E00E94F30281E090910001911160
:1024F00080E080930001FFEF4F1A5F0A6F0A7F0AA6
:1025000049A55AA54F5F5F4F5AA749A754E0E50E6A
:10251000F11C8FEF281A380A94E04916510461041F
:10252000710409F032CE8090F1029090F202A090F6
:10253000F302B090F4026090E0027090F80201E0C3
:1025400010E0EDA5FEA5C190D190E190F190FEA71D
:10255000EDA7A7019601B401C5010E94FD1487FFF4
:102560000CC0C8010197FC01E352FD4F60808B5005
:102570009D4FFC017080460157010F5F1F4F0530D2
:102580001105F9F6C401D5018093E1029093E202AE
:10259000A093E302B093E4026092DC027092DB024B
:1025A00089E591E00E94830A87E591E00E94830A11
:1025B0006091E1027091E2028091E3029091E40265
:1025C00042E00E94850A87E591E00E94830A6091BB
:1025D000DC0270E090E080E04AE00E94010A87E5BA
:1025E00091E00E94830A6091DB0270E090E080E05D
:1025F0004AE00E94010A87E591E00E94830A90E088
:1026000080E00E94450A87E591E00E94830A90E0FD
:1026100080E00E94450A87E591E00E94830A90E0ED
:1026200080E00E94450A87E591E00E94830A90E0DD
:1026300080E00E94450A87E591E00E94830A90E0CD
:1026400080E00E94750A8091DB0290E00E94880081
:1026500068EE73E080E090E00E94F3020E940F07B2
:1026600068EE73E080E090E00E94F3028091FD024A
:102670009091FE0201969093FE028093FD028BE5FD
:1026800091E00E94830A87E591E00E94830A6091AD
:10269000F9027091FA028091FB029091FC024AE0EB
:1026A0000E94010A87E591E00E94830A0E945B096B
:1026B000BC01990F880B990B0E94A5152FE632E1FA
:1026C00043E85AE30E945A1642E00E94850A87E5D1
:1026D00091E00E94830A0E949C09BC01990F880B1B
:1026E000990B0E94A5156B017C01609155047091B6
:1026F000560480915704909158040E94A3159B01A1
:10270000AC01C701B6010E9402159F7742E00E940A
:10271000850A87E591E00E94830A0E945B098C018B
:102720000E949C09BC01990F880B990B0E94A5156A
:102730006B017C016091550470915604809157049F
:10274000909158040E94A3159B01AC01C701B601EA
:102750000E9402156B017C01B801110F880B990BC7
:102760000E94A5152FE632E143E85AE30E945A166B
:102770009B01AC01C701B6010E945A169F7742E047
:102780000E94850A87E591E00E94830A80E00E940A
:102790006F080E94450A87E591E00E94830A81E064
:1027A0000E946F080E94450A87E591E00E94830A13
:1027B00082E00E946F080E94450A87E591E00E942E
:1027C000830A83E00E946F080E94750A68EE73E036
:1027D00080E090E00E94F30240E050E0452B09F4D5
:1027E00074CC0E949003882309F46FCC0E940000EF
:1027F0006CCC6091A3017091A4018091A50190918E
:10280000A6010091D7021091D8022091D9023091EF
:10281000DA02601B710B820B930B0E94F30294CDC2
:1028200084E6811BF101808356CE80914D04909106
:102830004E040C946817052E97FB1EF400940E941A
:10284000321457FD07D00E944D1407FC03D04EF4FC
:102850000C94321450954095309521953F4F4F4F31
:102860005F4F089590958095709561957F4F8F4F3C
:102870009F4F08950E946F14A59F900DB49F900DD7
:10288000A49F800D911D11240895B7FF0C943A1454
:102890000E943A14821B930B0895A1E21A2EAA1BE0
:1028A000BB1BFD010DC0AA1FBB1FEE1FFF1FA21700
:1028B000B307E407F50720F0A21BB30BE40BF50BFD
:1028C000661F771F881F991F1A9469F76095709586
:1028D000809590959B01AC01BD01CF010895A29F09
:1028E000B001B39FC001A39F700D811D1124911DE4
:1028F000B29F700D811D1124911D0895991B79E0DF
:1029000004C0991F961708F0961B881F7A95C9F77F
:1029100080950895EE0FFF1F0590F491E02D099426
:102920005058BB27AA270E94A8140C941B160E947B
:102930000D1638F00E94141620F039F49F3F19F458
:1029400026F40C940A160EF4E095E7FB0C9404169A
:10295000E92F0E942C1658F3BA17620773078407F1
:10296000950720F079F4A6F50C944E160EF4E09538
:102970000B2EBA2FA02D0B01B90190010C01CA0139
:10298000A0011124FF27591B99F0593F50F4503EE4
:1029900068F11A16F040A22F232F342F4427585FD6
:1029A000F3CF469537952795A795F0405395C9F7EE
:1029B0007EF41F16BA0B620B730B840BBAF09150A6
:1029C000A1F0FF0FBB1F661F771F881FC2F70EC045
:1029D000BA0F621F731F841F48F487957795679518
:1029E000B795F7959E3F08F0B0CF9395880F08F004
:1029F0009927EE0F9795879508950E94E01508F4A2
:102A000081E008950E9416150C941B160E9414165E
:102A100058F00E940D1640F029F45F3F29F00C9405
:102A2000041651110C944F160C940A160E942C1681
:102A300068F39923B1F3552391F3951B550BBB27ED
:102A4000AA2762177307840738F09F5F5F4F220F32
:102A5000331F441FAA1FA9F335D00E2E3AF0E0E829
:102A600032D091505040E695001CCAF72BD0FE2F73
:102A700029D0660F771F881FBB1F26173707480707
:102A8000AB07B0E809F0BB0B802DBF01FF279358BF
:102A90005F4F3AF09E3F510578F00C9404160C9469
:102AA0004F165F3FE4F3983ED4F38695779567958C
:102AB000B795F7959F5FC9F7880F911D96958795F4
:102AC00097F90895E1E0660F771F881FBB1F621713
:102AD00073078407BA0720F0621B730B840BBA0BD1
:102AE000EE1F88F7E09508950E94341688F09F57EE
:102AF00098F0B92F9927B751B0F0E1F0660F771F22
:102B0000881F991F1AF0BA95C9F714C0B13091F017
:102B10000E944E16B1E008950C944E16672F782F40
:102B20008827B85F39F0B93FCCF3869577956795DC
:102B3000B395D9F73EF490958095709561957F4F48
:102B40008F4F9F4F0895E89409C097FB3EF49095EE
:102B50008095709561957F4F8F4F9F4F9923A9F076
:102B6000F92F96E9BB279395F69587957795679505
:102B7000B795F111F8CFFAF4BB0F11F460FF1BC049
:102B80006F5F7F4F8F4F9F4F16C0882311F096E9DC
:102B900011C0772321F09EE8872F762F05C066238A
:102BA00071F096E8862F70E060E02AF09A95660F43
:102BB000771F881FDAF7880F9695879597F90895FC
:102BC000990F0008550FAA0BE0E8FEEF161617063E
:102BD000E807F907C0F012161306E407F50798F0A6
:102BE000621B730B840B950B39F40A2661F0232BBF
:102BF000242B252B21F408950A2609F4A140A6953B
:102C00008FEF811D811D089597F99F6780E870E01F
:102C100060E008959FEF80EC089500240A94161652
:102C2000170618060906089500240A9412161306BA
:102C3000140605060895092E0394000C11F4882348
:102C400052F0BB0F40F4BF2B11F460FF04C06F5F64
:102C50007F4F8F4F9F4F089557FD9058440F551F3A
:102C600059F05F3F71F04795880F97FB991F61F00E
:102C70009F3F79F087950895121613061406551F85
:102C8000F2CF4695F1DF08C0161617061806991FF1
:102C9000F1CF86957105610508940895E894BB27E6
:102CA00066277727CB0197F908950E94E01508F46D
:102CB0008FEF08950E946D160C941B160E940D163E
:102CC00038F00E94141620F0952311F00C9404168D
:102CD0000C940A1611240C944F160E942C1670F3B3
:102CE000959FC1F3950F50E0551F629FF001729FB1
:102CF000BB27F00DB11D639FAA27F00DB11DAA1FC0
:102D0000649F6627B00DA11D661F829F2227B00D0C
:102D1000A11D621F739FB00DA11D621F839FA00D97
:102D2000611D221F749F3327A00D611D231F849FE7
:102D3000600D211D822F762F6A2F11249F5750403E
:102D40009AF0F1F088234AF0EE0FFF1FBB1F661FB9
:102D5000771F881F91505040A9F79E3F510580F082
:102D60000C9404160C944F165F3FE4F3983ED4F392
:102D7000869577956795B795F795E7959F5FC1F726
:102D8000FE2B880F911D9695879597F908950E94BF
:102D9000E015880B990B08950F931F93CF93DF9342
:102DA0008230910510F482E090E0E0917604F09199
:102DB000770430E020E0B0E0A0E0309799F42115EE
:102DC000310509F44AC0281B390B24303105D8F5E8
:102DD0008A819B816115710589F1FB01938382834F
:102DE000FE0111C0408151810281138148175907AA
:102DF000E0F04817590799F4109761F012960C9378
:102E0000129713961C933296CF01DF91CF911F91A9
:102E10000F9108950093760410937704F4CF211551
:102E2000310551F04217530738F0A901DB019A012F
:102E3000BD01DF01F801C1CFEF01F9CF9093770415
:102E400080937604CDCFFE01E20FF31F819391931F
:102E50002250310939832883D7CF209174043091CF
:102E60007504232B41F42091030130910401309328
:102E70007504209374042091010130910201211501
:102E8000310541F42DB73EB740910501509106013F
:102E9000241B350BE0917404F0917504E217F307DD
:102EA000A0F42E1B3F0B2817390778F0AC014E5FBA
:102EB0005F4F2417350748F04E0F5F1F509375047E
:102EC00040937404819391939FCFF0E0E0E09CCF16
:102ED000CF93DF930097E9F0FC01329713821282BF
:102EE000A0917604B0917704ED0130E020E01097D6
:102EF000A1F420813181820F931F209174043091BD
:102F000075042817390709F061C0F0937504E09340
:102F10007404DF91CF910895EA01CE17DF07E8F539
:102F20004A815B819E0141155105B1F7E901FB839F
:102F3000EA8349915991C40FD51FEC17FD0761F43D
:102F4000808191810296840F951FE901998388837E
:102F5000828193819B838A83F0E0E0E012968D91D9
:102F60009C9113970097B9F52D913C911197CD0144
:102F70000296820F931F20917404309175042817D4
:102F8000390739F6309751F510927704109276048C
:102F9000B0937504A0937404BCCFD383C2834081E3
:102FA0005181840F951FC817D90761F44E5F5F4F99
:102FB00088819981480F591F518340838A819B8161
:102FC000938382832115310509F0B0CFF093770404
:102FD000E09376049ECFFD01DC01C0CF1382128204
:102FE000D7CF10E0CDE5D0E004C0FE010E948A14E6
:0C2FF0002196CE35D107C9F7F894FFCF29
:102FFC000100007804800000000000C60326035383
:10300C0003130484036203760300000000DD06B0A2
:10301C00060C078606A906960687060D0A006E6141
:10302C006E00696E66006F7666004661696C656459
:10303C0020746F2066696E6420494E41323139200C
:0E304C00636869700053002C0052004B0000B6
:00000001FF
