:100000000C9463000C948B000C948B000C948B006C
:100010000C948B000C948B000C948B000C948B0034
:100020000C948B000C948B000C948B000C9482111C
:100030000C948B000C948B000C948B000C948B0014
:100040000C94C10F0C948B000C9431100C940B1079
:100050000C948B000C948B000C948B000C948B00F4
:100060000C9463100C948B00000000002400270007
:100070002A0000000000250028002B0000000000DE
:1000800023002600290004040404040404040202DA
:100090000202020203030303030301020408102007
:1000A0004080010204081020010204081020000012
:1000B0000008000201000003040700000000000027
:1000C00000003E12491911241FBECFEFD8E0DEBF59
:1000D000CDBF11E0A0E0B1E0E0E1FDE302C005909A
:1000E0000D92AC36B107D9F728E0ACE6B1E001C01B
:1000F0001D92A936B207E1F710E0C2E6D0E004C0D5
:100100002197FE010E946B1BC136D107C9F70E94DF
:10011000F9120C947B1E0C940000CF92DF92EF92A8
:10012000FF92DC01803232E09307BCF5853B9105FC
:1001300014F0A4EBB0E040912E0828E830E0241B36
:10014000310947FD3395220F331F220F331F6901F9
:10015000330FEE08FF0840912F082EE239E084E0CB
:100160004802201931091124032E000C440B550BB1
:100170002C193D094E095F09B7FF02C0B0E0A0E0AD
:100180000E94EF1A24EB30E040E050E00E94C51AD4
:10019000C20ED31EE41EF51ED601E0912D08EC30F0
:1001A00068F520912E0888E890E0821B910927FDD0
:1001B0009395880F991F880F991FA817B9076CF09E
:1001C00020912F088EE299E034E0230280199109F2
:1001D0001124A817B9070CF4CD010297880F991FB5
:1001E0004FB7F8942E2F30E0F901EE0FFF1FE20F0A
:1001F000F31FEE50F84F928381834FBFFF90EF9033
:10020000DF90CF9008958091D7069091D806891BF2
:10021000990B0895089508958FB7F8948091D206A8
:100220008FBF08958CBD9DBD0895833081F028F463
:10023000813099F08230A9F008958730A9F0883094
:10024000C9F08430B1F4809180008F7D03C080912B
:1002500080008F7780938000089584B58F7784BD68
:10026000089584B58F7DFBCF8091B0008F77809308
:10027000B00008958091B0008F7DF9CF1F93CF9388
:10028000DF93282F30E0F901E255FF4F8491F90107
:10029000E656FF4FD491F901EA57FF4FC491CC23A2
:1002A000A9F0162F81110E941501EC2FF0E0EE0F3E
:1002B000FF1FEE58FF4FA591B4918FB7F894EC91C2
:1002C000111108C0D095DE23DC938FBFDF91CF9151
:1002D0001F910895DE2BF8CFCF93DF9390E0FC01C0
:1002E000E656FF4F24918A579F4FFC018491882343
:1002F000D1F090E0880F991FFC01E859FF4FA591BC
:10030000B491FC01EE58FF4FC591D491623071F465
:100310009FB7F8943C91822F809583238C93E8813A
:100320002E2B28839FBFDF91CF9108958FB7F8942C
:10033000EC912E2B2C938FBFF6CFCF93DF9362E0FF
:1003400080913E080E946C0120913E0830E0F90146
:10035000E255FF4F8491F901E656FF4FD491F90120
:10036000EA57FF4FC491CC2379F081110E94150107
:10037000EC2FF0E0EE0FFF1FE458FF4FA591B49172
:10038000EC91ED2381E009F480E08170DF91CF9161
:1003900008951F93CF93DF93182FCEE3D8E061E049
:1003A00089810E946C01612F8981DF91CF911F911A
:1003B0000C943E018230910538F0880F991F880F08
:1003C000991F05970197F1F70895AF92BF92CF92C9
:1003D000DF92EF92FF920F931F93CF93DF93EC0185
:1003E00088819981892B89F06EBD0DB407FEFDCF00
:1003F000BEB48B2DDF91CF911F910F91FF90EF90A5
:10040000DF90CF90BF90AF9008958885998511E0D7
:10041000892B09F010E8AA24A394862F812309F0E0
:10042000A12C062F2C813D814E815F8160E271EA13
:1004300087E090E00E942E1BF22EB02EE12CC22EFF
:10044000D12CFF2019F0C6010E94DA018A85877F2E
:1004500009F042C08D858F3F89F0902F912381E074
:1004600009F480E08A1551F0EF85F8898F89992386
:1004700069F19081892B8083AA24A394E989FA8960
:100480008081998D892B8083FF2019F0C6010E94FD
:10049000DA018E858F3F39F0EB89FC898081988D58
:1004A000892309F0E12AE989FA899081898D80956B
:1004B000892380838E858F3F09F0BE2C888599859E
:1004C000892BB9F5110F1111BCCF93CF9081809575
:1004D00089238083A12CD2CFE989FA898081998DE3
:1004E000892B8083FF2019F0C6010E94DA018D85D7
:1004F0008F3F49F0EF85F8898F89902F9123A9F0DC
:100500009081892B8083E989FA899081898D8095F2
:10051000892380838E858F3F69F2EB89FC898081F6
:10052000988D892339F2E12AC5CF9081809589235E
:10053000E9CF1695C8CF8F929F92AF92BF92CF927C
:10054000DF92EF92FF920F931F93CF93DF93EC0113
:100550004B016A01B22EA32E88819981892B31F03B
:10056000EA81FB81808191810E94120160E08B858C
:100570000E943E017401C80CD91CEC14FD0479F4EE
:10058000EB2CFA2C0E0D1F1D0E151F0579F06FEFC9
:10059000CE010E94E501F70181937F01F5CFF701BC
:1005A00061917F01CE010E94E501E7CF61E08B857B
:1005B0000E943E0181E0DF91CF911F910F91FF904A
:1005C000EF90DF90CF90BF90AF909F908F90089565
:1005D0008F929F92AF92BF92CF92DF92EF92FF9253
:1005E0000F931F93CF93DF93EC01B62EA72E6A01D2
:1005F000490188819981892B31F0EA81FB818081D1
:1006000091810E94120160E08B850E943E0174017D
:10061000080D191DE016F10671F40B2D1A2DC00EF0
:10062000D11EC016D10671F0F80161918F01CE0183
:100630000E94E501F6CFF70161917F01CE010E9492
:10064000E501E8CF61E08B850E943E0181E0DF910A
:10065000CF911F910F91FF90EF90DF90CF90BF90BF
:10066000AF909F908F9008953FB7F8948091CE06F9
:100670009091CF06A091D006B091D10626B5A89B47
:1006800005C02F3F19F00196A11DB11D3FBFBA2F24
:10069000A92F982F8827BC01CD01620F711D811DE4
:1006A000911D42E0660F771F881F991F4A95D1F769
:1006B00008958F929F92AF92BF92CF92DF92EF9266
:1006C000FF926B017C010E9434034B015C01C11459
:1006D000D104E104F104B9F00E94340368197909E6
:1006E0008A099B09683E73408105910580F321E0EA
:1006F000C21AD108E108F10888EE880E83E0981E3E
:10070000A11CB11CE4CFFF90EF90DF90CF90BF9081
:10071000AF909F908F9008952FB7F8946091CA067C
:100720007091CB068091CC069091CD062FBF089595
:10073000AF92BF92CF92DF92EF92FF920F931F93EF
:10074000CF93DF936C017B018B01040F151FEB012D
:100750005E01AE18BF08C017D10759F06991D601E4
:10076000ED91FC910190F081E02DC6010995892B56
:1007700079F7C501DF91CF911F910F91FF90EF9015
:10078000DF90CF90BF90AF900895FC01538D448DC2
:10079000252F30E0842F90E0821B930B541710F02C
:1007A000CF96089501970895FC01918D828D981739
:1007B00061F0A28DAE0FBF2FB11D5D968C91928D11
:1007C0009F5F9F73928F90E008958FEF9FEF089542
:1007D0000F931F930E948C036093510770935207ED
:1007E000809353079093540789E497E00E94D403C1
:1007F00097FF1DC00E948C03009151071091520772
:100800002091530730915407601B710B820B930B9F
:1008100000914D0710914E0720914F0730915007DE
:100820006017710782079307F8F28FEF9FEF1F9110
:100830000F910895FC01918D828D981731F0828D72
:10084000E80FF11D858D90E008958FEF9FEF0895DB
:10085000FC01918D228D892F90E0805C9F4F821B3F
:1008600091098F739927089589E497E00E942804DD
:1008700021E0892B09F420E0822F089580E090E0A8
:10088000892B29F00E94340481110C9400000895F2
:10089000FC01A48DA80FB92FB11DA35ABF4F2C91F5
:1008A000848D90E001968F739927848FA689B789EC
:1008B0002C93A089B1898C91837080648C93938DE3
:1008C000848D981306C00288F389E02D80818F7D86
:1008D00080830895EF92FF920F931F93CF93DF933E
:1008E000EC0181E0888F9B8D8C8D98131AC0E8896C
:1008F000F989808185FF15C09FB7F894EE89FF893B
:100900006083E889F98980818370806480839FBFD8
:1009100081E090E0DF91CF911F910F91FF90EF90D8
:100920000895F62E0B8D10E00F5F1F4F0F731127E8
:10093000E02E8C8D8E110CC00FB607FCFACFE88923
:10094000F989808185FFF5CFCE010E944804F1CF5F
:10095000EB8DEC0FFD2FF11DE35AFF4FF0829FB797
:10096000F8940B8FEA89FB8980818062CFCFCF9387
:10097000DF93EC01888D8823B9F0AA89BB89E889C7
:10098000F9898C9185FD03C0808186FD0DC00FB66D
:1009900007FCF7CF8C9185FFF2CF808185FFEDCFEB
:1009A000CE010E944804E9CFDF91CF9108952091B4
:1009B0009001260F3327331F21323105ECF42091AB
:1009C0001F07FC0190E080E0243069F082E0089588
:1009D000A09190012191AC0140595E4FA40FB52F19
:1009E000B11D2C930196861798F380919001680FA2
:1009F0006093900180E0089581E0089510921F07B0
:100A000081E080931E071092F90661E082E10E9466
:100A10003E0161E083E10E943E01E9EBF0E080816C
:100A20008E7F808380818D7F808388E48093B8006F
:100A300085E48093BC0008951092D8061092D706E2
:100A400010922607109248070E94FE048AE091E067
:100A50009093D6068093D5068BE091E09093D406D0
:100A60008093D3060895CF93DF9391E090936F0125
:100A70008823B9F0C091B800D091BA008091BC0031
:100A80008A7B8093BC0060E082E10E943E0160E0CE
:100A900083E10E943E010E94FE04D093BA00C093FD
:100AA000B800DF91CF9108958F929F92AF92BF923D
:100AB000CF92DF92EF92FF920F931F93CF93DF932A
:100AC000D0914807D13208F0D7C0182FC0914707FE
:100AD0000E9434036B017C0180911F0781116BC060
:100AE00082E080931F0710931E078FEF80931D07EE
:100AF00010921C07D0931B07A7E2B7E0EBEFF6E0DC
:100B000080E0D81391C01092FA068091FA06CC0FBB
:100B1000C82BC093FA068091F906813009F088C08D
:100B20001092F9060E9434036B017C018091FA0651
:100B30008093BB008091210790912207A091230709
:100B4000B0912407892B8A2B8B2BA1F00E943403B0
:100B5000009121071091220720912307309124074B
:100B60006C197D098E099F09061717072807390791
:100B700008F442C08091BC0083FDD8CF85EC8093FF
:100B8000BC000E9434036B017C0180911F078230FE
:100B900009F450C080911D078F3F09F46FC0809108
:100BA0001D07803209F46CC080911D07803309F461
:100BB00069C084E026C08091210790912207A0910E
:100BC0002307B0912407892B8A2B8B2B09F484CF20
:100BD0000E9434038090210790902207A090230761
:100BE000B09024076C197D098E099F098616970617
:100BF000A806B90608F070CF809120070E9433053F
:100C000085E0109226071092480710922507DF9181
:100C1000CF911F910F91FF90EF90DF90CF90BF90F9
:100C2000AF909F908F9008959D9191938F5F69CF22
:100C300085EEA5CF8091210790912207A0912307EF
:100C4000B0912407892B8A2B8B2B09F49ECF0E940D
:100C5000340300912107109122072091230730913E
:100C600024076C197D098E099F09061717072807A5
:100C7000390708F08ACFC0CF81E0C3CF80E0C1CF71
:100C800082E0BFCF83E0BDCF8F929F92BF92CF9281
:100C9000DF92EF92FF920F931F93CF93DF93DA01CE
:100CA000AE0DBF1DEC01EC81FD81EA17FB0710F4CE
:100CB00090E026C0B22E6A014B0189819A81288179
:100CC00031E03093250720934707109226071092B2
:100CD0004807E114F10409F589819A81DC01ED915D
:100CE000FC910280F381E02DA601B4010995C8169C
:100CF000D906F1F68B2D0E94540591E08111D8CFD1
:100D0000892FDF91CF911F910F91FF90EF90DF908E
:100D1000CF90BF909F908F90089501151105E1F23B
:100D2000DC01ED91FC910280F381E02DA701B80177
:100D300009958E159F0509F0BBCFCECFEF92FF929C
:100D40000F931F93CF93DF9300D0CDB7DEB7FC0195
:100D50004787508B618B728B8285882339F144875A
:100D6000452F562F672F7727882311F14387BF011F
:100D7000655F7F4F9681478199834A83A081B181C6
:100D80001097C1F0E184F12C8E010F5F1F4F21E01D
:100D900042E050E0CD010E9444060F900F90DF9199
:100DA000CF911F910F91FF90EF9008954387D8CF77
:100DB0004487DDCFA281B38180E0109771F3248155
:100DC0003581018510E02330310571F44E7F498370
:100DD0009A830F5F1F4F9E012F5F3F4F42E050E00D
:100DE000CD010E94E802D9CF2115310519F49F7772
:100DF0009983F1CF2230310511F49068F9CF213079
:100E0000310549F79F779064F3CFCF93DF93EC01DF
:100E10008B818823A1F0888191E0909325078093AE
:100E20004707109226071092480781E00E94540558
:100E300091E0811190E0892FDF91CF9108950E9478
:100E40001C0581E08B83CE010E940507982F81113C
:100E5000E2CFF1CF8F929F92AF92BF92CF92DF926B
:100E6000EF92FF920F931F93CF93DF93D82FC62F4C
:100E7000142F613208F09CC00E9434036B017C0186
:100E800080911F0781116FC081E080931F0710932D
:100E90001E079FEF90931D0710921C079C0F9093C5
:100EA0001B078093FA068091FA06DD0FD82BD093AA
:100EB000FA068091F906813009F07CC01092F9069B
:100EC0000E9434036B017C018091FA068093BB0081
:100ED0008091210790912207A0912307B0912407C8
:100EE000892B8A2B8B2BA1F00E94340300912107C0
:100EF0001091220720912307309124076C197D0956
:100F00008E099F09061717072807390708F44CC0F0
:100F10008091BC0083FDD8CF85EC8093BC000E94FB
:100F200034036B017C0180911F07813009F444C0B8
:100F300080911C078C1710F4C0911C07EBEFF6E0B2
:100F4000A9EDB6E080E08C1359C08C2FDF91CF91D2
:100F50001F910F91FF90EF90DF90CF90BF90AF90D7
:100F60009F908F9008958091210790912207A091E2
:100F70002307B0912407892B8A2B8B2B09F480CF70
:100F80000E9434038090210790902207A0902307AD
:100F9000B09024076C197D098E099F098616970663
:100FA000A806B90608F06CCF809120070E9433058F
:100FB000C0E0CBCF85EEB1CF809121079091220781
:100FC000A0912307B0912407892B8A2B8B2B09F43E
:100FD000AACF0E943403009121071091220720918B
:100FE0002307309124076C197D098E099F09061784
:100FF00017072807390708F096CFD6CF91919D9310
:101000008F5FA1CF0895E091D8068091D706E817A9
:1010100030F4F0E0E752F94F808190E008958FEFCF
:101020009FEF08959091D8068091D7062FEF3FEF5C
:10103000981748F4E92FF0E0E752F94F208130E0AB
:101040009F5F9093D806C9010895CF92DF92EF92E7
:10105000FF920F931F93CF93DF937C01CB018A0103
:1010600020912507222389F0EB016B01C40ED51EC8
:10107000CC15DD0569F06991D701ED91FC910190E6
:10108000F081E02DC7010995F3CF642F0E94D704AA
:10109000C801DF91CF911F910F91FF90EF90DF90EA
:1010A000CF900895CF93DF931F92CDB7DEB76983BA
:1010B000209125072223F9F020914807203258F08B
:1010C00021E030E0FC013383228390E080E00F9048
:1010D000DF91CF91089580912607E82FF0E0E95D38
:1010E000F84F998190838F5F8093260780934807FC
:1010F00081E090E0ECCF61E0CE0101960E94D70440
:10110000F7CFCF93DF931F92CDB7DEB7698390916E
:10111000490821E02093250790934707109226075E
:1011200010924807682F86EE97E00E94520881309F
:1011300081F441E050E0BE016F5F7F4F86EE97E0A3
:101140000E94250881E00E9454050F90DF91CF9105
:1011500008958FEFFACF80914A08813029F461E039
:1011600082E090E00E9481088091430890914408B9
:10117000982789279827089590E080E00895FF92A6
:101180000F931F93CF93DF93609100018091290803
:101190000E943E0162E370E080E090E00E9459030B
:1011A000D0E0C0E00BE31FE18091A4068C171D0680
:1011B00099F094F0F090270861E08F2D0E943E0195
:1011C000C8010197F1F760E08F2D0E943E01C80130
:1011D0000197F1F72196E8CFDF91CF911F910F9101
:1011E000FF900895AF92BF92CF92DF92FF921F932C
:1011F000CF93DF93F62EDC0114962D913C912417AA
:10120000350738F1642F413208F060E26A01172F88
:101210005C0141E0FC0180810E942A071092D806FF
:101220008093D7068C151D04A1F4CF2DD12FCC0EA1
:10123000DD1ECC16DD06B9F0D50111968D919C917D
:10124000DC01ED91FC910284F385E02D09958993F1
:10125000F0CF80E0DF91CF911F91FF90DF90CF9092
:10126000BF90AF90089581E0F5CFEF92FF920F937A
:101270001F93CF93DF93C4E3D8E08F83F12CE12C4D
:1012800010E000E021E041E050E06BE378E088818D
:1012900099810E94440642E050E06BE378E0888147
:1012A00099810E94F2088F8198859827892798272D
:1012B000DF91CF911F910F91FF90EF900895EF92E2
:1012C000FF920F931F93482F2091370830913808D1
:1012D0008091390890913A08822B932B4230D9F1B2
:1012E0004330E1F14130A1F183609164906821E0E5
:1012F00020933B0890933C0880933D08F12CE12C0F
:1013000010E000E043E050E06BE378E080913408C7
:10131000909135080E94440681E00E94350997FFAC
:10132000FBCF80E00E94350920913608022E02C0D2
:10133000969587950A94E2F7222329F0811528E0F3
:10134000920708F0906F1F910F91FF90EF90089512
:1013500083609165CBCF83609166C8CF83609167CE
:10136000C5CF6F927F928F929F92AF92BF92CF9292
:10137000DF92EF92FF920F931F93CF93DF9300D0F2
:10138000CDB7DEB76C015B014C018BE0880E911C80
:10139000D60116969C91169717968C91179799835C
:1013A0008A836D907C90119761147104D9F119961C
:1013B0004C9150E0F12CE12C10E000E020E0BE0167
:1013C0006F5F7F4FC3010E944406811112C080E00D
:1013D0000F900F90DF91CF911F910F91FF90EF90A1
:1013E000DF90CF90BF90AF909F908F907F906F9045
:1013F000089542E050E0B401C3010E94F20888233E
:1014000039F3F601928591113CC0248530E0322FEA
:101410002227D50111963C932E939385292B2D934A
:101420003C93D6CF1296ED91FC911397309779F2B9
:1014300014962D913C91159719964C9150E02330BC
:10144000310579F4816089839A834F5F5F4F02E0B1
:1014500010E09401BE016F5F7F4FCF010E949B029D
:10146000CECF2115310519F490689983F0CF223041
:10147000310511F49F77F9CF2130310541F7906C98
:10148000F4CF238530E0322F2227D50111963C93EB
:101490002E939485C3CF0F931F93CF93DF93CDB734
:1014A000DEB765970FB6F894DEBF0FBECDBF07E17C
:1014B00018E0F80180819181188A198A1A8A1B8A9A
:1014C0009A8389831C821B8281E08A8722E030E034
:1014D00038872F838B8782E08987BE016C5E7F4FC0
:1014E000CE0101960E94B109F80182838C899D8901
:1014F00023E0969587952A95E1F7880F991F880F25
:10150000991F65960FB6F894DEBF0FBECDBFDF9171
:10151000CF911F910F910895EF92FF920F931F9318
:10152000CF93DF93CDB7DEB7A8970FB6F894DEBFA1
:101530000FBECDBF07E118E0F801808191811BA2A9
:101540001CA21DA21EA29D8B8C8B1F8A1E8AFF24AB
:10155000F394FD8E85E090E09B8F8A8FFE8E82E073
:10156000E82EEC8E4481558166817781CE014496C8
:101570000E949E06F80180819181188A198A1A8A30
:101580001B8A9A8389831C821B82FA8684E090E0FE
:1015900098878F83FB86E986BE01695D7F4FCE0108
:1015A00001960E94B109F80182838FA198A5A8969F
:1015B0000FB6F894DEBF0FBECDBFDF91CF911F9164
:1015C0000F91FF90EF900895DF92EF92FF920F93AB
:1015D0001F93CF93DF93162FD72FC42F90914908D5
:1015E00021E0209325079093470710922607109239
:1015F0004807682F86EE97E00E9452088130A1F5D7
:1016000080E00E945405811127C041E06C2F809139
:1016100049080E942A07D82E1092D8068093D70630
:10162000E12EFD2E10E000E0D0E08091D806D81623
:1016300069F00C171D0754F486EE97E00E9412081B
:101640000F5F1F4FF70181937F01EFCF81E00C17F0
:101650001D0709F480E08195DF91CF911F910F91D3
:10166000FF90EF90DF9008958FEFF6CFFC0101908F
:101670000020E9F73197AF01481B590BBC0189E401
:1016800097E00C9498038F929F92AF92BF920F9322
:101690001F93CF93DF93CDB7DEB7A1970FB6F89422
:1016A000DEBF0FBECDBF19A2423008F44AE08E0162
:1016B0000F5D1F4F842E912CB12CA12CA5019401FC
:1016C0000E942E1BE62FB901CA01EA30F4F4E05D56
:1016D000D801EE938D01232B242B252B79F790E055
:1016E00080E0109719F0CD010E94360BA1960FB63D
:1016F000F894DEBF0FBECDBFDF91CF911F910F9148
:10170000BF90AF909F908F900895E95CE1CFCF920A
:10171000DF92EF92FF92CF93DF936C01990FEE0867
:10172000FF08F7FE19C06DE289E497E00E946A04A1
:10173000EC0166277727CB016C197D098E099F097B
:101740004AE00E94430B8C0F9D1FDF91CF91FF90C9
:10175000EF90DF90CF9008954AE0C701B601DF9186
:10176000CF91FF90EF90DF90CF900C94430BCF93ED
:10177000DF930E94870BEC018BE291E00E94360B15
:101780008C0F9D1FDF91CF9108950C94360B4F92D3
:101790005F926F927F928F929F92AF92BF92CF9201
:1017A000DF92EF92FF920F931F93CF936B017C0117
:1017B000742EAC019B010E94841C882399F08EE258
:1017C00091E0CF911F910F91FF90EF90DF90CF901C
:1017D000BF90AF909F908F907F906F905F904F9051
:1017E0000C94360B46015701E894B7F82FEF3FEF02
:1017F0004FE75FE7C501B4010E94841C81110DC051
:101800002FEF3FEF4FE75FE7C501B4010E948B194F
:1018100018161CF482E391E0D4CF2FEF3FEF4FE78F
:101820005FE4C701B6010E947F1C18161CF486E312
:1018300091E0C7CF2FEF3FEF4FE75FECC701B60155
:101840000E948B1987FDF3CF20E030E0A901C7018A
:10185000B6010E948B1910E000E087FF0AC06DE21C
:1018600089E497E00E946A048C01F7FAF094F7F893
:10187000F094C0E060E070E080E09FE37C1641F00F
:1018800020E030E040E251E40E94DE1BCF5FF6CF63
:10189000A70196010E94721B2B013C010E94501C63
:1018A0004B015C014AE00E94430B7C01E00EF11EFB
:1018B000CC23C1F1C501B4010E9490199B01AC0178
:1018C000C301B2010E94711B4B015C016EE289E40D
:1018D00097E00E946A04E80EF91EC15018F120E05A
:1018E00030E040E251E4C501B4010E94F1192B013E
:1018F0003C010E94501C4B01B12CA12C4AE0C501B7
:10190000B4010E94430BE80EF91EC501B4010E9408
:1019100090199B01AC01C301B2010E94711B4B01E4
:101920005C01DBCFC701CF911F910F91FF90EF902A
:10193000DF90CF90BF90AF909F908F907F906F90EF
:101940005F904F9008952F923F924F925F926F92C7
:101950007F928F929F92AF92BF92CF92DF92EF923F
:10196000FF920F931F93CF93DF93CDB7DEB7A2976C
:101970000FB6F894DEBF0FBECDBF0E949D0181114E
:1019800087C26AE070E080E090E00E9459030E9404
:101990009D018F8781117CC243E063E478E08AE097
:1019A0000E94E40A811174C280914308883409F0CE
:1019B0006FC280914408843309F06AC2809145085F
:1019C000833309F065C20E948C032B013C015C014A
:1019D0004B010E949D01811122C00E948C03681955
:1019E00079098A099B09693C71058105910560F0B7
:1019F000A8950E948C034B015C012F8531E02327C1
:101A00002F87822F0E94C9010E948C0364197509D7
:101A1000860997096D32714081059105D0F264E61F
:101A200070E080E090E00E9459030E948C032B013B
:101A30003C010E948C036B877C878D879E878FEF8C
:101A40009FE798878F83A0E0B0E8BA87A987EFEF78
:101A5000FFE7FC83EB8320E030E83E832D834FEFEC
:101A60005FE75A834983212C80E8382E0E948C033B
:101A7000681979098A099B09693C710581059105F5
:101A800060F0A8950E948C034B015C015F8581E0AA
:101A900058275F87852F0E94C9010E948C03641913
:101AA0007509860997096B3071058105910508F460
:101AB0004DC0A8950E94A30C46E063E478E083E063
:101AC0000E94E40A81111EC080914A08813029F4E5
:101AD00061E082E090E00E9481080091430810914B
:101AE0004408102701271027C0904708D0904808C5
:101AF000DC24CD24DC24E0904508F0904608FE2448
:101B0000EF24FE24A981BA810A171B070CF4ADC18A
:101B1000201631060CF41801EB81FC81CE16DF068D
:101B20000CF4A6C12D813E812C153D0514F4DE82F6
:101B3000CD824F815885E416F5060CF49CC1898549
:101B40009A858E159F0514F4FA86E9860E948C0307
:101B50002B853C854D855E85621B730B840B950B35
:101B60006D3271408105910520F40E949D01811123
:101B70007DCF80E00E94C901B101032C000C880BCD
:101B8000990B0E9492194B015C0149815A81BA015B
:101B9000550F880B990B0E9492196B877C878D8754
:101BA0009E879B01AC01C501B4010E94721B905835
:101BB00020E030E040E05FE30E94F1196F87788B0E
:101BC000898B9A8B60934B0870934C0880934D08D7
:101BD00090934E08AD81BE81BD01BB0F880B990B60
:101BE0000E9492196B017C01EB81FC81BF01FF0F08
:101BF000880B990B0E9492196B8B7C8B8D8B9E8B23
:101C00009B01AC01C701B6010E94721B905820E0F5
:101C100030E040E05FE30E94F1196F8B788F898F8D
:101C20009A8F60934F087093500880935108909357
:101C3000520829853A85B901330F880B990B0E9408
:101C400092192B013C014F815885BA01550F880B21
:101C5000990B0E9492196B8F7C8F8D8F9E8F9B01A9
:101C6000AC01C301B2010E94721B905820E030E029
:101C700040E05FE30E94F1196F8F78A389A39AA3D4
:101C800060935308709354088093550890935608B6
:101C900080E090E0A0E8BFE3809357089093580855
:101CA000A0935908B0935A082B853C854D855E85D5
:101CB000C501B4010E94711B4B015C012B893C8959
:101CC0004D895E89C701B6010E94711BA50194016F
:101CD0000E94DE1B6B017C01C0925B08D0925C0805
:101CE000E0925D08F0925E082B8D3C8D4D8D5E8DEF
:101CF000C301B2010E94711BA50194010E94DE1B69
:101D00004B015C0180925F0890926008A09261088C
:101D1000B092620889819A81281A390A37FE03C075
:101D20003194219431088D819E81AB81BC818A1BC5
:101D30009B0B97FF03C091958195910929853A8561
:101D4000EF81F8852E1B3F0B37FF03C0319521959E
:101D50003109821593050CF494C0221533050CF457
:101D60008DC081E0809363082F89388D498D5A8D0D
:101D70006F85788989899A890E94721B2F8D38A175
:101D800049A15AA10E94721B20E030E040E85FE3C5
:101D90000E94721BA70196010E94721BA50194016B
:101DA0000E94721B6B017C016091630870E090E0FF
:101DB00080E00E9492199B01AC01C701B6010E940C
:101DC000721B20E030E04AE253E40E94721B0E9442
:101DD000501C609364080BE418E01A821982D80141
:101DE0006D918D0189819A810E94B71AE981FA81EA
:101DF0003196FA83E9837A9791F781E080934208DC
:101E00000E94C9010E948C036B017C010E949D010C
:101E100081110CC0A8950E948C036C197D098E0954
:101E20009F096B3071058105910580F3A89564E6E3
:101E300070E080E090E0A2960FB6F894DEBF0FBE8F
:101E4000CDBFDF91CF911F910F91FF90EF90DF9069
:101E5000CF90BF90AF909F908F907F906F905F904A
:101E60004F903F902F900C9459031A83098354CEBE
:101E7000DC82CB825ECEF886EF8268CE28163906E9
:101E80002CF02817390714F082E06CCF83E06ACF7A
:101E9000A2960FB6F894DEBF0FBECDBFDF91CF91F3
:101EA0001F910F91FF90EF90DF90CF90BF90AF9078
:101EB0009F908F907F906F905F904F903F902F906A
:101EC00008950F931F93CF93DF93EC01888199813D
:101ED000009759F02A813B812617370730F081E0BF
:101EE000DF91CF911F910F9108958B016F5F7F4F0D
:101EF0000E94AE1D009759F0998388831B830A8343
:101F00002C813D81232B59F7FC011082E8CF80E022
:101F1000E7CF85ED8093BC00809121079091220747
:101F2000A0912307B09124070796A11DB11D23E0BE
:101F3000B695A795979587952A95D1F72091BC00DE
:101F400024FD03C010921F0708954091210750916E
:101F500022076091230770912407452B462B472BBE
:101F600069F30097A105B10541F025E32A95F1F742
:101F700000000197A109B109E1CF809120070C94DD
:101F800033051F920F920FB60F9211242F933F9398
:101F90008F939F93AF93BF938091CA069091CB0686
:101FA000A091CC06B091CD063091C90623E0230F55
:101FB0002D3758F50196A11DB11D2093C9068093B8
:101FC000CA069093CB06A093CC06B093CD06809121
:101FD000CE069091CF06A091D006B091D106019681
:101FE000A11DB11D8093CE069093CF06A093D0067D
:101FF000B093D106BF91AF919F918F913F912F9157
:102000000F900FBE0F901F90189526E8230F029691
:10201000A11DB11DD2CF1F920F920FB60F921124A6
:102020002F933F934F935F936F937F938F939F93E0
:10203000AF93BF93EF93FF9389E497E00E94480426
:10204000FF91EF91BF91AF919F918F917F916F9190
:102050005F914F913F912F910F900FBE0F901F9066
:1020600018951F920F920FB60F9211242F938F93F2
:102070009F93EF93FF93E0915907F0915A07808166
:10208000E0915F07F091600782FD1BC09081809115
:1020900062078F5F8F7320916307821741F0E09191
:1020A0006207F0E0E75BF84F958F80936207FF913E
:1020B000EF919F918F912F910F900FBE0F901F90D6
:1020C00018958081F4CF1F920F920FB60F921124B2
:1020D0002F933F934F935F936F937F938F939F9330
:1020E000AF93BF93EF93FF938091B900887F8036C1
:1020F00009F44AC0F0F5883209F4A7C018F5803118
:1021000009F49BC0B8F4882309F4F9C0883009F4B5
:1021100094C0FF91EF91BF91AF919F918F917F916B
:102120006F915F914F913F912F910F900FBE0F9044
:102130001F901895883109F488C0803251F7809338
:102140001D0714C0803409F49DC040F48033B9F3F6
:102150008833F9F680931D0785ECB0C0803509F40B
:1021600085C0883509F496C0883499F60E94890F95
:10217000D0CF883909F48CC038F5883729F050F46D
:10218000883611F0803729F683E080931F0710927C
:10219000B20157C0883809F47BC0803919F0803803
:1021A00009F0B7CF8091B201803208F071C0E091A0
:1021B000B20181E08E0F8093B2018091BB00F0E00C
:1021C000EE56FE4F80833DC0803B39F0E0F4803A0C
:1021D00009F479C0883A09F09CCF84E080931F0706
:1021E0001092910110929001E091D506F091D606DF
:1021F00009958091900181110FC081E08093900139
:102200001092700109C0803C09F4A6CF883C09F403
:10221000A3CF883B09F07DCFE091910181E08E0F43
:1022200080939101F0E0E059FE4F80818093BB00E4
:10223000909191018091900129C08091FA0680933C
:10224000BB0085EC8093BC0064CF90911C0780910B
:102250001B07981758F5E0911C0781E08E0F8093BB
:102260001C07F0E0E550F94F8081E9CFE0911C07B1
:1022700081E08E0F80931C078091BB00F0E0E55059
:10228000F94F808390911C0780911B079817C8F223
:1022900085E8D8CFE0911C0781E08E0F80931C0762
:1022A0008091BB00F0E0E550F94F808380911E07DC
:1022B00081115CCF81E08093F90684EA8093BC00B1
:1022C00010921F0726CF85EC8093BC0010921F0749
:1022D0008091B201803230F4E091B201F0E0EE562C
:1022E000FE4F10826091B20170E0E091D306F09150
:1022F000D40682E991E009951092B2010ACF1092BA
:102300001D0734CF1F920F920FB60F9211242F93F7
:102310003F934F935F936F937F938F939F93AF936D
:10232000BF93CF93DF93EF93FF9380916E01C091A2
:102330001608D0E087FF24C0109285001092840018
:1023400080916E018F5F80936E0180916E01082EE7
:10235000000C990B8C179D0724F480916E018C3032
:10236000C4F18091840090918500049680349C494A
:1023700008F47AC08091840090918500049676C01C
:1023800080916E01082E000C990B8C179D07C4F6E6
:10239000E0916E018E2FEE0F990BFC01EE0FFF1FE7
:1023A000E80FF91FEE50F84F808187FFC9CFE09109
:1023B0006E018E2FEE0F990BFC01EE0FFF1FE80F41
:1023C000F91FEE50F84F808160E08F770E943E0148
:1023D000B7CF2091840030918500E0916E018E2F5F
:1023E000EE0F990BFC01EE0FFF1FE80FF91FEE50E7
:1023F000F84F81819281820F931F9093890080937F
:102400008800E0916E018E2FEE0F990BFC01EE0F0C
:10241000FF1FE80FF91FEE50F84F808187FF11C0B2
:10242000E0916E018E2FEE0F990BFC01EE0FFF1F56
:10243000E80FF91FEE50F84F808161E08F770E941E
:102440003E01FF91EF91DF91CF91BF91AF919F91AD
:102450008F917F916F915F914F913F912F910F904D
:102460000FBE0F901F90189580E49CE9909389000F
:10247000809388008FEF80936E01E3CF10924C071A
:1024800010924B0788EE93E0A0E0B0E080934D07F8
:1024900090934E07A0934F07B09350072BE031E085
:1024A00030934A072093490725EC30E030935607D4
:1024B0002093550724EC30E03093580720935707BA
:1024C00020EC30E030935A072093590721EC30E09C
:1024D00030935C0720935B0722EC30E030935E077B
:1024E00020935D0726EC30E03093600720935F0770
:1024F00010926207109263071092640710926507AA
:102500001092E9071092E8078093EA079093EB078F
:10251000A093EC07B093ED078DE191E09093E7076E
:102520008093E60788E080933E0882E080933F082E
:1025300084E0809340088EE180934908109242081D
:1025400010923608109238081092370880E890E010
:1025500090933A08809339088CE0809330088DE09E
:102560008093310883E080933208809116088C3084
:10257000E0F591E0980F9093160880932D0890E075
:10258000FC01EE0FFF1FE80FF91FEE50F84F88EB2C
:102590009BE0928381838DE090E090932C08809360
:1025A0002B088BE090E090932A08809329088AE01A
:1025B00090E09093280880932708109218081092B2
:1025C000170880E480931A0810921F0810922008C0
:1025D00010922108109222081092230810922408C9
:1025E000109225081092260808958FEF80932D08E9
:1025F000D2CFCF93DF93CDB7DEB7C154D1090FB699
:10260000F894DEBF0FBECDBF789484B5826084BDE0
:1026100084B5816084BD85B5826085BD85B58160E6
:1026200085BD80916E00816080936E001092810064
:10263000809181008260809381008091810081601F
:1026400080938100809180008160809380008091E0
:10265000B10084608093B1008091B000816080936C
:10266000B00080917A00846080937A0080917A0033
:10267000826080937A0080917A00816080937A00F2
:1026800080917A00806880937A001092C100109146
:102690002B0880912D088C3008F052C061E0812F0A
:1026A0000E946C0180912D08282F30E0F901EE0F77
:1026B000FF1FE20FF31FEE50F84F1F7790819078C5
:1026C000912B908310922E0810922F082CE0622FED
:1026D0000E945F1B829FB001112430E020E0AB011B
:1026E000420F531FFA01EE0FFF1FE40FF51FEE50CC
:1026F000F84F908197FD16C02F5F3F4F2C3031056A
:1027000071F781110FC01092800082E080938100E8
:102710001092850010928400B19A80916F008260BF
:1027200080936F00E0912D088E2F90E0FC01EE0F5A
:10273000FF1FE80FF91FEE50F84F808180688083FB
:1027400061E0809129080E946C0161E08091270876
:102750000E946C01E0915907F0915A0782E0808352
:10276000E0915507F09156071082E0915707F091DC
:1027700058078FEC808310926107E0915D07F0911C
:102780005E0786E08083E0915B07F0915C078081C3
:1027900080618083E0915B07F0915C0780818860B5
:1027A0008083E0915B07F0915C0780818068808383
:1027B000E0915B07F0915C0780818F7D8083809141
:1027C000170890911808892BA9F486E090E00E94E0
:1027D000891CFC0180911A08808386EE97E0928321
:1027E0008183138280E290E095838483F0931808BC
:1027F000E0931708E0901708F09018080E941C0555
:1028000011E0F7011383C7010E94050781110FC072
:102810008AE391E00E94360B8BE291E00E94360B36
:102820006AE070E080E090E00E945903F9CF80E018
:1028300090E1A0E0B0E080931B0890931C08A09367
:102840001D08B0931E088AE090E0A0E0B0E08093FD
:102850001F0890932008A0932108B093220880E0DD
:1028600090E0A0E0B0E48093230890932408A09324
:102870002508B093260880911708909118081AA689
:102880001BA61CA61DA69C8F8B8F1E8E1D8E1CA3A7
:1028900085E090E09AA389A31DA302E00BA340E08A
:1028A00050E160E070E0CE014B960E949E06809160
:1028B000170890911808188A198A1A8A1B8A9A830D
:1028C00089831C821B821A8718861F821B870987AF
:1028D0004FE959E360E070E0CE0101960E949E0648
:1028E000809319080E941C0581E00E94C90160E7DD
:1028F00090E080E00E94810860E281E090E00E9428
:10290000810810934A0861E082E090E00E9481080B
:10291000CE0101967C0110E000E0C8010E94AF1AD0
:10292000F70181937F010F5F1F4F0A311105A9F74E
:102930002D813E814F81588569817A818B819C816F
:102940000E94721B29853A854B855C850E94721B0B
:102950002D853E854F8558890E94721B29893A89A9
:102960004B895C890E94721B2D893E894F89588D45
:102970000E94721B6B017C01698D70E090E080E029
:102980000E9492199B01AC01C701B6010E94721B03
:1029900020E030E04AE253E40E94721B0E94501C87
:1029A0008A8D681384C08AE1FE013196ABE4B8E0F9
:1029B00001900D928A95E1F781E0809342080E9490
:1029C000A30C86E090E00E94891C8C0188E4F80149
:1029D000808386EE97E092838183138280E290E089
:1029E0009583848310933508009334080E941C0556
:1029F00081E0F8018383C8010E9405078AEA809379
:102A0000BD0680EA8093BE0686E98093BF068CE807
:102A10008093C0068AEA90E00E948D002BE3622E2C
:102A20002FE1722E39E6C32E89E497E00E94280434
:102A3000181619060CF05BC01A8219821C821B82C0
:102A40001E821D8270E060E0CE0101960E94610F3F
:102A500029813A8181112EC02115310519F0C90152
:102A60000E94251D1A8219821E821D821C821B82D1
:102A70000E94E80397FD26C08B8F1C8E0D811E815E
:102A80000F5F1F4FB801CE0101960E94610F88238E
:102A900079F329813A818D819E81BE01655E7F4FE8
:102AA000820F931F0E94741E1E830D83E1CF10922C
:102AB000420885CF1E821D826DE271E0C9010E942D
:102AC000741ED6CF89819A81009709F4C0C30E94F1
:102AD0004F196130710509F0BEC37093C806609349
:102AE000C70689819A81009711F00E94251D809167
:102AF000C7069091C806019709F09CC30091C506CE
:102B00001091C6060115110531F460E177E280E00D
:102B100090E00E9459030E948C034B015C0180925B
:102B2000C1069092C206A092C306B092C406D80114
:102B300020EA36E841E050E00E94EF1A8616970638
:102B4000A806B90608F48EC21016110604F51091F5
:102B500000018091BD0691E0111190E09093000179
:102B600090E00E948D0060ED77E080E090E00E94B0
:102B700059030E94BF0860ED77E080E090E00E947A
:102B8000590381E0111101C080E0809300018DEBB9
:102B900096E09FA78EA7EDEAF6E02296FFAFEEAF94
:102BA000229705EA16E07F01D12CEEA5FFA58191C1
:102BB000FFA7EEA790E00E948D0060ED77E080E037
:102BC00090E00E94590360910001809129080E94C1
:102BD0003E0162E370E080E090E00E9459038BEFD9
:102BE00094E099AF88AFE9E2F4E0FFABEEAB87E5A4
:102BF00093E09DAB8CABE5E8F2E0FBABEAAB83EB9B
:102C000091E099AB88AB4C01FDAFECAF87E593E069
:102C10009FAF8EAFE9E2F4E0FBAFEAAF9BEFA92EE6
:102C200094E0B92E61E0809127080E943E01C30123
:102C30000197F1F70E948C0ABC01990F880B990B40
:102C40000E9492191B012C0160911F0870912008AD
:102C500080912108909122080E9490199B01AC015B
:102C6000C201B1010E94DE1B9F7760939F067093A3
:102C7000A0068093A1069093A2060E944B0ABC0175
:102C8000990F880B990B0E9492192FE632E143E8C5
:102C90005AE30E94F11920919F063091A0064091BD
:102CA000A1065091A2060E94F1199F77F501619348
:102CB0007193819391935F0180E00E945F09EAAD77
:102CC000FBAD81939193FBAFEAAF81E00E945F0976
:102CD000EEADFFAD81939193FFAFEEAF82E00E9426
:102CE0005F09ECADFDAD81939193FDAFECAF83E057
:102CF0000E945F09F401819391934F0160E08091FC
:102D000027080E943E01C3010197F1F78FE996E081
:102D10008A159B0509F086CF8BEFA82E84E0B82E8C
:102D2000212C312C210184E691E00E94C50B86E61E
:102D300091E00E94C50B4AE0C201B1010E94430B21
:102D400086E691E00E94C50BF50161917191819138
:102D500091915F0142E00E94C70B86E691E00E94DC
:102D6000C50BEEA9FFA961917191FFABEEAB90E0AD
:102D700080E04AE00E94430B86E691E00E94C50B8A
:102D8000ECA9FDA961917191FDABECAB90E080E005
:102D90004AE00E94430B86E691E00E94C50BEAA937
:102DA000FBA961917191FBABEAAB90E080E04AE056
:102DB0000E94430B86E691E00E94C50BE8A9F9A9A1
:102DC00061917191F9ABE8AB90E080E04AE00E943C
:102DD000430B86E691E00E94C50B90E080E00E94E4
:102DE000870B86E691E00E94C50B90E080E00E9490
:102DF000870B86E691E00E94C50B90E080E00E9480
:102E0000870B86E691E00E94C50B90E080E00E946F
:102E1000870B86E691E00E94C50B90E080E00E945F
:102E2000B70BFFEF2F1A3F0A4F0A5F0A89E62816F1
:102E300031044104510409F076CF80919B069091B2
:102E40009C06A0919D06B0919E06F7018083918318
:102E5000A283B38388E6F8018083B12C9D2D917005
:102E6000A92EE8ADF9AD2190319041905190F9AF84
:102E7000E8AFF7012081318142815381C201B10164
:102E80000E947F1C18164CF4F70120823182428286
:102E90005382A110F0C1F801B082B394F9E6BF12D9
:102EA000E0CF60ED77E080E090E00E94590381E0A0
:102EB00090910001911180E080930001D39484E00F
:102EC000E80EF11C0F5F1F4F94E0D9126ECE5090A8
:102ED000B906D090BA06E090BB06F090BC063090E0
:102EE000A8064090C00601E010E02296EEADFFADCE
:102EF000229781909190A190B1902296FFAFEEAF72
:102F00002297252D3D2DA701C501B4010E947F1CEC
:102F100018166CF4C8010197FC01EB55F94F30808D
:102F20008354994FFC014080582CD92C75010F5FB8
:102F30001F4F05301105C9F6852D9D2DD7018093B2
:102F4000A9069093AA06A093AB06B093AC06309264
:102F5000A4064092A30688E691E00E94C50B86E68F
:102F600091E00E94C50B6091A9067091AA0680911C
:102F7000AB069091AC0642E00E94C70B86E691E05A
:102F80000E94C50B6091A40670E090E080E04AE0EA
:102F90000E94430B86E691E00E94C50B6091A30658
:102FA00070E090E080E04AE00E94430B86E691E00A
:102FB0000E94C50B90E080E00E94870B86E691E0BE
:102FC0000E94C50B90E080E00E94870B86E691E0AE
:102FD0000E94C50B90E080E00E94870B86E691E09E
:102FE0000E94C50B90E080E00E94870B86E691E08E
:102FF0000E94C50B90E080E00E94870B86E691E07E
:103000000E94C50B90E080E00E94870B86E691E06D
:103010000E94C50B90E080E00E94870B86E691E05D
:103020000E94C50B90E080E00E94B70B8091A30640
:1030300090E00E948D0060ED77E080E090E00E94DB
:1030400059030E94BF0860ED77E080E090E00E94A5
:1030500059038091C5069091C60601969093C606C5
:103060008093C5068AE691E00E94C50B86E691E052
:103070000E94C50B6091C1067091C2068091C30683
:103080009091C4064AE00E94430B86E691E00E94BC
:10309000C50B0E944B0ABC01990F880B990B0E942B
:1030A00092192FE632E143E85AE30E94F11942E017
:1030B0000E94C70B86E691E00E94C50B0E948C0A15
:1030C000BC01990F880B990B0E9492194B015C016E
:1030D00060911F087091200880912108909122082A
:1030E0000E9490199B01AC01C501B4010E94DE1B36
:1030F0009F7742E00E94C70B86E691E00E94C50BD5
:103100000E944B0A8C010E948C0ABC01990F880B0B
:10311000990B0E9492194B015C0160911F087091FC
:10312000200880912108909122080E9490199B010B
:10313000AC01C501B4010E94DE1B4B015C01B8016A
:10314000110F880B990B0E9492192FE632E143E888
:103150005AE30E94F1199B01AC01C501B4010E9420
:10316000F1199F7742E00E94C70B86E691E00E942A
:10317000C50B80E00E945F090E94870B86E691E004
:103180000E94C50B81E00E945F090E94870B86E6C2
:1031900091E00E94C50B82E00E945F090E94870BAC
:1031A00086E691E00E94C50B83E00E945F090E94C1
:1031B000870B86E691E00E94C50B0E94A30C42E0BB
:1031C00063E478E083E00E94E40A882309F458C0AD
:1031D000082E000C990B0E94870B86E691E00E9456
:1031E000C50B0E94A30C42E063E478E087E00E94F4
:1031F000E40A882309F447C0082E000C990B0E94AA
:10320000870B86E691E00E94C50B0E94A30C42E06A
:1032100063E478E085E00E94E40A8823B9F1082E8F
:10322000000C990B0E94B70B68EE73E080E090E011
:103230000E94590380E090E0892B09F4F5CB0E94AD
:103240003404882309F4F0CB0E940000EDCB60E049
:1032500070E0CB013ECC672B09F043CC1092C8063E
:103260001092C70685E591E00E94360B8BE291E053
:103270000E94360B36CC8C2D8B19F80180830DCE35
:103280000E94AB08A8CF0E94AB08B9CF0E94AB0840
:10329000C9CF80911708909118080C94251D1F9391
:1032A000FC0199278827BC01E89411911032E9F3B9
:1032B000193010F01E30C8F31B3251F01D3249F4A2
:1032C000689406C00E947619610F711D811D911DC1
:1032D000119110531A30B0F33EF49095809570958B
:1032E00061957F4F8F4F9F4F1F910895592F482F02
:1032F000372F262F660F771F881F991F660F771F9E
:10330000881F991F620F731F841F951F660F771FF9
:10331000881F991F08950E94CD1908F481E008952F
:10332000E89409C097FB3EF490958095709561955F
:103330007F4F8F4F9F4F9923A9F0F92F96E9BB2715
:103340009395F695879577956795B795F111F8CF91
:10335000FAF4BB0F11F460FF1BC06F5F7F4F8F4FFC
:103360009F4F16C0882311F096E911C0772321F0F2
:103370009EE8872F762F05C0662371F096E8862F8A
:1033800070E060E02AF09A95660F771F881FDAF7E1
:10339000880F9695879597F90895990F0008550F0E
:1033A000AA0BE0E8FEEF16161706E807F907C0F0CB
:1033B00012161306E407F50798F0621B730B840BD3
:1033C000950B39F40A2661F0232B242B252B21F4AD
:1033D00008950A2609F4A140A6958FEF811D811D4D
:1033E00008950E94041A0C94751A0E94671A38F006
:1033F0000E946E1A20F0952311F00C945E1A0C9422
:10340000641A11240C94A91A0E94861A70F3959FCD
:10341000C1F3950F50E0551F629FF001729FBB27CB
:10342000F00DB11D639FAA27F00DB11DAA1F649F67
:103430006627B00DA11D661F829F2227B00DA11D1A
:10344000621F739FB00DA11D621F839FA00D611DA0
:10345000221F749F3327A00D611D231F849F600DC1
:10346000211D822F762F6A2F11249F5750409AF0EA
:10347000F1F088234AF0EE0FFF1FBB1F661F771F76
:10348000881F91505040A9F79E3F510580F00C9441
:103490005E1A0C94A91A5F3FE4F3983ED4F3869524
:1034A00077956795B795F795E7959F5FC1F7FE2BE1
:1034B000880F911D9695879597F9089597F99F67BD
:1034C00080E870E060E008959FEF80EC08950024AC
:1034D0000A941616170618060906089500240A9479
:1034E00012161306140605060895092E0394000CFF
:1034F00011F4882352F0BB0F40F4BF2B11F460FF8E
:1035000004C06F5F7F4F8F4F9F4F089557FD9058B6
:10351000440F551F59F05F3F71F04795880F97FB97
:10352000991F61F09F3F79F0879508951216130651
:103530001406551FF2CF4695F1DF08C01616170680
:103540001806991FF1CF86957105610508940895B5
:10355000E894BB2766277727CB0197F90895F99957
:10356000FECF92BD81BDF89A992780B50895262F88
:10357000F999FECF1FBA92BD81BD20BD0FB6F89458
:10358000FA9AF99A0FBE01960895052E97FB1EF43C
:1035900000940E94DC1A57FD07D00E942E1B07FCE6
:1035A00003D04EF40C94DC1A50954095309521953B
:1035B0003F4F4F4F5F4F089590958095709561955F
:1035C0007F4F8F4F9F4F08950E94501BA59F900DD6
:1035D000B49F900DA49F800D911D11240895B7FFF5
:1035E0000C94E41A0E94E41A821B930B08952F9204
:1035F0003F924F925F926F927F928F929F92AF9283
:10360000BF92CF92DF92EF92FF920F931F93CF93CF
:10361000DF93CDB7DEB7CA1BDB0B0FB6F894DEBF66
:103620000FBECDBF09942A88398848885F846E848C
:103630007D848C849B84AA84B984C884DF80EE80D6
:10364000FD800C811B81AA81B981CE0FD11D0FB6DF
:10365000F894DEBF0FBECDBFED010895A1E21A2E92
:10366000AA1BBB1BFD010DC0AA1FBB1FEE1FFF1F26
:10367000A217B307E407F50720F0A21BB30BE40B76
:10368000F50B661F771F881F991F1A9469F76095BD
:103690007095809590959B01AC01BD01CF01089577
:1036A000A29FB001B39FC001A39F700D811D112483
:1036B000911DB29F700D811D1124911D0895991BBC
:1036C00079E004C0991F961708F0961B881F7A9519
:1036D000C9F780950895EE0FFF1F0590F491E02D36
:1036E00009945058BB27AA270E94891B0C94751A6D
:1036F0000E94671A38F00E946E1A20F039F49F3F3A
:1037000019F426F40C94641A0EF4E095E7FB0C947B
:103710005E1AE92F0E94861A58F3BA1762077307D8
:103720008407950720F079F4A6F50C94A81A0EF4F6
:10373000E0950B2EBA2FA02D0B01B90190010C01C1
:10374000CA01A0011124FF27591B99F0593F50F4D9
:10375000503E68F11A16F040A22F232F342F442731
:10376000585FF3CF469537952795A795F040539529
:10377000C9F77EF41F16BA0B620B730B840BBAF0F9
:103780009150A1F0FF0FBB1F661F771F881FC2F764
:103790000EC0BA0F621F731F841F48F48795779578
:1037A0006795B795F7959E3F08F0B0CF9395880F32
:1037B00008F09927EE0F9795879508950E94F21BC0
:1037C0000C94751A0E946E1A58F00E94671A40F005
:1037D00029F45F3F29F00C945E1A51110C94A91A38
:1037E0000C94641A0E94861A68F39923B1F3552346
:1037F00091F3951B550BBB27AA2762177307840704
:1038000038F09F5F5F4F220F331F441FAA1FA9F399
:1038100035D00E2E3AF0E0E832D091505040E69587
:10382000001CCAF72BD0FE2F29D0660F771F881FE8
:10383000BB1F261737074807AB07B0E809F0BB0BDB
:10384000802DBF01FF2793585F4F3AF09E3F5105EF
:1038500078F00C945E1A0C94A91A5F3FE4F3983E3A
:10386000D4F3869577956795B795F7959F5FC9F7D8
:10387000880F911D9695879597F90895E1E0660F59
:10388000771F881FBB1F621773078407BA0720F0D2
:10389000621B730B840BBA0BEE1F88F7E09508953B
:1038A0000E948E1A88F09F5798F0B92F9927B75128
:1038B000B0F0E1F0660F771F881F991F1AF0BA95D4
:1038C000C9F714C0B13091F00E94A81AB1E0089570
:1038D0000C94A81A672F782F8827B85F39F0B93F62
:1038E000CCF3869577956795B395D9F73EF4909587
:1038F0008095709561957F4F8F4F9F4F08950E94DF
:10390000CD1908F48FEF08950E94CD19880B990BFB
:1039100008950F931F93CF93DF938230910510F496
:1039200082E090E0E0916708F091680830E020E0E4
:10393000B0E0A0E0309799F42115310509F44AC0B0
:10394000281B390B24303105D8F58A819B816115FC
:10395000710589F1FB0193838283FE0111C04081CF
:1039600051810281138148175907E0F04817590720
:1039700099F4109761F012960C93129713961C937A
:103980003296CF01DF91CF911F910F91089500934F
:10399000670810936808F4CF2115310551F04217DC
:1039A000530738F0A901DB019A01BD01DF01F801DD
:1039B000C1CFEF01F9CF9093680880936708CDCF0E
:1039C000FE01E20FF31F8193919322503109398355
:1039D0002883D7CF2091650830916608232B41F4C6
:1039E000209103013091040130936608209365080B
:1039F00020910101309102012115310541F42DB7CB
:103A00003EB74091050150910601241B350BE09112
:103A10006508F0916608E217F307A0F42E1B3F0B30
:103A20002817390778F0AC014E5F5F4F2417350730
:103A300048F04E0F5F1F50936608409365088193CE
:103A400091939FCFF0E0E0E09CCFCF93DF9300977E
:103A5000E9F0FC01329713821282A0916708B091BD
:103A60006808ED0130E020E01097A1F42081318159
:103A7000820F931F20916508309166082817390737
:103A800009F061C0F0936608E0936508DF91CF917B
:103A90000895EA01CE17DF07E8F54A815B819E01B0
:103AA00041155105B1F7E901FB83EA834991599129
:103AB000C40FD51FEC17FD0761F480819181029638
:103AC000840F951FE90199838883828193819B8369
:103AD0008A83F0E0E0E012968D919C911397009715
:103AE000B9F52D913C911197CD010296820F931F4C
:103AF00020916508309166082817390739F6309704
:103B000051F51092680810926708B0936608A09368
:103B10006508BCCFD383C28340815181840F951F38
:103B2000C817D90761F44E5F5F4F88819981480FAC
:103B3000591F518340838A819B81938382832115FE
:103B4000310509F0B0CFF0936808E09367089ECF85
:103B5000FD01DC01C0CF13821282D7CFB0E0A0E01C
:103B6000E4EBFDE10C94F91A8C01009751F4CB01C0
:103B70000E94891C8C01C801CDB7DEB7E0E10C942E
:103B8000151BFC01E60FF71F9C0122503109E217BB
:103B9000F30708F49DC0D901CD91DC911197C617A8
:103BA000D70798F0C530D10530F3CE0104978617BA
:103BB000970708F3C61BD70B2297C193D1936D9338
:103BC0007C93CF010E94251DD6CF5B01AC1ABD0AA4
:103BD0004C018C0E9D1EA0916708B0916808512C75
:103BE000412CF12CE12C109731F5809165089091D2
:103BF00066088815990509F05CC04616570608F056
:103C000058C08091010190910201009741F48DB755
:103C10009EB74091050150910601841B950BE81752
:103C2000F90708F055C0F0936608E0936508F901BC
:103C300071836083A0CF8D919C91119712966C90A7
:103C4000129713967C901397A815B90559F56C0136
:103C500042E0C40ED11CCA14DB0420F1AC014A19A5
:103C60005B09DA011296159780F0628273825183A4
:103C70004083D9016D937C93E114F10471F0D70175
:103C80001396FC93EE93129776CF22968C0F9D1F7E
:103C9000F90191838083F301EFCFF0936808E093FB
:103CA000670869CF4816590608F42C017D01D30135
:103CB0009ACFCB010E94891C7C01009749F0AE018C
:103CC000B8010E946B1EC8010E94251D870153CFB9
:103CD00010E000E050CFFB01DC0102C001900D922A
:103CE00041505040D8F70895FB01DC0101900D923E
:103CF0000020E1F7089510E0C2E6D0E004C0FE0124
:103D00000E946B1B2196C336D107C9F7F894FFCFE9
:103D100001000069088000000000006A049803C5E3
:103D200003B7042804D4031A040000000052082535
:103D300008BC0802080301120803080D0A006E619E
:103D40006E00696E66006F7666004661696C656438
:103D500020746F2066696E6420494E4132313920EB
:103D600063686970004D6F746F72732053746F7065
:0C3D70007065640053002C0052004B00F2
:00000001FF
